:1000000007C1000033C1000031C100002FC1000052
:100010002DC100002BC1000029C1000027C1000034
:1000200025C1000023C1000021C100001FC1000044
:100030001DC100001BC1000019C1000017C1000054
:1000400015C1000013C1000011C100000FC1000064
:100050000DC100000BC1000009C100002DC100004E
:1000600005C100004DC4000081C40000FFC00000B5
:10007000FDC00000FBC00000F9C00000F7C0000098
:10008000F5C00000F3C00000F1C00000EFC00000A8
:10009000EDC00000EBC00000E9C00000E7C00000B8
:1000A000E5C00000E3C00000E1C00000DFC00000C8
:1000B000DDC00000DBC00000D9C00000D7C00000D8
:1000C000D5C00000D3C00000D1C00000CFC00000E8
:1000D000CDC00000CBC00000C9C00000C7C00000F8
:1000E000C5C0000068026B025A025E026402A202EE
:1000F0006F02730279027D02810287028B028F02F6
:10010000A202950299029D0200000A0B02090C0D41
:100110000E080703040100000000000000000000BA
:1001200000000000000000000000000000000000CF
:10013000000000001211100000000000000000008C
:1001400000000000000000000000000000000102AC
:1001500010202008081020401020408002010201D9
:100160000804020101020408102040808040201091
:1001700008040201800402018040201008040201EA
:100180000804020101020408102040800102040852
:10019000102040800505050507050808080802022B
:1001A00002020A0A08080404040401010101010111
:1001B00001010303030303030303040707070C0CF4
:1001C0000C0C0C0C0C0C02020202060606060606BB
:1001D00006060B0B0B0B0B0B0B0B00002200250074
:1001E00028002B002E003100340002010000050120
:1001F00008010B0100002100240027002A002D0027
:100200003000330001010000040107010A01E80485
:1002100011241FBECFEFD1E2DEBFCDBF00E00CBF87
:1002200012E0A0E0B2E0E8E9FBE000E00BBF02C0B2
:1002300007900D92A032B107D9F722E0A0E2B2E018
:1002400001C01D92A63CB207E1F712E0C0E1D2E086
:1002500000E005C022970109FE010BBF97D4CE3004
:10026000D10780E00807B1F7F7D394C4C9CE26E0E0
:1002700040E855E260E070E089E292E0E1D261E0BE
:100280008DE061C160E072E089E292E046D461E015
:100290008DE092D164EF71E080E090E07AD067E089
:1002A00072E089E292E039D460E08DE085D164EFBC
:1002B00071E080E090E06DC01F920F920FB60F9238
:1002C00011242F933F938F939F93AF93BF9380916C
:1002D000210290912202A0912302B0912402309138
:1002E000200223E0230F2D3720F40196A11DB11D1C
:1002F00005C026E8230F0296A11DB11D2093200200
:100300008093210290932202A0932302B0932402AF
:100310008091250290912602A0912702B091280297
:100320000196A11DB11D8093250290932602A093F2
:100330002702B0932802BF91AF919F918F913F9177
:100340002F910F900FBE0F901F9018953FB7F89404
:100350008091250290912602A0912702B091280257
:1003600026B5A89B05C02F3F19F00196A11DB11D10
:100370003FBF6627782F892F9A2F620F711D811D2D
:10038000911D42E0660F771F881F991F4A95D1F78C
:100390000895CF92DF92EF92FF92CF93DF936B019C
:1003A0007C01D4DFEB01C114D104E104F10479F044
:1003B000C4D3CCDF6C1B7D0B683E7340A0F381E09F
:1003C000C81AD108E108F108C851DC4FECCFDF9121
:1003D000CF91FF90EF90DF90CF900895789484B5FF
:1003E000826084BD84B5816084BD85B5826085BD31
:1003F00085B5816085BDEEE6F0E080818160808317
:10040000E1E8F0E0108280818260808380818160F9
:100410008083E0E8F0E0808181608083E1EBF0E0C0
:10042000808184608083E0EBF0E080818160808364
:10043000E1E9F0E080818260808380818160808357
:10044000E0E9F0E0808181608083E1EAF0E0808192
:1004500082608083808181608083E0EAF0E0808137
:1004600081608083E1E2F1E080818260808380812D
:1004700081608083E0E2F1E0808181608083EAE74F
:10048000F0E08081846080838081826080838081CD
:10049000816080838081806880831092C10008958C
:1004A00090E0FC013197E231F10508F04BC0EE58C5
:1004B000FF4F66C3809180008F7703C080918000DA
:1004C0008F7D80938000089580918000877FF9CF91
:1004D00084B58F7702C084B58F7D84BD08958091E7
:1004E000B0008F7703C08091B0008F7D8093B00003
:1004F0000895809190008F7707C0809190008F7D44
:1005000003C080919000877F809390000895809130
:10051000A0008F7707C08091A0008F7D03C08091DD
:10052000A000877F8093A0000895809120018F779D
:1005300007C0809120018F7D03C080912001877FBB
:10054000809320010895CF93DF9390E0FC01E25B5C
:10055000FE4F2491FC01EC56FE4F8491882349F113
:1005600090E0880F991FFC01EC50FE4FA591B491CB
:1005700086529E4FFC01C591D4919FB7611108C06E
:10058000F8948C91209582238C93888182230AC0D1
:10059000623051F4F8948C91322F309583238C93F0
:1005A0008881822B888304C0F8948C91822B8C9351
:1005B0009FBFDF91CF9108950F931F93CF93DF9348
:1005C0001F92CDB7DEB7282F30E0F901E85FFE4F6C
:1005D0008491F901E25BFE4F1491F901EC56FE4F54
:1005E00004910023C1F0882319F0698359DF6981E0
:1005F000E02FF0E0EE0FFF1FE652FE4FA591B49101
:100600009FB7F8948C91611103C01095812301C0AC
:10061000812B8C939FBF0F90DF91CF911F910F91F2
:100620000895FC01818D228D90E0805C9F4F821B9C
:1006300091098F7399270895FC01918D828D9817E8
:1006400031F0828DE80FF11D858D90E008958FEFD8
:100650009FEF0895FC01918D828D981761F0828D36
:10066000DF01A80FB11D5D968C91928D9F5F9F73E6
:10067000928F90E008958FEF9FEF08958FED94E0B3
:10068000892B39F080E090E0892B19F098D1811105
:1006900025C080E090E0892B41F080E090E0892B3C
:1006A00021F00E94000081111CC080E090E0892BA5
:1006B00041F080E090E0892B21F00E940000811140
:1006C00013C080E090E0892BA1F080E090E0892BBE
:1006D00081F00E94000081110AC008950E9400006C
:1006E000D8CF0E940000E1CF0E940000EACF0C9416
:1006F00000000895FC01848DDF01A80FB11DA35AED
:10070000BF4F2C91848D90E001968F739927848F31
:10071000A689B7892C93A089B1898C9180648C9328
:10072000938D848D981306C00288F389E02D808113
:100730008F7D80830895CF93DF93EC01888D88238C
:10074000C1F0EA89FB89808185FD05C0A889B98946
:100750008C9186FD0EC00FB607FCF5CF808185FF1A
:10076000F2CFA889B9898C9185FFEDCFCE01C2DF88
:10077000E8CFDF91CF910895CF92DF92FF920F9350
:100780001F93CF93DF931F92CDB7DEB76C01DC01CF
:100790005B969C915B975C968C915C97981307C0D5
:1007A0005096ED91FC915197808185FD31C0F60105
:1007B000038D10E00F5F1F4F0F731127F02EF6010E
:1007C000848DF81210C00FB607FCF9CFD6015096F1
:1007D000ED91FC915197808185FFF1CFC60169832E
:1007E00089DF6981ECCF838DE80FF11DE35AFF4F5C
:1007F0006083D6015B960C935B975296ED91FC91CA
:10080000539780818062808381E058968C930DC0DD
:10081000D6015696ED91FC91579760835096ED91D5
:10082000FC91519780818064808381E090E00F90FB
:10083000DF91CF911F910F91FF90DF90CF9008959E
:10084000BF92CF92DF92EF92FF92CF93DF93EC01B2
:100850006A017B01B22EE889F98982E08083411523
:1008600081EE58076105710599F060E079E08DE34C
:1008700090E0A701960162D1215031094109510947
:100880005695479537952795211580E1380790F0C3
:10089000E889F989108260E874E88EE190E0A701A8
:1008A00096014CD12150310941095109569547957E
:1008B00037952795EC85FD853083EE85FF85208370
:1008C000188EEC89FD89B082EA89FB89808180617C
:1008D0008083EA89FB89808188608083EA89FB893B
:1008E000808180688083EA89FB8980818F7D808315
:1008F000DF91CF91FF90EF90DF90CF90BF90089560
:100900001F920F920FB60F9211240BB60F922F93D6
:100910008F939F93EF93FF93E0913902F0913A0206
:100920008081E0913F02F091400282FD12C09081EF
:10093000809142028F5F8F7320914302821751F0A2
:10094000E0914202F0E0E75DFD4F958F8093420217
:1009500001C08081FF91EF919F918F912F910F9016
:100960000BBE0F900FBE0F901F9018951F920F9205
:100970000FB60F9211240BB60F922F933F934F9304
:100980005F936F937F938F939F93AF93BF93EF93F7
:10099000FF9389E292E0AEDEFF91EF91BF91AF91BC
:1009A0009F918F917F916F915F914F913F912F9187
:1009B0000F900BBE0F900FBE0F901F90189589E2FD
:1009C00092E02FDE21E0892B09F420E0822F0895A8
:1009D00010922C0210922B0288EE93E0A0E0B0E07F
:1009E00080932D0290932E02A0932F02B093300299
:1009F00083E192E090932A028093290285EC90E0B3
:100A0000909336028093350284EC90E09093380204
:100A10008093370280EC90E090933A028093390201
:100A200081EC90E090933C0280933B0282EC90E05A
:100A300090933E0280933D0286EC90E090934002BA
:100A400080933F021092420210924302109244029D
:100A50001092450208950895C1DCFDDF08DCCEE365
:100A6000D3E010DC2097E9F309DEFBCFCF92DF92D1
:100A7000EF92FF920F931F93CF93DF936C017A0154
:100A8000EB01E60EF71E00E010E0CE15DF0561F089
:100A90006991D601ED91FC910190F081E02DC601A4
:100AA0001995080F191FF1CFC801DF91CF911F9140
:100AB0000F91FF90EF90DF90CF9008956115710531
:100AC00081F0DB010D900020E9F7AD0141505109A3
:100AD000461B570BDC01ED91FC910280F381E02D68
:100AE000199480E090E00895DC01ED91FC91019073
:100AF000F081E02D19940F931F93CF93DF93EC01B6
:100B00006DE0F2DF8C016AE0CE01EEDF800F911F15
:100B1000DF91CF911F910F9108950F931F93CF9362
:100B2000DF93EC01CBDF8C01CE01E5DF800F911F5D
:100B3000DF91CF911F910F9108950895A1E21A2E90
:100B4000AA1BBB1BFD010DC0AA1FBB1FEE1FFF1F71
:100B5000A217B307E407F50720F0A21BB30BE40BC1
:100B6000F50B661F771F881F991F1A9469F7609508
:100B70007095809590959B01AC01BD01CF010895C2
:100B8000EE0FFF1F0590F491E02D19940790F69158
:080B9000E02D1994F894FFCF49
:100B98004C6564206F6E004C6564206F66660000CB
:100BA800000000BC03360511032A031C039B030045
:00000001FF
