:100000000C9435000C945D000C945D000C945D0024
:100010000C945D000C945D000C945D000C945D00EC
:100020000C945D000C945D000C945D000C945D00DC
:100030000C945D000C945D000C945D000C945D00CC
:100040000C9480000C945D000C9495020C94C702F3
:100050000C945D000C945D000C945D000C945D00AC
:100060000C945D000C945D00F70211241FBECFEFCD
:10007000D8E0DEBFCDBF11E0A0E0B1E0E0ECF7E0FA
:1000800002C005900D92A234B107D9F721E0A2E495
:10009000B1E001C01D92A83EB207E1F710E0CAE648
:1000A000D0E004C02297FE010E94DA03C836D107CF
:1000B000C9F70E943B030C94DE030C94000026E079
:1000C00040E855E260E070E08BE491E00C9433028C
:1000D00060E071E08BE491E00E94A30368EE73E0BE
:1000E00080E090E00E94ED006EE071E08BE491E032
:1000F0000E94A30368EE73E080E090E00C94ED00B2
:100100001F920F920FB60F9211242F933F938F934C
:100110009F93AF93BF938091430190914401A0912D
:100120004501B09146013091420123E0230F2D3764
:1001300020F40196A11DB11D05C026E8230F0296EB
:10014000A11DB11D2093420180934301909344016E
:10015000A0934501B09346018091470190914801D9
:10016000A0914901B0914A010196A11DB11D809352
:10017000470190934801A0934901B0934A01BF9170
:10018000AF919F918F913F912F910F900FBE0F9044
:100190001F9018953FB7F8948091470190914801BE
:1001A000A0914901B0914A0126B5A89B05C02F3FF7
:1001B00019F00196A11DB11D3FBF6627782F892F29
:1001C0009A2F620F711D811D911D42E0660F771FEE
:1001D000881F991F4A95D1F70895CF92DF92EF9229
:1001E000FF92CF93DF936B017C010E94CA00EB0169
:1001F000C114D104E104F10489F00E94B5030E9406
:10020000CA006C1B7D0B683E734090F381E0C81AF6
:10021000D108E108F108C851DC4FEACFDF91CF9156
:10022000FF90EF90DF90CF900895789484B582602E
:1002300084BD84B5816084BD85B5826085BD85B58A
:10024000816085BDEEE6F0E0808181608083E1E839
:10025000F0E0108280818260808380818160808371
:10026000E0E8F0E0808181608083E1EBF0E0808174
:1002700084608083E0EBF0E0808181608083EAE746
:10028000F0E08081846080838081826080838081CF
:10029000816080838081806880831092C10008958E
:1002A000FC01818D228D90E0805C9F4F821B910923
:1002B0008F7399270895FC01918D828D981731F0E5
:1002C000828DE80FF11D858D90E008958FEF9FEFEF
:1002D0000895FC01918D828D981761F0828DDF0168
:1002E000A80FB11D5D968C91928D9F5F9F73928F29
:1002F00090E008958FEF9FEF08958DEE92E0892BA7
:1003000049F080E090E0892B29F00E94ED028111F4
:100310000C9400000895FC01848DDF01A80FB11D2D
:10032000A35ABF4F2C91848D90E001968F7399272B
:10033000848FA689B7892C93A089B1898C91806418
:100340008C93938D848D981306C00288F389E02DD9
:1003500080818F7D80830895CF93DF93EC01888D1A
:100360008823C9F0EA89FB89808185FD05C0A889B9
:10037000B9898C9186FD0FC00FB607FCF5CF80813F
:1003800085FFF2CFA889B9898C9185FFEDCFCE0189
:100390000E948B01E7CFDF91CF910895CF92DF923A
:1003A000FF920F931F93CF93DF931F92CDB7DEB7CA
:1003B0006C01DC015B969C915B975C968C915C97E1
:1003C000981307C05096ED91FC915197808185FD5F
:1003D00032C0F601038D10E00F5F1F4F0F7311271E
:1003E000F02EF601848DF81211C00FB607FCF9CF7C
:1003F000D6015096ED91FC915197808185FFF1CF08
:10040000C60169830E948B016981EBCF838DE80F60
:10041000F11DE35AFF4F6083D6015B960C935B9707
:100420005296ED91FC91539780818062808381E0A8
:1004300058968C930DC0D6015696ED91FC91579726
:1004400060835096ED91FC91519780818064808308
:1004500081E090E00F90DF91CF911F910F91FF907D
:10046000DF90CF900895BF92CF92DF92EF92FF92EC
:10047000CF93DF93EC016A017B01B22EE889F98901
:1004800082E08083411581EE580761057105A1F076
:1004900060E079E08DE390E0A70196010E94B60349
:1004A00021503109410951095695479537952795AE
:1004B000211580E1380798F0E889F989108260E811
:1004C00074E88EE190E0A70196010E94B6032150E6
:1004D0003109410951095695479537952795EC857E
:1004E000FD853083EE85FF852083188EEC89FD899C
:1004F000B082EA89FB89808180618083EA89FB89F7
:10050000808188608083EA89FB898081806880831C
:10051000EA89FB8980818F7D8083DF91CF91FF9075
:10052000EF90DF90CF90BF9008951F920F920FB67B
:100530000F9211242F938F939F93EF93FF93E0914A
:100540005B01F0915C018081E0916101F0916201B9
:1005500082FD12C09081809164018F5F8F73209122
:100560006501821751F0E0916401F0E0E55BFE4F18
:10057000958F8093640101C08081FF91EF919F91DD
:100580008F912F910F900FBE0F901F9018951F9273
:100590000F920FB60F9211242F933F934F935F93B7
:1005A0006F937F938F939F93AF93BF93EF93FF933B
:1005B0008BE491E00E948B01FF91EF91BF91AF918D
:1005C0009F918F917F916F915F914F913F912F916B
:1005D0000F900FBE0F901F9018958BE491E00E9432
:1005E000500121E0892B09F420E0822F0895109218
:1005F0004E0110924D0188EE93E0A0E0B0E08093B0
:100600004F0190935001A0935101B093520186E3A2
:1006100091E090934C0180934B0185EC90E0909396
:1006200058018093570184EC90E090935A01809395
:10063000590180EC90E090935C0180935B0181EC28
:1006400090E090935E0180935D0182EC90E0909346
:10065000600180935F0186EC90E09093620180934B
:10066000610110926401109265011092660110926E
:100670006701089508950E9415010E943A030E949F
:100680005F00CDE7D1E00E9468002097E1F30E946F
:100690007D01F9CFCF92DF92EF92FF920F931F93DC
:1006A000CF93DF936C017A01EB01E60EF71E00E0B9
:1006B00010E0CE15DF0561F06991D601ED91FC9156
:1006C0000190F081E02DC6010995080F191FF1CFA7
:1006D000C801DF91CF911F910F91FF90EF90DF90B4
:1006E000CF9008956115710581F0DB010D90002018
:1006F000E9F7AD0141505109461B570BDC01ED9163
:10070000FC910280F381E02D099480E090E008954F
:10071000DC01ED91FC910190F081E02D09940F93A3
:100720001F93CF93DF93EC016DE00E9488038C014F
:100730006AE0CE010E948803800F911FDF91CF9164
:100740001F910F9108950F931F93CF93DF93EC01A7
:100750000E9472038C01CE010E948F03800F911FB3
:10076000DF91CF911F910F9108950895A1E21A2E64
:10077000AA1BBB1BFD010DC0AA1FBB1FEE1FFF1F45
:10078000A217B307E407F50720F0A21BB30BE40B95
:10079000F50B661F771F881F991F1A9469F76095DC
:1007A0007095809590959B01AC01BD01CF01089596
:1007B000EE0FFF1F0590F491E02D0994F894FFCF00
:1007C00048656C6C6F2C20576F726C642100546804
:1007D00069732069732061206D657373616765209B
:1007E00066726F6D2041726475696E6F204E616E26
:1007F0006F0000000000CE014A03500169015B0157
:02080000AC0149
:00000001FF
