:1000000024C1000053C1000051C100004FC10000D5
:100010004DC100004BC1000049C1000047C10000B4
:1000200045C1000043C1000041C100003FC10000C4
:100030003DC100003BC1000039C1000037C10000D4
:1000400035C1000033C1000031C100002FC10000E4
:100050002DC100002BC1000029C100000C94521DCD
:1000600025C100000C94A7200C94DD201FC10000C6
:100070001DC100001BC1000019C1000017C1000014
:1000800015C1000013C1000011C100000FC1000024
:100090000DC100000BC1000009C1000007C1000034
:1000A00005C1000003C1000001C10000FFC0000045
:1000B000FDC00000FBC00000F9C00000F7C0000058
:1000C000F5C00000F3C00000F1C00000EFC0000068
:1000D000EDC00000EBC00000E9C00000E7C0000078
:1000E000E5C000008F1E921E811E851E8B1EC91E3C
:1000F000961E9A1EA01EA41EA81EAE1EB21EB61EDE
:10010000C91EBC1EC01EC41E6D6573736167654247
:100110007566663A005D20004D6573736167652002
:1001200061727269766564205B0000000A0B020947
:100130000C0D0E0807030401000000000000000081
:1001400000000000000000000000000000000000AF
:10015000000000000000121110000000000000006C
:10016000000000000000000000000000000000008F
:1001700001021020200808102040102040800201B9
:10018000020108040201010204081020408080409E
:10019000201008040201800402018040201008049D
:1001A000020108040201010204081020408001023B
:1001B0000408102040800505050507050808080803
:1001C000020202020A0A08080404040401010101EF
:1001D00001010101030303030303030304070707EA
:1001E0000C0C0C0C0C0C0C0C02020202060606068F
:1001F000060606060B0B0B0B0B0B0B0B000022006D
:10020000250028002B002E003100340002010000E0
:10021000050108010B0100002100240027002A002D
:100220002D003000330001010000040107010A0124
:100230005701D901F9035204D907AC09B7097E0B5C
:1002400030165A1C0F21BA21241D11241FBECFEFD6
:10025000D1E2DEBFCDBF00E00CBF13E0A0E0B2E012
:10026000E2E7F0E500E00BBF02C007900D92A03A74
:10027000B107D9F72FE0A0EAB3E001C01D92A73281
:10028000B207E1F712E0C8E4D2E000E006C022972E
:100290000109FE010BBF0E946425C033D10780E035
:1002A0000807A9F70E94CA210C942828A9CE109209
:1002B000A1031092A0031092A3031092A203089529
:1002C000DB01109749F0ED91FC9111970190F081BD
:1002D000E02DBC01CD01199480E090E00895CF930A
:1002E000DF93EC01BC0184E090E0EADFFC010097C1
:1002F00029F0D183C0831382128202C080EA93E086
:10030000DF91CF910895CF93DF93EC01BC0184E09E
:1003100090E0D6DFFC01009729F0D183C0831382DF
:10032000128202C084EA93E0DF91CF910895CF93C7
:10033000DF93CDB7DEB727970FB6F894DEBF0FBEB9
:10034000CDBF9A8389836115710519F488E793E01D
:1003500001C0CB019C838B837E836D834F83CE0151
:100360000196F7D027960FB6F894DEBF0FBECDBF2B
:10037000DF91CF9108950F931F93CF93DF938B015C
:10038000FC01C281D381209759F0B8018A819B81F9
:100390000E94AD27892B39F00990D881C02DF3CF69
:1003A00080E090E001C0CE01DF91CF911F910F91CD
:1003B00008951092A5031092A4031092A70310921F
:1003C000A60308950F931F93CF93DF93EC01088149
:1003D00019810130110559F46A817B81611571051C
:1003E00031F08AE292E00E94AD27892B41F0015062
:1003F00011090230110518F48A819B8102C080E046
:1004000090E0DF91CF911F910F910895FC01208121
:100410002D3051F024F42950223030F505C020321F
:1004200019F02F3219F008950196F0CFFC012181C7
:100430002A3219F02F3279F008950296FC012081BA
:10044000222321F32A3229F421812F3211F402963A
:10045000DDCF0196F3CFFC013296CF01219122230B
:10046000A9F22A30D1F7D2CF08950F931F93CF93DB
:10047000DF931F92CDB7DEB78C01FC01828193819F
:100480006983C4DFFC0120816981261307C00196BE
:10049000BDDFF8019383828381E001C080E00F908B
:1004A000DF91CF911F910F910895CF93DF93EC01CE
:1004B000AA81BB814C813D812C91273219F4C42F34
:1004C000D32F15C02232D9F3C42FD32FFD012AC058
:1004D0003C3559F4FD01329612963C91AEE4B2E0FF
:1004E0006C91611110C0332339F13993DF01AE01F2
:1004F000FD01319611963C9111973323E9F03213A7
:10050000E7CF319619C0631303C011963C91EBCF2E
:100510001296E6CF322F3F7D31543A3148F4299379
:1005200031962081AE0130ED320F3A30C0F3F2CF78
:1005300033ED320F323098F3DA011D92EC012C8149
:100540003D81FB83EA83BD83AC83C901DF91CF91F9
:100550000895BF92CF92DF92EF92FF920F931F9375
:10056000CF93DF9300D000D0CDB7DEB78C01FC0174
:1005700080819181C8DE6C016BE7C80176DF88233A
:1005800009F43CC06DE7C80170DF811135C086E019
:10059000B82EC8018ADF7C01009781F16AE3C801A7
:1005A00064DF882359F11A821982BE016F5F7F4F81
:1005B000C80136D0882311F1B701C601DCDE0097EF
:1005C00039F4C601D2D00097C9F0FC01F382E2826F
:1005D000FE013196DC0114968B2D01900D928A95C7
:1005E000E1F76DE7C80141DF811106C06CE2C80187
:1005F0003CDF8111CECF02C0C60102C084EA93E085
:1006000026960FB6F894DEBF0FBECDBFDF91CF9117
:100610001F910F91FF90EF90DF90CF90BF900895C2
:10062000FF920F931F93CF93DF93EC018B018E8189
:10063000882309F443C081508E838A819B81E6DE42
:100640009B838A83FC0180818B3519F08B3759F0AD
:100650001AC0CE013AD0FC0120813181232B49F10F
:1006600026E030E009C0CE0174DFFC012081318139
:10067000232BF9F027E030E0F801318320839383C6
:10068000828381E017C0873231F091E0823209F035
:1006900090E0F92E02C0FF24F394CE0106DF00970C
:1006A00041F0FF2019F022E030E0E6CF21E030E019
:1006B000E3CF80E09E819F5F9E8301C080E0DF9159
:1006C000CF911F910F91FF900895DF92EF92FF92CB
:1006D0000F931F93CF93DF9300D000D0CDB7DEB739
:1006E0008C01FC0180819181FADD7C016BE5C80100
:1006F000BCDE882351F16DE5C801B7DE811123C04E
:1007000096E0D92E1A821982BE016F5F7F4FC80111
:1007100087DF8823D1F0C7014AD00097B1F0FE01EE
:100720003196DC0112968D2D01900D928A95E1F79C
:100730006DE5C8019ADE811106C06CE2C80195DE44
:100740008111E0CF02C0C70102C080EA93E0269683
:100750000FB6F894DEBF0FBECDBFDF91CF911F91D2
:100760000F91FF90EF90DF900895CF93DF93EC010E
:10077000688179818AE090E0A3DD009729F0FC018F
:100780001182108215821482EA81FB81309751F028
:10079000208131812115310511F0F901F9CF9183C3
:1007A000808302C09B838A83DF91CF910895CF938A
:1007B000DF93EC016881798188E090E081DD00972A
:1007C00029F0FC011182108213821282EA81FB81DE
:1007D000309751F0208131812115310511F0F90157
:1007E000F9CF9183808302C09B838A83DF91CF916D
:1007F00008950F9300E020E040E060E088EA93E095
:100800000E9493210F910895FB01428153816481DD
:100810007581FC014283538364837583178216823A
:100820000895CF93FB0181918111FDCFFB0180E001
:1008300090E020E030E0CAE06191662309F12430C5
:10084000310564F56E3271F48F3F910509F034F58E
:10085000DA01A20FB31F12968C932F5F3F4F80E0F7
:1008600090E0EACFDC01CA9FC001CB9F900D11241C
:10087000772767FD709560537109860F971FDCCF4E
:100880008F3F910509F054F4243031053CF4FA010E
:10089000E20FF31F828381E090E002C080E090E0ED
:1008A000CF9108950F9300E020E040E060E08EEAF1
:1008B00093E00E9493210F910895AF92BF92CF923F
:1008C000DF92EF92FF920F931F93CF93DF9300D0AD
:1008D000CDB7DEB76C017B010E949C1DF6017783CA
:1008E00066838601085F1F4FB6016A5F7F4F42E053
:1008F00050E0C801ACD581E090E09A83898342E062
:1009000050E0BE016F5F7F4FC801A1D580E091E04C
:100910009A83898342E050E0BE016F5F7F4FC80138
:1009200096D51A82198242E050E0BE016F5F7F4F78
:10093000C8018DD542E050E0BE016F5F7F4FC80116
:1009400086D542E050E0BE016F5F7F4FC8017FD582
:100950006701F6018081882301F1F7016F01819120
:10096000811113C05601AE18BF081A141B0484F479
:10097000AB8241E050E0BE016D5F7F4FC80167D59B
:10098000A501B701C80163D503C08E3239F7EACF9C
:100990007601FFEFEF1AFF0ADCCF1B8241E050E047
:1009A000BE016D5F7F4FC80152D5E12CFF24F39447
:1009B000FA82E98242E050E0BE016F5F7F4FC801DA
:1009C00046D5FA82E98242E050E0BE016F5F7F4F78
:1009D000C8013DD581E090E00F900F900F90DF911E
:1009E000CF911F910F91FF90EF90DF90CF90BF902C
:1009F000AF9008954F925F926F927F928F929F92E5
:100A0000AF92BF92CF92DF92EF92FF920F931F931C
:100A1000CF93DF93CDB7DEB763970FB6F894DEBF01
:100A20000FBECDBF7C015B016A010E949C1D2B01A2
:100A30003C018701085F1F4F4501A12CB12CC80163
:100A4000A0D51816190694F00E949C1D641975090A
:100A50008609970986169706A806B906D0F062E3BC
:100A600070E080E090E00E94CB1DE9CFF701428169
:100A7000538164817581818D928DA38DB48D4817CA
:100A800059076A077B0741F4858D968DC59721F438
:100A900006C08FEF9FEFE0C08EEF9FEFDDC0C80173
:100AA0008CD40C970CF4D6C04CE050E0BE016F5FC4
:100AB0007F4FC80107D58B819C819827892798276C
:100AC0009A8B898BF7014681578129813A81421798
:100AD000530711F497FD05C0C80189D48CEF9FEF2F
:100AE000BBC08F709270892B29F0C80180D48BEF26
:100AF0009FEFB2C0AF80B884BA24AB24BA24A1144B
:100B0000B10419F0E12CF12C1DC0C80170D48AEF9A
:100B10009FEFA2C041E050E0BE01635F7F4FC8017C
:100B2000D1D48D85811117C08D858111F3CFC80176
:100B3000A1D4C8019FD4C8019DD4C8019BD4FFEFA4
:100B4000EF1AFF0A8D819E81982789279827E8163A
:100B5000F90600F309C08D859FEF980F9D878823C4
:100B600019F3C80187D4F7CFE12CF12C41E050E014
:100B7000BE016D5E7F4FC801A5D48B89982F907CF4
:100B800059F4882361F08B899FEF980F9B8B882302
:100B900031F0C8016FD4F7CFC8016CD41B8A8B89A0
:100BA0008111E4CF42E050E0BE01615F7F4FC80198
:100BB00089D442E050E0BE01635F7F4FC80182D418
:100BC000C80158D4C80156D4C80154D4C80152D45D
:100BD00042E050E0BE016F5E7F4FC80173D48F8545
:100BE00098898115914029F48D859E8581159140C4
:100BF00019F0812C912C14C089899A89811594400F
:100C000029F0C801F4D387EF9FEF26C0B6016E5FCD
:100C10007F4F44E050E0C80155D481E090E01CC013
:100C200089899A899827892798278816990630F400
:100C3000C80120D42FEF821A920AF2CF8FEFE81A60
:100C4000F80AEA14FB0409F091CFC801D0D386EF6B
:100C50009FEF02C08DEF9FEF63960FB6F894DEBF53
:100C60000FBECDBFDF91CF911F910F91FF90EF90FD
:100C7000DF90CF90BF90AF909F908F907F906F90BC
:100C80005F904F9008958F929F92AF92BF92CF92B4
:100C9000DF92EF92FF920F931F93CF93DF9300D0D9
:100CA00000D0CDB7DEB78C015B016A01BADD4C0123
:100CB000009709F057C0F801428153816481758122
:100CC0008091B0039091B103A091B203B091B303AE
:100CD000481759076A077B0709F448C00E949C1D02
:100CE0007801F8E0EF0EF11C6F7077277C5FC70189
:100CF0001DD4813009F03EC08DE993E09A83898349
:100D0000F80182819381A481B5818B839C83AD831B
:100D1000BE8345E350E0BE016F5F7F4FC7018DD3B7
:100D2000892B19F4812C912C1AC0B501C801C5DD9D
:100D3000892BC1F3C70188D3892BA1F333E0A32EFC
:100D4000B12CA60168E873E1C80154DE4C01F1E062
:100D5000AF1AB10821F08F3F2FEF920791F3C7012F
:100D600058D308C088248394912C04C09EEF892E08
:100D700099249A94C40126960FB6F894DEBF0FBE4C
:100D8000CDBFDF91CF911F910F91FF90EF90DF903A
:100D9000CF90BF90AF909F908F9008952091F603D1
:100DA000222399F03FB7F8942091F603213059F4AB
:100DB0002DB32093F4034DB32091F5032095242304
:100DC0002DBB3FBF02C03093F4038CBD9DBD089581
:100DD0008091F603882361F09FB7F8942091F60381
:100DE0008091F403213019F48DBB9FBF08958FBF0C
:100DF000089544E050E0BC0181E090E00C94960F2F
:100E000044E050E0BC0185E090E00C94960F44E093
:100E100050E0BC018FE090E00C94960F8F929F926F
:100E2000AF92BF92CF92DF92EF92FF920F931F93F8
:100E3000CF93DF931F921F92CDB7DEB74C016A01AB
:100E400059018EED93E069837A830E94320F80E529
:100E500090E0A4DF46E050E069817A8189E090E08B
:100E60000E94960FC6010296D2DFC8010296C1DF2A
:100E7000C7010296C5DFACDFF50142815381648171
:100E80007581F40142835383648375830F900F90BF
:100E9000DF91CF911F910F91FF90EF90DF90CF9056
:100EA000BF90AF909F908F9008956F927F928F9296
:100EB0009F92AF92BF92CF92DF92EF92FF920F93E9
:100EC0001F93CF93DF93CDB7DEB76E970FB6F8942D
:100ED000DEBF0FBECDBF6C015B017A014901380155
:100EE00000E02FEF4FEF6FEFCE0149960E94932164
:100EF0002DE933E03A8329838B8D9C8DAD8DBE8D9A
:100F00008B839C83AD83BE8338872F83F3018281DB
:100F10009381A481B58189879A87AB87BC873E87F7
:100F20002D87F40182819381A481B5818F87988B6D
:100F3000A98BBA8B3C8B2B8BF70142815381648147
:100F400075814D8B5E8B6F8B788FCE0101967C0106
:100F50008E01095F1F4F9E01235F3F4FAE014D5E23
:100F60005F4FB501C6015ADF6E960FB6F894DEBF2B
:100F70000FBECDBFDF91CF911F910F91FF90EF90EA
:100F8000DF90CF90BF90AF909F908F907F906F90A9
:100F900008952DE933E0FC0131832083FB01428178
:100FA000538164817581FC0142835383648375831B
:100FB00008950F9300E020E040E060E084EC93E0CF
:100FC0000E94932184EB93E00F910C94892181E09E
:100FD00086270895862F0895DC01ED91FC91048CFD
:100FE000F58DE02D199591E089270895CF93DF9332
:100FF0001F92CDB7DEB76983DC01ED91FC910280D1
:10100000F381E02D41E050E0BE016F5F7F4F199505
:101010000F90DF91CF91089521E0FC018485843009
:1010200009F420E0822F0895FC019485FB0184855A
:10103000981303C081E0943009F480E008950F9381
:101040001F93CF93DF93EC018A018C85843019F0D4
:10105000E0D4892B39F481E090E09B838A8380E09F
:1010600090E001C0C801DF91CF911F910F910895C9
:10107000FC018485843009F0AAC580E090E00895E1
:10108000CF93DF931F92CDB7DEB741E050E0BE01B2
:101090006F5F7F4FFC01848540D5181619061CF43C
:1010A000898190E002C08FEF9FEF0F90DF91CF9189
:1010B0000895FC01848531C50F931F93CF93DF936F
:1010C0001F92CDB7DEB78C01DC01ED91FC9104805D
:1010D000F581E02D1995892B49F0BE016F5F7F4F97
:1010E000F80184859BD5898190E002C08FEF9FEF46
:1010F0000F90DF91CF911F910F910895FC0184858E
:10110000B9C5CF92DF92EF92FF920F931F93CF93C7
:10111000DF93CDB7DEB7AF970FB6F894DEBF0FBE43
:10112000CDBF7C018B016A01CE0101960E9489210D
:10113000CE01099674D2CE018A960E94892164EB71
:1011400073E0CE01849625DFBE016C5D7F4FCE013A
:1011500001965ADBAE01465D5F4FB801CE010196A4
:1011600092DD81309105C1F4D701ED91FC910484A9
:10117000F585E02D8DE993E09DA38CA30CA51DA51D
:101180002EA53FA50EA31FA328A739A7A601BE0120
:101190006C5D7F4FC7011995AF960FB6F894DEBF0F
:1011A0000FBECDBFDF91CF911F910F91FF90EF90B8
:1011B000DF90CF900895FC011382128248EE53E035
:1011C00060E070E044835583668377838DE592E029
:1011D0009183808384E084870895FC018485843032
:1011E00009F00AC380E00895DF92EF92FF920F9317
:1011F0001F93CF93DF93EC017B018A018C858430B0
:1012000009F040C0D12C8D2DF7D2811102C0DC86AF
:1012100007C08B7F8831D9F3D39484E0D812F3CF01
:101220008C85843079F120910A0230910B022F5F76
:101230003F4F11F420E030EC30930B0220930A0270
:1012400040910A0250910B0220E061E01ED3B701E9
:101250006E5F7F4FA8018C8566D3811103C084E047
:101260008C8710C0CE01B9DF873149F061E070E0B2
:1012700080E090E00E94CB1DCE01AFDFEECF81E099
:1012800090E002C080E090E0DF91CF911F910F913C
:10129000FF90EF90DF900895CF92DF92EF92FF9250
:1012A000CF93DF93EC018C85843061F18FD30E9462
:1012B0009C1D6B017C01CE0190DF882359F00E94B8
:1012C0009C1D6C197D098E099F09683E734081053C
:1012D000910588F0CE0181DF882311F08C85AFD293
:1012E000EC85F0E0EE0FFF1FE454FC4F11821082FA
:1012F00084E08C8707C061E070E080E090E00E94AD
:10130000CB1DD9CFDF91CF91FF90EF90DF90CF90A1
:101310000895CF93DF93EC018C858430C9F0CE0122
:101320005CDF8431A9F0882399F0883189F08C3111
:1013300069F4E881F9810480F581E02DCE011995E9
:1013400021E0892B09F420E0822F03C081E001C055
:1013500080E0DF91CF9108950F9300E020E040E01E
:1013600060E08AEC93E00E9493210F9108950F931F
:1013700000E020E040E060E080ED93E00E949321F7
:101380000F910895DC01ED91FC91008CF18DE02D21
:1013900019942DE933E0FC0131832083FB0141895D
:1013A000528963897489FC01428353836483758302
:1013B0000895FC01858996890895FC01818D928D9F
:1013C0000895CF93DF931F92CDB7DEB76983DC0119
:1013D000ED91FC910280F381E02D41E050E0BE01EF
:1013E0006F5F7F4F19950F90DF91CF910895CF9345
:1013F000DF93EC01898D9A8D892B41F0E881F98189
:101400000680F781E02DCE011995F4CFDF91CF91C1
:101410000895CF93DF93EC018C85843059F00FD27F
:10142000EC85F0E0EE0FFF1FE454FC4F11821082B8
:1014300084E08C87DF91CF910895FC01108E178A8C
:101440006E5F7F4F848559C4FC01848598C4CF9317
:10145000DF93EC019A018F89988DAB01BC018C85DB
:101460000AD42F89388D280F391F388F2F8BDF91A1
:10147000CF9108950F931F93CF93DF931F92CDB712
:10148000DEB78C01FC01818D928D892B51F041E0FA
:1014900050E0BE016F5F7F4F84853FD31816190659
:1014A0001CF08FEF9FEF08C0F801818D928D01979E
:1014B000928F818F898190E00F90DF91CF911F9162
:1014C0000F910895CF93DF93EC01898D9A8D00974A
:1014D00019F48FEF9FEF0FC04817590708F0AC01C0
:1014E0008C851BD318161906A4F7298D3A8D281B55
:1014F000390B3A8F298FDF91CF910895CF93DF93E6
:101500001F92CDB7DEB7FC01218D328D232B41F028
:10151000BE016F5F7F4F848581D3898190E002C0D7
:101520008FEF9FEF0F90DF91CF910895FF920F9370
:101530001F93CF93DF93EC018B018C858430D1F422
:10154000F12C8F2D59D1811102C0FC8606C0883143
:10155000E1F3F39484E0F812F4CF8C85843051F0F9
:101560001E870D871A8E198E20E0A80162E08DD1AA
:1015700081E001C080E0DF91CF911F910F91FF903A
:1015800008950F931F93CF93DF93CDB7DEB72897BE
:101590000FB6F894DEBF0FBECDBF8C01DC01ED911C
:1015A000FC910284F385E02D1995F80184850FD311
:1015B000181619063CF548E050E0BE016F5F7F4FFA
:1015C000D8011C968C91A9D218161906ECF4BE010C
:1015D0006F5F7F4FC8010F960E94AF218D8190E011
:1015E000982F88272E81820F911DF801968B858B6D
:1015F0008F8190E0982F88272885820F911D928FE8
:10160000818F02C080E090E028960FB6F894DEBF8C
:101610000FBECDBFDF91CF911F910F910895FC01B7
:101620001382128248EE53E060E070E044835583F9
:101630006683778381E892E09183808384E0848766
:10164000CF010F960C948921CF92DF92EF92FF92F7
:101650000F931F93CF93DF93CDB7DEB7AF970FB63E
:10166000F894DEBF0FBECDBF7C018B016A01CE01B5
:1016700001960E948921CE010996D1DFCE018A967A
:101680000E94892164EB73E0CE01849682DCBE0166
:101690006C5D7F4FCE010196B7D8AE01465D5F4FBE
:1016A000B801CE010196EFDA81309105C1F4D7017E
:1016B000ED91FC910088F189E02D8DE993E09DA3E7
:1016C0008CA30CA51DA52EA53FA50EA31FA328A77F
:1016D00039A7A601BE016C5D7F4FC7011995AF9672
:1016E0000FB6F894DEBF0FBECDBFDF91CF911F9133
:1016F0000F91FF90EF90DF90CF9008950F9300E04F
:1017000020E040E060E086ED93E00E9493210F919D
:101710000895CF92DF92EF92FF920F9330E0C12CA9
:10172000F2E1DF2EFAE7EF2EF12C4C155D056E0588
:101730007F0540F4F694E794D794C7943F5F363022
:10174000A1F737E041E04327211102C050E701C073
:1017500050E5242F30E03595279523700C70202B11
:10176000252BFC012083417041830F91FF90EF9066
:10177000DF90CF90089590E0982F882744E050E0C4
:10178000845F9B4FD3C3282F30E02C5F3F4F922FB5
:101790008827860F971FF3C362E070E0F4CFFB0148
:1017A000282F30E02C5F3F4F922F8827642F8E0F19
:1017B0009F1F3BC3CF93DF93C82FD62F472F64E0E3
:1017C00070E0EDDF4D2F65E070E08C2FDF91CF9161
:1017D000E6CF462F62E070E0E2CFCF93DF93C82FD1
:1017E000D62F472F60E170E0DADF4D2F61E170E026
:1017F0008C2FDF91CF91D3CF0F931F93CF93DF9394
:1018000000D0CDB7DEB7182F00E021E040E059E06E
:101810006DE370E0CE0101967CDF89819A81BEDAAA
:1018200063E070E0812FAFDF8B83D2DA8B810F9082
:101830000F900F90DF91CF911F910F9108950F930B
:101840001F93CF93DF931F921F92CDB7DEB7182F50
:1018500000E021E040E059E06DE370E0CE01019648
:1018600058DF89819A819ADA40E150E0612F8EED4C
:1018700093E02ED56FEF812FACDFAADA0F900F9097
:10188000DF91CF911F910F910895CF92DF92EF9248
:10189000FF920F931F93CF93DF931F921F92CDB7A9
:1018A000DEB7182FD62E7A01C22E8FEF860F853025
:1018B00070F5812FC4DF00E021E040E059E06DE3E6
:1018C00070E0CE01019625DF89819A8167DA4D2D7E
:1018D0004C2960E070E0812F62DFE114F10411F027
:1018E000B7010AC06091DC037091DD036F5F7F4F29
:1018F0007093DD036093DC03812F5CDF41E050E0F7
:10190000612F8EED93E0E4D463DA81E001C080E0E2
:101910000F900F90DF91CF911F910F91FF90EF905B
:10192000DF90CF900895CF92DF92EF92FF920F93C6
:101930001F93CF93DF931F921F92CDB7DEB7182F5F
:101940007B016A01FB0180818F3F51F481818F3FD0
:1019500099F482818F3F81F483818F3F69F42AC09B
:1019600081110AC0FB018181811106C08281811130
:1019700003C083818823F1F0C114D104D9F000E0C1
:1019800021E040E059E06DE370E0CE010196C1DE58
:1019900089819A8103DAB701812FEDDEB601812FAB
:1019A0001CDF44E050E0612F8EED93E091D410DA1B
:1019B00081E001C080E00F900F90DF91CF911F91E7
:1019C0000F91FF90EF90DF90CF9008950F931F93AA
:1019D000CF93DF931F921F92CDB7DEB7182F00E091
:1019E00021E040E059E06DE370E0CE01019691DE28
:1019F00089819A81D3D948E050E0612F8EED93E040
:101A000067D4E6D90F900F90DF91CF911F910F917E
:101A10000895BF92CF92DF92EF92FF920F931F93A0
:101A2000CF93DF9300D0CDB7DEB7B82E6B017A012C
:101A3000413088E0580718F0E12C98E0F92E00E0DA
:101A400021E040E059E06DE370E0CE01019661DEF7
:101A500089819A81A3D96B2D8EED93E0C0D28C0140
:101A600063E070E08B2D8FDE8B83B2D98B81873161
:101A700011F08C3131F40E94511D0E151F05F8F242
:101A800002C0E12CF12C00E021E040E059E06DE3E0
:101A900070E0CE0101963DDE89819A817FD9970160
:101AA000A6016B2D8EED93E04DD340E250E06B2DFF
:101AB0008EED93E00DD48B2D6FDE84FD1CC063E0B2
:101AC00070E08B2D60DE811106C082D98B2DB7DED0
:101AD00080E090E015C07CD90E94511D00E021E01B
:101AE00040E059E06DE370E0CE01019612DE89819D
:101AF0009A8154D9E0CF60E18B2D6BDE69D9C701A3
:101B00000F900F900F90DF91CF911F910F91FF9049
:101B1000EF90DF90CF90BF900895AF92BF92CF9299
:101B2000DF92EF92FF920F931F93CF93DF931F9259
:101B30001F92CDB7DEB7182F5B016A0100E021E0EC
:101B400040E059E06DE370E0CE010196E2DD89816D
:101B50009A8124D9612F8EED93E071D27C01009798
:101B600099F463E070E0812F0EDE843109F188235F
:101B7000F9F021E030E08C3111F420E030E0EE2487
:101B8000FF24E21AF30A14C0C816D9060CF4760131
:101B90001E141F046CF400E09701A501612F8EED67
:101BA00093E04BD340E450E0612F8EED93E090D36F
:101BB0000FD9C7010F900F90DF91CF911F910F9117
:101BC000FF90EF90DF90CF90BF90AF9008950F936C
:101BD0001F93CF93DF9300D01F92CDB7DEB7182F9E
:101BE00000E021E040E059E06DE370E0CE010196B5
:101BF00090DD89819A81D2D8612F8EED93E01FD23A
:101C00008B839C83E5D88B819C810F900F900F90E4
:101C10000F90DF91CF911F910F910895EF92FF9256
:101C20000F931F93CF93DF931F921F92CDB7DEB711
:101C3000182F7B0100E021E040E059E06DE370E007
:101C4000CE01019666DD89819A81A8D801E021E064
:101C500030E0A701612F8EED93E0EFD2B9D881E09B
:101C600090E00F900F90DF91CF911F910F91FF9017
:101C7000EF90089508959F92AF92BF92CF92DF9216
:101C8000EF92FF920F931F93CF93DF931F921F92B8
:101C9000CDB7DEB7982E6B015A01790100E021E043
:101CA00040E059E06DE370E0CE01019632DD8981BC
:101CB0009A8174D8692D8EED93E091D18E159F0590
:101CC00028F4692D8EED93E08AD17C01870195017E
:101CD000A601692D8EED93E0CCD17AD8C7010F9083
:101CE0000F90DF91CF911F910F91FF90EF90DF90B8
:101CF000CF90BF90AF909F900895CF92DF92EF92D8
:101D0000FF920F931F93CF93DF931F921F92CDB734
:101D1000DEB7182F7B016A01FB018081811109C0A8
:101D20008181811106C08281811103C08381882352
:101D3000C9F0C114D104B1F000E021E040E059E065
:101D40006DE370E0CE010196E4DC89819A8126D8AA
:101D5000B701812F10DDB601812F3FDD39D881E039
:101D600090E002C080E090E00F900F90DF91CF9163
:101D70001F910F91FF90EF90DF90CF9008950F93F8
:101D80001F93CF93DF931F921F92CDB7DEB7182F0B
:101D900000E021E040E059E06DE370E0CE01019603
:101DA000B8DC89819A810E94CE0640E250E0612F22
:101DB0008EED93E08DD2812FEFDC84FD1DC0812F4D
:101DC000EBDC83FF07C068E1812F03DD01D880E0F1
:101DD00090E019C00E94E8060E94511D00E021E039
:101DE00040E059E06DE370E0CE01019692DC89811C
:101DF0009A810E94CE06DFCF60E1812FEADC0E944B
:101E0000E80681E090E00F900F90DF91CF911F9155
:101E10000F9108958EBD00000DB407FEFDCF8EB565
:101E200008952C9808952C9A08951F93CF93DF93CB
:101E30001F921F92CDB7DEB7182F6A839983F1DF07
:101E400080EFE8DF9981892FE5DF812FE3DF6A8169
:101E5000862FE0DFE8DF81E00F900F90DF91CF91D8
:101E60001F910895CF93DF93EC016CE271E080E065
:101E700090E00E94CB1DFFD6249A8091F603882320
:101E800099F09FB7F8948091F603813059F48DB39F
:101E90008093F4032DB38091F503809582238DBB4D
:101EA0009FBF02C09093F40380E58CBD1DBC60E829
:101EB00080E090E0BADF65E58BE190E0B6DF65E5B4
:101EC0008AE190E0B2DF8091F603882361F09FB74A
:101ED000F8942091F6038091F403213019F48DBB1E
:101EE0009FBF01C08FBF80E090E49983888380E02A
:101EF00090E69987888780E098E49B838A8380E0D6
:101F000098E69B878A8780E090E59D838C8380E0BC
:101F100090E79D878C8780E098E59F838E8380E0A3
:101F200098E79F878E87DF91CF910895CF92DF92B8
:101F3000EF92FF920F931F93CF93DF93EC017A01FF
:101F40008B016C01C40ED51ECC15DD0571F069DF67
:101F500080EF60DF8D2F5EDF8C2F5CDF2196F80134
:101F600081918F0157DF5FDFEFCFC701DF91CF9105
:101F70001F910F91FF90EF90DF90CF9008951F93E6
:101F8000CF93DF931F92CDB7DEB7182F998349DF28
:101F90008FE040DF9981892F3DDF812F3BDF80E09B
:101FA00039DF898340DF89810F90DF91CF911F91C5
:101FB00008951F93CF93DF93182F60E270E0E3DB67
:101FC000C82FD0E061E270E0812FDDDBDC2FCC2771
:101FD0009E01282BC901DF91CF911F910895FF9297
:101FE0000F931F93CF93DF93F62EC0E0D0E08F2D99
:101FF000E0DF8C01009719F08F2DDBDFEC01C017BB
:10200000D107A9F7CE01DF91CF911F910F91FF90DA
:1020100008951F93CF93DF93182F66E270E0B3DB30
:10202000C82FD0E067E270E0812FADDBDC2FCC273A
:102030009E01282BC901DF91CF911F910895FF9236
:102040000F931F93CF93DF93F62EC0E0D0E08F2D38
:10205000E0DF8C01009719F08F2DDBDFEC01C0175A
:10206000D107A9F7CE01DF91CF911F910F91FF907A
:1020700008956F927F929F92AF92BF92CF92DF921C
:10208000EF92FF920F931F93CF93DF931F92CDB7E1
:10209000DEB7D82E962E3A01590164E270E0892D00
:1020A000998371DBE82EF12C65E270E0892D6BDB02
:1020B000FE2CEE24E82AE60CF71C970137706D2CF5
:1020C0009981792E690C711C690C711CD301ED91F9
:1020D000FC91E20FF31FC901800F911F81309840DE
:1020E00098F0C12C48E0D42EC21AD30AA601B5013B
:1020F000CF011CDFA8014C195D09B5016C0D7D1DD8
:10210000F3018081918103C0A801B501CF010EDFE9
:10211000E00EF11E4F2D64E270E0892D40DB4E2D64
:1021200065E270E0892D0F90DF91CF911F910F91A3
:10213000FF90EF90DF90CF90BF90AF909F907F90F7
:102140006F902DCB0F931F9389019A0140E050E0CF
:1021500090DF1F910F910895CF92DF92EF92FF923F
:102160000F931F93CF93DF93EC017A018B016C01E6
:10217000C40ED51ECC15DD0579F053DE8FE04ADEA6
:102180008D2F48DE8C2F46DE219680E043DEF8015D
:1021900081938F0148DEEECFC701DF91CF911F9170
:1021A0000F91FF90EF90DF90CF900895AF92BF9284
:1021B000CF92DF92EF92FF920F931F93CF93DF9313
:1021C0001F921F92CDB7DEB75A8349835901E98127
:1021D000FA81F7707C01E60EF11CE60EF11CD701C6
:1021E00018968D919C9119978E0F9F1F98012E0F15
:1021F0003F1F2130384090F0C12C68E0D62ECE1A17
:10220000DF0AA601B501A8DFA8014C195D09B501D7
:102210006C0D7D1DF7018085918502C0A801B50177
:102220000F900F90DF91CF911F910F91FF90EF9042
:10223000DF90CF90BF90AF908FCF8F929F92AF9251
:10224000BF92CF92DF92EF92FF920F931F93CF93A3
:10225000DF936C01962E5A017901802E68E270E0BE
:10226000892D91DAC82FD0E069E270E0892D8BDAF0
:10227000DC2FCC27C82B87019501AE01692DC60143
:1022800095DF811018C0CE0DDF1D4D2F68E270E084
:10229000892D85DA4C2F69E270E0892DDF91CF918D
:1022A0001F910F91FF90EF90DF90CF90BF90AF9074
:1022B0009F908F9074CADF91CF911F910F91FF90E3
:1022C000EF90DF90CF90BF90AF909F908F90089548
:1022D000CF93C62F61E070E08C2F61DA61E070E08F
:1022E0008C2F51DA8111FACFCF910895CF92DF92DE
:1022F000EF92FF920F931F93CF93DF93EC018B012B
:102300000E949C1D6B017C0188819981DC01ED910B
:10231000FC910480F581E02D1995892B69F40E94C8
:102320009C1D6C197D098E099F0968397A438105C6
:10233000910550F380E00CC088819981DC01ED911A
:10234000FC910680F781E02D1995F801808381E0EA
:10235000DF91CF911F910F91FF90EF90DF90CF9081
:1023600008950F931F93CF93DF93EA01088119819A
:10237000600F711FBBDF882331F00F5F1F4F198380
:10238000088381E001C080E0DF91CF911F910F9120
:1023900008953F924F925F926F927F928F929F9299
:1023A000AF92BF92CF92DF92EF92FF920F931F9363
:1023B000CF93DF9300D0CDB7DEB78C016B011A82CB
:1023C00019825C0122E0A20EB11CAE014F5F5F4F8B
:1023D000B501C7DF811103C080E090E0BBC0D80128
:1023E00012969C901B82E12CF12C412C512C320135
:1023F0004394BE016D5F7F4FC80178DF882361F38E
:1024000029813A81C90101969A8389836B81F801F8
:10241000E20FF31F6283462F4F7750E0449D9001F7
:10242000459D300D549D300D1124E20EF31E97E0B2
:10243000440C551C661C771C9A95D1F767FDD9CFC3
:10244000292D207F33243394203309F0312C8150FF
:10245000F6018083332031F1AE014F5F5F4FB5014C
:10246000C8017FDF882309F4B7CFAE014F5F5F4F0C
:10247000B501C80176DF882309F4AECFD6018C916F
:10248000F801E80FF11D4380512C542C4424848121
:10249000480E511CF801828181FF08C0F2E04F0E06
:1024A000511C04C080E0412C512C01C082E0A82EB8
:1024B000B12C612C712C48012BE0821A2AEF920A70
:1024C000C3018A0D9B1D8E159F05A0F5BE016D5F92
:1024D0007F4FC8010BDF882309F47ECFD4018D9193
:1024E0009C910097A9F0332099F029813A812250DC
:1024F0003109F6014081241B31094216530640F48C
:10250000DC01ED91FC910190F081E02D6B8119953A
:1025100089819A818C3DB5E09B0728F42B81F801D5
:10252000E80FF91F228301969A838983EFEF6E1AD1
:102530007E0AC6CFF801EB50FA4F80819181892B3A
:1025400039F489819A818D3D954010F01A82198263
:1025500089819A810F900F900F90DF91CF911F91F9
:102560000F91FF90EF90DF90CF90BF90AF909F9032
:102570008F907F906F905F904F903F900895AF92B3
:10258000BF92CF92DF92EF92FF920F931F93CF9360
:10259000DF9300D01F92CDB7DEB77C01F90180E058
:1025A0009E2F9F77EE0FEF2FEE1FFF0BF1953097C9
:1025B00009F09068A1E0B0E0AC0FBD1FA80FB11DFD
:1025C0009C938F5F309761F7A82EB12CDA01AA197E
:1025D000BB0914966C93BE016F5F7F4F80E090E063
:1025E0004A195B098A159B0554F4FB01D190BF0180
:1025F0008A01080F191FF801D5820196F3CFF70160
:102600008081918189010F5F1F4F0A0D1B1DFC0105
:1026100020813181F90122813381A801BD01F901B5
:1026200019956C010E949C1DF701E052FA4F6083DE
:1026300071838283938381E0C016D10609F080E024
:102640000F900F900F900F90DF91CF911F910F91EE
:10265000FF90EF90DF90CF90BF90AF900895C901A9
:102660000296DB01FD01E61BF70B2D91222331F0D1
:10267000FA01E80FF91F20830196F4CF9C012E1B6D
:102680003F0B240F351FD9011297FC931196EC9341
:102690000895CF93DF93EC0188819981009731F100
:1026A000DC01ED91FC910488F589E02D19958111EB
:1026B0001FC0FE01E950FA4F80819181892BB1F44E
:1026C0008DEF9FEF9183808388819981DC01ED916B
:1026D000FC910284F385E02D199588819981DC01B4
:1026E000ED91FC910288F389E02D199580E001C0FD
:1026F00081E0DF91CF9108952F923F924F925F92A8
:102700006F927F928F929F92AF92BF92CF92EF92F1
:10271000FF920F931F93CF93DF93CDB7DEB72C9724
:102720000FB6F894DEBF0FBECDBF4C011B012A01CE
:102730003901AFDF811114C1F401EF50FA4F60810C
:102740007181D4018D919C911197AD50BA4FFC01CC
:10275000208131816115710541F04D915C91D90164
:102760001E96ED91FC911F971FC0F9010484F58519
:10277000E02DFC87EB87ED91FC912DE933E03A8366
:102780002983D401A551BA4F12964D915D916D9157
:102790007C9115974B835C836D837E83AF01BE0173
:1027A0006F5F7F4FEB85FC851995F40181309105B2
:1027B00009F0CEC0E252FA4F9183808387E0E3E2D2
:1027C000F2E0DE01119601900D928A95E1F7FE018B
:1027D000319680E090E02191D401A80FB91F17969F
:1027E0002C93019687309105B1F70115110559F029
:1027F000F0E2CF9EC0011124866028E0E29E7001C5
:1028000011248E2901C082E04114510431F0611479
:10281000710411F4806801C0806CD4011E968C9301
:102820001E971F961C921F978FE050968C937401F1
:10283000B2E0EB0EF11C2FE030E0A701B101C401C2
:102840000EDF0115110551F09C01A701B801C4016B
:1028500006DF9C01A701B501C40101DF4114510449
:1028600069F09C01A701B201C401F9DE6114710491
:1028700029F09C01A701B301C401F1DE9C012550A0
:102880003109A70160E1C4017ADE0E949C1DF401B8
:10289000E052FA4F608371838283938384010C51E9
:1028A0001A4FF8016083718382839383F4018081DE
:1028B0009181DC01ED91FC910480F581E02D199569
:1028C000892BC1F40E949C1DD8014D905D906D90A4
:1028D0007C90641975098609970968397A438105DE
:1028E000910520F3F401E950FA4F8CEF9FEF9183AB
:1028F000808323C0BE01685F7F4FC4014ADD049717
:10290000E1F4F4018581940129503A4F7901811154
:1029100010C00E949C1DD8016D937D938D939C9354
:102920001397F401E851FA4F1082F70111821082D7
:1029300017C090E0D9018D939C93F401808191811F
:10294000DC01ED91FC910288F389E02D199506C018
:10295000E950FA4F8EEF9FEF9183808380E001C0B2
:1029600081E02C960FB6F894DEBF0FBECDBFDF918D
:10297000CF911F910F91FF90EF90CF90BF90AF90AC
:102980009F908F907F906F905F904F903F902F908F
:102990000895AF92BF92CF92EF92FF920F931F9341
:1029A0005701C02EE22E8A0120E030E040E050E0E6
:1029B000A3DE1F910F91FF90EF90CF90BF90AF904B
:1029C00008958F929F92BF92CF92DF92EF92FF92E3
:1029D0000F931F93CF93DF931F921F92CDB7DEB754
:1029E0004C01B42E152F790169837A8352DE6981F7
:1029F0007A81882309F444C0FB0101900020E9F7A3
:102A00003197E61BF70BC70107968E0F9F1F8D3D71
:102A10009540B0F5640182E0C80ED11C25E030E09D
:102A2000A601C4011CDEEB2DF12F60E070E09401E3
:102A3000280F391F6E157F0549F04191D901A60F66
:102A4000B71F12964C936F5F7F4FF4CF011102C0F6
:102A500060E301C061E3970125503109280F391F58
:102A6000A601C4010F900F90DF91CF911F910F919C
:102A7000FF90EF90DF90CF90BF909F908F907FCD91
:102A800080E00F900F90DF91CF911F910F91FF90F9
:102A9000EF90DF90CF90BF909F908F9008950F930D
:102AA000FA0101900020E9F73197E41BF50B022FA2
:102AB0009F0187DF0F910895CF92DF92FF920F93CE
:102AC0001F93CF93DF931F921F92CDB7DEB76C0198
:102AD000F42E81E0841708F43EC0FB010190002031
:102AE000E9F7E61BF70B3896ED3DF540A0F5C6017A
:102AF00069837A83CEDD69817A81882361F1F60169
:102B0000E252FA4F80819181019611F481E090E0C8
:102B10009183808380819181F601978380878601EC
:102B20000E5F1F4F27E030E0A801C60198DDF601D7
:102B3000E80FF91FF2829C0124503109A80162E8D4
:102B4000C6010F900F90DF91CF911F910F91FF90D1
:102B5000DF90CF9014CD80E00F900F90DF91CF9158
:102B60001F910F91FF90DF90CF90089540E0A4CF88
:102B7000CF92DF92EF92FF920F931F93CF93DF9349
:102B8000CDB7DEB72C970FB6F894DEBF0FBECDBF22
:102B90007C01FB016A010381228141816081CE01B8
:102BA00007960E94932109851A852B853C85F7019C
:102BB000E551FA4F02831383248335833896D182FB
:102BC000C082329711821082C7012C960FB6F894FA
:102BD000DEBF0FBECDBFDF91CF911F910F91FF9050
:102BE000EF90DF90CF900895CF92DF92EF92FF9217
:102BF0000F931F93CF93DF9300D01F92CDB7DEB713
:102C00006C01790185519A4F4B835C8369837A8388
:102C10000E948921F601E950FA4F8FEF9FEF9183CF
:102C200080834B815C8169817A81C601A1DFF601D5
:102C3000E751FA4FF182E082F60111830083EB50F5
:102C4000FA4F118210820F900F900F900F90DF912A
:102C5000CF911F910F91FF90EF90DF90CF9008954B
:102C60000F9300E020E040E060E08EEE93E00E94F1
:102C700093210F910895CF93CFB7F8948091F703E4
:102C8000811127C0EBEEF1E08491E5EAF1E0949147
:102C9000E82FF0E0EE0FFF1FEA5EFD4FA591B49123
:102CA0008C91892321F461E085E30E94031F61E098
:102CB00085E30E94CA1E8CB580618CBD8CB5806492
:102CC0008CBD61E084E30E94CA1E61E083E30E9440
:102CD000CA1E8091F7038F5F8093F703CFBFCF9118
:102CE00008959C01FC01EC53FE4F80819181680F97
:102CF000791F633C41E0740730F47183608302966E
:102D0000820F931F089580E090E008958F929F9224
:102D1000AF92BF92CF92DF92EF92FF920F931F93E9
:102D2000CF93DF93CDB7DEB7C65CD1400FB6F89432
:102D3000DEBF0FBECDBF8C016B017A0168E171E08F
:102D400080E89EE00E941222B80180E89EE00E9486
:102D5000452265E171E080E89EE00E945F22B801B3
:102D600087E59AE00E949123D601EDE5FAE0C701DC
:102D7000835A954FE817F90719F02D912193FACF4F
:102D8000108268E071E080E89EE00E9412226DE50A
:102D90007AE080E89EE00E947F2280E89EE00E9428
:102DA0004D2281E08093560A87E893E09A838983D5
:102DB000CB53DE4F19821882C55CD14061EA72E0C4
:102DC00087E59AE00E948A24882309F4BBC04AE080
:102DD0006DE57AE0CE0101960E9497018C0166EACA
:102DE00072E00E94BB01009749F0FC01248135810B
:102DF0002730310519F48681978102C084EA93E077
:102E000062EB72E00E94BB01009729F004960E94D9
:102E1000E2014C0102C0812C912C66EA72E0C801EB
:102E20000E94BB01009749F0FC01248135812730C5
:102E3000310519F48681978102C084EA93E06AEB38
:102E400072E00E94BB01009729F004960E94E20103
:102E50006C0102C0C12CD12C66EA72E0C8010E944C
:102E6000BB01009749F0FC012481358127303105F1
:102E700019F48681978102C084EA93E062EC72E0E3
:102E80000E94BB01009729F004960E94E2015C01B8
:102E900002C0A12CB12C66EA72E0C8010E94BB01FD
:102EA000009749F0FC01248135812730310519F460
:102EB0008681978102C084EA93E06AEC72E00E9406
:102EC000BB01009729F004960E94E2017C0102C038
:102ED000E12CF12C66EA72E0C8010E94BB01009768
:102EE00049F0FC01248135812730310519F48681B0
:102EF000978102C084EA93E064ED72E00E94BB0116
:102F0000009729F004960E94E2018C0102C000E0C3
:102F100010E0B4018BE69EE00E949123B50185E6A6
:102F20009EE00E949123B6018FE59EE00E949123CE
:102F3000B80189E59EE00E949123B70183E59EE0F8
:102F40000E949123CA53DE4F0FB6F894DEBF0FBE26
:102F5000CDBFDF91CF911F910F91FF90EF90DF9048
:102F6000CF90BF90AF909F908F900895FF920F9356
:102F70001F93CF93DF9300D000D0CDB7DEB78C0185
:102F800022E030E040E050E0BC01CE0101960E941A
:102F9000EF246EED72E0CE0101960E948A24F82E95
:102FA000CE0101960E94F822FF20F1F06FE5C801E2
:102FB0000E94EC24F80124813581AC014F5F5F4F02
:102FC000B801CE0101960E94EF24CE0101960E9425
:102FD0003225672B21F481E465D68C0154C0CE01E3
:102FE00001960E94F8221BC022E030E040E050E051
:102FF000B801CE0101960E94EF2462EE72E0CE018C
:1030000001960E948A24F82ECE0101960E94F82291
:10301000F11005C0C8010E9432258B0160C022E07A
:1030200030E040E050E0B801CE0101960E94EF246C
:1030300066EE72E0CE0101960E948A24F82ECE013F
:1030400001960E94F822FF2019F16FE5C8010E9445
:10305000EC24F80124813581AC014F5F5F4FB8014A
:10306000CE0101960E94EF24CE0101960E943225E6
:103070002BE0269FF001279FF00D1124EC5DFB4F04
:103080006185062F10E0CE0101960E94F82227C02C
:103090006FE372E0C8010E948A2481111BC064E4BE
:1030A00072E0C8010E948A24811117C022E030E03A
:1030B00040E050E0B801CE0101960E94EF246AEE94
:1030C00072E0CE0101960E948A24CE0101960E94F0
:1030D000F82203C001E010E002C000E010E0C801E7
:1030E00026960FB6F894DEBF0FBECDBFDF91CF910D
:1030F0001F910F91FF900895DF92EF92FF920F932F
:103100001F93CF93DF93CDB7DEB72C970FB6F8940C
:10311000DEBF0FBECDBF7C018B0168E773E0CE013F
:1031200007960E945F2322E030E040E050E0B701C4
:10313000CE0101960E94EF246EEE72E0CE01019660
:103140000E948A24D82ECE0101960E94F822DD200A
:10315000D1F06FE5C7010E94EC24F701248135818D
:10316000AC014F5F5F4FB701CE0101960E94EF2483
:10317000BE016F5F7F4FCE0107960E947423CE0180
:1031800001960E94F8226FE372E0C8010E948A242F
:10319000811140C064E472E0C8010E948A2488233F
:1031A00011F010E038C022E030E040E050E0B8011B
:1031B000CE0101960E94EF2466EE72E0CE010196E8
:1031C0000E948A24F82ECE0101960E94F822FF2048
:1031D00041F36FE5C8010E94EC24F8012481358198
:1031E000AC014F5F5F4FB801CE0101960E94EF2402
:1031F000CE0101960E9432252BE0269FF001279FE9
:10320000F00D1124EC5DFB4F1185CE0101960E945B
:10321000F82201C011E0CE0107960E9432252BE072
:10322000269FF001279FF00D1124E850FC4F612FDD
:103230008781E9D5CE0107960E94F8222C960FB619
:10324000F894DEBF0FBECDBFDF91CF911F910F91DC
:10325000FF90EF90DF900895EF92FF920F931F93EE
:10326000CF93DF93CDB7DEB72C970FB6F894DEBFC0
:103270000FBECDBF62EF72E08FE59EE00E948A2410
:10328000882309F16BE67EE0CE0107960E94892330
:10329000CE0107966BDE8C0165E67EE0CE010196DD
:1032A0000E948923CE01019661DE7C01CE01019648
:1032B0000E94F822CE0107960E94F8220E151F05E3
:1032C00009F06BC050C065EF72E08FE59EE00E9490
:1032D0008A24882309F16BE67EE0CE0107960E94DE
:1032E0008923CE01079642DE8C0165E67EE0CE01A1
:1032F00001960E948923CE01019638DE7C01CE0121
:1033000001960E94F822CE0107960E94F8220E151F
:103310001F050CF442C027C068EF72E08FE59EE005
:103320000E948A248823C9F16BE67EE0CE010796CD
:103330000E948923CE01079619DE8C0165E67EE0A6
:10334000CE0101960E948923CE0101960FDE7C01F9
:10335000CE0101960E94F822CE0107960E94F82223
:10336000E016F106D4F063E57EE0CE0101960E94FE
:10337000892369E57EE0CE0107960E948923BE017C
:103380006F5F7F4FCE010796B7DECE0107960E9492
:10339000F822CE0101960E94F8222C960FB6F894DE
:1033A000DEBF0FBECDBFDF91CF911F910F91FF9078
:1033B000EF9008950F931F93CF93DF93CDB7DEB7B0
:1033C000C456D1090FB6F894DEBF0FBECDBF8C0135
:1033D0006BEF72E0CE0101960E945F23B801CE012F
:1033E00001960E945524BC0180E89EE00E946F2255
:1033F000CE0101960E94F822F801448155814F5F69
:103400005F4F20E030E0BE016F5F7F4FC8010E9438
:10341000A824BE016F5F7F4F80E594E0A7DBCC5905
:10342000DF4F0FB6F894DEBF0FBECDBFDF91CF9157
:103430001F910F910895DF92EF92FF920F931F93C8
:10344000CF93DF93CDB7DEB7C45FD1400FB6F8940A
:10345000DEBF0FBECDBF7C018B01D42E69E173E0CE
:10346000CE0101960E945F23B701CE0101960E9412
:1034700055246BE273E00E946624B8010E94552433
:10348000BC0180E89EE00E946F22CE0101960E945E
:10349000F822F701448155814F5F5F4F20E030E013
:1034A000BE016F567E4FC7010E94A824F8014481D7
:1034B00055814F5F5F4F20E030E0BE016F5F7F4F6F
:1034C000C8010E94A8242D2DAE014F5F5F4FBE01A1
:1034D0006F567E4F80E594E0E2DACC50DE4F0FB6B7
:1034E000F894DEBF0FBECDBFDF91CF911F910F913A
:1034F000FF90EF90DF900895CF92DF92EF92FF92CE
:103500000F931F93CF93DF9300D000D0CDB7DEB7DA
:103510000BE214E0E12CF12C6DE47EE0CE0101968B
:103520000E94892363E373E0CE0101960E94662422
:10353000B7010E947E24BC01C80106970E94742333
:10354000CE0101960E94F82260E0F801808122D429
:10355000FFEFEF1AFF0A055F1F4F24E0E216F104A8
:10356000D9F60FEF13E0E12CF12C6DE47EE0CE01F3
:1035700001960E94892369E373E0CE0101960E94BF
:103580006624B7010E947E246801E6E0CE1AD108C5
:10359000BC01C6010E947423CE0101960E94F8224C
:1035A00061E0F8018081F6D3B601CE0101960E9458
:1035B0008923CE010196FEDECE0101960E94F822FB
:1035C000FFEFEF1AFF0A055F1F4F24E0E216F10438
:1035D00061F626960FB6F894DEBF0FBECDBFDF9121
:1035E000CF911F910F91FF90EF90DF90CF900895B2
:1035F000EF92FF920F931F93CF93DF93CDB7DEB778
:1036000062970FB6F894DEBF0FBECDBF26E040E84C
:1036100055E260E070E080E89EE039D56DDF2BDB9D
:1036200060E172E0CE0101968AD66CE072E0CE01D4
:10363000079685D664E172E0CE010D9680D68E01A4
:103640000F5F1F4F9E01295F3F4FAE01435F5F4FEA
:103650006CE172E084EB93E00E94550794E4E92E5C
:1036600092E0F92E00E020E04FE353E067E473E0DE
:1036700080E594E08ED980E594E00BD8882391F022
:103680006DE473E080E89EE03AD761EA72E0CE0133
:1036900001960E945F23CE0101968CDECE01019639
:1036A000A7D712C084E4E82E82E0F82E00E020E0E4
:1036B0004FE353E067E473E080E594E06AD968E89B
:1036C00073E180E090E067D217DF62960FB6F8945E
:1036D000DEBF0FBECDBFDF91CF911F910F91FF9045
:1036E000EF9008956F927F928F929F92AF92BF92C8
:1036F000CF92DF92EF92FF920F931F93CF93DF93BE
:10370000CDB7DEB762970FB6F894DEBF0FBECDBF60
:1037100076B02DE2A22E24E0B22E0EE214E035E4C3
:10372000C32E3EE0D32EE12CF12CF8013A97808194
:10373000872166246394811101C0612CF5016082A8
:10374000F8018081681609F471C06620B1F1F601B4
:10375000608171816F5F7F4F718360834AE0CE012A
:103760000196F5D74AE0B701CE010D960E94D1230C
:1037700068E673E0CE010796A2D7BE01635F7F4F74
:10378000CE0107960E94552465E773E00E946624E7
:10379000BE016F5F7F4F0E945524BC0180E89EE010
:1037A0009ED6CE01079624D7CE010D9621D7CE0105
:1037B00001961ED76FE372E002C064E472E0CE01AE
:1037C00001967DD74801F9E08F1A9108B401CE0126
:1037D00007969FD740E0BE016F5F7F4FCE010796EF
:1037E0002ADECE01079604D7CE01019601D7662DB9
:1037F00070E04AE0CE010796AAD7B401CE01019647
:1038000088D7BE01695F7F4FCE0101960E94552483
:1038100069E773E00E946624BC0180E89EE05FD601
:10382000CE010196E5D6CE010796E2D6F50180815C
:10383000F8018083FFEFEF1AFF0A8BE0A80EB11C9E
:10384000055F1F4FE2E0CE0ED11CF4E0EF16F1044D
:1038500009F06BCF62960FB6F894DEBF0FBECDBFF6
:10386000DF91CF911F910F91FF90EF90DF90CF905C
:10387000BF90AF909F908F907F906F900895EF9240
:10388000FF920F9380E594E00E94491381110DC0CF
:1038900044E4E42E42E0F42E00E020E04FE353E065
:1038A00067E473E080E594E074D81CDF0F91FF902B
:1038B000EF90D2CC0F931F93CF93DF9300E020E0E3
:1038C00040E060E081E79EE02ED568E773E08BE69C
:1038D0009EE0F5D668E773E085E69EE0F0D668E7FF
:1038E00073E08FE59EE0EBD668E773E089E59EE044
:1038F000E6D668E773E083E59EE0E1D667E473E02F
:103900008DE49EE0DCD668E773E087E59AE0D7D6E1
:1039100089E49AE00E94DB0809E41AE026E836E12F
:103920004BE557E068E172E080E594E05DD9D1E0D5
:10393000D093240468E773E085E294E0C0D685E282
:1039400080932B0410922C0410922D0410922E04BC
:10395000C2E0C0932F0468E773E080E394E0AFD641
:1039600084E280933604D093370410923804109286
:10397000390484E080933A0468E773E08BE394E0D1
:103980009ED683E280934104C09342041092430484
:103990001092440488E08093450468E773E086E46D
:1039A00094E08DD682E280934C0413E010934D0492
:1039B00010924E0410924F0480E18093F80368E760
:1039C00073E089EF93E07BD681E28093FF0310924E
:1039D0000004109201041092020400E20093030418
:1039E00068E773E084E094E06AD600930A04D09319
:1039F0000B0410920C0410920D0480E480930E04CA
:103A000068E773E08FE094E05AD68FE18093150465
:103A1000C0931604109217041092180480E8809343
:103A2000190468E773E08AE194E049D68EE1809357
:103A30002004109321041092220410922304DF9199
:103A4000CF911F910F9108958AE194E0D1D58FE035
:103A500094E0CED584E094E0CBD589EF93E0C8D54F
:103A600086E494E0C5D58BE394E0C2D580E394E08E
:103A7000BFD585E294E0BCD587E59AE0B9D58DE461
:103A80009EE0B6D583E59EE0B3D589E59EE0B0D54E
:103A90008FE59EE0ADD585E69EE0AAD58BE69EE05B
:103AA000A7C508951F920F920FB60F9211242F935E
:103AB0003F938F939F93AF93BF938091780E909194
:103AC000790EA0917A0EB0917B0E3091770E23E0A3
:103AD000230F2D3720F40196A11DB11D05C026E846
:103AE000230F0296A11DB11D2093770E8093780EAF
:103AF0009093790EA0937A0EB0937B0E80917C0EFA
:103B000090917D0EA0917E0EB0917F0E0196A11D29
:103B1000B11D80937C0E90937D0EA0937E0EB0938A
:103B20007F0EBF91AF919F918F913F912F910F90F9
:103B30000FBE0F901F9018952FB7F8946091780ED4
:103B40007091790E80917A0E90917B0E2FBF08951F
:103B50003FB7F89480917C0E90917D0EA0917E0EDF
:103B6000B0917F0E26B5A89B05C02F3F19F0019696
:103B7000A11DB11D3FBF6627782F892F9A2F620F95
:103B8000711D811D911D42E0660F771F881F991FCF
:103B90004A95D1F70895CF92DF92EF92FF92CF939B
:103BA000DF936B017C01D4DFEB01C114D104E1048C
:103BB000F10479F076DFCCDF6C1B7D0B683E73403F
:103BC000A0F381E0C81AD108E108F108C851DC4F20
:103BD000ECCFDF91CF91FF90EF90DF90CF900895E1
:103BE000789484B5826084BD84B5816084BD85B5D8
:103BF000826085BD85B5816085BDEEE6F0E080819F
:103C000081608083E1E8F0E01082808182608083BF
:103C1000808181608083E0E8F0E080818160808342
:103C2000E1EBF0E0808184608083E0EBF0E0808174
:103C300081608083E1E9F0E080818260808380811F
:103C400081608083E0E9F0E0808181608083E1EA47
:103C5000F0E0808182608083808181608083E0EAFF
:103C6000F0E0808181608083E1E2F1E08081826028
:103C70008083808181608083E0E2F1E080818160E7
:103C80008083EAE7F0E080818460808380818260C5
:103C900080838081816080838081806880831092AE
:103CA000C1000895863308F0865320917B00982F39
:103CB0009870277F922B90937B008770209122022F
:103CC00090E4299F90011124822B80937C008091A5
:103CD0007A00806480937A0080917A0086FDFCCF20
:103CE000809178002091790090E0922B089590E0E7
:103CF000FC013197E231F10508F04BC0EE58FF4F5F
:103D0000DDC6809180008F7703C0809180008F7D19
:103D100080938000089580918000877FF9CF84B5DB
:103D20008F7702C084B58F7D84BD08958091B000E7
:103D30008F7703C08091B0008F7D8093B00008958D
:103D4000809190008F7707C0809190008F7D03C095
:103D500080919000877F8093900008958091A000CB
:103D60008F7707C08091A0008F7D03C08091A00055
:103D7000877F8093A0000895809120018F7707C0EE
:103D8000809120018F7D03C080912001877F8093E7
:103D900020010895CF93DF9390E0FC01E059FE4F9E
:103DA0002491FC01EA54FE4F8491882349F190E06C
:103DB000880F991FFC01EA5EFD4FA591B4918450D4
:103DC0009E4FFC01C591D4919FB7611108C0F89432
:103DD0008C91209582238C93888182230AC0623043
:103DE00051F4F8948C91322F309583238C938881F1
:103DF000822B888304C0F8948C91822B8C939FBF74
:103E0000DF91CF9108950F931F93CF93DF931F926C
:103E1000CDB7DEB7282F30E0F901E65DFE4F849183
:103E2000F901E059FE4F1491F901EA54FE4F049153
:103E30000023C1F0882319F0698359DF6981E02FDD
:103E4000F0E0EE0FFF1FE450FE4FA591B4919FB735
:103E5000F8948C91611103C01095812301C0812BCE
:103E60008C939FBF0F90DF91CF911F910F91089579
:103E7000FC01818D228D90E0805C9F4F821B910917
:103E80008F7399270895FC01918D828D981731F0D9
:103E9000828DE80FF11D858D90E008958FEF9FEFE3
:103EA0000895FC01918D828D981761F0828DDF015C
:103EB000A80FB11D5D968C91928D9F5F9F73928F1D
:103EC00090E008958FEF9FEF089586E091E2892BAF
:103ED00039F080E090E0892B19F098D1811125C04C
:103EE00080E090E0892B41F080E090E0892B21F088
:103EF0000E94000081111CC080E090E0892B41F0FD
:103F000080E090E0892B21F00E940000811113C015
:103F100080E090E0892BA1F080E090E0892B81F097
:103F20000E94000081110AC008950E940000D8CFAD
:103F30000E940000E1CF0E940000EACF0C94000034
:103F40000895FC01848DDF01A80FB11DA35ABF4F56
:103F50002C91848D90E001968F739927848FA68988
:103F6000B7892C93A089B1898C9180648C93938DAF
:103F7000848D981306C00288F389E02D80818F7D9F
:103F800080830895CF93DF93EC01888D8823C1F05F
:103F9000EA89FB89808185FD05C0A889B9898C9152
:103FA00086FD0EC00FB607FCF5CF808185FFF2CFEE
:103FB000A889B9898C9185FFEDCFCE01C2DFE8CF0A
:103FC000DF91CF910895CF92DF92FF920F931F93CD
:103FD000CF93DF931F92CDB7DEB76C01DC015B9608
:103FE0009C915B975C968C915C97981307C0509658
:103FF000ED91FC915197808185FD31C0F601038DD3
:1040000010E00F5F1F4F0F731127F02EF601848D04
:10401000F81210C00FB607FCF9CFD6015096ED91FB
:10402000FC915197808185FFF1CFC601698389DFBB
:104030006981ECCF838DE80FF11DE35AFF4F608358
:10404000D6015B960C935B975296ED91FC9153973A
:1040500080818062808381E058968C930DC0D60168
:104060005696ED91FC91579760835096ED91FC9197
:10407000519780818064808381E090E00F90DF9190
:10408000CF911F910F91FF90DF90CF900895BF9235
:10409000CF92DF92EF92FF92CF93DF93EC016A0110
:1040A0007B01B22EE889F98982E08083411581EE97
:1040B00058076105710599F060E079E08DE390E0C3
:1040C000A7019601D9D421503109410951095695CA
:1040D000479537952795211580E1380790F0E889B5
:1040E000F989108260E874E88EE190E0A7019601FA
:1040F000C3D4215031094109510956954795379547
:104100002795EC85FD853083EE85FF852083188E0D
:10411000EC89FD89B082EA89FB8980818061808396
:10412000EA89FB89808188608083EA89FB898081B4
:1041300080688083EA89FB8980818F7D8083DF911D
:10414000CF91FF90EF90DF90CF90BF9008951F9296
:104150000F920FB60F9211240BB60F922F938F93DD
:104160009F93EF93FF93E091900EF091910E8081D9
:10417000E091960EF091970E82FD12C09081809191
:10418000990E8F5F8F7320919A0E821751F0E091F4
:10419000990EF0E0E058F14F958F8093990E01C091
:1041A0008081FF91EF919F918F912F910F900BBE86
:1041B0000F900FBE0F901F9018951F920F920FB681
:1041C0000F9211240BB60F922F933F934F935F934F
:1041D0006F937F938F939F93AF93BF93EF93FF93CF
:1041E00080E89EE0AEDEFF91EF91BF91AF919F918D
:1041F0008F917F916F915F914F913F912F910F9090
:104200000BBE0F900FBE0F901F90189580E89EE098
:104210002FDE21E0892B09F420E0822F08951092EF
:10422000830E1092820E88EE93E0A0E0B0E08093BF
:10423000840E9093850EA093860EB093870E8DE822
:1042400093E09093810E8093800E85EC90E09093A4
:104250008D0E80938C0E84EC90E090938F0E809363
:104260008E0E80EC90E09093910E8093900E81ECF6
:1042700090E09093930E8093920E82EC90E0909356
:10428000950E8093940E86EC90E09093970E809319
:10429000960E1092990E10929A0E10929B0E1092FA
:1042A0009C0E0895AF92BF92CF92DF92EF92FF9251
:1042B0000F931F93CF93DF936C017B01C0E0D0E09D
:1042C00000E010E0F601EC0FFD1F4AE050E06281D3
:1042D000C70188D15C016EE2C701D8D08A0D9B1D51
:1042E000080F191F2196C330D10561F74AE050E04D
:1042F000F6016581C70176D1800F911FDF91CF91C3
:104300001F910F91FF90EF90DF90CF90BF90AF90F3
:1043100008952DE933E0FC0131832083128213825A
:104320001482158208950F93FC018DE993E0918327
:10433000808362834383248305830F9108952DE94D
:1043400033E0FC0131832083FB0140815181628194
:104350007381FC0142835383648375830895FB0159
:104360004081518162817381FC0142835383648364
:10437000758308958DE993E090931E0F80931D0F30
:1043800010921F0F1092200F1092210F1092220FE7
:104390000895089525DCFDDF2BD9C5E6DFE16FDA4E
:1043A0002097E9F392DDFBCFCF92DF92EF92FF925D
:1043B0000F931F93CF93DF936C017A01EB01E60E0D
:1043C000F71E00E010E0CE15DF0561F06991D6011F
:1043D000ED91FC910190F081E02DC6011995080F37
:1043E000191FF1CFC801DF91CF911F910F91FF905D
:1043F000EF90DF90CF9008956115710581F0DB019A
:104400000D900020E9F7AD0141505109461B570BB3
:10441000DC01ED91FC910280F381E02D199480E0A4
:1044200090E00895EF92FF920F931F93CF93DF9345
:104430008C01FB01C0E0D0E064917F018FEFE81AAE
:10444000F80A662361F0D801ED91FC910190F081AA
:10445000E02DC8011995C80FD91FF701EDCFCE0186
:10446000DF91CF911F910F91FF90EF900895DC01A4
:10447000ED91FC91DB0114964D915C9115976D9136
:104480007C910280F381E02D1994B6CFDC01ED918F
:10449000FC910190F081E02D19940F931F93CF931D
:1044A000DF93EC016DE0F2DF8C016AE0CE01EEDF1C
:1044B000800F911FDF91CF911F910F9108950F935E
:1044C0001F93CF93DF93EC01ADDF8C01CE01E5DFCD
:1044D000800F911FDF91CF911F910F9108950F933E
:1044E0001F93CF93DF93EC01C2DF8C01CE01D5DFA8
:1044F000800F911FDF91CF911F910F9108950F931E
:104500001F93CF93DF93EC0177DF8C01CE01C5DFE2
:10451000800F911FDF91CF911F910F9108958F927E
:104520009F92AF92BF92CF92DF92EF92FF920F9342
:104530001F93CF93DF93CDB7DEB7A1970FB6F89453
:10454000DEBF0FBECDBF7C01C42EE52FCB01D22E26
:1045500019A221E02D1510F02AE0D22E8E010F5D58
:104560001F4F8D2C912CA12CB12C6C2D7E2FA501D1
:10457000940182D28C2DD29E8019112401501109F0
:104580008A3014F4805D01C0895CF80180832115B4
:1045900031054105510521F0C22EE32FCA01E5CFB7
:1045A000B801C70129DFA1960FB6F894DEBF0FBE90
:1045B000CDBFDF91CF911F910F91FF90EF90DF90D2
:1045C000CF90BF90AF909F908F90089521153105A7
:1045D00041F4DC01ED91FC910190F081E02D642F1C
:1045E00019949DCF9A01462F50E060E070E0EECF25
:1045F000FC018081918104C3CF93DF93EC0188811A
:104600009981009709F0FCD2198218821D821C82C0
:104610001B821A82DF91CF9108950F931F93CF933E
:10462000DF93EC018B016F5F7F4F8881998177D396
:10463000009731F0998388831B830A8381E001C04E
:1046400080E0DF91CF911F910F910895CF93DF9379
:10465000EC0188819981892B29F08A819B818617B9
:10466000970758F4CE01D9DF882341F08C819D81D2
:10467000892B19F4E881F981108281E0DF91CF91D3
:104680000895EF92FF920F931F93CF93DF93EC0166
:104690007B018A01BA01DADF811103C0CE01ACDFF0
:1046A00006C01D830C83B701888199815FD4CE0138
:1046B000DF91CF911F910F91FF90EF900895FC0132
:1046C0001182108213821282158214826115710583
:1046D00051F0FB0101900020E9F7AF014150510971
:1046E000461B570BCECF0895CF93DF93EC01FB0110
:1046F0008617970751F0608171816115710521F06E
:1047000044815581BEDF01C077DFCE01DF91CF91BB
:104710000895FC0111821082138212821582148284
:10472000E3CFCF93DF93EC016115710559F0FB01E5
:1047300001900020E9F7AF0141505109461B570B8A
:10474000A0DF01C059DFCE01DF91CF9108950F9313
:104750001F93CF93DF93CDB7DEB762970FB6F89470
:10476000DEBF0FBECDBF8C01CB01F80111821082DC
:10477000138212821582148250E0BE016F5F7F4F58
:104780000BD4BE016F5F7F4FC801CBDF62960FB6BF
:10479000F894DEBF0FBECDBFDF91CF911F910F9177
:1047A00008950F931F93CF93DF93CDB7DEB7619733
:1047B0000FB6F894DEBF0FBECDBF8C01CB01F80160
:1047C00011821082138212821582148250E0BE017F
:1047D0006F5F7F4F0AD4BE016F5F7F4FC801A1DFBB
:1047E00061960FB6F894DEBF0FBECDBFDF91CF91BB
:1047F0001F910F910895EF92FF920F931F93CF9304
:10480000DF93EC017B010C811D816115710511F4B1
:1048100080E014C04115510581F0040F151FB80147
:1048200015DF8823A9F3288139818C819D81B70107
:10483000820F931F9BD31D830C8381E0DF91CF9167
:104840001F910F91FF90EF900895EF92FF920F93B9
:104850001F93CF93DF93CDB7DEB727970FB6F894AA
:10486000DEBF0FBECDBF7C01CB014AE050E08E0120
:104870000F5F1F4FB801B9D3F80101900020E9F78D
:10488000AF0141505109401B510BB801C701B3DFC3
:1048900027960FB6F894DEBF0FBECDBFDF91CF9144
:1048A0001F910F91FF90EF900895CF93DF93EC014C
:1048B000FB0144815581608171819DDF811102C0BE
:1048C000CE019ADECE01DF91CF910895CF93DF9391
:1048D000EC016115710561F0FB0101900020E9F721
:1048E000AF0141505109461B570B85DF811102C0B2
:1048F000CE0182DECE01DF91CF910895CF93DF9379
:10490000EC01A3DF811102C0CE0176DECE01DF9182
:10491000CF910895FC0124813581232B31F421E0CE
:104920006115710599F0FB0108C0FC01808191813E
:104930006115710531F421E0FC018081882331F09B
:1049400004C00BD321E0892B09F020E0822F0895C9
:104950000F931F93CF93DF93EB0141155105E1F0C6
:104960002097D1F0FC01648175812617370798F4F0
:10497000621B730B8A01015011096017710708F45B
:104980008B01FC0160817181620F731FA801CE0150
:10499000F4D2C00FD11F1882DF91CF911F910F91D8
:1049A0000895CF93DF93FC018481958148175907BF
:1049B00070F4C081D181772767FD7095CE01840F97
:1049C000951FC0D2009719F08C1B9D0B02C08FEF72
:1049D0009FEFDF91CF91089540E050E0E2CFBF928A
:1049E000CF92DF92EF92FF920F931F93CF93DF93BB
:1049F0006C017B01EA0189012417350720F48D2F12
:104A0000E901042F182F68E773E0C60158DED701CB
:104A100014968D919C911597C817D907C0F48017EB
:104A2000910708F48C01D701ED91FC911197E00FEB
:104A3000F11FB08010826D917C916C0F7D1FC601BB
:104A400070DED701ED91FC91E00FF11FB082C6013D
:104A5000DF91CF911F910F91FF90EF90DF90CF905A
:104A6000BF900895FC0180819181009709F03BC2BD
:104A700060E070E0CB010895A1E21A2EAA1BBB1BD7
:104A8000FD010DC0AA1FBB1FEE1FFF1FA217B3071A
:104A9000E407F50720F0A21BB30BE40BF50B661F30
:104AA000771F881F991F1A9469F7609570958095F4
:104AB00090959B01AC01BD01CF010895EE0FFF1F42
:104AC0000590F491E02D19940790F691E02D19943A
:104AD000CF93DF938230910510F482E090E0E09173
:104AE000250FF091260F20E030E0A0E0B0E03097F5
:104AF00039F14081518148175907B8F048175907D3
:104B000071F482819381109729F013969C938E9370
:104B100012972CC09093260F8093250F27C0211544
:104B2000310531F04217530718F0A901DB0101C02C
:104B3000EF019A01BD01DF010280F381E02DD7CFA3
:104B400021153105F9F0281B390B2430310580F48B
:104B50008A819B816115710521F0FB01938382831A
:104B600004C09093260F8093250FFE01329644C017
:104B7000FE01E20FF31F8193919322503109398393
:104B800028833AC02091230F3091240F232B41F426
:104B900020910202309103023093240F2093230FBF
:104BA00020910002309101022115310541F42DB709
:104BB0003EB74091040250910502241B350BE09151
:104BC000230FF091240FE217F307A0F42E1B3F0BE5
:104BD0002817390778F0AC014E5F5F4F241735076F
:104BE00048F04E0F5F1F5093240F4093230F819383
:104BF000919302C0E0E0F0E0CF01DF91CF91089502
:104C0000CF93DF93009709F487C0FC01329713829A
:104C10001282C091250FD091260F209781F4208118
:104C20003181280F391F8091230F9091240F821713
:104C3000930779F5F093240FE093230F6DC0DE0105
:104C400020E030E0AE17BF0750F412964D915C9112
:104C500013979D014115510509F1DA01F3CFB38393
:104C6000A28340815181840F951F8A179B0771F49D
:104C70008D919C911197840F951F0296918380834B
:104C800012968D919C911397938382832115310500
:104C900029F4F093260FE093250F3EC0D901139617
:104CA000FC93EE9312974D915D91A40FB51FEA17F7
:104CB000FB0779F480819181840F951F0296D901B9
:104CC00011969C938E938281938113969C938E93DD
:104CD0001297E0E0F0E08A819B81009719F0FE01D5
:104CE000EC01F9CFCE01029628813981820F931F02
:104CF0002091230F3091240F2817390769F430973A
:104D000029F41092260F1092250F02C013821282EE
:104D1000D093240FC093230FDF91CF9108956F920A
:104D20007F928F929F92AF92BF92CF92DF92EF923B
:104D3000FF920F931F93CF93DF93EC01CB0120974A
:104D400079F4DF91CF911F910F91FF90EF90DF9059
:104D5000CF90BF90AF909F908F907F906F90B8CE84
:104D6000FE01E60FF71F9E0122503109E217F307FB
:104D700008F4A8C0D9010D911C91119706171707C7
:104D8000B0F00530110508F49BC0A801445051094A
:104D90004617570708F494C002501109061B170B59
:104DA000019311936D937C93CF012ADF89C05B013E
:104DB000A01AB10A4E01800E911EA091250FB0914C
:104DC000260F612C712C60E070E0109709F449C047
:104DD000A815B905C9F5ED90FC901197670142E05F
:104DE000C40ED11CCA14DB0478F147018A189B0851
:104DF000640142E0C40ED11C1296BC901297139627
:104E0000AC91B5E0CB16D10440F0B282A38391827D
:104E10008082D9018D939C9309C00E5F1F4F0E0DA8
:104E20001F1DF90111830083EB2DFA2F6115710508
:104E300031F0DB011396FC93EE93129741C0F0938F
:104E4000260FE093250F3CC06D917C91119766165B
:104E5000770608F43B01BD0112960D90BC91A02D80
:104E6000B4CF6091230F7091240F68157905E9F490
:104E700068167906D0F44091000250910102411564
:104E8000510541F44DB75EB760910402709105027F
:104E9000461B570BE417F507A8F4F093240FE09393
:104EA000230FF901918380830BC012DE7C010097F0
:104EB00049F0A801BE013DD0CE01A2DEC70104C069
:104EC000CE0102C080E090E0DF91CF911F910F9161
:104ED000FF90EF90DF90CF90BF90AF909F908F901A
:104EE0007F906F9008951F93FC0199278827BC013C
:104EF000E89411911032E9F3193010F01E30C8F324
:104F00001B3249F01D3241F4689405C059D0610F3D
:104F1000711D811D911D119110531A30B8F33EF48B
:104F200090958095709561957F4F8F4F9F4F1F9102
:104F30000895FB01DC0102C001900D9241505040E8
:104F4000D8F70895FC018191861721F08823D9F7BD
:104F5000992708953197CF010895FB01DC018D91C8
:104F6000019080190110D9F3990B0895FB01DC0120
:104F700001900D920020E1F70895FB01DC01415002
:104F8000504048F001900D920020C9F701C01D92D9
:104F900041505040E0F708954532510518F4423031
:104FA00008F004C0FB011082CB010895BB274A30F2
:104FB00031F4992322F4BDE2909581959F4F20C052
:104FC000592F482F372F262F660F771F881F991FBD
:104FD000660F771F881F991F620F731F841F951F0D
:104FE000660F771F881F991F08954532510518F4E1
:104FF000423008F004C0FB011082CB010895BB27AA
:10500000FB015527AA27880F991FAA1FA41710F084
:10501000A41B83955051B9F7A05DAA3308F0A95D90
:10502000A193009779F7B111B1931192CB0100C010
:10503000DC01FC01672F71917723E1F7329704C0FF
:105040007C916D9370836291AE17BF07C8F308958A
:1050500012E0C8E4D2E000E005C022970109FE0199
:105060000BBF32DDCA34D10780E00807B1F7F894EE
:02507000FFCF70
:105072000000270F80000100000000C0C0A803014B
:10508200FFFFFF00C0A80303C0A803020011110024
:1050920000010100044D515454046E756C6C004EB5
:1050A200614E00496E66696E69747900652D0074FF
:1050B2007275650066616C73650022225C5C620831
:1050C200660C6E0A720D74090000000000F6071FDC
:1050D20008380840085C087E08F408810859084C22
:1050E2000989090C08E707EA071408EC0700000021
:1050F20000E109270ADD093A0A7E0AF709960A0938
:105102000A1D0A240B240AC10A620AC209C909D962
:1051120009494654540052555F30312F4946545480
:105122005400636F6D704C485300636F6D70535938
:105132004D00636F6D7052485300616374696F6E06
:1051420052485300616374696F6E4C485300414981
:105152005F0041525F0044495F0044525F00444F88
:105162005F003D3D003E3D003C3D00537562736370
:105172007269626520746F2000756E737562736365
:105182007269626520746F20005075626C69736881
:105192003A20546F706963203D2000204D736720D0
:1051A2003D20002F44495F30002F444F5F3000778D
:1051B200696C6C5F52550052555F303100436C6927
:1051C200656E7420636F6E6E656374656420746FC0
:1051D2002042726F6B657200436F756E7465722048
:1051E2006F66202000202020007075626C69736851
:1051F20065640000000000711600000000E31FD487
:1052020021381F511F431FC21F00000000522100FE
:00000001FF
