:1000000074C00000A1C000009FC000009DC000009F
:100010009BC0000099C0000097C0000095C0000080
:1000200093C0000091C000008FC000008DC0000090
:100030008BC0000089C0000087C0000085C00000A0
:1000400083C0000081C000007FC000007DC00000B0
:100050007BC0000079C0000077C0000010C600001F
:1000600073C0000097C20000CBC200006DC000004A
:100070006BC0000069C0000067C0000065C00000E0
:1000800063C0000061C000005FC000005DC00000F0
:100090005BC0000059C0000057C0000055C0000000
:1000A00053C0000051C000004FC000004DC0000010
:1000B0004BC0000049C0000047C0000045C0000020
:1000C00043C0000041C000003FC000003DC0000030
:1000D0003BC0000039C0000037C0000035C0000040
:1000E00033C000004B0132035A0111241FBECFEF71
:1000F000D1E2DEBFCDBF00E00CBF12E0A0E0B2E075
:10010000E8E1F3E100E00BBF02C007900D92AE35CD
:10011000B107D9F723E0AEE5B2E001C01D92AA31E4
:10012000B207E1F710E0C8EED0E000E005C022978A
:100130000109FE010BBF71D6C43ED10780E008075C
:10014000B1F7D4D20C947B095BCF8EE592E043D417
:1001500084E692E040D48AE692E03DC4CF93DF93F8
:1001600000D000D0CDB7DEB726E040E855E260E031
:1001700070E080E792E0AED162E172E08EE592E05D
:10018000A6D468E172E08EE592E0E1D46EE172E01F
:1001900080E792E001D36EE572E080E792E016D34B
:1001A00064E272E080E792E0F7D264E372E08AE60C
:1001B00092E0DCD44AE050E0682F80E792E0F6D38A
:1001C00080910602882319F067E072E002C06CE0BB
:1001D00072E0CE01019666D4BE016F5F7F4F80E76B
:1001E00092E0F4D2CE010196F6D36BE372E08EE595
:1001F00092E06DD46EE572E080E792E0E7D2809104
:10020000060281111DC084E692E02FD5AB01BC012E
:100210002AE030E080E792E0ADD38AE692E025D58F
:10022000AB01BC012AE030E080E792E0A3D3269640
:100230000FB6F894DEBF0FBECDBFDF91CF9108950A
:100240006EE372E080E792E0D1D2DDCFCF93DF930F
:1002500000D000D0CDB7DEB76FE58AE692E0BFD41C
:1002600020916E0230916F02AC014F5F5F4F6AE6E2
:1002700072E0CE010196B6D4BE016F5F7F4F80E77A
:1002800092E0A4D2CE010196F0D44AE050E080E79B
:1002900092E05AD3FFCF68E472E08AE692E002D49B
:1002A0006DE472E084E692E0FDD36DE472E08EE5E9
:1002B00092E0F8C34ACFFC01818D228D90E0805CF2
:1002C0009F4F821B91098F7399270895FC01918D8F
:1002D000828D981731F0828DE80FF11D858D90E0A9
:1002E00008958FEF9FEF0895FC01918D828D9817EF
:1002F00061F0828DDF01A80FB11D5D968C91928D0A
:100300009F5F9F73928F90E008958FEF9FEF089506
:1003100089E293E0892B39F080E090E0892B19F095
:1003200098D1811125C080E090E0892B41F080E0D8
:1003300090E0892B21F00E94000081111CC080E018
:1003400090E0892B41F080E090E0892B21F00E9421
:100350000000811113C080E090E0892BA1F080E0C3
:1003600090E0892B81F00E94000081110AC008955D
:100370000E940000D8CF0E940000E1CF0E94000040
:10038000EACF0C9400000895FC01848DDF01A80FD2
:10039000B11DA35ABF4F2C91848D90E001968F73AD
:1003A0009927848FA689B7892C93A089B1898C91CC
:1003B00080648C93938D848D981306C00288F38992
:1003C000E02D80818F7D80830895CF93DF93EC01B2
:1003D000888D8823C1F0EA89FB89808185FD05C06D
:1003E000A889B9898C9186FD0EC00FB607FCF5CFA0
:1003F000808185FFF2CFA889B9898C9185FFEDCFE7
:10040000CE01C2DFE8CFDF91CF910895CF92DF9286
:10041000FF920F931F93CF93DF931F92CDB7DEB759
:100420006C01DC015B969C915B975C968C915C9770
:10043000981307C05096ED91FC915197808185FDEE
:1004400031C0F601038D10E00F5F1F4F0F731127AE
:10045000F02EF601848DF81210C00FB607FCF9CF0C
:10046000D6015096ED91FC915197808185FFF1CF97
:10047000C601698389DF6981ECCF838DE80FF11DA7
:10048000E35AFF4F6083D6015B960C935B975296BD
:10049000ED91FC91539780818062808381E0589632
:1004A0008C930DC0D6015696ED91FC9157976083C1
:1004B0005096ED91FC91519780818064808381E01A
:1004C00090E00F90DF91CF911F910F91FF90DF90FF
:1004D000CF900895BF92CF92DF92EF92FF92CF9389
:1004E000DF93EC016A017B01B22EE889F98982E091
:1004F0008083411581EE58076105710599F060E030
:1005000079E08DE390E0A701960165D4215031098F
:10051000410951095695479537952795211580E151
:10052000380790F0E889F989108260E874E88EE174
:1005300090E0A70196014FD421503109410951099A
:100540005695479537952795EC85FD853083EE8543
:10055000FF852083188EEC89FD89B082EA89FB89AA
:10056000808180618083EA89FB89808188608083C3
:10057000EA89FB89808180688083EA89FB898081A0
:100580008F7D8083DF91CF91FF90EF90DF90CF90B0
:10059000BF9008951F920F920FB60F9211240BB6C1
:1005A0000F922F938F939F93EF93FF93E09180028D
:1005B000F09181028081E0918602F091870282FDB4
:1005C00012C09081809189028F5F8F7320918A027F
:1005D000821751F0E0918902F0E0E059FD4F958FCC
:1005E0008093890201C08081FF91EF919F918F914B
:1005F0002F910F900BBE0F900FBE0F901F9018956C
:100600001F920F920FB60F9211240BB60F922F93D9
:100610003F934F935F936F937F938F939F93AF938A
:10062000BF93EF93FF9380E792E0AEDEFF91EF91EF
:10063000BF91AF919F918F917F916F915F914F91FA
:100640003F912F910F900BBE0F900FBE0F901F90F8
:10065000189580E792E02FDE21E0892B09F420E055
:10066000822F0895109273021092720288EE93E026
:10067000A0E0B0E08093740290937502A09376029C
:10068000B093770282E592E09093710280937002BA
:1006900085EC90E090937D0280937C0284EC90E066
:1006A00090937F0280937E0280EC90E09093810291
:1006B0008093800281EC90E0909383028093820289
:1006C00082EC90E0909385028093840286EC90E027
:1006D00090938702809386021092890210928A0278
:1006E00010928B0210928C020895089512D3FDDFB0
:1006F00035DDC8E8D1E0AADD2097E9F309DEFBCFBC
:10070000CF92DF92EF92FF920F931F93CF93DF93DD
:100710006C017A01EB01E60EF71E00E010E0CE1549
:10072000DF0561F06991D601ED91FC910190F081B6
:10073000E02DC6011995080F191FF1CFC801DF91EF
:10074000CF911F910F91FF90EF90DF90CF90089580
:100750006115710581F0DB010D900020E9F7AD0115
:1007600041505109461B570BDC01ED91FC91028071
:10077000F381E02D199480E090E00895DC01ED9183
:10078000FC91DB0114964D915C9115976D917C91D4
:100790000280F381E02D1994DBCFDC01ED91FC9117
:1007A0000190F081E02D19940F931F93CF93DF9365
:1007B000EC016DE0F2DF8C016AE0CE01EEDF800F2C
:1007C000911FDF91CF911F910F9108950F931F9368
:1007D000CF93DF93EC01D2DF8C01CE01E5DF800FF8
:1007E000911FDF91CF911F910F9108950F931F9348
:1007F000CF93DF93EC01ACDF8C01CE01D5DF800F0E
:10080000911FDF91CF911F910F9108958F929F9229
:10081000AF92BF92CF92DF92EF92FF920F931F930E
:10082000CF93DF93CDB7DEB7A1970FB6F894DEBFB5
:100830000FBECDBF7C01C42EE52FCB01D22E19A255
:1008400021E02D1510F02AE0D22E8E010F5D1F4FF2
:100850008D2C912CA12CB12C6C2D7E2FA5019401F7
:10086000BAD28C2DD29E80191124015011098A30E0
:1008700014F4805D01C0895CF80180832115310585
:100880004105510521F0C22EE32FCA01E5CFB80181
:10089000C7015EDFA1960FB6F894DEBF0FBECDBFD5
:1008A000DF91CF911F910F91FF90EF90DF90CF904C
:1008B000BF90AF909F908F900895CF92DF92EF926C
:1008C000FF920F931F93CF93DF93EC016A017B019B
:1008D0002115310579F4E881F9810190F081E02D4D
:1008E000642FDF91CF911F910F91FF90EF90DF90D8
:1008F000CF9019942A303105D9F477FF18C06DE2F2
:100900004CDF8C0144275527BA014C195D096E094B
:100910007F092AE0CE017ADF800F911FDF91CF910E
:100920001F910F91FF90EF90DF90CF9008952AE0F4
:10093000B701A601CE01DF91CF911F910F91FF90DA
:10094000EF90DF90CF9062CF0F931F93CF93DF9301
:10095000EC019A01AB01662757FD6095762FADDF5C
:100960008C01CE0121DF800F911FDF91CF911F916C
:100970000F9108950F931F93CF93DF93EC019DDFA9
:100980008C01CE0111DF800F911FDF91CF911F915C
:100990000F9108952115310541F4DC01ED91FC9191
:1009A0000190F081E02D642F199430CF0F931F93A5
:1009B000CF93DF93EC019A01462F50E060E070E0A6
:1009C000E9DF8C01CE01F0DE800F911FDF91CF9126
:1009D0001F910F910895FC0180819181BAC2CF933C
:1009E000DF93EC0188819981009709F0B2D21982D6
:1009F00018821D821C821B821A82DF91CF9108957A
:100A00000F931F93CF93DF93EC018B016F5F7F4FA9
:100A1000888199812DD3009731F0998388831B8336
:100A20000A8381E001C080E0DF91CF911F910F9197
:100A30000895CF93DF93EC0188819981892B29F068
:100A40008A819B818617970758F4CE01D9DF8823C6
:100A500041F08C819D81892B19F4E881F981108204
:100A600081E0DF91CF910895EF92FF920F931F9352
:100A7000CF93DF93EC017B018A01BA01DADF8111A8
:100A800003C0CE01ACDF06C01D830C83B701888193
:100A9000998115D4CE01DF91CF911F910F91FF90D5
:100AA000EF900895FC011182108213821282158248
:100AB00014826115710551F0FB0101900020E9F7E6
:100AC000AF0141505109461B570BCECF0895CF932C
:100AD000DF93EC016115710559F0FB0101900020D5
:100AE000E9F7AF0141505109461B570BBDDF01C06B
:100AF00076DFCE01DF91CF910895EF92FF920F93B1
:100B00001F93CF93DF93EC017B010C811D81611555
:100B1000710511F480E014C04115510581F0040FF6
:100B2000151FB80186DF8823A9F3288139818C81BC
:100B30009D81B701820F931FC2D31D830C8381E077
:100B4000DF91CF911F910F91FF90EF900895611564
:100B5000710551F0FB0101900020E9F7AF01415010
:100B60005109461B570BC9CF80E00895FC01248131
:100B70003581232B31F421E06115710599F0FB01DA
:100B800008C0FC01808191816115710531F421E07B
:100B9000FC018081882331F004C088D321E0892BB7
:100BA00009F020E0822F0895CF93DF93FC01848128
:100BB00095814817590770F4C081D181772767FD67
:100BC0007095CE01840F951F66D3009719F08C1B8A
:100BD0009D0B02C08FEF9FEFDF91CF91089540E012
:100BE00050E0E2CFBF92CF92DF92EF92FF920F934D
:100BF0001F93CF93DF936C017B01EA0189012417D6
:100C0000350720F48D2FE901042F182F6DE472E0D1
:100C1000C60148DFD70114968D919C911597C8178E
:100C2000D907C0F48017910708F48C01D701ED9122
:100C3000FC911197E00FF11FB08010826D917C91B3
:100C40006C0F7D1FC60143DFD701ED91FC91E00FD2
:100C5000F11FB082C601DF91CF911F910F91FF90DC
:100C6000EF90DF90CF90BF900895FC01808191813B
:100C7000009709F0E1C260E070E0CB0108951F9297
:100C80000F920FB60F9211242F933F938F939F9340
:100C9000AF93BF9380910E0390910F03A091100327
:100CA000B091110330910D0323E0230F2D3720F471
:100CB0000196A11DB11D05C026E8230F0296A11DB6
:100CC000B11D20930D0380930E0390930F03A09307
:100CD0001003B09311038091120390911303A0911C
:100CE0001403B09115030196A11DB11D8093120349
:100CF00090931303A0931403B0931503BF91AF9186
:100D00009F918F913F912F910F900FBE0F901F9049
:100D10001895789484B5826084BD84B5816084BD63
:100D200085B5826085BD85B5816085BDEEE6F0E064
:100D3000808181608083E1E8F0E0108280818260C0
:100D40008083808181608083E0E8F0E08081816041
:100D50008083E1EBF0E0808184608083E0EBF0E071
:100D6000808181608083E1E9F0E08081826080831E
:100D7000808181608083E0E9F0E080818160808310
:100D8000E1EAF0E0808182608083808181608083FD
:100D9000E0EAF0E0808181608083E1E2F1E080813F
:100DA00082608083808181608083E0E2F1E08081E5
:100DB00081608083EAE7F0E08081846080838081C5
:100DC000826080838081816080838081806880836D
:100DD0001092C1000895A1E21A2EAA1BBB1BFD01AF
:100DE0000DC0AA1FBB1FEE1FFF1FA217B307E4070A
:100DF000F50720F0A21BB30BE40BF50B661F771F62
:100E0000881F991F1A9469F7609570958095909541
:100E10009B01AC01BD01CF0108950790F691E02D33
:100E20001994CF93DF938230910510F482E090E023
:100E3000E0911803F091190320E030E0A0E0B0E069
:100E4000309739F14081518148175907B8F0481758
:100E5000590771F482819381109729F013969C931E
:100E60008E9312972CC0909319038093180327C078
:100E70002115310531F04217530718F0A901DB01A4
:100E800001C0EF019A01BD01DF010280F381E02D75
:100E9000D7CF21153105F9F0281B390B2430310546
:100EA00080F48A819B816115710521F0FB01938398
:100EB000828304C09093190380931803FE01329635
:100EC00044C0FE01E20FF31F819391932250310938
:100ED000398328833AC02091160330911703232BBE
:100EE00041F42091020230910302309317032093C2
:100EF000160320910002309101022115310541F4C1
:100F00002DB73EB74091040250910502241B350BCA
:100F1000E0911603F0911703E217F307A0F42E1BDC
:100F20003F0B2817390778F0AC014E5F5F4F24174D
:100F3000350748F04E0F5F1F509317034093160379
:100F40008193919302C0E0E0F0E0CF01DF91CF9177
:100F50000895CF93DF93009709F487C0FC0132977F
:100F600013821282C0911803D0911903209781F443
:100F700020813181280F391F80911603909117032A
:100F80008217930779F5F0931703E09316036DC06A
:100F9000DE0120E030E0AE17BF0750F412964D910D
:100FA0005C9113979D014115510509F1DA01F3CFC9
:100FB000B383A28340815181840F951F8A179B07B9
:100FC00071F48D919C911197840F951F02969183D6
:100FD000808312968D919C91139793838283211520
:100FE000310529F4F0931903E09318033EC0D901A9
:100FF0001396FC93EE9312974D915D91A40FB51F3C
:10100000EA17FB0779F480819181840F951F02967E
:10101000D90111969C938E938281938113969C9310
:101020008E931297E0E0F0E08A819B81009719F09F
:10103000FE01EC01F9CFCE01029628813981820FA1
:10104000931F20911603309117032817390769F46D
:10105000309729F4109219031092180302C01382DA
:101060001282D0931703C0931603DF91CF91089596
:101070006F927F928F929F92AF92BF92CF92DF92A8
:10108000EF92FF920F931F93CF93DF93EC01CB016D
:10109000209779F4DF91CF911F910F91FF90EF90FE
:1010A000DF90CF90BF90AF909F908F907F906F9088
:1010B000B8CEFE01E60FF71F9E0122503109E2175C
:1010C000F30708F4A8C0D9010D911C9111970617D8
:1010D0001707B0F00530110508F49BC0A801445073
:1010E00051094617570708F494C002501109061B0E
:1010F000170B019311936D937C93CF012ADF89C065
:101100005B01A01AB10A4E01800E911EA091180336
:10111000B0911903612C712C60E070E0109709F414
:1011200049C0A815B905C9F5ED90FC901197670164
:1011300042E0C40ED11CCA14DB0478F147018A18BE
:101140009B08640142E0C40ED11C1296BC90129719
:101150001396AC91B5E0CB16D10440F0B282A383D4
:1011600091828082D9018D939C9309C00E5F1F4F9D
:101170000E0D1F1DF90111830083EB2DFA2F611550
:10118000710531F0DB011396FC93EE93129741C089
:10119000F0931903E09318033CC06D917C91119773
:1011A0006616770608F43B01BD0112960D90BC91BE
:1011B000A02DB4CF609116037091170368157905BF
:1011C000E9F468167906D0F44091000250910102CA
:1011D0004115510541F44DB75EB76091040270911D
:1011E0000502461B570BE417F507A8F4F093170305
:1011F000E0931603F901918380830BC012DE7C011A
:10120000009749F0A801BE013DD0CE01A2DEC70182
:1012100004C0CE0102C080E090E0DF91CF911F9129
:101220000F91FF90EF90DF90CF90BF90AF909F9085
:101230008F907F906F9008951F93FC0199278827C6
:10124000BC01E89411911032E9F3193010F01E300E
:10125000C8F31B3249F01D3241F4689405C036D002
:10126000610F711D811D911D119110531A30B8F33A
:101270003EF490958095709561957F4F8F4F9F4F6D
:101280001F910895FB01DC0102C001900D924150B5
:101290005040D8F70895FC018191861721F08823EA
:1012A000D9F7992708953197CF010895FB01DC0103
:1012B0008D91019080190110D9F3990B0895FB01CC
:1012C000DC0101900D920020E1F70895592F482F7D
:1012D000372F262F660F771F881F991F660F771FDE
:1012E000881F991F620F731F841F951F660F771F3A
:1012F000881F991F089510E0C8EED0E000E005C0F7
:1013000022970109FE010BBF88DDCA3ED10780E0AC
:081310000807B1F7F894FFCFC4
:1013180000001A03800001747275650066616C73C1
:10132800650068656C6C6F00576F726C64006F6E57
:1013380065203A00636F6D704C4853476C6F62616B
:101348006C203A0044495F30303800686900596FB2
:101358007520476F74203A0044495F303000000020
:0E1368000000060280035B0174016601E501CE
:00000001FF
