:1000000043C1000072C1000070C100006EC1000059
:100010006CC100006AC1000068C1000066C1000038
:1000200064C1000062C1000060C100005EC1000048
:100030005CC100005AC1000058C1000056C1000058
:1000400054C1000052C1000050C100004EC1000068
:100050004CC100004AC1000048C100000C94B21518
:1000600044C100000C942F190C9465193EC1000086
:100070003CC100003AC1000038C1000036C1000098
:1000800034C1000032C1000030C100002EC10000A8
:100090002CC100002AC1000028C1000026C10000B8
:1000A00024C1000022C1000020C100001EC10000C8
:1000B0001CC100001AC1000018C1000016C10000D8
:1000C00014C1000012C1000010C100000EC10000E8
:1000D0000CC100000AC1000008C1000006C10000F8
:1000E00004C10000EF16F216E116E516EB1629170B
:1000F000F616FA160017041708170E171217161718
:1001000029171C17201724175375636365737366CB
:10011000756C6C7920436F6E6E65637465642057EF
:1001200069746820436C69656E7400547279696EF5
:100130006720746F20636F6E6E65637420636C69F3
:10014000656E7420746F207365727665722E2E2E24
:100150000000000A0B02090C0D0E08070304010041
:10016000000000000000000000000000000000008F
:10017000000000000000000000000000001211104C
:10018000000000000000000000000000000000006F
:1001900000000000000000010210202008081020CC
:1001A0004010204080020102010804020101020403
:1001B00008102040808040201008040201800402C2
:1001C0000180402010080402010804020101020419
:1001D0000810204080010204081020408005050519
:1001E00005070508080808020202020A0A080804AE
:1001F00004040401010101010101010303030303DC
:10020000030303040707070C0C0C0C0C0C0C0C026A
:1002100002020206060606060606060B0B0B0B0B71
:100220000B0B0B000020002300260029002C002FC0
:100230000032000001000003010601090100002254
:1002400000250028002B002E0031003400020100A0
:1002500000050108010B0100002100240027002AED
:10026000002D003000330001010000040107010AE5
:1002700001007601CF01560529073407FB08A813B2
:1002800086159719421AAB1511241FBECFEFD1E284
:10029000DEBFCDBF00E00CBF13E0A0E0B2E0E2E8BB
:1002A000F1E400E00BBF02C007900D92A838B1073F
:1002B000D9F729E0A8E8B3E001C01D92A432B20743
:1002C000E1F712E0C6E8D2E000E006C0229701099B
:1002D000FE010BBF0E94791EC237D10780E00807DC
:1002E000A9F70E94521A0C94B0208ACE0F9300E016
:1002F00020E040E060E088E893E00E941B1A0F9144
:100300000895FB014281538164817581FC01428320
:10031000538364837583178216820895CF93FB01FC
:1003200081918111FDCFFB0180E090E020E030E081
:10033000CAE06191662309F12430310564F56E321B
:1003400071F48F3F910509F034F5DA01A20FB31F64
:1003500012968C932F5F3F4F80E090E0EACFDC0154
:10036000CA9FC001CB9F900D1124772767FD709520
:1003700060537109860F971FDCCF8F3F910509F0FD
:1003800054F4243031053CF4FA01E20FF31F828368
:1003900081E090E002C080E090E0CF9108950F935B
:1003A00000E020E040E060E08EE893E00E941B1A4D
:1003B0000F910895AF92BF92CF92DF92EF92FF928A
:1003C0000F931F93CF93DF9300D0CDB7DEB76C01AF
:1003D0007B010E94FC15F601778366838601085F26
:1003E0001F4FB6016A5F7F4F42E050E0C801ACD5B5
:1003F00081E090E09A83898342E050E0BE016F5F24
:100400007F4FC801A1D580E091E09A83898342E0C3
:1004100050E0BE016F5F7F4FC80196D51A821982E6
:1004200042E050E0BE016F5F7F4FC8018DD542E0D2
:1004300050E0BE016F5F7F4FC80186D542E050E0BB
:10044000BE016F5F7F4FC8017FD56701F6018081D4
:10045000882301F1F7016F018191811113C05601C9
:10046000AE18BF081A141B0484F4AB8241E050E0BC
:10047000BE016D5F7F4FC80167D5A501B701C801F7
:1004800063D503C08E3239F7EACF7601FFEFEF1A5A
:10049000FF0ADCCF1B8241E050E0BE016D5F7F4F61
:1004A000C80152D5E12CFF24F394FA82E98242E09C
:1004B00050E0BE016F5F7F4FC80146D5FA82E982E6
:1004C00042E050E0BE016F5F7F4FC8013DD581E043
:1004D00090E00F900F900F90DF91CF911F910F91AF
:1004E000FF90EF90DF90CF90BF90AF9008954F9224
:1004F0005F926F927F928F929F92AF92BF92CF92B4
:10050000DF92EF92FF920F931F93CF93DF93CDB7BC
:10051000DEB763970FB6F894DEBF0FBECDBF7C0188
:100520005B016A010E94FC152B013C018701085FF9
:100530001F4F4501A12CB12CC801A0D518161906D2
:1005400094F00E94FC1564197509860997098616AE
:100550009706A806B906D0F062E370E080E090E06C
:100560000E942B16E9CFF701428153816481758186
:10057000818D928DA38DB48D481759076A077B072B
:1005800041F4858D968DC59721F406C08FEF9FEFBE
:10059000E0C08EEF9FEFDDC0C8018CD40C970CF447
:1005A000D6C04CE050E0BE016F5F7F4FC80107D559
:1005B0008B819C819827892798279A8B898BF701B3
:1005C0004681578129813A814217530711F497FDDB
:1005D00005C0C80189D48CEF9FEFBBC08F709270AB
:1005E000892B29F0C80180D48BEF9FEFB2C0AF8078
:1005F000B884BA24AB24BA24A114B10419F0E12CB4
:10060000F12C1DC0C80170D48AEF9FEFA2C041E059
:1006100050E0BE01635F7F4FC801D1D48D85811149
:1006200017C08D858111F3CFC801A1D4C8019FD413
:10063000C8019DD4C8019BD4FFEFEF1AFF0A8D813A
:100640009E81982789279827E816F90600F309C0A4
:100650008D859FEF980F9D87882319F3C80187D454
:10066000F7CFE12CF12C41E050E0BE016D5E7F4FF1
:10067000C801A5D48B89982F907C59F4882361F008
:100680008B899FEF980F9B8B882331F0C8016FD423
:10069000F7CFC8016CD41B8A8B898111E4CF42E06B
:1006A00050E0BE01615F7F4FC80189D442E050E055
:1006B000BE01635F7F4FC80182D4C80158D4C8010E
:1006C00056D4C80154D4C80152D442E050E0BE010F
:1006D0006F5E7F4FC80173D48F85988981159140D3
:1006E00029F48D859E858115914019F0812C912CDE
:1006F00014C089899A898115944029F0C801F4D3DE
:1007000087EF9FEF26C0B6016E5F7F4F44E050E059
:10071000C80155D481E090E01CC089899A89982746
:10072000892798278816990630F4C80120D42FEF1E
:10073000821A920AF2CF8FEFE81AF80AEA14FB0441
:1007400009F091CFC801D0D386EF9FEF02C08DEFA3
:100750009FEF63960FB6F894DEBF0FBECDBFDF915B
:10076000CF911F910F91FF90EF90DF90CF90BF90AE
:10077000AF909F908F907F906F905F904F90089573
:100780008F929F92AF92BF92CF92DF92EF92FF92A1
:100790000F931F93CF93DF9300D000D0CDB7DEB778
:1007A0008C015B016A01BADD4C01009709F057C06A
:1007B000F801428153816481758180919003909109
:1007C0009103A0919203B0919303481759076A07C8
:1007D0007B0709F448C00E94FC157801F8E0EF0E91
:1007E000F11C6F7077277C5FC7011DD4813009F041
:1007F0003EC085E893E09A838983F80182819381E2
:10080000A481B5818B839C83AD83BE8345E350E097
:10081000BE016F5F7F4FC7018DD3892B19F4812CE7
:10082000912C1AC0B501C801C5DD892BC1F3C701E0
:1008300088D3892BA1F333E0A32EB12CA60168E85D
:1008400073E1C80154DE4C01F1E0AF1AB10821F0A8
:100850008F3F2FEF920791F3C70158D308C0882428
:100860008394912C04C09EEF892E99249A94C401FC
:1008700026960FB6F894DEBF0FBECDBFDF91CF91A5
:100880001F910F91FF90EF90DF90CF90BF90AF90AE
:100890009F908F9008952091D603222399F03FB71F
:1008A000F8942091D603213059F42DB32093D4032A
:1008B0004DB32091D503209524232DBB3FBF02C00B
:1008C0003093D4038CBD9DBD08958091D6038823B9
:1008D00061F09FB7F8942091D6038091D403213022
:1008E00019F48DBB9FBF08958FBF089544E050E079
:1008F000BC0181E090E00C94130D44E050E0BC0199
:1009000085E090E00C94130D44E050E0BC018FE0D2
:1009100090E00C94130D8F929F92AF92BF92CF9262
:10092000DF92EF92FF920F931F93CF93DF931F926B
:100930001F92CDB7DEB74C016A0159018EEB93E0EF
:1009400069837A830E94AF0C80E590E0A4DF46E0E3
:1009500050E069817A8189E090E00E94130DC60120
:100960000296D2DFC8010296C1DFC7010296C5DF39
:10097000ACDFF5014281538164817581F4014283CA
:100980005383648375830F900F90DF91CF911F91F4
:100990000F91FF90EF90DF90CF90BF90AF909F901E
:1009A0008F9008956F927F928F929F92AF92BF9295
:1009B000CF92DF92EF92FF920F931F93CF93DF932B
:1009C000CDB7DEB76E970FB6F894DEBF0FBECDBFC2
:1009D0006C015B017A014901380100E02FEF4FEF14
:1009E0006FEFCE0149960E941B1A25E833E03A8347
:1009F00029838B8D9C8DAD8DBE8D8B839C83AD8328
:100A0000BE8338872F83F30182819381A481B581CE
:100A100089879A87AB87BC873E872D87F4018281BF
:100A20009381A481B5818F87988BA98BBA8B3C8BDE
:100A30002B8BF70142815381648175814D8B5E8BD5
:100A40006F8B788FCE0101967C018E01095F1F4F5D
:100A50009E01235F3F4FAE014D5E5F4FB501C60162
:100A60005ADF6E960FB6F894DEBF0FBECDBFDF9192
:100A7000CF911F910F91FF90EF90DF90CF90BF909B
:100A8000AF909F908F907F906F90089525E833E00E
:100A9000FC0131832083FB01428153816481758194
:100AA000FC01428353836483758308950F9300E0B0
:100AB00020E040E060E084EA93E00E941B1A84E9B1
:100AC00093E00F910C94111A81E086270895862FE8
:100AD0000895DC01ED91FC91048CF58DE02D1995C4
:100AE00091E089270895CF93DF931F92CDB7DEB7AA
:100AF0006983DC01ED91FC910280F381E02D41E0FE
:100B000050E0BE016F5F7F4F19950F90DF91CF913D
:100B1000089521E0FC018485843009F420E0822FCF
:100B20000895FC019485FB018485981303C081E03E
:100B3000943009F480E008950F931F93CF93DF93CF
:100B4000EC018A018C85843019F0E0D4892B39F4CA
:100B500081E090E09B838A8380E090E001C0C8013F
:100B6000DF91CF911F910F910895FC01848584300E
:100B700009F0AAC580E090E00895CF93DF931F921B
:100B8000CDB7DEB741E050E0BE016F5F7F4FFC01A3
:100B9000848540D5181619061CF4898190E002C09E
:100BA0008FEF9FEF0F90DF91CF910895FC01848527
:100BB00031C50F931F93CF93DF931F92CDB7DEB74D
:100BC0008C01DC01ED91FC910480F581E02D1995FB
:100BD000892B49F0BE016F5F7F4FF80184859BD55B
:100BE000898190E002C08FEF9FEF0F90DF91CF914E
:100BF0001F910F910895FC018485B9C5CF92DF92B2
:100C0000EF92FF920F931F93CF93DF93CDB7DEB791
:100C1000AF970FB6F894DEBF0FBECDBF7C018B013E
:100C20006A01CE0101960E94111ACE01099674D272
:100C3000CE018A960E94111A64E973E0CE0184966F
:100C400025DFBE016C5D7F4FCE0101965ADBAE0100
:100C5000465D5F4FB801CE01019692DD813091056E
:100C6000C1F4D701ED91FC910484F585E02D85E870
:100C700093E09DA38CA30CA51DA52EA53FA50EA3B7
:100C80001FA328A739A7A601BE016C5D7F4FC7012E
:100C90001995AF960FB6F894DEBF0FBECDBFDF91AA
:100CA000CF911F910F91FF90EF90DF90CF9008951B
:100CB000FC011382128248EE53E060E070E044834E
:100CC00055836683778385E392E09183808384E014
:100CD00084870895FC018485843009F00AC380E08C
:100CE0000895DF92EF92FF920F931F93CF93DF93BC
:100CF000EC017B018A018C85843009F040C0D12C45
:100D00008D2DF7D2811102C0DC8607C08B7F883120
:100D1000D9F3D39484E0D812F3CF8C85843079F161
:100D200020910A0230910B022F5F3F4F11F420E017
:100D300030EC30930B0220930A0240910A0250914A
:100D40000B0220E061E01ED3B7016E5F7F4FA80168
:100D50008C8566D3811103C084E08C8710C0CE01DE
:100D6000B9DF873149F061E070E080E090E00E94F7
:100D70002B16CE01AFDFEECF81E090E002C080E025
:100D800090E0DF91CF911F910F91FF90EF90DF9056
:100D90000895CF92DF92EF92FF92CF93DF93EC0111
:100DA0008C85843061F18FD30E94FC156B017C012E
:100DB000CE0190DF882359F00E94FC156C197D0943
:100DC0008E099F09683E73408105910588F0CE0128
:100DD00081DF882311F08C85AFD2EC85F0E0EE0F37
:100DE000FF1FE456FC4F1182108284E08C8707C0FD
:100DF00061E070E080E090E00E942B16D9CFDF9197
:100E0000CF91FF90EF90DF90CF900895CF93DF9335
:100E1000EC018C858430C9F0CE015CDF8431A9F00F
:100E2000882399F0883189F08C3169F4E881F9815F
:100E30000480F581E02DCE01199521E0892B09F47C
:100E400020E0822F03C081E001C080E0DF91CF91DC
:100E500008950F9300E020E040E060E08AEA93E02C
:100E60000E941B1A0F9108950F9300E020E040E0CC
:100E700060E080EB93E00E941B1A0F910895DC0163
:100E8000ED91FC91008CF18DE02D199425E833E073
:100E9000FC0131832083FB01418952896389748974
:100EA000FC0142835383648375830895FC01858923
:100EB00096890895FC01818D928D0895CF93DF93DB
:100EC0001F92CDB7DEB76983DC01ED91FC91028002
:100ED000F381E02D41E050E0BE016F5F7F4F199537
:100EE0000F90DF91CF910895CF93DF93EC01898D1F
:100EF0009A8D892B41F0E881F9810680F781E02DF8
:100F0000CE011995F4CFDF91CF910895CF93DF9360
:100F1000EC018C85843059F00FD2EC85F0E0EE0FB7
:100F2000FF1FE456FC4F1182108284E08C87DF9112
:100F3000CF910895FC01108E178A6E5F7F4F8485D4
:100F400059C4FC01848598C4CF93DF93EC019A01C6
:100F50008F89988DAB01BC018C850AD42F89388D7F
:100F6000280F391F388F2F8BDF91CF9108950F9362
:100F70001F93CF93DF931F92CDB7DEB78C01FC0197
:100F8000818D928D892B51F041E050E0BE016F5F61
:100F90007F4F84853FD3181619061CF08FEF9FEF03
:100FA00008C0F801818D928D0197928F818F898180
:100FB00090E00F90DF91CF911F910F910895CF9303
:100FC000DF93EC01898D9A8D009719F48FEF9FEFD5
:100FD0000FC04817590708F0AC018C851BD31816B1
:100FE0001906A4F7298D3A8D281B390B3A8F298FC2
:100FF000DF91CF910895CF93DF931F92CDB7DEB7E6
:10100000FC01218D328D232B41F0BE016F5F7F4F9C
:10101000848581D3898190E002C08FEF9FEF0F908C
:10102000DF91CF910895FF920F931F93CF93DF939A
:10103000EC018B018C858430D1F4F12C8F2D59D1AA
:10104000811102C0FC8606C08831E1F3F39484E08C
:10105000F812F4CF8C85843051F01E870D871A8EDC
:10106000198E20E0A80162E08DD181E001C080E00E
:10107000DF91CF911F910F91FF9008950F931F93D0
:10108000CF93DF93CDB7DEB728970FB6F894DEBFC6
:101090000FBECDBF8C01DC01ED91FC910284F38584
:1010A000E02D1995F80184850FD3181619063CF523
:1010B00048E050E0BE016F5F7F4FD8011C968C91D5
:1010C000A9D218161906ECF4BE016F5F7F4FC80154
:1010D0000F960E94371A8D8190E0982F88272E81D5
:1010E000820F911DF801968B858B8F8190E0982F50
:1010F00088272885820F911D928F818F02C080E002
:1011000090E028960FB6F894DEBF0FBECDBFDF91FA
:10111000CF911F910F910895FC011382128248EE26
:1011200053E060E070E0448355836683778389E50C
:1011300092E09183808384E08487CF010F960C94A2
:10114000111ACF92DF92EF92FF920F931F93CF93DA
:10115000DF93CDB7DEB7AF970FB6F894DEBF0FBE03
:10116000CDBF7C018B016A01CE0101960E94111A4C
:10117000CE010996D1DFCE018A960E94111A64E948
:1011800073E0CE01849682DCBE016C5D7F4FCE01A0
:101190000196B7D8AE01465D5F4FB801CE0101960A
:1011A000EFDA81309105C1F4D701ED91FC9100880F
:1011B000F189E02D85E893E09DA38CA30CA51DA5E6
:1011C0002EA53FA50EA31FA328A739A7A601BE01E0
:1011D0006C5D7F4FC7011995AF960FB6F894DEBFCF
:1011E0000FBECDBFDF91CF911F910F91FF90EF9078
:1011F000DF90CF9008950F9300E020E040E060E0A2
:1012000086EB93E00E941B1A0F910895CF92DF9214
:10121000EF92FF920F9330E0C12CF2E1DF2EFAE75C
:10122000EF2EF12C4C155D056E057F0540F4F6940C
:10123000E794D794C7943F5F3630A1F737E041E099
:101240004327211102C050E701C050E5242F30E0B0
:101250003595279523700C70202B252BFC012083BE
:10126000417041830F91FF90EF90DF90CF900895F0
:1012700090E0982F882744E050E0845F9B4FD3C3D1
:10128000282F30E02C5F3F4F922F8827860F971F23
:10129000F3C362E070E0F4CFFB01282F30E02C5F55
:1012A0003F4F922F8827642F8E0F9F1F3BC3CF93F2
:1012B000DF93C82FD62F472F64E070E0EDDF4D2F6E
:1012C00065E070E08C2FDF91CF91E6CF462F62E092
:1012D00070E0E2CFCF93DF93C82FD62F472F60E186
:1012E00070E0DADF4D2F61E170E08C2FDF91CF915C
:1012F000D3CF0F931F93CF93DF9300D0CDB7DEB73B
:10130000182F00E021E040E059E06DE370E0CE01ED
:1013100001967CDF89819A81BEDA63E070E0812FDB
:10132000AFDF8B83D2DA8B810F900F900F90DF911C
:10133000CF911F910F9108950F931F93CF93DF9338
:101340001F921F92CDB7DEB7182F00E021E040E0DA
:1013500059E06DE370E0CE01019658DF89819A81F2
:101360009ADA40E150E0612F8EEB93E02ED56FEFDB
:10137000812FACDFAADA0F900F90DF91CF911F91F0
:101380000F910895CF92DF92EF92FF920F931F93E8
:10139000CF93DF931F921F92CDB7DEB7182FD62EB3
:1013A0007A01C22E8FEF860F853070F5812FC4DF52
:1013B00000E021E040E059E06DE370E0CE010196ED
:1013C00025DF89819A8167DA4D2D4C2960E070E034
:1013D000812F62DFE114F10411F0B7010AC06091BE
:1013E000BC037091BD036F5F7F4F7093BD0360932B
:1013F000BC03812F5CDF41E050E0612F8EEB93E076
:10140000E4D463DA81E001C080E00F900F90DF91B7
:10141000CF911F910F91FF90EF90DF90CF900895A3
:10142000CF92DF92EF92FF920F931F93CF93DF93B0
:101430001F921F92CDB7DEB7182F7B016A01FB0107
:1014400080818F3F51F481818F3F99F482818F3F5A
:1014500081F483818F3F69F42AC081110AC0FB01A6
:101460008181811106C08281811103C0838188231B
:10147000F1F0C114D104D9F000E021E040E059E0DE
:101480006DE370E0CE010196C1DE89819A8103DAB5
:10149000B701812FEDDEB601812F1CDF44E050E063
:1014A000612F8EEB93E091D410DA81E001C080E0EF
:1014B0000F900F90DF91CF911F910F91FF90EF90C0
:1014C000DF90CF9008950F931F93CF93DF931F92D8
:1014D0001F92CDB7DEB7182F00E021E040E059E0C1
:1014E0006DE370E0CE01019691DE89819A81D3D9B6
:1014F00048E050E0612F8EEB93E067D4E6D90F907F
:101500000F90DF91CF911F910F910895BF92CF92CD
:10151000DF92EF92FF920F931F93CF93DF9300D050
:10152000CDB7DEB7B82E6B017A01413088E058079D
:1015300018F0E12C98E0F92E00E021E040E059E0BD
:101540006DE370E0CE01019661DE89819A81A3D9B5
:101550006B2D8EEB93E0C0D28C0163E070E08B2D9D
:101560008FDE8B83B2D98B81873111F08C3131F4CE
:101570000E94B1150E151F05F8F202C0E12CF12CE6
:1015800000E021E040E059E06DE370E0CE0101961B
:101590003DDE89819A817FD99701A6016B2D8EEB63
:1015A00093E04DD340E250E06B2D8EEB93E00DD4F1
:1015B0008B2D6FDE84FD1CC063E070E08B2D60DE40
:1015C000811106C082D98B2DB7DE80E090E015C076
:1015D0007CD90E94B11500E021E040E059E06DE3C4
:1015E00070E0CE01019612DE89819A8154D9E0CF54
:1015F00060E18B2D6BDE69D9C7010F900F900F90C2
:10160000DF91CF911F910F91FF90EF90DF90CF90DE
:10161000BF900895AF92BF92CF92DF92EF92FF9268
:101620000F931F93CF93DF931F921F92CDB7DEB717
:10163000182F5B016A0100E021E040E059E06DE312
:1016400070E0CE010196E2DD89819A8124D9612F73
:101650008EEB93E071D27C01009799F463E070E027
:10166000812F0EDE843109F18823F9F021E030E08A
:101670008C3111F420E030E0EE24FF24E21AF30A6A
:1016800014C0C816D9060CF476011E141F046CF49D
:1016900000E09701A501612F8EEB93E04BD340E46E
:1016A00050E0612F8EEB93E090D30FD9C7010F90DC
:1016B0000F90DF91CF911F910F91FF90EF90DF90EE
:1016C000CF90BF90AF9008950F931F93CF93DF9368
:1016D00000D01F92CDB7DEB7182F00E021E040E028
:1016E00059E06DE370E0CE01019690DD89819A8129
:1016F000D2D8612F8EEB93E01FD28B839C83E5D8E9
:101700008B819C810F900F900F900F90DF91CF9164
:101710001F910F910895EF92FF920F931F93CF9314
:10172000DF931F921F92CDB7DEB7182F7B0100E029
:1017300021E040E059E06DE370E0CE01019666DD06
:1017400089819A81A8D801E021E030E0A701612FCA
:101750008EEB93E0EFD2B9D881E090E00F900F903C
:10176000DF91CF911F910F91FF90EF900895089511
:101770009F92AF92BF92CF92DF92EF92FF920F9320
:101780001F93CF93DF931F921F92CDB7DEB7982E92
:101790006B015A01790100E021E040E059E06DE37E
:1017A00070E0CE01019632DD89819A8174D8692D6D
:1017B0008EEB93E091D18E159F0528F4692D8EEB69
:1017C00093E08AD17C0187019501A601692D8EEBFA
:1017D00093E0CCD17AD8C7010F900F90DF91CF91D1
:1017E0001F910F91FF90EF90DF90CF90BF90AF903F
:1017F0009F900895CF92DF92EF92FF920F931F93E5
:10180000CF93DF931F921F92CDB7DEB7182F7B01C6
:101810006A01FB018081811109C08181811106C0AB
:101820008281811103C083818823C9F0C114D1044E
:10183000B1F000E021E040E059E06DE370E0CE015E
:101840000196E4DC89819A8126D8B701812F10DDC9
:10185000B601812F3FDD39D881E090E002C080E001
:1018600090E00F900F90DF91CF911F910F91FF901B
:10187000EF90DF90CF9008950F931F93CF93DF9356
:101880001F921F92CDB7DEB7182F00E021E040E095
:1018900059E06DE370E0CE010196B8DC89819A8150
:1018A0000E944B0440E250E0612F8EEB93E08DD21A
:1018B000812FEFDC84FD1DC0812FEBDC83FF07C08F
:1018C00068E1812F03DD01D880E090E019C00E941B
:1018D00065040E94B11500E021E040E059E06DE3AD
:1018E00070E0CE01019692DC89819A810E944B04BE
:1018F000DFCF60E1812FEADC0E94650481E090E0A7
:101900000F900F90DF91CF911F910F9108958EBD91
:1019100000000DB407FEFDCF8EB508952C980895F4
:101920002C9A08951F93CF93DF931F921F92CDB7E8
:10193000DEB7182F6A839983F1DF80EFE8DF9981A2
:10194000892FE5DF812FE3DF6A81862FE0DFE8DF83
:1019500081E00F900F90DF91CF911F910895CF9369
:10196000DF93EC016CE271E080E090E00E942B16C6
:10197000F9D6249A8091D603882399F09FB7F894DA
:101980008091D603813059F48DB38093D4032DB365
:101990008091D503809582238DBB9FBF02C0909319
:1019A000D40380E58CBD1DBC60E880E090E0BADF28
:1019B00065E58BE190E0B6DF65E58AE190E0B2DFB6
:1019C0008091D603882361F09FB7F8942091D603C5
:1019D0008091D403213019F48DBB9FBF01C08FBF0C
:1019E00080E090E49983888380E090E699878887F7
:1019F00080E098E49B838A8380E098E69B878A87CF
:101A000080E090E59D838C8380E090E79D878C87C4
:101A100080E098E59F838E8380E098E79F878E879C
:101A2000DF91CF910895CF92DF92EF92FF920F93C3
:101A30001F93CF93DF93EC017A018B016C01C40EED
:101A4000D51ECC15DD0571F069DF80EF60DF8D2FCD
:101A50005EDF8C2F5CDF2196F80181918F0157DFCB
:101A60005FDFEFCFC701DF91CF911F910F91FF9003
:101A7000EF90DF90CF9008951F93CF93DF931F9245
:101A8000CDB7DEB7182F998349DF8FE040DF99810A
:101A9000892F3DDF812F3BDF80E039DF898340DF05
:101AA00089810F90DF91CF911F9108951F93CF935C
:101AB000DF93182F60E270E0E3DBC82FD0E061E233
:101AC00070E0812FDDDBDC2FCC279E01282BC901A4
:101AD000DF91CF911F910895FF920F931F93CF93A2
:101AE000DF93F62EC0E0D0E08F2DE0DF8C01009771
:101AF00019F08F2DDBDFEC01C017D107A9F7CE015C
:101B0000DF91CF911F910F91FF9008951F93CF9375
:101B1000DF93182F66E270E0B3DBC82FD0E067E2F6
:101B200070E0812FADDBDC2FCC279E01282BC90173
:101B3000DF91CF911F910895FF920F931F93CF9341
:101B4000DF93F62EC0E0D0E08F2DE0DF8C01009710
:101B500019F08F2DDBDFEC01C017D107A9F7CE01FB
:101B6000DF91CF911F910F91FF9008956F927F9217
:101B70009F92AF92BF92CF92DF92EF92FF920F931C
:101B80001F93CF93DF931F92CDB7DEB7D82E962E3B
:101B90003A01590164E270E0892D998371DBE82EE6
:101BA000F12C65E270E0892D6BDBFE2CEE24E82A37
:101BB000E60CF71C970137706D2C9981792E690C12
:101BC000711C690C711CD301ED91FC91E20FF31FA4
:101BD000C901800F911F8130984098F0C12C48E0D6
:101BE000D42EC21AD30AA601B501CF011CDFA80169
:101BF0004C195D09B5016C0D7D1DF301808191814A
:101C000003C0A801B501CF010EDFE00EF11E4F2D7C
:101C100064E270E0892D40DB4E2D65E270E0892D95
:101C20000F90DF91CF911F910F91FF90EF90DF9078
:101C3000CF90BF90AF909F907F906F902DCB0F93E0
:101C40001F9389019A0140E050E090DF1F910F91AE
:101C50000895CF92DF92EF92FF920F931F93CF934D
:101C6000DF93EC017A018B016C01C40ED51ECC15FB
:101C7000DD0579F053DE8FE04ADE8D2F48DE8C2FB4
:101C800046DE219680E043DEF80181938F0148DE35
:101C9000EECFC701DF91CF911F910F91FF90EF9091
:101CA000DF90CF900895AF92BF92CF92DF92EF92E4
:101CB000FF920F931F93CF93DF931F921F92CDB785
:101CC000DEB75A8349835901E981FA81F7707C01B3
:101CD000E60EF11CE60EF11CD70118968D919C9131
:101CE00019978E0F9F1F98012E0F3F1F21303840EC
:101CF00090F0C12C68E0D62ECE1ADF0AA601B501FD
:101D0000A8DFA8014C195D09B5016C0D7D1DF70117
:101D10008085918502C0A801B5010F900F90DF91D9
:101D2000CF911F910F91FF90EF90DF90CF90BF90D8
:101D3000AF908FCF8F929F92AF92BF92CF92DF9250
:101D4000EF92FF920F931F93CF93DF936C01962E28
:101D50005A017901802E68E270E0892D91DAC82F4E
:101D6000D0E069E270E0892D8BDADC2FCC27C82B1C
:101D700087019501AE01692DC60195DF811018C05C
:101D8000CE0DDF1D4D2F68E270E0892D85DA4C2FD6
:101D900069E270E0892DDF91CF911F910F91FF9043
:101DA000EF90DF90CF90BF90AF909F908F9074CACC
:101DB000DF91CF911F910F91FF90EF90DF90CF9027
:101DC000BF90AF909F908F900895CF93C62F61E002
:101DD00070E08C2F61DA61E070E08C2F51DA8111B4
:101DE000FACFCF910895CF92DF92EF92FF920F93A7
:101DF0001F93CF93DF93EC018B01FED66B017C0127
:101E000088819981DC01ED91FC910480F581E02DC0
:101E10001995892B61F4F0D66C197D098E099F09FB
:101E200068397A438105910558F380E00CC08881B8
:101E30009981DC01ED91FC910680F781E02D1995E7
:101E4000F801808381E0DF91CF911F910F91FF9086
:101E5000EF90DF90CF9008950F931F93CF93DF9370
:101E6000EA0108811981600F711FBDDF882331F0FD
:101E70000F5F1F4F1983088381E001C080E0DF916D
:101E8000CF911F910F9108953F924F925F926F9261
:101E90007F928F929F92AF92BF92CF92DF92EF92FA
:101EA000FF920F931F93CF93DF9300D0CDB7DEB790
:101EB0008C016B011A8219825C0122E0A20EB11C16
:101EC000AE014F5F5F4FB501C7DF811103C080E0F6
:101ED00090E0BBC0D80112969C901B82E12CF12CA3
:101EE000412C512C32014394BE016D5F7F4FC801DC
:101EF0007ADF882361F329813A81C90101969A83A7
:101F000089836B81F801E20FF31F6283462F4F77BD
:101F100050E0449D9001459D300D549D300D11249D
:101F2000E20EF31E97E0440C551C661C771C9A9534
:101F3000D1F767FDD9CF292D207F33243394203367
:101F400009F0312C8150F6018083332031F1AE014C
:101F50004F5F5F4FB501C8017FDF882309F4B7CF1A
:101F6000AE014F5F5F4FB501C80176DF882309F4EA
:101F7000AECFD6018C91F801E80FF11D4380512CB2
:101F8000542C44248481480E511CF801828181FF25
:101F900008C0F2E04F0E511C04C080E0412C512CCF
:101FA00001C082E0A82EB12C612C712C48012FEFCA
:101FB000821A2BEF920AC3018A0D9B1D8E159F0575
:101FC000A0F5BE016D5F7F4FC8010DDF882309F4C6
:101FD0007ECFD4018D919C910097A9F0332099F088
:101FE00029813A8122503109F6014081241B3109AF
:101FF0004216530640F4DC01ED91FC910190F08112
:10200000E02D6B81199589819A81883EB3E09B0709
:1020100028F42B81F801E80FF91F228301969A8397
:102020008983EFEF6E1A7E0AC6CFF801EF5FFB4F90
:1020300080819181892B39F489819A81893E9340ED
:1020400010F01A82198289819A810F900F900F9057
:10205000DF91CF911F910F91FF90EF90DF90CF9084
:10206000BF90AF909F908F907F906F905F904F90B8
:102070003F900895AF92BF92CF92DF92EF92FF927E
:102080000F931F93CF93DF9300D01F92CDB7DEB78E
:102090007C01F90180E09E2F9F77EE0FEF2FEE1F5E
:1020A000FF0BF195309709F09068A1E0B0E0AC0F1C
:1020B000BD1FA80FB11D9C938F5F309761F7A82EAD
:1020C000B12CDA01AA19BB0914966C93BE016F5F9B
:1020D0007F4F80E090E04A195B098A159B0554F414
:1020E000FB01D190BF018A01080F191FF801D582A9
:1020F0000196F3CFF7018081918189010F5F1F4F16
:102100000A0D1B1DFC0120813181F90122813381DF
:10211000A801BD01F90119956C016ED5F701E451D3
:10212000FC4F608371838283938381E0C016D10664
:1021300009F080E00F900F900F900F90DF91CF91FA
:102140001F910F91FF90EF90DF90CF90BF90AF90D5
:102150000895C9010296DB01FD01E61BF70B2D91E5
:10216000222331F0FA01E80FF91F20830196F4CF02
:102170009C012E1B3F0B240F351FD9011297FC9396
:102180001196EC930895CF93DF93EC0188819981A8
:10219000009731F1DC01ED91FC910488F589E02D87
:1021A000199581111FC0FE01ED5FFB4F8081918168
:1021B000892BB1F48DEF9FEF918380838881998182
:1021C000DC01ED91FC910284F385E02D1995888165
:1021D0009981DC01ED91FC910288F389E02D19953C
:1021E00080E001C081E0DF91CF9108952F923F926E
:1021F0004F925F926F927F928F929F92AF92BF9217
:10220000CF92EF92FF920F931F93CF93DF93CDB7AF
:10221000DEB72C970FB6F894DEBF0FBECDBF4C01D2
:102220001B012A013901AFDF811113C1F401E35011
:10223000FC4F60817181D4018D919C911197A150C7
:10224000BC4FFC01208131816115710541F04D9138
:102250005C91D9011E96ED91FC911F971FC0F90169
:102260000484F585E02DFC87EB87ED91FC9125E852
:1022700033E03A832983D401A950BC4F12964D9183
:102280005D916D917C9115974B835C836D837E830B
:10229000AF01BE016F5F7F4FEB85FC851995892BE0
:1022A00009F4CEC081E090E0F401E651FC4F918347
:1022B000808387E0EAE2F2E0DE01119601900D9260
:1022C0008A95E1F7FE01319680E090E02191D401FA
:1022D000A80FB91F17962C93019687309105B1F777
:1022E0000115110559F0F0E2CF9EC001112486605E
:1022F00028E0E29E700111248E2901C082E0411481
:10230000510431F06114710411F4806801C0806CD3
:10231000D4011E968C931E971F961C921F978FE0D8
:1023200050968C937401B2E0EB0EF11C2FE030E07C
:10233000A701B101C4010DDF0115110551F09C0188
:10234000A701B801C40105DF9C01A701B501C401C3
:1023500000DF4114510469F09C01A701B201C401DE
:10236000F8DE6114710429F09C01A701B301C401D6
:10237000F0DE9C0125503109A70160E1C4017ADE3D
:102380003BD4F401E451FC4F6083718382839383D7
:10239000840100511C4FF801608371838283938311
:1023A000F40180819181DC01ED91FC910480F58143
:1023B000E02D1995892BB9F41FD4D8014D905D906B
:1023C0006D907C90641975098609970968397A437C
:1023D0008105910528F3F401ED5FFB4F8CEF9FEF32
:1023E0009183808322C0BE01685F7F4FC4014CDDB2
:1023F0000497D9F4F401858194012D5F3B4F790155
:1024000081110FC0F9D3D8016D937D938D939C9367
:102410001397F401EC50FC4F1082F70111821082E7
:1024200018C090E0D9018D939C93F4018081918133
:10243000DC01ED91FC910288F389E02D199507C02C
:10244000F401ED5FFB4F8EEF9FEF9183808380E07F
:1024500001C081E02C960FB6F894DEBF0FBECDBF51
:10246000DF91CF911F910F91FF90EF90CF90BF9090
:10247000AF909F908F907F906F905F904F903F9024
:102480002F900895AF92BF92CF92EF920F931F9328
:10249000A12CB12CC12CE12C00E010E020E030E0B8
:1024A00040E050E0A3DE1F910F91EF90CF90BF90DE
:1024B000AF9008958F929F92BF92CF92DF92EF924A
:1024C000FF920F931F93CF93DF931F921F92CDB76D
:1024D000DEB74C01B42E152F790169837A8353DE60
:1024E00069817A81882309F444C0FB0101900020AE
:1024F000E9F73197E61BF70BC70107968E0F9F1F71
:10250000893E9340B0F5640182E0C80ED11C25E0FD
:1025100030E0A601C4011DDEEB2DF12F60E070E07C
:102520009401280F391F6E157F0549F04191D9019B
:10253000A60FB71F12964C936F5F7F4FF4CF011118
:1025400002C060E301C061E3970125503109280F03
:10255000391FA601C4010F900F90DF91CF911F91F9
:102560000F91FF90EF90DF90CF90BF909F908F9052
:1025700081CD80E00F900F90DF91CF911F910F914F
:10258000FF90EF90DF90CF90BF909F908F90089535
:102590000F93FA0101900020E9F79F0121503109C2
:1025A000241B350B00E086DF0F910895CF92DF9258
:1025B000FF920F931F93CF93DF931F921F92CDB77C
:1025C000DEB76C01F42E81E0841708F43EC0FB01F5
:1025D00001900020E9F7E61BF70B3896E93EF3403F
:1025E000A0F5C60169837A83CEDD69817A8188236B
:1025F00061F1F601E651FC4F80819181019611F461
:1026000081E090E09183808380819181F6019783BE
:10261000808786010E5F1F4F27E030E0A801C601CA
:1026200098DDF601E80FF91FF2829C012450310970
:10263000A80162E8C6010F900F90DF91CF911F9122
:102640000F91FF90DF90CF9015CD80E00F900F900D
:10265000DF91CF911F910F91FF90DF90CF90089560
:1026600040E0A4CFCF92DF92EF92FF920F931F939F
:10267000CF93DF93CDB7DEB72C970FB6F894DEBFBC
:102680000FBECDBF7C01FB016A0103812281418124
:102690006081CE010796CFD609851A852B853C85AA
:1026A000F701E950FC4F0283138324833583389666
:1026B000D182C082329711821082C7012C960FB648
:1026C000F894DEBF0FBECDBFDF91CF911F910F9168
:1026D000FF90EF90DF90CF900895CF92DF92EF922E
:1026E000FF920F931F93CF93DF9300D01F92CDB72C
:1026F000DEB76C01790189509C4F4B835C83698301
:102700007A838FD6F601ED5FFB4F8FEF9FEF9183BA
:1027100080834B815C8169817A81C601A3DFF601E8
:10272000EB50FC4FF182E082F60111830083EF5FF2
:10273000FB4F118210820F900F900F900F90DF913E
:10274000CF911F910F91FF90EF90DF90CF90089560
:102750000F9300E020E040E060E08EEC93E06BD669
:102760000F910895CF93CFB7F8948091D70381113B
:1027700023C0E2E1F2E08491ECECF1E09491E82FE7
:10278000F0E0EE0FFF1FE95AFD4FA591B4918C9137
:10279000892319F461E085E396D361E085E35AD398
:1027A0008CB580618CBD8CB580648CBD61E084E3A8
:1027B00051D361E083E34ED38091D7038F5F809341
:1027C000D703CFBFCF910895CF93DF93CDB7DEB7B7
:1027D0002C970FB6F894DEBF0FBECDBFDB01EEEF36
:1027E000F7E04250584FE417F50719F08D918193A7
:1027F000FACF10826EEF77E0CE010796E7D769E750
:1028000072E0CE010196E2D7BE01695F7F4FCE0133
:1028100001960E943B1CBC018DE798E0E7D6CE01F3
:1028200001966DD763E872E0CE0107960E944C1CBA
:10283000CE01079664D72C960FB6F894DEBF0FBE74
:10284000CDBFDF91CF9108950F931F93CF93DF9367
:10285000CDB7DEB762970FB6F894DEBF0FBECDBF1F
:1028600026E040E855E260E070E08DE798E097D41C
:1028700060E080911202EED260E080911102EAD213
:1028800060E080911002E6D260E080910F02E2D217
:1028900061E080910E02DED261E080910D02DAD219
:1028A00061E080910C02D6D267E172E0CE01019620
:1028B000CED563E172E0CE010796C9D56BE172E037
:1028C000CE010D96C4D58E010F5F1F4F9E01295F6B
:1028D0003F4FAE01435F5F4F63E272E084E993E0F4
:1028E0000E94D2046FEB72E08DE798E08FD662967B
:1028F0000FB6F894DEBF0FBECDBFDF91CF911F9111
:102900000F910895CF93DF93CDB7DEB7C456D109A9
:102910000FB6F894DEBF0FBECDBF8091110208D371
:102920009093E9038093E8038091E8039091E90391
:10293000892B51F180911102FBD29093E90380938E
:10294000E803892B89F78091D8039091D9030196E8
:102950009093D9038093D8036EEC72E082E698E0FE
:102960004AD720E030E044E650E0BE016F5F7F4F81
:1029700082E698E0AFD7AE014F5F5F4F68EF72E03D
:102980008CEE93E005DED0CFCC59DF4F0FB6F89434
:10299000DEBF0FBECDBFDF91CF910895CF93DF9300
:1029A00000D000D0CDB7DEB780911002DBD190937C
:1029B000E7038093E603BC01882777FD8095982F75
:1029C0000E94621D20E030E04DE453E40E94F81CB8
:1029D0006093E2037093E3038093E4039093E50331
:1029E00020E030E048EC52E40E94EE1D20E030E0B0
:1029F00048E452E498D76093DE037093DF0380933A
:102A0000E0039093E10326E636E646EE5FE30E949C
:102A1000EE1D20E030E040E052E486D76093DA0318
:102A20007093DB038093DC039093DD0361E373E039
:102A3000CE010196CBD6CE01019661D626960FB671
:102A4000F894DEBF0FBECDBFDF91CF910895CF9335
:102A5000DF93CDB7DEB7C456D1090FB6F894DEBF09
:102A60000FBECDBF8CEE93E08EDB811115C06BE203
:102A700071E08DE798E0AAD56AE073E08CEE93E010
:102A800001DD8CEE93E07FDB882361F364E173E08A
:102A90008DE798E0BBD5E6CF8CEE93E074DB88231E
:102AA00059F168E071E08DE798E090D580911202CD
:102AB0003FD29093EB038093EA0320E030E044E6BA
:102AC00050E0BE016F5F7F4F88E698E003D78091AA
:102AD000EA039091EB03019741F4AE014F5F5F4F22
:102AE0006CE373E08CEE93E053DD62E373E08CEE15
:102AF00093E0B6DD07DF52DFCC59DF4F0FB6F89415
:102B0000DEBF0FBECDBFDF91CF9108950F931F930E
:102B100000E020E040E060E08EE698E08CD46EE4D7
:102B200073E088E698E052D661E373E082E698E0CD
:102B30004DD681EF97E00E94580601EF17E024EE92
:102B400033E14BE557E06FE172E08CEE93E0C5DDD9
:102B50001F910F91089582E698E0D1D588E698E01C
:102B6000CEC508951F920F920FB60F9211242F9386
:102B70003F938F939F93AF93BF93809175089091EC
:102B80007608A0917708B09178083091740823E016
:102B9000230F2D3720F40196A11DB11D05C026E895
:102BA000230F0296A11DB11D209374088093750810
:102BB00090937608A0937708B0937808809179086D
:102BC00090917A08A0917B08B0917C080196A11D94
:102BD000B11D8093790890937A08A0937B08B093F5
:102BE0007C08BF91AF919F918F913F912F910F9052
:102BF0000FBE0F901F9018952FB7F894609175082D
:102C00007091760880917708909178082FBF089589
:102C10003FB7F8948091790890917A08A0917B0849
:102C2000B0917C0826B5A89B05C02F3F19F00196EE
:102C3000A11DB11D3FBF6627782F892F9A2F620FE4
:102C4000711D811D911D42E0660F771F881F991F1E
:102C50004A95D1F70895CF92DF92EF92FF92CF93EA
:102C6000DF936B017C01D4DFEB01C114D104E104DB
:102C7000F10479F076DFCCDF6C1B7D0B683E73408E
:102C8000A0F381E0C81AD108E108F108C851DC4F6F
:102C9000ECCFDF91CF91FF90EF90DF90CF90089530
:102CA000789484B5826084BD84B5816084BD85B527
:102CB000826085BD85B5816085BDEEE6F0E08081EE
:102CC00081608083E1E8F0E010828081826080830F
:102CD000808181608083E0E8F0E080818160808392
:102CE000E1EBF0E0808184608083E0EBF0E08081C4
:102CF00081608083E1E9F0E080818260808380816F
:102D000081608083E0E9F0E0808181608083E1EA96
:102D1000F0E0808182608083808181608083E0EA4E
:102D2000F0E0808181608083E1E2F1E08081826077
:102D30008083808181608083E0E2F1E08081816036
:102D40008083EAE7F0E08081846080838081826014
:102D500080838081816080838081806880831092FD
:102D6000C1000895863308F0865320917B00982F88
:102D70009870277F922B90937B0087702091290277
:102D800090E4299F90011124822B80937C008091F4
:102D90007A00806480937A0080917A0086FDFCCF6F
:102DA000809178002091790090E0922B089590E036
:102DB000FC013197E231F10508F04BC0EE58FF4FAE
:102DC00092C7809180008F7703C0809180008F7DB3
:102DD00080938000089580918000877FF9CF84B52B
:102DE0008F7702C084B58F7D84BD08958091B00037
:102DF0008F7703C08091B0008F7D8093B0000895DD
:102E0000809190008F7707C0809190008F7D03C0E4
:102E100080919000877F8093900008958091A0001A
:102E20008F7707C08091A0008F7D03C08091A000A4
:102E3000877F8093A0000895809120018F7707C03D
:102E4000809120018F7D03C080912001877F809336
:102E500020010895CF93DF9390E0FC01E956FE4FE7
:102E60002491FC01E352FE4F8491882349F190E0C4
:102E7000880F991FFC01E95AFD4FA591B491835C1D
:102E80009D4FFC01C591D4919FB7611108C0F89482
:102E90008C91209582238C93888182230AC0623092
:102EA00051F4F8948C91322F309583238C93888140
:102EB000822B888304C0F8948C91822B8C939FBFC3
:102EC000DF91CF9108950F931F93CF93DF931F92BC
:102ED000CDB7DEB7282F30E0F901EF5AFE4F8491CD
:102EE000F901E956FE4F1491F901E352FE4F0491A6
:102EF0000023C1F0882319F0698359DF6981E02F2D
:102F0000F0E0EE0FFF1FE35CFD4FA591B4919FB77A
:102F1000F8948C91611103C01095812301C0812B1D
:102F20008C939FBF0F90DF91CF911F910F910895C8
:102F3000CF93DF93282F30E0F901EF5AFE4F8491B1
:102F4000F901E956FE4FD491F901E352FE4FC491C5
:102F5000CC2389F081112BDFEC2FF0E0EE0FFF1F67
:102F6000ED5DFD4FA591B4912C912D2381E090E072
:102F700021F480E002C080E090E0DF91CF910895DD
:102F8000FC01818D228D90E0805C9F4F821B910916
:102F90008F7399270895FC01918D828D981731F0D8
:102FA000828DE80FF11D858D90E008958FEF9FEFE2
:102FB0000895FC01918D828D981761F0828DDF015B
:102FC000A80FB11D5D968C91928D9F5F9F73928F1C
:102FD00090E008958FEF9FEF08958EE899E1892B97
:102FE00039F080E090E0892B19F098D1811125C04B
:102FF00080E090E0892B41F080E090E0892B21F087
:103000000E94000081111CC080E090E0892B41F0FB
:1030100080E090E0892B21F00E940000811113C014
:1030200080E090E0892BA1F080E090E0892B81F096
:103030000E94000081110AC008950E940000D8CFAC
:103040000E940000E1CF0E940000EACF0C94000033
:103050000895FC01848DDF01A80FB11DA35ABF4F55
:103060002C91848D90E001968F739927848FA68987
:10307000B7892C93A089B1898C9180648C93938DAE
:10308000848D981306C00288F389E02D80818F7D9E
:1030900080830895CF93DF93EC01888D8823C1F05E
:1030A000EA89FB89808185FD05C0A889B9898C9151
:1030B00086FD0EC00FB607FCF5CF808185FFF2CFED
:1030C000A889B9898C9185FFEDCFCE01C2DFE8CF09
:1030D000DF91CF910895CF92DF92FF920F931F93CC
:1030E000CF93DF931F92CDB7DEB76C01DC015B9607
:1030F0009C915B975C968C915C97981307C0509657
:10310000ED91FC915197808185FD31C0F601038DD1
:1031100010E00F5F1F4F0F731127F02EF601848D03
:10312000F81210C00FB607FCF9CFD6015096ED91FA
:10313000FC915197808185FFF1CFC601698389DFBA
:103140006981ECCF838DE80FF11DE35AFF4F608357
:10315000D6015B960C935B975296ED91FC91539739
:1031600080818062808381E058968C930DC0D60167
:103170005696ED91FC91579760835096ED91FC9196
:10318000519780818064808381E090E00F90DF918F
:10319000CF911F910F91FF90DF90CF900895BF9234
:1031A000CF92DF92EF92FF92CF93DF93EC016A010F
:1031B0007B01B22EE889F98982E08083411581EE96
:1031C00058076105710599F060E079E08DE390E0C2
:1031D000A701960166D5215031094109510956953B
:1031E000479537952795211580E1380790F0E889B4
:1031F000F989108260E874E88EE190E0A7019601F9
:1032000050D52150310941095109569547953795B7
:103210002795EC85FD853083EE85FF852083188E0C
:10322000EC89FD89B082EA89FB8980818061808395
:10323000EA89FB89808188608083EA89FB898081B3
:1032400080688083EA89FB8980818F7D8083DF911C
:10325000CF91FF90EF90DF90CF90BF9008951F9295
:103260000F920FB60F9211240BB60F922F938F93DC
:103270009F93EF93FF93E0918D08F0918E088081EA
:10328000E0919308F091940882FD12C090818091A2
:1032900096088F5F8F7320919708821751F0E09105
:1032A0009608F0E0E358F74F958F8093960801C099
:1032B0008081FF91EF919F918F912F910F900BBE85
:1032C0000F900FBE0F901F9018951F920F920FB680
:1032D0000F9211240BB60F922F933F934F935F934E
:1032E0006F937F938F939F93AF93BF93EF93FF93CE
:1032F0008DE798E0AEDEFF91EF91BF91AF919F9186
:103300008F917F916F915F914F913F912F910F908E
:103310000BBE0F900FBE0F901F9018958DE798E091
:103320002FDE21E0892B09F420E0822F08951092EE
:10333000800810927F0888EE93E0A0E0B0E08093D0
:10334000810890938208A0938308B093840885E74E
:1033500093E090937E0880937D0885EC90E09093B5
:103360008A088093890884EC90E090938C0880937D
:103370008B0880EC90E090938E0880938D0881EC10
:1033800090E09093900880938F0882EC90E0909367
:1033900092088093910886EC90E090939408809333
:1033A000930810929608109297081092980810921D
:1033B00099080895AF92BF92CF92DF92EF92FF9259
:1033C0000F931F93CF93DF936C017B01C0E0D0E09C
:1033D00000E010E0F601EC0FFD1F4AE050E06281D2
:1033E000C70187D15C016EE2C701D7D08A0D9B1D52
:1033F000080F191F2196C330D10561F74AE050E04C
:10340000F6016581C70175D1800F911FDF91CF91C2
:103410001F910F91FF90EF90DF90CF90BF90AF90F2
:10342000089525E833E0FC01318320831282138262
:103430001482158208950F93FC0185E893E091832F
:10344000808362834383248305830F91089525E855
:1034500033E0FC0131832083FB0140815181628193
:103460007381FC0142835383648375830895FB0158
:103470004081518162817381FC0142835383648363
:103480007583089585E893E090931B0980931A094A
:1034900010921C0910921D0910921E0910921F090A
:1034A00008950895FDDBFDDFCFD9CDEED7E1CFDA6A
:1034B0002097E9F392DDFBCFCF92DF92EF92FF925C
:1034C0000F931F93CF93DF936C017A01EB01E60E0C
:1034D000F71E00E010E0CE15DF0561F06991D6011E
:1034E000ED91FC910190F081E02DC6011995080F36
:1034F000191FF1CFC801DF91CF911F910F91FF905C
:10350000EF90DF90CF9008956115710581F0DB0198
:103510000D900020E9F7AD0141505109461B570BB2
:10352000DC01ED91FC910280F381E02D199480E0A3
:1035300090E00895EF92FF920F931F93CF93DF9344
:103540008C01FB01C0E0D0E064917F018FEFE81AAD
:10355000F80A662361F0D801ED91FC910190F081A9
:10356000E02DC8011995C80FD91FF701EDCFCE0185
:10357000DF91CF911F910F91FF90EF900895DC01A3
:10358000ED91FC91DB0114964D915C9115976D9135
:103590007C910280F381E02D1994DC01ED91FC9186
:1035A0000190F081E02D19940F931F93CF93DF9337
:1035B000EC016DE0F2DF8C016AE0CE01EEDF800FFE
:1035C000911FDF91CF911F910F9108950F931F933A
:1035D000CF93DF93EC01AEDF8C01CE01E5DF800FEE
:1035E000911FDF91CF911F910F9108950F931F931A
:1035F000CF93DF93EC01C3DF8C01CE01D5DF800FC9
:10360000911FDF91CF911F910F9108950F931F93F9
:10361000CF93DF93EC0178DF8C01CE01C5DF800F03
:10362000911FDF91CF911F910F9108958F929F92DB
:10363000AF92BF92CF92DF92EF92FF920F931F93C0
:10364000CF93DF93CDB7DEB7A1970FB6F894DEBF67
:103650000FBECDBF7C01C42EE52FCB01D22E19A207
:1036600021E02D1510F02AE0D22E8E010F5D1F4FA4
:103670008D2C912CA12CB12C6C2D7E2FA5019401A9
:1036800010D38C2DD29E80191124015011098A303B
:1036900014F4805D01C0895CF80180832115310537
:1036A0004105510521F0C22EE32FCA01E5CFB80133
:1036B000C7012ADFA1960FB6F894DEBF0FBECDBFBB
:1036C000DF91CF911F910F91FF90EF90DF90CF90FE
:1036D000BF90AF909F908F9008952115310541F4D0
:1036E000DC01ED91FC910190F081E02D642F1994A3
:1036F0009DCF9A01462F50E060E070E0EECFFC01D4
:103700008081918192C3CF93DF93EC01888199816D
:10371000009709F08AD3198218821D821C821B82AD
:103720001A82DF91CF9108950F931F93CF93DF9368
:10373000EC018B016F5F7F4F8881998105D40097E1
:1037400031F0998388831B830A8381E001C080E084
:10375000DF91CF911F910F910895CF93DF93EC01EB
:1037600088819981892B29F08A819B818617970707
:1037700058F4CE01D9DF882341F08C819D81892BBB
:1037800019F4E881F981108281E0DF91CF910895E9
:10379000EF92FF920F931F93CF93DF93EC017B0186
:1037A0008A01BA01DADF811103C0CE01ACDF06C0A5
:1037B0001D830C83B70188819981BCD4CE01DF9130
:1037C000CF911F910F91FF90EF900895FC0111820E
:1037D000108213821282158214826115710551F0D4
:1037E000FB0101900020E9F7AF0141505109461B50
:1037F000570BCECF0895CF93DF93EC016115710580
:1038000059F0FB0101900020E9F7AF014150510947
:10381000461B570BBDDF01C076DFCE01DF91CF9194
:103820000895EF92FF920F931F93CF93DF93EC01D4
:103830007B010C811D816115710511F480E014C0BC
:103840004115510581F0040F151FB80186DF88234B
:10385000A9F3288139818C819D81B701820F931F43
:1038600069D41D830C8381E0DF91CF911F910F916B
:10387000FF90EF900895CF93DF93EC01FB0144811B
:10388000558160817181CDDF811102C0CE013BDFA6
:10389000CE01DF91CF910895FC0124813581232B46
:1038A00031F421E06115710599F0FB0108C0FC01BC
:1038B000808191816115710531F421E0FC018081E5
:1038C000882331F004C02DD421E0892B09F020E0B9
:1038D000822F08950F931F93CF93DF93EB01411530
:1038E0005105E1F02097D1F0FC0164817581261724
:1038F000370798F4621B730B8A0101501109601796
:10390000710708F48B01FC0160817181620F731FE4
:10391000A801CE0116D4C00FD11F1882DF91CF911C
:103920001F910F9108955058BB27AA270ED01CC194
:103930000DD130F012D120F031F49F3F11F41EF47C
:1039400002C10EF4E095E7FBF8C0E92F1ED180F329
:10395000BA17620773078407950718F071F49EF58C
:1039600036C10EF4E0950B2EBA2FA02D0B01B90134
:1039700090010C01CA01A0011124FF27591B99F0E5
:10398000593F50F4503E68F11A16F040A22F232FF1
:10399000342F4427585FF3CF469537952795A79541
:1039A000F0405395C9F77EF41F16BA0B620B730BE8
:1039B000840BBAF09150A1F0FF0FBB1F661F771F59
:1039C000881FC2F70EC0BA0F621F731F841F48F40E
:1039D000879577956795B795F7959E3F08F0B3CF94
:1039E0009395880F08F09927EE0F9795879508957E
:1039F0000CD0BAC0B2D040F0A9D030F021F45F3F73
:103A000019F09BC05111E4C09EC0BFD098F3992318
:103A1000C9F35523B1F3951B550BBB27AA27621792
:103A20007307840738F09F5F5F4F220F331F441FD7
:103A3000AA1FA9F333D00E2E3AF0E0E830D091500F
:103A40005040E695001CCAF729D0FE2F27D0660FFC
:103A5000771F881FBB1F261737074807AB07B0E83B
:103A600009F0BB0B802DBF01FF2793585F4F2AF051
:103A70009E3F510568F061C0ABC05F3FECF3983EDC
:103A8000DCF3869577956795B795F7959F5FC9F7AE
:103A9000880F911D9695879597F90895E1E0660F37
:103AA000771F881FBB1F621773078407BA0720F0B0
:103AB000621B730B840BBA0BEE1F88F7E095089519
:103AC000E89409C097FB3EF49095809570956195B8
:103AD0007F4F8F4F9F4F9923A9F0F92F96E9BB276E
:103AE0009395F695879577956795B795F111F8CFEA
:103AF000FAF4BB0F11F460FF1BC06F5F7F4F8F4F55
:103B00009F4F16C0882311F096E911C0772321F04A
:103B10009EE8872F762F05C0662371F096E8862FE2
:103B200070E060E02AF09A95660F771F881FDAF739
:103B3000880F9695879597F9089597F99F6780E87C
:103B400070E060E008959FEF80EC089500240A94EF
:103B50001616170618060906089500240A94121668
:103B60001306140605060895092E0394000C11F49B
:103B7000882352F0BB0F40F4BF2B11F460FF04C048
:103B80006F5F7F4F8F4F9F4F089557FD9058440FA1
:103B9000551F59F05F3F71F04795880F97FB991FAC
:103BA00061F09F3F79F08795089512161306140669
:103BB000551FF2CF4695F1DF08C0161617061806F6
:103BC000991FF1CF86957105610508940895E894D1
:103BD000BB2766277727CB0197F908950BD0C4CF71
:103BE000B5DF28F0BADF18F0952309F0A6CFABCFE8
:103BF0001124EECFCADFA0F3959FD1F3950F50E0CB
:103C0000551F629FF001729FBB27F00DB11D639F8E
:103C1000AA27F00DB11DAA1F649F6627B00DA11D34
:103C2000661F829F2227B00DA11D621F739FB00DDA
:103C3000A11D621F839FA00D611D221F749F33274A
:103C4000A00D611D231F849F600D211D822F762FE3
:103C50006A2F11249F5750408AF0E1F088234AF0E0
:103C6000EE0FFF1FBB1F661F771F881F915050402C
:103C7000A9F79E3F510570F060CFAACF5F3FECF3EC
:103C8000983EDCF3869577956795B795F795E79518
:103C90009F5FC1F7FE2B880F911D9695879597F929
:103CA0000895A1E21A2EAA1BBB1BFD010DC0AA1F7D
:103CB000BB1FEE1FFF1FA217B307E407F50720F095
:103CC000A21BB30BE40BF50B661F771F881F991F10
:103CD0001A9469F760957095809590959B01AC0159
:103CE000BD01CF010895EE0FFF1F0590F491E02D67
:103CF00019940790F691E02D1994CF93DF938230B9
:103D0000910510F482E090E0E0912209F0912309FE
:103D100020E030E0A0E0B0E0309739F140815181FF
:103D200048175907B8F04817590771F482819381F1
:103D3000109729F013969C938E9312972CC0909312
:103D400023098093220927C02115310531F042173C
:103D5000530718F0A901DB0101C0EF019A01BD0171
:103D6000DF010280F381E02DD7CF21153105F9F075
:103D7000281B390B2430310580F48A819B81611521
:103D8000710521F0FB019383828304C09093230982
:103D900080932209FE01329644C0FE01E20FF31F18
:103DA0008193919322503109398328833AC020911D
:103DB000200930912109232B41F4209102023091F6
:103DC00003023093210920932009209100023091B1
:103DD00001022115310541F42DB73EB7409104028F
:103DE00050910502241B350BE0912009F091210927
:103DF000E217F307A0F42E1B3F0B2817390778F0C2
:103E0000AC014E5F5F4F2417350748F04E0F5F1F20
:103E100050932109409320098193919302C0E0E0DF
:103E2000F0E0CF01DF91CF910895CF93DF9300971A
:103E300009F487C0FC01329713821282C0912209D3
:103E4000D0912309209781F420813181280F391FD7
:103E500080912009909121098217930779F5F093B9
:103E60002109E09320096DC0DE0120E030E0AE17AB
:103E7000BF0750F412964D915C9113979D01411527
:103E8000510509F1DA01F3CFB383A2834081518157
:103E9000840F951F8A179B0771F48D919C91119740
:103EA000840F951F02969183808312968D919C9129
:103EB0001397938382832115310529F4F093230905
:103EC000E09322093EC0D9011396FC93EE9312971A
:103ED0004D915D91A40FB51FEA17FB0779F480811E
:103EE0009181840F951F0296D90111969C938E9310
:103EF0008281938113969C938E931297E0E0F0E079
:103F00008A819B81009719F0FE01EC01F9CFCE0167
:103F1000029628813981820F931F209120093091C8
:103F200021092817390769F4309729F410922309D9
:103F30001092220902C013821282D0932109C093E9
:103F40002009DF91CF9108956F927F928F929F9277
:103F5000AF92BF92CF92DF92EF92FF920F931F9397
:103F6000CF93DF93EC01CB01209779F4DF91CF91D0
:103F70001F910F91FF90EF90DF90CF90BF90AF9087
:103F80009F908F907F906F90B8CEFE01E60FF71F45
:103F90009E0122503109E217F30708F4A8C0D901A5
:103FA0000D911C91119706171707B0F005301105F8
:103FB00008F49BC0A801445051094617570708F45C
:103FC00094C002501109061B170B019311936D93B6
:103FD0007C93CF012ADF89C05B01A01AB10A4E0190
:103FE000800E911EA0912209B0912309612C712CA1
:103FF00060E070E0109709F449C0A815B905C9F54B
:10400000ED90FC901197670142E0C40ED11CCA14D8
:10401000DB0478F147018A189B08640142E0C40E72
:10402000D11C1296BC9012971396AC91B5E0CB16AA
:10403000D10440F0B282A38391828082D9018D9312
:104040009C9309C00E5F1F4F0E0D1F1DF9011183B8
:104050000083EB2DFA2F6115710531F0DB0113960A
:10406000FC93EE93129741C0F0932309E093220949
:104070003CC06D917C9111976616770608F43B0160
:10408000BD0112960D90BC91A02DB4CF6091200976
:104090007091210968157905E9F468167906D0F45C
:1040A00040910002509101024115510541F44DB774
:1040B0005EB76091040270910502461B570BE4172E
:1040C000F507A8F4F0932109E0932009F901918301
:1040D00080830BC012DE7C01009749F0A801BE016D
:1040E00017D0CE01A2DEC70104C0CE0102C080E01D
:1040F00090E0DF91CF911F910F91FF90EF90DF90B3
:10410000CF90BF90AF909F908F907F906F900895C9
:10411000FB01DC0102C001900D9241505040D8F7E4
:104120000895FB01DC018D91019080190110D9F3F4
:10413000990B0895FB01DC0101900D920020E1F73D
:104140000895FB01DC014150504048F001900D9270
:104150000020C9F701C01D9241505040E0F708957A
:1041600012E0C6E8D2E000E005C022970109FE0196
:104170000BBFBFDDC838D10780E00807B1F7F8945E
:02418000FFCF6F
:104182000000240980000100000000C008070605A5
:10419200040302C0A80101FFFFFF00C0A80122C062
:1041A200A8010EDEADBEFF06ED0100044D515454D0
:1041B200040000000073059C05B505BD05D905FB8B
:1041C200057106FE05D605C9060607890564056759
:1041D2000591056905000000005E07A4075A07B7AC
:1041E20007FB077407130886079A07A108A1073E71
:1041F20008DF073F07460756075061794C6F616435
:104202003A20007B0A22524449303030223A7B0A5B
:1042120022436F6E7665796F7242656C74223A2220
:1042220048494748222C0A224372616E6B536861E7
:104232006674223A2248494748220A7D0A7D00458F
:10424200746865726E657420426567696E007B0AE8
:1042520022524449303031223A7B0A22696E5F632E
:104262006F756E74223A28696E7429696E5F636F86
:10427200756E740A7D0A7D002F41726475696E6FD6
:104282005F312F5244493030310041726475696E9A
:104292006F5F31005375636365737321212C204373
:1042A2006C69656E7420436F6E6E6563746564211C
:1042B2002000426561676C65426F6E652F417264D2
:1042C20075696E6F5F312F524449303030007B2068
:1042D2000A2022524449303030223A7B0A20227688
:1042E200616C7565223A2248494748220A7D0A7D57
:1042F20000000000006B185C1AC017D917CB174AD0
:084302001800000000DA1900A8
:00000001FF
