:1000000074C00000A0C000009EC000009CC00000A2
:100010009AC0000098C0000096C0000094C0000084
:1000200092C0000090C000008EC000008CC0000094
:100030008AC0000088C0000086C0000084C00000A4
:1000400082C0000080C000007EC000007CC00000B4
:100050007AC0000078C0000076C000002FC4000005
:1000600072C000002EC2000062C200006CC000001E
:100070006AC0000068C0000066C0000064C00000E4
:1000800062C0000060C000005EC000005CC00000F4
:100090005AC0000058C0000056C0000054C0000004
:1000A00052C0000050C000004EC000004CC0000014
:1000B0004AC0000048C0000046C0000044C0000024
:1000C00042C0000040C000003EC000003CC0000034
:1000D0003AC0000038C0000036C0000034C0000044
:1000E00032C00000EA00C902EF0011241FBECFEFAA
:1000F000D1E2DEBFCDBF00E00CBF12E0A0E0B2E075
:10010000E6EDFEE000E00BBF02C007900D92A63DB9
:10011000B107D9F723E0A6EDB2E001C01D92A638E1
:10012000B207E1F710E0C8EED0E000E005C022978A
:100130000109FE010BBF90D4C43ED10780E008073F
:10014000B1F76BD2B7C65CCF26E040E855E260E07D
:1001500070E08CED92E055D166E072E08CED92E0BB
:10016000DBD28CED92E0B6C267E272E08CED92E0F9
:10017000D3D266ED72E08CED92E0BED267E070E023
:1001800086ED92E098D368E372E08CED92E0C4D201
:1001900066ED72E08CED92E0AFD265E772E086ED3D
:1001A00092E046D346E050E062E070E086ED92E0F7
:1001B00055D362E872E08CED92E0AED266ED72E06B
:1001C0008CED92E099D28CED92E084D28CED92E0AD
:1001D00081D2FFCF65E772E086ED92E014C386ED31
:1001E00092E0AAC2FC01818D228D90E0805C9F4F3D
:1001F000821B91098F7399270895FC01918D828D3F
:10020000981731F0828DE80FF11D858D90E00895EB
:100210008FEF9FEF0895FC01918D828D981761F00B
:10022000828DDF01A80FB11D5D968C91928D9F5F2D
:100230009F73928F90E008958FEF9FEF089580EC69
:1002400092E0892B39F080E090E0892B19F098D169
:10025000811125C080E090E0892B41F080E090E0A2
:10026000892B21F00E94000081111CC080E090E0E9
:10027000892B41F080E090E0892B21F00E94000062
:10028000811113C080E090E0892BA1F080E090E024
:10029000892B81F00E94000081110AC008950E94FC
:1002A0000000D8CF0E940000E1CF0E940000EACFFA
:1002B0000C9400000895FC01848DDF01A80FB11D8E
:1002C000A35ABF4F2C91848D90E001968F7399278C
:1002D000848FA689B7892C93A089B1898C91806479
:1002E0008C93938D848D981306C00288F389E02D3A
:1002F00080818F7D80830895CF93DF93EC01888D7B
:100300008823C1F0EA89FB89808185FD05C0A88921
:10031000B9898C9186FD0EC00FB607FCF5CF8081A0
:1003200085FFF2CFA889B9898C9185FFEDCFCE01E9
:10033000C2DFE8CFDF91CF910895CF92DF92FF9295
:100340000F931F93CF93DF931F92CDB7DEB76C014E
:10035000DC015B969C915B975C968C915C97981303
:1003600007C05096ED91FC915197808185FD31C079
:10037000F601038D10E00F5F1F4F0F731127F02E52
:10038000F601848DF81210C00FB607FCF9CFD60124
:100390005096ED91FC915197808185FFF1CFC60178
:1003A000698389DF6981ECCF838DE80FF11DE35A02
:1003B000FF4F6083D6015B960C935B975296ED914D
:1003C000FC91539780818062808381E058968C9362
:1003D0000DC0D6015696ED91FC91579760835096CB
:1003E000ED91FC91519780818064808381E090E061
:1003F0000F90DF91CF911F910F91FF90DF90CF90E1
:100400000895BF92CF92DF92EF92FF92CF93DF9346
:10041000EC016A017B01B22EE889F98982E08083D0
:10042000411581EE58076105710599F060E079E0AA
:100430008DE390E0A7019601EDD2215031094109E9
:1004400051095695479537952795211580E138072D
:1004500090F0E889F989108260E874E88EE190E014
:10046000A7019601D7D2215031094109510956956A
:10047000479537952795EC85FD853083EE85FF857B
:100480002083188EEC89FD89B082EA89FB898081FE
:1004900080618083EA89FB89808188608083EA8922
:1004A000FB89808180688083EA89FB8980818F7DD8
:1004B0008083DF91CF91FF90EF90DF90CF90BF903E
:1004C00008951F920F920FB60F9211240BB60F9240
:1004D0002F938F939F93EF93FF93E091EC02F09112
:1004E000ED028081E091F202F091F30282FD12C0F0
:1004F00090818091F5028F5F8F732091F6028217B1
:1005000051F0E091F502F0E0E452FD4F958F8093B9
:10051000F50201C08081FF91EF919F918F912F9102
:100520000F900BBE0F900FBE0F901F9018951F924B
:100530000F920FB60F9211240BB60F922F933F9389
:100540004F935F936F937F938F939F93AF93BF93DB
:10055000EF93FF938CED92E0AEDEFF91EF91BF91B0
:10056000AF919F918F917F916F915F914F913F914B
:100570002F910F900BBE0F900FBE0F901F901895EC
:100580008CED92E02FDE21E0892B09F420E0822F10
:1005900008951092DF021092DE0288EE93E0A0E050
:1005A000B0E08093E0029093E102A093E202B09366
:1005B000E3028AEC92E09093DD028093DC0285EC0A
:1005C00090E09093E9028093E80284EC90E09093AD
:1005D000EB028093EA0280EC90E09093ED0280932E
:1005E000EC0281EC90E09093EF028093EE0282ECBB
:1005F00090E09093F1028093F00286EC90E090936B
:10060000F3028093F2021092F5021092F602109219
:10061000F7021092F802089508959AD1FDDF94DD53
:10062000CFE1D1E0A1DD2097E9F309DEFBCFCF9246
:10063000DF92EF92FF920F931F93CF93DF936C01A2
:100640007A01EB01E60EF71E00E010E0CE15DF05A3
:1006500061F06991D601ED91FC910190F081E02D5E
:10066000C6011995080F191FF1CFC801DF91CF916D
:100670001F910F91FF90EF90DF90CF90089561153B
:10068000710581F0DB010D900020E9F7AD014150CB
:100690005109461B570BDC01ED91FC910280F3815F
:1006A000E02D199480E090E00895DC01ED91FC913B
:1006B000DB0114964D915C9115976D917C910280B0
:1006C000F381E02D1994DC01ED91FC910190F08112
:1006D000E02D19940F931F93CF93DF93EC016DE0FE
:1006E000F2DF8C016AE0CE01EEDF800F911FDF9117
:1006F000CF911F910F9108950F931F93CF93DF9385
:10070000EC01D3DF8C01CE01E5DF800F911FDF917B
:10071000CF911F910F9108950F931F93CF93DF9364
:10072000EC01ADDF8C01CE01D5DF800F911FDF9191
:10073000CF911F910F910895FC018081918128C272
:10074000CF93DF93EC0188819981009709F020D243
:10075000198218821D821C821B821A82DF91CF911E
:1007600008950F931F93CF93DF93EC018B016F5F7D
:100770007F4F888199819BD2009731F0998388833C
:100780001B830A8381E001C080E0DF91CF911F913C
:100790000F910895CF93DF93EC0188819981892B84
:1007A00029F08A819B818617970758F4CE01D9DFFB
:1007B000882341F08C819D81892B19F4E881F9818E
:1007C000108281E0DF91CF910895EF92FF920F9315
:1007D0001F93CF93DF93EC017B018A01BA01DADF2B
:1007E000811103C0CE01ACDF06C01D830C83B701AD
:1007F0008881998149D3CE01DF91CF911F910F91CB
:10080000FF90EF900895FC011182108213821282F2
:10081000158214826115710551F0FB0101900020D1
:10082000E9F7AF0141505109461B570BCECF089550
:10083000CF93DF93EC016115710559F0FB01019035
:100840000020E9F7AF0141505109461B570BBDDFAE
:1008500001C076DFCE01DF91CF910895CF93DF9372
:10086000EC01CB012C813D816217730708F541151E
:100870005105F1F0B901681B790B4617570708F4C9
:10088000BA01E881F981261B370B3D832C83A9012E
:10089000481B590B680F791F6E0F7F1F8E0F9F1F0C
:1008A000FAD2E881F9818C819D81E80FF91F1082CD
:1008B000DF91CF9108954FEF5FEFD0CF1F920F924E
:1008C0000FB60F9211242F933F938F939F93AF9363
:1008D000BF9380917A0390917B03A0917C03B091A8
:1008E0007D033091790323E0230F2D3720F4019607
:1008F000A11DB11D05C026E8230F0296A11DB11D43
:100900002093790380937A0390937B03A0937C03D5
:10091000B0937D0380917E0390917F03A09180032B
:10092000B09181030196A11DB11D80937E03909328
:100930007F03A0938003B0938103BF91AF919F91F8
:100940008F913F912F910F900FBE0F901F90189590
:10095000789484B5826084BD84B5816084BD85B59A
:10096000826085BD85B5816085BDEEE6F0E0808161
:1009700081608083E1E8F0E0108280818260808382
:10098000808181608083E0E8F0E080818160808305
:10099000E1EBF0E0808184608083E0EBF0E0808137
:1009A00081608083E1E9F0E08081826080838081E2
:1009B00081608083E0E9F0E0808181608083E1EA0A
:1009C000F0E0808182608083808181608083E0EAC2
:1009D000F0E0808181608083E1E2F1E080818260EB
:1009E0008083808181608083E0E2F1E080818160AA
:1009F0008083EAE7F0E08081846080838081826088
:100A00008083808181608083808180688083109270
:100A1000C1000895A1E21A2EAA1BBB1BFD010DC047
:100A2000AA1FBB1FEE1FFF1FA217B307E407F5079E
:100A300020F0A21BB30BE40BF50B661F771F881F7A
:100A4000991F1A9469F760957095809590959B0110
:100A5000AC01BD01CF0108950790F691E02D1994E6
:100A6000CF93DF938230910510F482E090E0E09123
:100A70008403F091850320E030E0A0E0B0E03097FF
:100A800039F14081518148175907B8F04817590783
:100A900071F482819381109729F013969C938E9321
:100AA00012972CC0909385038093840327C021154F
:100AB000310531F04217530718F0A901DB0101C0DD
:100AC000EF019A01BD01DF010280F381E02DD7CF54
:100AD00021153105F9F0281B390B2430310580F43C
:100AE0008A819B816115710521F0FB0193838283CB
:100AF00004C09093850380938403FE01329644C022
:100B0000FE01E20FF31F8193919322503109398343
:100B100028833AC02091820330918303232B41F430
:100B200020910202309103023093830320938203C9
:100B300020910002309101022115310541F42DB7B9
:100B40003EB74091040250910502241B350BE09101
:100B50008203F0918303E217F307A0F42E1B3F0BEF
:100B60002817390778F0AC014E5F5F4F241735071F
:100B700048F04E0F5F1F509383034093820381938D
:100B8000919302C0E0E0F0E0CF01DF91CF910895B2
:100B9000CF93DF93009709F487C0FC01329713824B
:100BA0001282C0918403D0918503209781F4208123
:100BB0003181280F391F809182039091830382171E
:100BC000930779F5F0938303E09382036DC0DE0110
:100BD00020E030E0AE17BF0750F412964D915C91C3
:100BE00013979D014115510509F1DA01F3CFB38344
:100BF000A28340815181840F951F8A179B0771F44E
:100C00008D919C911197840F951F029691838083FB
:100C100012968D919C9113979383828321153105B0
:100C200029F4F0938503E09384033EC0D901139621
:100C3000FC93EE9312974D915D91A40FB51FEA17A7
:100C4000FB0779F480819181840F951F0296D90169
:100C500011969C938E938281938113969C938E938D
:100C60001297E0E0F0E08A819B81009719F0FE0185
:100C7000EC01F9CFCE01029628813981820F931FB2
:100C800020918203309183032817390769F4309744
:100C900029F4109285031092840302C013821282F9
:100CA000D0938303C0938203DF91CF9108956F9215
:100CB0007F928F929F92AF92BF92CF92DF92EF92EC
:100CC000FF920F931F93CF93DF93EC01CB012097FB
:100CD00079F4DF91CF911F910F91FF90EF90DF900A
:100CE000CF90BF90AF909F908F907F906F90B8CE35
:100CF000FE01E60FF71F9E0122503109E217F307AC
:100D000008F4A8C0D9010D911C9111970617170777
:100D1000B0F00530110508F49BC0A80144505109FA
:100D20004617570708F494C002501109061B170B09
:100D3000019311936D937C93CF012ADF89C05B01EE
:100D4000A01AB10A4E01800E911EA0918403B091A9
:100D50008503612C712C60E070E0109709F449C0A4
:100D6000A815B905C9F5ED90FC901197670142E00F
:100D7000C40ED11CCA14DB0478F147018A189B0801
:100D8000640142E0C40ED11C1296BC9012971396D7
:100D9000AC91B5E0CB16D10440F0B282A38391822E
:100DA0008082D9018D939C9309C00E5F1F4F0E0D59
:100DB0001F1DF90111830083EB2DFA2F61157105B9
:100DC00031F0DB011396FC93EE93129741C0F09340
:100DD0008503E09384033CC06D917C911197661666
:100DE000770608F43B01BD0112960D90BC91A02D31
:100DF000B4CF609182037091830368157905E9F49B
:100E000068167906D0F44091000250910102411514
:100E1000510541F44DB75EB760910402709105022F
:100E2000461B570BE417F507A8F4F0938303E093F0
:100E30008203F901918380830BC012DE7C0100974D
:100E400049F0A801BE0117D0CE01A2DEC70104C03F
:100E5000CE0102C080E090E0DF91CF911F910F9111
:100E6000FF90EF90DF90CF90BF90AF909F908F90CA
:100E70007F906F900895FB01DC0102C001900D92FC
:100E800041505040D8F70895FB01DC0101900D92CC
:100E90000020E1F70895FB01DC014150504048F08B
:100EA00001900D920020C9F701C01D9241505040A1
:100EB000E0F7089510E0C8EED0E000E005C022970A
:100EC0000109FE010BBFC8DDCA3ED10780E008075B
:060ED000B1F7F894FFCF1A
:100ED6000000860380000A0A537472696E672072E6
:100EE600656D6F76652829206D6574686F64206569
:100EF60078616D706C65005468652066756C6C2051
:100F0600737472696E673A00537472696E67206112
:100F1600667465722072656D6F76696E672066729B
:100F26006F6D2074686520736576656E74682069D8
:100F36006E646578207468726F756768207468657A
:100F460020656E640048656C6C6F20576F726C6428
:100F56002100537472696E6720616674657220722F
:100F6600656D6F76696E6720736978206368617254
:100F7600616374657273207374617274696E67203D
:100F860061742074686520746869726420706F7378
:100F96006974696F6E00000000009D011703F2007E
:060FA6000B01FD007C01BF
:00000001FF
