:100000000C9460000C9488000C9488000C94880078
:100010000C9488000C9488000C9488000C94880040
:100020000C9488000C9488000C9488000C94880030
:100030000C9488000C9488000C9488000C94880020
:100040000C94B7040C9488000C942B070C945D0757
:100050000C9488000C9488000C9488000C94880000
:100060000C943F020C94880088048B048E04910445
:10007000940497049A0400000008000201000003A1
:100080000407000000000000000001020408102026
:10009000408001020408102001020408102004041A
:1000A0000404040404040202020202020303030320
:1000B000030300000000250028002B005D018D07D0
:1000C00011241FBECFEFD8E0DEBFCDBF11E0A0E00E
:1000D000B1E0EAECF1E102C005900D92AE36B10755
:1000E000D9F722E0AEE6B1E001C01D92A43DB2070F
:1000F000E1F710E0C0ECD0E004C02297FE010E94BE
:10010000DF08CC3BD107C9F70E94D1070C94E30864
:100110000C94000080919E0190E020919F01821B31
:100120009109089520919F0180919E01281750F414
:10013000E22FF0E0E056FE4F808190E02F5F2093A9
:100140009F0108958FEF9FEF0895E0919F018091A7
:100150009E01E81730F4F0E0E056FE4F808190E019
:1001600008958FEF9FEF08950895CF92DF92EF9259
:10017000FF920F931F93CF93DF937C01CB018A01F2
:1001800020917A01222389F0EB016B01C40ED51E68
:10019000CC15DD0569F06991D701ED91FC910190D5
:1001A000F081E02DC7010995F3CF642F0E9416025C
:1001B000C801DF91CF911F910F91FF90EF90DF90D9
:1001C000CF900895CF93DF931F92CDB7DEB76983A9
:1001D00020917A012223D1F020917B01203240F03E
:1001E00021E030E0FC013383228380E090E015C001
:1001F00080917C01E82FF0E0E358FE4F99819083D5
:100200008F5F80937C0180937B0105C061E0CE010C
:1002100001960E94160281E090E00F90DF91CF914D
:100220000895FC011382128248EE53E060E070E012
:10023000448355836683778384E091E09183808350
:10024000089510929F0110929E0110927C011092CD
:100250007B010C946101862F413208F040E260EA94
:1002600071E00E947F0110929F0180939E0108958A
:1002700021E00C942B0181E080937A0160939D0131
:1002800010927C0110927B0108950C943B010F9316
:10029000062F21E040917B016DE771E080919D0187
:1002A0000E94C30110927C0110927B0110927A018E
:1002B0000F91089561E00C9447018EE691E00C9453
:1002C000110110922D0281E080932B0210922A02DC
:1002D00061E082E10E94B00561E083E10E94B00527
:1002E000E9EBF0E080818E7F808380818D7F808349
:1002F00088E48093B80085E48093BC00089541327F
:1003000008F03FC090912D029111FCCF91E09093A5
:100310002D0220932B022FEF2093C0011092050293
:10032000240F2093040290932C0290912C02880FAA
:10033000892B80932C0280912A02813041F4109203
:100340002A0280912C028093BB0085EC01C085EECF
:100350008093BC0080912D028130E1F380910502F1
:10036000841710F44091050226E032E0FB01D90128
:100370008A2F821B841718F48D918193F9CF842FD3
:10038000089580E008950F93413208F046C090919F
:100390002D029111FCCF92E090932D0200932B023D
:1003A0009FEF9093C0011092050240930402FB015D
:1003B00066E072E0DB019A2F961B941718F4919176
:1003C0009D93F9CF10922C0290912C02880F892BCB
:1003D00080932C0280912A02813041F410922A02EB
:1003E00080912C028093BB0085EC01C085EE809348
:1003F000BC00222321F080912D028230E1F3809114
:10040000C0018F3F61F08091C001803251F0809136
:10041000C001803341F483E007C081E005C080E083
:1004200003C082E001C084E00F910895613298F426
:1004300020912D02243089F46093E201FC0184EEC6
:1004400091E0DC012A2F281B261718F421912D9307
:10045000F9CF80E0089581E0089582E0089585ED68
:100460008093BC008091BC0084FDFCCF10922D02D3
:10047000089585EC8093BC0010922D0208951F9280
:100480000F920FB60F9211242F933F934F935F93C8
:100490006F937F938F939F93AF93BF93EF93FF934C
:1004A0008091B900887F803609F49CC068F5883255
:1004B00009F45BC090F4803109F454C038F4882307
:1004C00009F4F5C0883009F44DC0F5C0883109F44D
:1004D0004CC0803209F45DC0EEC0803409F468C0BD
:1004E00048F4803309F455C0883309F0E4C08093A0
:1004F000C001A8C0803509F44FC0883509F45DC03B
:10050000883409F0D8C0D5C0883909F4C6C0A8F429
:10051000883709F467C038F4883609F463C0803737
:1005200009F460C0C8C0883809F4B7C0803909F43C
:100530005FC0803809F0BFC05BC0803B09F485C054
:1005400038F4803A09F466C0883A09F47EC0B3C032
:10055000803C09F4A6C0883C09F4A3C0883B09F498
:1005600089C0A9C080912C0210C090910502809191
:100570000402981770F5E091050281E08E0F8093D8
:100580000502F0E0EA5FFD4F80818093BB0085ECBF
:1005900085C08093C0018DC0E091050281E08E0F7F
:1005A000809305028091BB00F0E0EA5FFD4F8083FD
:1005B00090910502809104026DC0E091050281E0F6
:1005C0008E0F809305028091BB00F0E0EA5FFD4F43
:1005D000808380912B0281116CC081E080932A027C
:1005E00084EA60C083E080932D021092C101CFCFD6
:1005F0008091C101803208F050C0E091C10181E0DA
:100600008E0F8093C1018091BB00F0E0EE53FE4F4E
:100610008083BDCF8091C101803230F4E091C1016F
:10062000F0E0EE53FE4F10820E942F026091C10154
:1006300070E0E0912602F091270282EC91E00995AA
:100640001092C1010E94390236C084E080932D02CD
:100650001092E3011092E201E0912802F091290248
:1006600009958091E201811105C081E08093E2014A
:100670001092E401E091E30181E08E0F8093E301A9
:10068000F0E0EC51FE4F80818093BB009091E3013C
:100690008091E201981708F47ACF85E88093BC0036
:1006A0000AC085EC8093BC0010922D0204C0109209
:1006B000C0010E942F02FF91EF91BF91AF919F91D6
:1006C0008F917F916F915F914F913F912F910F90FB
:1006D0000FBE0F901F901895982F92959F708F7056
:1006E0002AE0929F800D112408958EE691E00E94E9
:1006F000210126E040E855E260E070E087E392E007
:100700000C94C9066F927F928F929F92AF92BF9284
:10071000CF92DF92EF92FF920F931F93CF93DF93CD
:100720004C015B01EA01390168E670E08EE691E078
:100730000E944501E0916E01F0916F010190F081FE
:10074000E02D60E08EE691E009958EE691E00E9452
:100750005A0147E050E068E670E08EE691E00E94C2
:1007600038018EE691E00E9492008F770E946C0320
:10077000F40180838EE691E00E9492000E946C0357
:10078000F50180838EE691E00E9492008F730E94B3
:100790006C0388838EE691E00E9492000E946C03B5
:1007A000F30180838EE691E00E9492000E946C0328
:1007B000F80180838EE691E00E9492000E946C0313
:1007C000F70180838EE691E00E9492000E946C0304
:1007D000F6018083DF91CF911F910F91FF90EF90F1
:1007E000DF90CF90BF90AF909F908F907F906F9051
:1007F0000895CF92DF92EF92FF920F931F93CF93C2
:10080000DF93CDB7DEB727970FB6F894DEBF0FBEE4
:10081000CDBFCE0101966C0101967C018E010D5F6A
:100820001F4F9E012C5F3F4FAE014B5F5F4FBE01DC
:100830006A5F7F4F05960E9482034AE050E06D8117
:1008400087E392E00E94B30860E171E087E392E001
:100850000E941E088E818A3030F462E171E087E3E5
:1008600092E00E941E084AE050E06E8187E392E029
:100870000E94B30860E171E087E392E00E941E08E5
:100880008F818A3030F462E171E087E392E00E9468
:100890001E084AE050E06F8187E392E00E94B308AF
:1008A00063E271E087E392E00E941E084AE050E0B4
:1008B0006B8187E392E00E94B30864E171E087E313
:1008C00092E00E941E084AE050E06A8187E392E0CD
:1008D0000E94B30864E171E087E392E00E941E0881
:1008E0004AE050E0698187E392E00E94B30866E144
:1008F00071E087E392E00E941E088C8190E0FC0189
:100900003197E730F105E0F4EC5CFF4F0C94DD0823
:1009100065E271E011C06CE271E00EC063E371E06A
:100920000BC06BE371E008C065E471E005C06EE4E4
:1009300071E002C065E571E087E392E00E943B0848
:1009400027960FB6F894DEBF0FBECDBFDF91CF91D3
:100950001F910F91FF90EF90DF90CF9008950E942C
:10096000F90368EE73E080E090E00C9424051F9298
:100970000F920FB60F9211242F933F938F939F9353
:10098000AF93BF9380912F0290913002A0913102DA
:10099000B091320230912E0223E0230F2D3720F444
:1009A0000196A11DB11D05C026E8230F0296A11DC9
:1009B000B11D20932E0280932F0290933002A093BA
:1009C0003102B09332028091330290913402A091AF
:1009D0003502B09136020196A11DB11D80933302FC
:1009E00090933402A0933502B0933602BF91AF9139
:1009F0009F918F913F912F910F900FBE0F901F905D
:100A000018953FB7F8948091330290913402A091E9
:100A10003502B091360226B5A89B05C02F3F19F0CC
:100A20000196A11DB11D3FBF6627782F892F9A2FF0
:100A3000620F711D811D911D42E0660F771F881F97
:100A4000991F4A95D1F70895CF92DF92EF92FF92C6
:100A5000CF93DF936B017C010E940105EB01C11470
:100A6000D104E104F10489F00E94BA080E94010552
:100A70006C1B7D0B683E734090F381E0C81AD1086F
:100A8000E108F108C851DC4FEACFDF91CF91FF9028
:100A9000EF90DF90CF900895789484B5826084BD04
:100AA00084B5816084BD85B5826085BD85B5816072
:100AB00085BDEEE6F0E0808181608083E1E8F0E0D2
:100AC0001082808182608083808181608083E0E801
:100AD000F0E0808181608083E1EBF0E080818460E0
:100AE0008083E0EBF0E0808181608083EAE7F0E0E2
:100AF0008081846080838081826080838081816046
:100B000080838081806880831092C1000895833043
:100B100081F028F4813099F08230A1F00895873077
:100B2000A9F08830B9F08430D1F4809180008F7DB5
:100B300003C0809180008F7780938000089584B5F2
:100B40008F7702C084B58F7D84BD08958091B000F9
:100B50008F7703C08091B0008F7D8093B00008959F
:100B60000F931F93CF93DF931F92CDB7DEB7282F3C
:100B700030E0F901EA58FF4F8491F901E657FF4F41
:100B80001491F901E256FF4F04910023C9F0882324
:100B900021F069830E9487056981E02FF0E0EE0F64
:100BA000FF1FEE54FF4FA591B4919FB7F8948C911D
:100BB000611103C01095812301C0812B8C939FBFCD
:100BC0000F90DF91CF911F910F910895FC01818DBE
:100BD000228D90E0805C9F4F821B91098F73992733
:100BE0000895FC01918D828D981731F0828DE80F68
:100BF000F11D858D90E008958FEF9FEF0895FC0122
:100C0000918D828D981761F0828DDF01A80FB11D43
:100C10005D968C91928D9F5F9F73928F90E0089567
:100C20008FEF9FEF089583E897E0892B49F080E0EC
:100C300090E0892B29F00E94830781110C94000019
:100C40000895FC01848DDF01A80FB11DA35ABF4F89
:100C50002C91848D90E001968F739927848FA689BB
:100C6000B7892C93A089B1898C9180648C93938DE2
:100C7000848D981306C00288F389E02D80818F7DD2
:100C800080830895CF93DF93EC01888D8823C9F08A
:100C9000EA89FB89808185FD05C0A889B9898C9185
:100CA00086FD0FC00FB607FCF5CF808185FFF2CF20
:100CB000A889B9898C9185FFEDCFCE010E942106CC
:100CC000E7CFDF91CF910895CF92DF92FF920F93FC
:100CD0001F93CF93DF931F92CDB7DEB76C01DC017A
:100CE0005B969C915B975C968C915C97981307C080
:100CF0005096ED91FC915197808185FD32C0F601AF
:100D0000038D10E00F5F1F4F0F731127F02EF601B8
:100D1000848DF81211C00FB607FCF9CFD60150969A
:100D2000ED91FC915197808185FFF1CFC6016983D8
:100D30000E9421066981EBCF838DE80FF11DE35AF4
:100D4000FF4F6083D6015B960C935B975296ED91B3
:100D5000FC91539780818062808381E058968C93C8
:100D60000DC0D6015696ED91FC9157976083509631
:100D7000ED91FC91519780818064808381E090E0C7
:100D80000F90DF91CF911F910F91FF90DF90CF9047
:100D90000895BF92CF92DF92EF92FF92CF93DF93AD
:100DA000EC016A017B01B22EE889F98982E0808337
:100DB000411581EE580761057105A1F060E079E009
:100DC0008DE390E0A70196010E94BB0821503109F4
:100DD000410951095695479537952795211580E189
:100DE000380798F0E889F989108260E874E88EE1A4
:100DF00090E0A70196010E94BB08215031094109EA
:100E000051095695479537952795EC85FD85308393
:100E1000EE85FF852083188EEC89FD89B082EA89F2
:100E2000FB89808180618083EA89FB898081886079
:100E30008083EA89FB89808180688083EA89FB89D5
:100E400080818F7D8083DF91CF91FF90EF90DF9045
:100E5000CF90BF9008951F920F920FB60F9211245A
:100E60002F938F939F93EF93FF93E0914702F0911D
:100E700048028081E0914D02F0914E0282FD12C045
:100E80009081809150028F5F8F7320915102821761
:100E900051F0E0915002F0E0E95CFD4F958F8093B6
:100EA000500201C08081FF91EF919F918F912F910E
:100EB0000F900FBE0F901F9018951F920F920FB6B4
:100EC0000F9211242F933F934F935F936F937F93D0
:100ED0008F939F93AF93BF93EF93FF9387E392E03A
:100EE0000E942106FF91EF91BF91AF919F918F9149
:100EF0007F916F915F914F913F912F910F900FBE16
:100F00000F901F90189587E392E00E94E60521E07C
:100F1000892B09F420E0822F089510923A02109252
:100F2000390288EE93E0A0E0B0E080933B0290931A
:100F30003C02A0933D02B0933E0282E691E0909382
:100F400038028093370285EC90E0909344028093BE
:100F5000430284EC90E0909346028093450280EC3B
:100F600090E0909348028093470281EC90E0909348
:100F70004A028093490282EC90E090934C02809365
:100F80004B0286EC90E090934E0280934D021092BB
:100F90005002109251021092520210925302089580
:100FA00008950E944C050E94D0070E947503C3E17A
:100FB000D6E00E94AF042097E1F30E941306F9CF18
:100FC000CF92DF92EF92FF920F931F93CF93DF9315
:100FD0006C017A01EB01E60EF71E00E010E0CE1581
:100FE000DF0561F06991D601ED91FC910190F081EE
:100FF000E02DC6010995080F191FF1CFC801DF9137
:10100000CF911F910F91FF90EF90DF90CF900895B7
:101010006115710581F0DB010D900020E9F7AD014C
:1010200041505109461B570BDC01ED91FC910280A8
:10103000F381E02D099480E090E008950C94080875
:10104000DC01ED91FC910190F081E02D09940F936A
:101050001F93CF93DF93EC016DE00E9420088C0179
:101060006AE0CE010E942008800F911FDF91CF918E
:101070001F910F9108950F931F93CF93DF93EC016E
:101080000E9408088C01CE010E942708800F911F42
:10109000DF91CF911F910F9108958F929F92AF9200
:1010A000BF92CF92DF92EF92FF920F931F93CF9355
:1010B000DF93CDB7DEB7A1970FB6F894DEBF0FBEB2
:1010C000CDBF7C01C42EE52FCB01D22E19A221E089
:1010D0002D1510F02AE0D22E8E010F5D1F4F8D2CA2
:1010E000912CA12CB12C6C2D7E2FA50194010E9476
:1010F000BB088C2DD29E80191124015011098A3011
:1011000014F4805D01C0895CF801808321153105EC
:101110004105510521F0C22EE32FCA01E4CFB801E9
:10112000C7010E940808A1960FB6F894DEBF0FBE53
:10113000CDBFDF91CF911F910F91FF90EF90DF9086
:10114000CF90BF90AF909F908F900895211531055B
:1011500041F4DC01ED91FC910190F081E02D642FD0
:1011600009940C944D089A01462F50E060E070E01D
:101170000C94A6080895A1E21A2EAA1BBB1BFD0120
:101180000DC0AA1FBB1FEE1FFF1FA217B307E40766
:10119000F50720F0A21BB30BE40BF50B661F771FBE
:1011A000881F991F1A9469F760957095809590959E
:1011B0009B01AC01BD01CF010895EE0FFF1F05900B
:0A11C000F491E02D0994F894FFCF9C
:1011CA0000000000E200B5008A009200A500B40009
:1011DA003A0030002F0020446179206F662077653D
:1011EA00656B3A200053756E646179004D6F6E64C9
:1011FA0061790054756573646179005765646E6539
:10120A007364617900546875727364617900467217
:10121A0069646179005361747572646179000000D0
:0E122A0000006406E007E605FF05F105420638
:00000001FF
