:10000000E9C0000015C1000013C1000011C10000CB
:100010000FC100000DC100000BC1000009C10000AC
:1000200007C1000005C1000003C1000001C10000BC
:10003000FFC00000FDC00000FBC00000F9C00000D0
:10004000F7C00000F5C00000F3C00000F1C00000E0
:10005000EFC00000EDC00000EBC0000013C10000C5
:10006000E7C00000ABC30000DFC30000E1C0000038
:10007000DFC00000DDC00000DBC00000D9C0000010
:10008000D7C00000D5C00000D3C00000D1C0000020
:10009000CFC00000CDC00000CBC00000C9C0000030
:1000A000C7C00000C5C00000C3C00000C1C0000040
:1000B000BFC00000BDC00000BBC00000B9C0000050
:1000C000B7C00000B5C00000B3C00000B1C0000060
:1000D000AFC00000ADC00000ABC00000A9C0000070
:1000E000A7C00000486F772061626F75742061744B
:1000F0006D656C2073747564696F00486F7720615B
:10010000726520796F752121004869204D616E214B
:1001100021000102102020080810204010204080FB
:1001200002010201080402010102040810204080BB
:100130008040201008040201800402018040201049
:100140000804020108040201010204081020408092
:100150000102040810204080050505050705080870
:100160000808020202020A0A080804040404010141
:100170000101010101010303030303030303040756
:1001800007070C0C0C0C0C0C0C0C020202020606ED
:100190000606060606060B0B0B0B0B0B0B0B0000E3
:1001A0002200250028002B002E003100340002011F
:1001B0000000050108010B010000210024002700B8
:1001C0002A002D0030003300010100000401070166
:1001D0000A01460411241FBECFEFD1E2DEBFCDBF1E
:1001E00000E00CBF12E0A0E0B2E0E6E6FAE000E0DA
:1001F0000BBF02C007900D92A031B107D9F722E0E2
:10020000A0E1B2E001C01D92A63BB207E1F711E008
:10021000C4EDD1E000E005C022970109FE010BBF4B
:100220001CD4C23DD10780E00807B1F773D319C4CD
:10023000E7CE26E040E855E260E070E089E192E038
:100240005DD261E08DE012C169E071E089E192E088
:10025000D1D364E670E080E090E081D06BEF70E095
:1002600089E192E0C7D364E670E080E090E077D067
:1002700064EE70E089E192E0BDD364E670E080E076
:1002800090E06DC01F920F920FB60F9211242F9322
:100290003F938F939F93AF93BF938091110290915F
:1002A0001202A0911302B09114023091100223E0C7
:1002B000230F2D3720F40196A11DB11D05C026E89E
:1002C000230F0296A11DB11D2093100280931102ED
:1002D00090931202A0931302B0931402809115021E
:1002E00090911602A0911702B09118020196A11DDB
:1002F000B11D8093150290931602A0931702B0933C
:100300001802BF91AF919F918F913F912F910F90C4
:100310000FBE0F901F9018953FB7F894809115026B
:1003200090911602A0911702B091180226B5A89BD1
:1003300005C02F3F19F00196A11DB11D3FBF6627D3
:10034000782F892F9A2F620F711D811D911D42E018
:10035000660F771F881F991F4A95D1F70895CF928E
:10036000DF92EF92FF92CF93DF936B017C01D4DF9A
:10037000EB01C114D104E104F10479F04BD3CCDFDB
:100380006C1B7D0B683E7340A0F381E0C81AD10856
:10039000E108F108C851DC4FECCFDF91CF91FF901D
:1003A000EF90DF90CF900895789484B5826084BDFB
:1003B00084B5816084BD85B5826085BD85B5816069
:1003C00085BDEEE6F0E0808181608083E1E8F0E0C9
:1003D0001082808182608083808181608083E0E8F8
:1003E000F0E0808181608083E1EBF0E080818460D7
:1003F0008083E0EBF0E0808181608083E1E9F0E0E0
:10040000808182608083808181608083E0E9F0E088
:10041000808181608083E1EAF0E080818260808376
:10042000808181608083E0EAF0E080818160808368
:10043000E1E2F1E08081826080838081816080835D
:10044000E0E2F1E0808181608083EAE7F0E0808192
:1004500084608083808182608083808181608083EA
:100460008081806880831092C1000895CF93DF93CC
:1004700090E0FC01EE5EFE4F2491FC01E85AFE4F35
:100480008491882349F190E0880F991FFC01E8547A
:10049000FE4FA591B49182569E4FFC01C591D49117
:1004A0009FB7611108C0F8948C91209582238C939A
:1004B000888182230AC0623051F4F8948C91322FE3
:1004C000309583238C938881822B888304C0F89491
:1004D0008C91822B8C939FBFDF91CF910895FC016B
:1004E000818D228D90E0805C9F4F821B91098F73DC
:1004F00099270895FC01918D828D981731F0828D96
:10050000E80FF11D858D90E008958FEF9FEF08951E
:10051000FC01918D828D981761F0828DDF01A80F0B
:10052000B11D5D968C91928D9F5F9F73928F90E02D
:1005300008958FEF9FEF08958DE394E0892B39F0B4
:1005400080E090E0892B19F098D1811125C080E0DE
:1005500090E0892B41F080E090E0892B21F00E940F
:10056000000081111CC080E090E0892B41F080E008
:1005700090E0892B21F00E940000811113C080E0DF
:1005800090E0892BA1F080E090E0892B81F00E941F
:10059000000081110AC008950E940000D8CF0E9477
:1005A0000000E1CF0E940000EACF0C940000089503
:1005B000FC01848DDF01A80FB11DA35ABF4F2C9100
:1005C000848D90E001968F739927848FA689B789CF
:1005D0002C93A089B1898C9180648C93938D848DA8
:1005E000981306C00288F389E02D80818F7D808377
:1005F0000895CF93DF93EC01888D8823C1F0EA89B9
:10060000FB89808185FD05C0A889B9898C9186FD0B
:100610000EC00FB607FCF5CF808185FFF2CFA88909
:10062000B9898C9185FFEDCFCE01C2DFE8CFDF9194
:10063000CF910895CF92DF92FF920F931F93CF93A4
:10064000DF931F92CDB7DEB76C01DC015B969C9106
:100650005B975C968C915C97981307C05096ED91D0
:10066000FC915197808185FD31C0F601038D10E02A
:100670000F5F1F4F0F731127F02EF601848DF812B4
:1006800010C00FB607FCF9CFD6015096ED91FC9142
:100690005197808185FFF1CFC601698389DF698128
:1006A000ECCF838DE80FF11DE35AFF4F6083D60135
:1006B0005B960C935B975296ED91FC9153978081DA
:1006C0008062808381E058968C930DC0D601569647
:1006D000ED91FC91579760835096ED91FC91519765
:1006E00080818064808381E090E00F90DF91CF91E2
:1006F0001F910F91FF90DF90CF900895BF92CF92FE
:10070000DF92EF92FF92CF93DF93EC016A017B01BE
:10071000B22EE889F98982E08083411581EE58077D
:100720006105710599F060E079E08DE390E0A70143
:10073000960171D1215031094109510956954795CA
:1007400037952795211580E1380790F0E889F989D8
:10075000108260E874E88EE190E0A70196015BD119
:1007600021503109410951095695479537952795EB
:10077000EC85FD853083EE85FF852083188EEC891E
:10078000FD89B082EA89FB89808180618083EA8962
:10079000FB89808188608083EA89FB898081806809
:1007A0008083EA89FB8980818F7D8083DF91CF916F
:1007B000FF90EF90DF90CF90BF9008951F920F921F
:1007C0000FB60F9211240BB60F922F938F939F9316
:1007D000EF93FF93E0912902F0912A028081E0914A
:1007E0002F02F091300282FD12C09081809132027E
:1007F0008F5F8F7320913302821751F0E0913202A4
:10080000F0E0E75EFD4F958F8093320201C080815A
:10081000FF91EF919F918F912F910F900BBE0F90B1
:100820000FBE0F901F9018951F920F920FB60F9248
:1008300011240BB60F922F933F934F935F936F93B7
:100840007F938F939F93AF93BF93EF93FF9389E130
:1008500092E0AEDEFF91EF91BF91AF919F918F91AA
:100860007F916F915F914F913F912F910F900BBEB0
:100870000F900FBE0F901F90189589E192E02FDE28
:1008800021E0892B09F420E0822F089510921C02A8
:1008900010921B0288EE93E0A0E0B0E080931D026E
:1008A00090931E02A0931F02B093200284E092E076
:1008B00090931A028093190285EC90E0909326029F
:1008C0008093250284EC90E0909328028093270285
:1008D00080EC90E090932A028093290281EC90E0D2
:1008E00090932C0280932B0282EC90E090932E0246
:1008F00080932D0286EC90E09093300280932F023B
:100900001092320210923302109234021092350289
:100910000895089549DDFDDF8CDCCCE9D2E094DC5C
:100920002097E9F309DEFBCFCF92DF92EF92FF929F
:100930000F931F93CF93DF936C017A01EB01E60EC7
:10094000F71E00E010E0CE15DF0561F06991D601D9
:10095000ED91FC910190F081E02DC6011995080FF1
:10096000191FF1CFC801DF91CF911F910F91FF9017
:10097000EF90DF90CF900895EF92FF920F931F9327
:10098000CF93DF938C01FB01C0E0D0E064917F0145
:100990008FEFE81AF80A662361F0D801ED91FC9117
:1009A0000190F081E02DC8011995C80FD91FF701FA
:1009B000EDCFCE01DF91CF911F910F91FF90EF907E
:1009C0000895DC01ED91FC910190F081E02D1994E6
:1009D0000F931F93CF93DF93EC016DE0F2DF8C0157
:1009E0006AE0CE01EEDF800F911FDF91CF911F9162
:1009F0000F9108950F931F93CF93DF93EC01BCDF0A
:100A00008C01CE01E5DF800F911FDF91CF911F9107
:100A10000F9108950895A1E21A2EAA1BBB1BFD0198
:100A20000DC0AA1FBB1FEE1FFF1FA217B307E407CD
:100A3000F50720F0A21BB30BE40BF50B661F771F25
:100A4000881F991F1A9469F7609570958095909505
:100A50009B01AC01BD01CF0108950790F691E02DF7
:060A60001994F894FFCF89
:100A6600000000001A0394046F0288027A02F90259
:00000001FF
