:1000000065C1000094C1000092C1000090C10000D1
:100010008EC100008CC100008AC1000088C10000B0
:1000200086C1000084C1000082C1000080C10000C0
:100030007EC100007CC100007AC1000078C10000D0
:1000400076C1000074C1000072C1000070C10000E0
:100050006EC100006CC100006AC100000C94470929
:1000600066C100000C94930C0C94C90C60C1000094
:100070005EC100005CC100005AC1000058C1000010
:1000800056C1000054C1000052C1000050C1000020
:100090004EC100004CC100004AC1000048C1000030
:1000A00046C1000044C1000042C1000040C1000040
:1000B0003EC100003CC100003AC1000038C1000050
:1000C00036C1000034C1000032C1000030C1000060
:1000D0002EC100002CC100002AC1000028C1000070
:1000E00026C10000530A560A450A490A4F0A8D0ADA
:1000F0005A0A5E0A640A680A6C0A720A760A7A0A5E
:100100008D0A800A840A880A5363616E6E656420D2
:10011000504943432773205549443A005741524EB2
:10012000494E473A20436F6D6D756E69636174691E
:100130006F6E206661696C7572652C20697320741E
:100140006865204D4652433532322070726F7065BB
:10015000726C7920636F6E6E65637465643F002016
:1001600028756E6B6E6F776E2900203D2076322EDB
:100170003000203D2076312E30004D46524335323E
:100180003220536F667477617265205665727369A9
:100190006F6E3A2030780000000A0B02090C0D0E39
:1001A0000807030401000000000000000000000038
:1001B000000000000000000000000000000000003F
:1001C00000000012111000000000000000000000FC
:1001D000000000000000000000000000000102100C
:1001E0002020080810204010204080020102010851
:1001F0000402010102040810204080804020100801
:100200000402018004020180402010080402010859
:1002100004020101020408102040800102040810B9
:1002200020408005050505070508080808020202A8
:10023000020A0A0808040404040101010101010181
:10024000010303030303030303040707070C0C0C58
:100250000C0C0C0C0C020202020606060606060630
:10026000060B0B0B0B0B0B0B0B00002000230026C7
:100270000029002C002F00320000010000030106BD
:1002800001090100002200250028002B002E00316A
:1002900000340002010000050108010B01000021EB
:1002A00000240027002A002D003000330001010047
:1002B00000040107010A01009801A301A402B2028F
:1002C000BD02C8023009FB0C9B0D430911241FBE5F
:1002D000CFEFD1E2DEBFCDBF00E00CBF12E0A0E067
:1002E000B2E0EEE1F3E200E00BBF02C007900D9236
:1002F000A433B107D9F723E0A4E3B2E001C01D9213
:10030000A234B207E1F712E0CAECD2E000E006C086
:1003100022970109FE010BBF0E945F0FC83BD10766
:1003200080E00807A9F70E94AB0D0C947E1168CEFF
:100330000F9300E020E040E060E084E392E00E9460
:100340007F0D0F9108950F9300E020E040E060E002
:100350008AE392E00E947F0D0F910895209172022E
:10036000222399F03FB7F89420917202213059F47A
:100370002DB3209370024DB3209171022095242358
:100380002DBB3FBF02C0309370028CBD9DBD089550
:1003900080917202882361F09FB7F89420917202D5
:1003A00080917002213019F48DBB9FBF08958FBFDB
:1003B000089544E050E0BC0181E090E07FC144E05A
:1003C00050E0BC0185E090E079C144E050E0BC0120
:1003D0008FE090E073C18F929F92AF92BF92CF92C5
:1003E000DF92EF92FF920F931F93CF93DF931F92B1
:1003F0001F92CDB7DEB74C016A01590180E692E049
:1004000069837A83F8D080E590E0A8DF46E050E089
:1004100069817A8189E090E051D1C6010296D5DFE9
:10042000C8010296C6DFC7010296C9DFB1DFF50138
:100430004281538164817581F401428353836483D3
:1004400075830F900F90DF91CF911F910F91FF90C7
:10045000EF90DF90CF90BF90AF909F908F900895D6
:100460006F927F928F929F92AF92BF92CF92DF92C4
:10047000EF92FF920F931F93CF93DF93CDB7DEB729
:100480006E970FB6F894DEBF0FBECDBF6C015B0157
:100490007A014901380100E02FEF4FEF6FEFCE01F5
:1004A00049960E947F0D22E332E03A8329838B8DA7
:1004B0009C8DAD8DBE8D8B839C83AD83BE83388731
:1004C0002F83F30182819381A481B58189879A87E3
:1004D000AB87BC873E872D87F40182819381A481FD
:1004E000B5818F87988BA98BBA8B3C8B2B8BF701AF
:1004F00042815381648175814D8B5E8B6F8B788FC8
:10050000CE0101967C018E01095F1F4F9E01235F82
:100510003F4FAE014D5E5F4FB501C6015CDF6E9689
:100520000FB6F894DEBF0FBECDBFDF91CF911F9104
:100530000F91FF90EF90DF90CF90BF90AF909F9082
:100540008F907F906F9008950F9300E020E040E03F
:1005500060E088E492E00E947F0D80E492E00F91D9
:100560000C94750D0F9300E020E040E060E08EE415
:1005700092E00E947F0D0F9108950F9300E020E01C
:1005800040E060E084E592E00E947F0D0F910895C5
:100590000F9300E020E040E060E08AE592E00E94F6
:1005A0007F0D0F9108958EBD00000DB407FEFDCFA5
:1005B0008EB508952C9808952C9A08951F93CF9383
:1005C000DF931F921F92CDB7DEB7182F6A839983EE
:1005D000F1DF80EFE8DF9981892FE5DF812FE3DF0D
:1005E0006A81862FE0DFE8DF81E00F900F90DF91D6
:1005F000CF911F910895CF93DF93EC016CE271E0EE
:1006000080E090E0B1D64FD5249A80917202882381
:1006100099F09FB7F89480917202813059F48DB3AC
:10062000809370022DB380917102809582238DBBDF
:100630009FBF02C09093700280E58CBD1DBC60E836
:1006400080E090E0BBDF65E58BE190E0B7DF65E53A
:100650008AE190E0B3DF80917202882361F09FB756
:10066000F8942091720280917002213019F48DBBB0
:100670009FBF01C08FBF80E090E49983888380E0B2
:1006800090E69987888780E098E49B838A8380E05E
:1006900098E69B878A8780E090E59D838C8380E045
:1006A00090E79D878C8780E098E59F838E8380E02C
:1006B00098E79F878E87DF91CF910895CF92DF9241
:1006C000EF92FF920F931F93CF93DF93EC017A0188
:1006D0008B016C01C40ED51ECC15DD0571F06ADFEF
:1006E00080EF61DF8D2F5FDF8C2F5DDF2196F801BA
:1006F00081918F0158DF60DFEFCFC701DF91CF918C
:100700001F910F91FF90EF90DF90CF9008957F920F
:100710008F929F92AF92BF92CF92DF92EF92FF9211
:100720000F931F93CF93DF936C01162F942EE90143
:100730001E77106883E590E011DE60E0F6018485A5
:1007400026D79A94812F2FDF7C2EEC2EFD2EAA2403
:10075000A394B12C8E2D8719891518F5811119C014
:100760000023B9F0802F812C883048F49501082EA1
:1007700001C0220F0A94EAF7822A8F5FF5CF812FFA
:1007800012DF982D9095288192238821982B9883A9
:1007900004C0812F08DFF7018083FFEFEF1AFF0A03
:1007A000D9CFC90DD11D80E0FEDE888361E0F6015E
:1007B0008485EDD6DF91CF911F910F91FF90EF903F
:1007C000DF90CF90BF90AF909F908F907F90E0CDC3
:1007D000FC01648745870895EF92FF921F93CF93A2
:1007E000DF931F92CDB7DEB77C01162F83E590E033
:1007F0004983B4DD60E0F7018485C9D6812F8E7707
:10080000D2DE4981842FCFDE61E0F7018485BFD637
:100810000F90DF91CF911F91FF90EF90B9CDCF92C4
:10082000DF92EF92FF920F931F93CF93DF931F926C
:100830001F92CDB7DEB78C01E62EF42E83E590E053
:1008400029833A838BDD60E0F8018485A0D68E2D64
:100850008E77A9DE2981E22EC22E3A81D32E8C2DED
:100860008E198F1528F4F60181916F019CDEF7CF68
:1008700061E0F80184858BD60F900F90DF91CF91C6
:100880001F910F91FF90EF90DF90CF9081CD1F933C
:10089000CF93DF93EC01162F83E590E05FDD60E0FE
:1008A0008C8575D6812F8E7780687DDE80E07BDE3B
:1008B000182F61E08C856BD66BDD812FDF91CF9196
:1008C0001F9108950F93411122DF0F910895EF9228
:1008D000FF921F93CF93DF931F92CDB7DEB77C01BA
:1008E000162F4983D4DF4981482B612FC7010F9010
:1008F000DF91CF911F91FF90EF906ECFEF92FF921B
:100900001F93CF93DF931F92CDB7DEB77C01162FD5
:100910004983BDDF498140954823612FC7010F906E
:10092000DF91CF911F91FF90EF9056CFDF92EF9222
:10093000FF920F931F93CF93DF93EC018B01D42E83
:10094000790140E062E048DF44E06AE0CE0144DF44
:1009500040E864E1CE01BBDF98014D2D62E1CE019C
:100960005EDF43E062E0CE0137DF08E813E16AE0D2
:10097000CE018DDF82FD06C001501109C1F783E071
:1009800090E010C040E062E0CE0126DF64E4CE01DA
:100990007EDFF701808362E4CE0179DFF701818396
:1009A00080E090E0DF91CF911F910F91FF90EF9049
:1009B000DF900895CF93DF93EC014FE062E00CDF0E
:1009C00062E370E080E090E0CFD462E0CE015FDFD0
:1009D00084FDFBCFDF91CF910895CF93DF93EC019E
:1009E00068E255DF982F9370933039F0482F4360B9
:1009F00068E2CE01DF91CF91EFCEDF91CF910895E4
:100A0000CF93DF93EC0161E08C8588D561E08C8524
:100A1000BED561E08D8582D58D85EED5892B49F4D3
:100A200061E08D85B4D562E370E080E090E09CD415
:100A300002C0CE01BFDF40E864E5CE01CDDE49EA69
:100A400066E5CE01C9DE43E068E5CE01C5DE48EECD
:100A50006AE5CE01C1DE40E46AE2CE01BDDE4DE3CF
:100A600062E2CE01B9DECE01DF91CF91B6CF2F92F7
:100A70003F925F926F927F928F929F92AF92BF92BE
:100A8000CF92DF92EF92FF920F931F93CF93DF935A
:100A900000D01F92CDB7DEB73C01962E542E302EDB
:100AA000082DA114B10419F0F501408101C040E006
:100AB000242EF0E10F9F200C112440E062E0C301DE
:100AC0002B833C8389DE4FE768E0C30185DE40E885
:100AD00064E1C301FCDE2B813C81432D62E1C30153
:100AE0009EDE422D6AE1C30177DE492D62E0C3013B
:100AF00073DE8CE0981204C040E86AE1C301E7DECF
:100B000090ED292E97E0392E68E0C301C0DE982FC2
:100B1000952139F480FD5DC0E1E02E1A3108A1F77E
:100B200058C06CE0C301B3DE982E837109F053C046
:100B3000E114F104D9F0C114D104C1F064E1C3019E
:100B4000A6DE482FF6018081841708F446C0408352
:100B5000970162E1C301B6DE68E1C30198DE182F98
:100B60001770A114B10411F0F501108393FC37C084
:100B7000E114F104B1F1C114D10499F1898D8823F4
:100B800081F1F6014081413019F4143019F41FC08D
:100B9000423010F487E026C01111FCCF42509E0174
:100BA0002F5F3F4FB701C301C1DE0097E1F4F601AB
:100BB0008081E80EF11CF7013297908189819813AA
:100BC000E9CF319690818A819813E4CF0AC08FEFE4
:100BD00009C083E007C081E005C084E003C082E073
:100BE00001C080E090E00F900F900F900F90DF9188
:100BF000CF911F910F91FF90EF90DF90CF90BF901A
:100C0000AF909F908F907F906F905F903F902F90CC
:100C100008958F92AF92BF92CF92DF92EF92FF92A0
:100C20000F931F93AF928C2C570168017901042F09
:100C30009B0140E36CE01BDF0F901F910F91FF9031
:100C4000EF90DF90CF90BF90AF908F9008954F922C
:100C50005F926F927F928F929F92AF92CF92EF921C
:100C6000FF920F931F93CF93DF931F921F92CDB7E5
:100C7000DEB73C016A832A0149014115510521F182
:100C8000F9018081823000F140E86CE1C30136DE79
:100C900087E08983A12CC12CCE0101967C018401BF
:100CA000920141E0BE016E5F7F4FC301B2DF00974A
:100CB00079F4F4018081823049F481E090E0298167
:100CC000211106C080E004C084E001C081E090E012
:100CD0000F900F90DF91CF911F910F91FF90EF90A8
:100CE000CF90AF909F908F907F906F905F904F903C
:100CF00008959A01AB0166E2AACF2F923F924F92DC
:100D00005F926F927F928F929F92AF92BF92CF929B
:100D1000DF92EF92FF920F931F93CF93DF93CDB7A4
:100D2000DEB72D970FB6F894DEBF0FBECDBF3C01E6
:100D30002B01B42E40E54B1508F4E1C040E86CE10E
:100D4000DDDD2224239482E0281691F093E0291619
:100D5000E1F0A1E02A12D7C083E98983BB20D1F05A
:100D600041E0F2018081853008F440E0D12C17C0C9
:100D700085E98983BB2081F041E0D2018C918830E4
:100D800008F440E073E0D72E0AC087E9898366E063
:100D9000D62E04C0D12C02C053E0D52E40E05B2DEE
:100DA000B8EFDB9E500D112457FD50E0442321F095
:100DB00088E88B8373E001C072E091E0852F877033
:100DC00009F490E0852F859585958595890F21F407
:100DD000442311F1585F20C0442311F063E001C0A7
:100DE00064E0861708F4682F80E090E092012D0DF2
:100DF000311DE72FE80FA1E0B0E0AC0FBD1FAE0F33
:100E0000B11DFD01D901A80FB91F1196AC91A083A6
:100E10000196861770F3DCCF43E0342E50320CF489
:100E200053C0B0E7BA838C819B8189279D81892734
:100E30009E8189278F839E01285F3F4F47E0BE0137
:100E40006F5F7F4FC3015D8771DD5D85009709F09E
:100E5000A8C01B863A86FE0137964F0179E00BC089
:100E6000780F88248394912C8C0E9D1E880E911CE3
:100E700087E0821B8A87CB844C2D4295407F4C0DA6
:100E80006AE1C3015D877C87A7DCA12CCE010B96AC
:100E90007C018E01065F1F4F94017C85472FBE01A8
:100EA0006F5F7F4FC301B5DE5D858230910501F52F
:100EB0006CE1C301ECDC5D8585FD23C052301CF57F
:100EC0008B8182608B8352E0952F97709B87252FB3
:100ED00025952595259582E0820F392FF0E18F9F8A
:100EE000300D11243A8371E09111BACF70E0B8CF80
:100EF000009709F056C0503294F450E292CF86E049
:100F00000CC082E00AC085E008C0F2018387822D10
:100F1000880F820D8F5F808380E090E042C08B81DC
:100F2000883819F052E044E002C053E043E080E02A
:100F300090E092012D0D311DF901E80FF91F652F89
:100F4000680FA1E0B0E0AC0FBD1FA60FB11D6C9102
:100F500061830196841780F38A858330F1F48B8551
:100F600081111BC09E012D5F3F4F41E0B401C301C1
:100F7000DDDC0097B1F49B81D40111968C9111971F
:100F800098130DC09C8112968C911297981307C0EC
:100F90008C9182FFBACF2394D6CE81E0BECF87E07A
:100FA000BCCF2D960FB6F894DEBF0FBECDBFDF913C
:100FB000CF911F910F91FF90EF90DF90CF90BF9056
:100FC000AF909F908F907F906F905F904F903F90E9
:100FD0002F9008958F929F92AF92CF92EF92FF92AF
:100FE0000F931F93CF93DF9300D01F92CDB7DEB73F
:100FF0004C0180E589831A829E012D5F3F4F42E0BC
:10100000BE016F5F7F4FC40191DC0097B9F4A12C42
:10101000C12CE12CF12C00E010E020E030E044E0B5
:10102000BE016F5F7F4FC401F4DD8330910521F075
:10103000009721F481E001C080E090E00F900F90D4
:101040000F900F90DF91CF911F910F91FF90EF9034
:10105000CF90AF909F908F900895CF93DF9300D063
:10106000CDB7DEB722E02B83AE014D5F5F4FBE01EF
:101070006F5F7F4F3EDE009731F021E0029709F06D
:1010800020E0822F01C081E00F900F900F90DF9140
:10109000CF91089540E0BC0130DE21E0892B09F0BA
:1010A00020E0822F0895CF93CFB7F89480917302F8
:1010B000811123C0E8E5F2E08491E2E1F2E094914D
:1010C000E82FF0E0EE0FFF1FE356FD4FA591B4911E
:1010D0008C91892319F461E085E359D261E085E3BD
:1010E0001DD28CB580618CBD8CB580648CBD61E0F7
:1010F00084E314D261E083E311D2809173028F5FA5
:1011000080937302CFBFCF910895CF936EE684E7AB
:1011100092E0BDDBC82F6AE771E08BE992E063D50E
:1011200040E150E06C2F8BE992E01FD6C13919F4F1
:1011300062E771E007C0C23919F46AE671E002C0E3
:101140006FE571E08BE992E04ED56DE172E08BE9DD
:1011500092E098D5C150CE3F30F06CE171E08BE960
:1011600092E0CF917FC5CF9108950F931F93CF93B6
:10117000DF93CDB7DEB762970FB6F894DEBF0FBE30
:10118000CDBF26E040E855E260E070E08BE992E0F8
:101190006AD36EE072E0CE010196BDD46AE072E0DF
:1011A000CE010796B8D462E172E0CE010D96B3D4B9
:1011B0008E010F5F1F4F9E01295F3F4FAE01435FBE
:1011C0005F4F66E172E080E492E04AD984E792E002
:1011D00017DC9BDF62960FB6F894DEBF0FBECDBF63
:1011E000DF91CF911F910F9108950F931F93CF938C
:1011F000DF9384E792E031DF882361F184E792E0B6
:1012000049DF882339F168E071E08BE992E02AD563
:10121000C5E7D2E002E812E06991F80161938F011D
:1012200040E150E08BE992E0A0D56CE172E08BE9FF
:1012300092E0FED4F2E0C937DF0771F76DE172E0AA
:101240008BE992E01FD584E792E0DF91CF911F9167
:101250000F91C0CEDF91CF911F910F910895C5CF0F
:101260000F9300E020E040E060E08CE892E047D49B
:101270006DE172E086E892E0E5D546E167E184E75A
:1012800092E00F91A5CA86E892E075C508951F9275
:101290000F920FB60F9211242F933F938F939F932A
:1012A000AF93BF938091930290919402A091950285
:1012B000B09196023091920223E0230F2D3720F453
:1012C0000196A11DB11D05C026E8230F0296A11DA0
:1012D000B11D209392028093930290939402A09365
:1012E0009502B09396028091970290919802A091F6
:1012F0009902B0919A020196A11DB11D80939702A7
:1013000090939802A0939902B0939A02BF91AF91E3
:101310009F918F913F912F910F900FBE0F901F9033
:1013200018953FB7F8948091970290919802A091F8
:101330009902B0919A0226B5A89B05C02F3F19F0DB
:101340000196A11DB11D3FBF6627782F892F9A2FC7
:10135000620F711D811D911D42E0660F771F881F6E
:10136000991F4A95D1F70895CF92DF92EF92FF929D
:10137000CF93DF936B017C01D4DFEB01C114D10467
:10138000E104F10479F082DFCCDF6C1B7D0B683E59
:101390007340A0F381E0C81AD108E108F108C851F0
:1013A000DC4FECCFDF91CF91FF90EF90DF90CF90AB
:1013B0000895789484B5826084BD84B5816084BDCD
:1013C00085B5826085BD85B5816085BDEEE6F0E0BE
:1013D000808181608083E1E8F0E01082808182601A
:1013E0008083808181608083E0E8F0E0808181609B
:1013F0008083E1EBF0E0808184608083E0EBF0E0CB
:10140000808181608083E1E9F0E080818260808377
:10141000808181608083E0E9F0E080818160808369
:10142000E1EAF0E080818260808380818160808356
:10143000E0EAF0E0808181608083E1E2F1E0808198
:1014400082608083808181608083E0E2F1E080813E
:1014500081608083EAE7F0E080818460808380811E
:1014600082608083808181608083808180688083C6
:101470001092C100089590E0FC013197E231F1052E
:1014800008F04BC0EE58FF4F14C5809180008F7755
:1014900003C0809180008F7D8093800008958091AB
:1014A0008000877FF9CF84B58F7702C084B58F7DA8
:1014B00084BD08958091B0008F7703C08091B00003
:1014C0008F7D8093B0000895809190008F7707C042
:1014D000809190008F7D03C080919000877F8093E2
:1014E000900008958091A0008F7707C08091A000A0
:1014F0008F7D03C08091A000877F8093A000089516
:10150000809120018F7707C0809120018F7D03C0DB
:1015100080912001877F809320010895CF93DF93EE
:1015200090E0FC01E352FE4F2491FC01ED5DFD4F84
:101530008491882349F190E0880F991FFC01E356BC
:10154000FD4FA591B4918D579D4FFC01C591D4914C
:101550009FB7611108C0F8948C91209582238C93D9
:10156000888182230AC0623051F4F8948C91322F22
:10157000309583238C938881822B888304C0F894D0
:101580008C91822B8C939FBFDF91CF9108950F9305
:101590001F93CF93DF931F92CDB7DEB7282F30E094
:1015A000F901E956FE4F8491F901E352FE4F14917F
:1015B000F901ED5DFD4F04910023C1F0882319F07E
:1015C000698359DF6981E02FF0E0EE0FFF1FED57CF
:1015D000FD4FA591B4919FB7F8948C91611103C010
:1015E0001095812301C0812B8C939FBF0F90DF91B9
:1015F000CF911F910F910895CF93DF93282F30E063
:10160000F901E956FE4F8491F901E352FE4FD4915E
:10161000F901ED5DFD4FC491CC2389F081112BDFE1
:10162000EC2FF0E0EE0FFF1FE759FD4FA591B491AD
:101630002C912D2381E090E021F480E002C080E035
:1016400090E0DF91CF910895FC01818D228D90E093
:10165000805C9F4F821B91098F7399270895FC012D
:10166000918D828D981731F0828DE80FF11D858D57
:1016700090E008958FEF9FEF0895FC01918D828D8A
:10168000981761F0828DDF01A80FB11D5D968C91D6
:10169000928D9F5F9F73928F90E008958FEF9FEFE1
:1016A000089582EF9CE0892B39F080E090E0892B4F
:1016B00019F098D1811125C080E090E0892B41F08C
:1016C00080E090E0892B21F00E94000081111CC075
:1016D00080E090E0892B41F080E090E0892B21F0C0
:1016E0000E940000811113C080E090E0892BA1F0DE
:1016F00080E090E0892B81F00E94000081110AC0F7
:1017000008950E940000D8CF0E940000E1CF0E94FF
:101710000000EACF0C9400000895FC01848DDF01E5
:10172000A80FB11DA35ABF4F2C91848D90E0019654
:101730008F739927848FA689B7892C93A089B18943
:101740008C9180648C93938D848D981306C002884D
:10175000F389E02D80818F7D80830895CF93DF937F
:10176000EC01888D8823C1F0EA89FB89808185FDA1
:1017700005C0A889B9898C9186FD0EC00FB607FCFB
:10178000F5CF808185FFF2CFA889B9898C9185FF3B
:10179000EDCFCE01C2DFE8CFDF91CF910895CF9298
:1017A000DF92FF920F931F93CF93DF931F92CDB7DA
:1017B000DEB76C01DC015B969C915B975C968C912B
:1017C0005C97981307C05096ED91FC9151978081DA
:1017D00085FD31C0F601038D10E00F5F1F4F0F73C1
:1017E0001127F02EF601848DF81210C00FB607FCF9
:1017F000F9CFD6015096ED91FC915197808185FFEC
:10180000F1CFC601698389DF6981ECCF838DE80F51
:10181000F11DE35AFF4F6083D6015B960C935B97F3
:101820005296ED91FC91539780818062808381E094
:1018300058968C930DC0D6015696ED91FC91579712
:1018400060835096ED91FC915197808180648083F4
:1018500081E090E00F90DF91CF911F910F91FF9069
:10186000DF90CF900895BF92CF92DF92EF92FF92D8
:10187000CF93DF93EC016A017B01B22EE889F989ED
:1018800082E08083411581EE58076105710599F06A
:1018900060E079E08DE390E0A7019601E8D2215065
:1018A00031094109510956954795379527952115D5
:1018B00080E1380790F0E889F989108260E874E8DF
:1018C0008EE190E0A7019601D2D221503109410961
:1018D00051095695479537952795EC85FD853083B9
:1018E000EE85FF852083188EEC89FD89B082EA8918
:1018F000FB89808180618083EA89FB89808188609F
:101900008083EA89FB89808180688083EA89FB89FA
:1019100080818F7D8083DF91CF91FF90EF90DF906A
:10192000CF90BF9008951F920F920FB60F9211247F
:101930000BB60F922F938F939F93EF93FF93E091AA
:10194000AB02F091AC028081E091B102F091B20261
:1019500082FD12C090818091B4028F5F8F732091BD
:10196000B502821751F0E091B402F0E0E556FD4F68
:10197000958F8093B40201C08081FF91EF919F9178
:101980008F912F910F900BBE0F900FBE0F901F9055
:1019900018951F920F920FB60F9211240BB60F924B
:1019A0002F933F934F935F936F937F938F939F9367
:1019B000AF93BF93EF93FF938BE992E0AEDEFF917D
:1019C000EF91BF91AF919F918F917F916F915F91B7
:1019D0004F913F912F910F900BBE0F900FBE0F9024
:1019E0001F9018958BE992E02FDE21E0892B09F4F6
:1019F00020E0822F089510929E0210929D0288EEA0
:101A000093E0A0E0B0E080939F029093A002A093A7
:101A1000A102B093A20282E292E090939C02809392
:101A20009B0285EC90E09093A8028093A70284EC3F
:101A300090E09093AA028093A90280EC90E09093AA
:101A4000AC028093AB0281EC90E09093AE02809365
:101A5000AD0282EC90E09093B0028093AF0286ECEE
:101A600090E09093B2028093B1021092B40210926F
:101A7000B5021092B6021092B7020895AF92BF92CB
:101A8000CF92DF92EF92FF920F931F93CF93DF934A
:101A90006C017B01C0E0D0E000E010E0F601EC0F4B
:101AA000FD1F4AE050E06281C7015FD15C016EE238
:101AB000C701BFD08A0D9B1D080F191F2196C33087
:101AC000D10561F74AE050E0F6016581C7014DD1CB
:101AD000800F911FDF91CF911F910F91FF90EF9099
:101AE000DF90CF90BF90AF90089522E332E0FC01E9
:101AF00031832083128213821482158208950F93FA
:101B0000FC0182E392E09183808362834383248398
:101B100005830F91089522E332E0FC013183208395
:101B2000FB014081518162817381FC0142835383B7
:101B300064837583089582E392E0909339038093E0
:101B4000380310923A0310923B0310923C03109218
:101B50003D03089508952DDCFDDF07DBC1E5DBE0E3
:101B60007EDB2097E9F39DDDFBCFCF92DF92EF92F2
:101B7000FF920F931F93CF93DF936C017A01EB01D8
:101B8000E60EF71E00E010E0CE15DF0561F069916A
:101B9000D601ED91FC910190F081E02DC6011995DF
:101BA000080F191FF1CFC801DF91CF911F910F913D
:101BB000FF90EF90DF90CF9008956115710581F04F
:101BC000DB010D900020E9F7AD0141505109461BA2
:101BD000570BDC01ED91FC910280F381E02D19940B
:101BE00080E090E00895EF92FF920F931F93CF93C0
:101BF000DF938C01FB01C0E0D0E064917F018FEFA7
:101C0000E81AF80A662361F0D801ED91FC91019081
:101C1000F081E02DC8011995C80FD91FF701EDCF4C
:101C2000CE01DF91CF911F910F91FF90EF9008951A
:101C3000C4CFDC01ED91FC910190F081E02D19946D
:101C40000F931F93CF93DF93EC016DE0F2DF8C01D4
:101C50006AE0CE01EEDF800F911FDF91CF911F91DF
:101C60000F9108950F931F93CF93DF93EC01BBDF88
:101C70008C01CE01E5DF800F911FDF91CF911F9185
:101C80000F9108950F931F93CF93DF93EC0195DF8E
:101C90008C01CE01D5DF800F911FDF91CF911F9175
:101CA0000F9108958F929F92AF92BF92CF92DF9241
:101CB000EF92FF920F931F93CF93DF93CDB7DEB7D1
:101CC000A1970FB6F894DEBF0FBECDBF7C01C42E26
:101CD000E52FCB01D22E19A221E02D1510F02AE01C
:101CE000D22E8E010F5D1F4F8D2C912CA12CB12C6B
:101CF0006C2D7E2FA5019401BAD08C2DD29E801917
:101D00001124015011098A3014F4805D01C0895CEE
:101D1000F8018083211531054105510521F0C22EBE
:101D2000E32FCA01E5CFB801C70147DFA1960FB67F
:101D3000F894DEBF0FBECDBFDF91CF911F910F9101
:101D4000FF90EF90DF90CF90BF90AF909F908F90DB
:101D500008952115310541F4DC01ED91FC910190CC
:101D6000F081E02D642F19949DCF9A01462F50E009
:101D700060E070E0EECFFC01808191813CC1CF93A7
:101D8000DF93EC0188819981009709F034D11982A1
:101D900018821D821C821B821A82DF91CF910895C6
:101DA0000F931F93CF93DF93EC018B016F5F7F4FF6
:101DB00088819981AFD1009731F0998388831B8303
:101DC0000A8381E001C080E0DF91CF911F910F91E4
:101DD0000895CF93DF93EC0188819981892B29F0B5
:101DE0008A819B818617970758F4CE01D9DF882313
:101DF00041F08C819D81892B19F4E881F981108251
:101E000081E0DF91CF910895EF92FF920F931F939E
:101E1000CF93DF93EC017B018A01BA01DADF8111F4
:101E200003C0CE01ACDF06C01D830C83B7018881DF
:101E300099815DD2CE01DF91CF911F910F91FF90DB
:101E4000EF900895FC011182108213821282158294
:101E500014826115710551F0FB0101900020E9F732
:101E6000AF0141505109461B570BCECF0895A1E257
:101E70001A2EAA1BBB1BFD010DC0AA1FBB1FEE1F04
:101E8000FF1FA217B307E407F50720F0A21BB30B4F
:101E9000E40BF50B661F771F881F991F1A9469F7CB
:101EA00060957095809590959B01AC01BD01CF0127
:101EB0000895EE0FFF1F0590F491E02D19940790FF
:101EC000F691E02D1994CF93DF938230910510F4B1
:101ED00082E090E0E0914003F091410320E030E0A7
:101EE000A0E0B0E0309739F140815181481759079F
:101EF000B8F04817590771F482819381109729F03F
:101F000013969C938E9312972CC0909341038093C9
:101F1000400327C02115310531F04217530718F04F
:101F2000A901DB0101C0EF019A01BD01DF010280BF
:101F3000F381E02DD7CF21153105F9F0281B390B9E
:101F40002430310580F48A819B816115710521F06F
:101F5000FB019383828304C09093410380934003E9
:101F6000FE01329644C0FE01E20FF31F819391936C
:101F700022503109398328833AC020913E033091A1
:101F80003F03232B41F4209102023091030230934E
:101F90003F0320933E03209100023091010221155E
:101FA000310541F42DB73EB740910402509105022E
:101FB000241B350BE0913E03F0913F03E217F3073A
:101FC000A0F42E1B3F0B2817390778F0AC014E5FA9
:101FD0005F4F2417350748F04E0F5F1F50933F03A4
:101FE00040933E038193919302C0E0E0F0E0CF0183
:101FF000DF91CF910895CF93DF93009709F487C0C5
:10200000FC01329713821282C0914003D0914103A8
:10201000209781F420813181280F391F80913E0360
:1020200090913F038217930779F5F0933F03E09374
:102030003E036DC0DE0120E030E0AE17BF0750F474
:1020400012964D915C9113979D014115510509F12F
:10205000DA01F3CFB383A28340815181840F951FAE
:102060008A179B0771F48D919C911197840F951F8E
:1020700002969183808312968D919C9113979383FE
:1020800082832115310529F4F0934103E093400345
:102090003EC0D9011396FC93EE9312974D915D913A
:1020A000A40FB51FEA17FB0779F480819181840F93
:1020B000951F0296D90111969C938E9382819381EC
:1020C00013969C938E931297E0E0F0E08A819B81B7
:1020D000009719F0FE01EC01F9CFCE01029628819C
:1020E0003981820F931F20913E0330913F032817BF
:1020F000390769F4309729F4109241031092400394
:1021000002C013821282D0933F03C0933E03DF913B
:10211000CF9108956F927F928F929F92AF92BF92CC
:10212000CF92DF92EF92FF920F931F93CF93DF93A3
:10213000EC01CB01209779F4DF91CF911F910F91A2
:10214000FF90EF90DF90CF90BF90AF909F908F90D7
:102150007F906F90B8CEFE01E60FF71F9E012250D0
:102160003109E217F30708F4A8C0D9010D911C91B9
:10217000119706171707B0F00530110508F49BC03A
:10218000A801445051094617570708F494C002505B
:102190001109061B170B019311936D937C93CF01CB
:1021A0002ADF89C05B01A01AB10A4E01800E911E80
:1021B000A0914003B0914103612C712C60E070E06C
:1021C000109709F449C0A815B905C9F5ED90FC9020
:1021D0001197670142E0C40ED11CCA14DB0478F1E8
:1021E00047018A189B08640142E0C40ED11C129674
:1021F000BC9012971396AC91B5E0CB16D10440F089
:10220000B282A38391828082D9018D939C9309C06D
:102210000E5F1F4F0E0D1F1DF90111830083EB2D63
:10222000FA2F6115710531F0DB011396FC93EE93E3
:10223000129741C0F0934103E09340033CC06D917D
:102240007C9111976616770608F43B01BD01129642
:102250000D90BC91A02DB4CF60913E0370913F03CF
:1022600068157905E9F468167906D0F44091000202
:10227000509101024115510541F44DB75EB760918F
:10228000040270910502461B570BE417F507A8F4EA
:10229000F0933F03E0933E03F901918380830BC0E9
:1022A00012DE7C01009749F0A801BE0117D0CE01D3
:1022B000A2DEC70104C0CE0102C080E090E0DF9141
:1022C000CF911F910F91FF90EF90DF90CF90BF9033
:1022D000AF909F908F907F906F900895FB01DC01ED
:1022E00002C001900D9241505040D8F70895FB0173
:1022F000DC0101900D920020E1F7089512E0CAEC94
:10230000D2E000E005C022970109FE010BBFD7DD36
:0E231000CC3CD10780E00807B1F7F894FFCF6E
:10231E0000004203800001000000C0A80301FFFF7F
:10232E00FF00C0A80322DEADBEFF06ED20000000B8
:10233E000000CF0BB50D240B3D0B2F0BAE0B000089
:04234E0000003E0D40
:00000001FF
