:100000008EC10000BDC10000BBC10000B9C100002D
:10001000B7C10000B5C10000B3C10000B1C100000C
:10002000AFC10000ADC10000ABC10000A9C100001C
:10003000A7C10000A5C10000A3C10000A1C100002C
:100040009FC100009DC100009BC1000099C100003C
:1000500097C1000095C1000093C100000C94741F6B
:100060008FC100000C94CC220C94022389C10000A3
:1000700087C1000085C1000083C1000081C100006C
:100080007FC100007DC100007BC1000079C100007C
:1000900077C1000075C1000073C1000071C100008C
:1000A0006FC100006DC100006BC1000069C100009C
:1000B00067C1000065C1000063C1000061C10000AC
:1000C0005FC100005DC100005BC1000059C10000BC
:1000D00057C1000055C1000053C1000051C10000CC
:1000E0004FC100008C208F207E2082208820C620D7
:1000F000932097209D20A120A520AB20AF20B320E6
:10010000C620B920BD20C120596F7572204E616D87
:100110006520616E64204944206973204265696EE0
:10012000672053746F72656420466F722053656355
:10013000757269747920507572706F736500556EB1
:100140004B6E6F776E204944212041636365737362
:100150002044656E696564005761726E696E672040
:10016000212100596F752041726520417574686FB7
:1001700072697A656420546F204F7065726174658E
:10018000203A290057656C636F6D65007573657261
:10019000416363657373203A0075736572506F73C2
:1001A0006974696F6E203A00757365724E616D6592
:1001B000203A005363616E6E6564205049434327C3
:1001C00073205549443A0057616974696E6720503D
:1001D0004943437320746F206265207363616E6EC0
:1001E00065640000000A0B02090C0D0E08070304E9
:1001F00001000000000000000000000000000000FE
:1002000000000000000000000000000000000012DC
:1002100011100000000000000000000000000000BD
:10022000000000000000000000010210202008086B
:100230001020401020408002010201080402010148
:100240000204081020408080402010080402018031
:100250000402018040201008040201080402010188
:10026000020408102040800102040810204080058C
:10027000050505070508080808020202020A0A081F
:100280000804040404010101010101010103030345
:100290000303030303040707070C0C0C0C0C0C0CE2
:1002A0000C0202020206060606060606060B0B0BE9
:1002B0000B0B0B0B0B000020002300260029002C49
:1002C000002F0032000001000003010601090100B7
:1002D000002200250028002B002E003100340002EF
:1002E000010000050108010B010000210024002786
:1002F000002A002D00300033000101000004010736
:10030000010A0100C10143026304BC044308160A48
:10031000210AE80BF41C321F3423DF23671F11244A
:100320001FBECFEFD1E2DEBFCDBF00E00CBF13E0B8
:10033000A0E0B2E0EEEDF1E500E00BBF02C00790F7
:100340000D92AC36B107D9F72CE0ACE6B3E001C0B2
:100350001D92AC36B207E1F713E0CCE1D3E000E048
:1003600006C022970109FE010BBF0E946A26C43015
:10037000D10780E00807A9F70E94EF230C94DE283C
:100380003FCE10926D0310926C0310926F03109287
:100390006E030895DB01109749F0ED91FC911197E0
:1003A0000190F081E02DBC01CD01199480E090E036
:1003B0000895CF93DF93EC01BC0184E090E0EADF85
:1003C000FC01009729F0D183C0831382128202C0FE
:1003D0008CE693E0DF91CF910895CF93DF93EC010A
:1003E000BC0184E090E0D6DFFC01009729F0D183C6
:1003F000C0831382128202C080E793E0DF91CF9125
:100400000895CF93DF93CDB7DEB727970FB6F89453
:10041000DEBF0FBECDBF9A8389836115710519F4C4
:100420008BED92E001C0CB019C838B837E836D8337
:100430004F83CE010196F7D027960FB6F894DEBF12
:100440000FBECDBFDF91CF9108950F931F93CF9330
:10045000DF938B01FC01C281D381209759F0B80151
:100460008A819B810E948228892B39F00990D8814A
:10047000C02DF3CF80E090E001C0CE01DF91CF919D
:100480001F910F91089510927103109270031092B2
:1004900073031092720308950F931F93CF93DF930A
:1004A000EC01088119810130110559F46A817B81C1
:1004B0006115710531F089E292E00E948228892B52
:1004C00041F0015011090230110518F48A819B8115
:1004D00002C080E090E0DF91CF911F910F910895CD
:1004E000FC0120812D3051F024F42950223030F5C8
:1004F00005C0203219F02F3219F008950196F0CF7F
:10050000FC0121812A3219F02F3279F008950296E8
:10051000FC012081222321F32A3229F421812F3268
:1005200011F40296DDCF0196F3CFFC013296CF0194
:1005300021912223A9F22A30D1F7D2CF08950F9327
:100540001F93CF93DF931F92CDB7DEB78C01FC01D1
:10055000828193816983C4DFFC0120816981261334
:1005600007C00196BDDFF8019383828381E001C05B
:1005700080E00F90DF91CF911F910F910895CF935D
:10058000DF93EC01AA81BB814C813D812C91273204
:1005900019F4C42FD32F15C02232D9F3C42FD32F6F
:1005A000FD012AC03C3559F4FD01329612963C916A
:1005B000ADE4B2E06C91611110C0332339F139938D
:1005C000DF01AE01FD01319611963C911197332365
:1005D000E9F03213E7CF319619C0631303C01196C7
:1005E0003C91EBCF1296E6CF322F3F7D31543A311A
:1005F00048F4299331962081AE0130ED320F3A3024
:10060000C0F3F2CF33ED320F323098F3DA011D929E
:10061000EC012C813D81FB83EA83BD83AC83C9015E
:10062000DF91CF910895BF92CF92DF92EF92FF9228
:100630000F931F93CF93DF9300D000D0CDB7DEB7D9
:100640008C01FC0180819181C8DE6C016BE7C801DF
:1006500076DF882309F43CC06DE7C80170DF8111A3
:1006600035C086E0B82EC8018ADF7C01009781F191
:100670006AE3C80164DF882359F11A821982BE0136
:100680006F5F7F4FC80136D0882311F1B701C601D3
:10069000DCDE009739F4C601D2D00097C9F0FC0126
:1006A000F382E282FE013196DC0114968B2D0190DB
:1006B0000D928A95E1F76DE7C80141DF811106C00F
:1006C0006CE2C8013CDF8111CECF02C0C60102C07E
:1006D00080E793E026960FB6F894DEBF0FBECDBF3D
:1006E000DF91CF911F910F91FF90EF90DF90CF900E
:1006F000BF900895FF920F931F93CF93DF93EC0168
:100700008B018E81882309F443C081508E838A81B6
:100710009B81E6DE9B838A83FC0180818B3519F007
:100720008B3759F01AC0CE013AD0FC0120813181BB
:10073000232B49F126E030E009C0CE0174DFFC0133
:1007400020813181232BF9F027E030E0F80131835B
:1007500020839383828381E017C0873231F091E058
:10076000823209F090E0F92E02C0FF24F394CE010A
:1007700006DF009741F0FF2019F022E030E0E6CFDD
:1007800021E030E0E3CF80E09E819F5F9E8301C047
:1007900080E0DF91CF911F910F91FF900895DF923C
:1007A000EF92FF920F931F93CF93DF9300D000D06F
:1007B000CDB7DEB78C01FC0180819181FADD7C012F
:1007C0006BE5C801BCDE882351F16DE5C801B7DED9
:1007D000811123C096E0D92E1A821982BE016F5F63
:1007E0007F4FC80187DF8823D1F0C7014AD0009727
:1007F000B1F0FE013196DC0112968D2D01900D9223
:100800008A95E1F76DE5C8019ADE811106C06CE2B8
:10081000C80195DE8111E0CF02C0C70102C08CE69D
:1008200093E026960FB6F894DEBF0FBECDBFDF91E2
:10083000CF911F910F91FF90EF90DF900895CF938C
:10084000DF93EC01688179818AE090E0A3DD009775
:1008500029F0FC011182108215821482EA81FB8149
:10086000309751F0208131812115310511F0F901C6
:10087000F9CF9183808302C09B838A83DF91CF91DC
:100880000895CF93DF93EC016881798188E090E04F
:1008900081DD009729F0FC011182108213821282FF
:1008A000EA81FB81309751F020813181211531059A
:1008B00011F0F901F9CF9183808302C09B838A8371
:1008C000DF91CF9108950F9300E020E040E060E0D9
:1008D00084E793E00E94B8230F910895FB014281C1
:1008E000538164817581FC014283538364837583E2
:1008F000178216820895CF93FB0181918111FDCF5C
:10090000FB0180E090E020E030E0CAE061916623E6
:1009100009F12430310564F56E3271F48F3F910591
:1009200009F034F5DA01A20FB31F12968C932F5FF2
:100930003F4F80E090E0EACFDC01CA9FC001CB9F2F
:10094000900D1124772767FD709560537109860F0C
:10095000971FDCCF8F3F910509F054F42430310507
:100960003CF4FA01E20FF31F828381E090E002C0C1
:1009700080E090E0CF9108950F9300E020E040E008
:1009800060E08AE793E00E94B8230F910895AF9248
:10099000BF92CF92DF92EF92FF920F931F93CF936C
:1009A000DF9300D0CDB7DEB76C017B010E94BE1F84
:1009B000F601778366838601085F1F4FB6016A5F81
:1009C0007F4F42E050E0C801ACD581E090E09A83CF
:1009D000898342E050E0BE016F5F7F4FC801A1D51F
:1009E00080E091E09A83898342E050E0BE016F5F2E
:1009F0007F4FC80196D51A82198242E050E0BE01AD
:100A00006F5F7F4FC8018DD542E050E0BE016F5F40
:100A10007F4FC80186D542E050E0BE016F5F7F4F37
:100A2000C8017FD56701F6018081882301F1F701B4
:100A30006F018191811113C05601AE18BF081A14BD
:100A40001B0484F4AB8241E050E0BE016D5F7F4F38
:100A5000C80167D5A501B701C80163D503C08E32AF
:100A600039F7EACF7601FFEFEF1AFF0ADCCF1B82DE
:100A700041E050E0BE016D5F7F4FC80152D5E12CCF
:100A8000FF24F394FA82E98242E050E0BE016F5FF6
:100A90007F4FC80146D5FA82E98242E050E0BE01AC
:100AA0006F5F7F4FC8013DD581E090E00F900F90C0
:100AB0000F90DF91CF911F910F91FF90EF90DF90FA
:100AC000CF90BF90AF9008954F925F926F927F92B8
:100AD0008F929F92AF92BF92CF92DF92EF92FF924E
:100AE0000F931F93CF93DF93CDB7DEB763970FB606
:100AF000F894DEBF0FBECDBF7C015B016A010E948E
:100B0000BE1F2B013C018701085F1F4F4501A12C2F
:100B1000B12CC801A0D51816190694F00E94BE1F6A
:100B2000641975098609970986169706A806B906F5
:100B3000D0F062E370E080E090E00E94ED1FE9CF2A
:100B4000F7014281538164817581818D928DA38DDE
:100B5000B48D481759076A077B0741F4858D968D38
:100B6000C59721F406C08FEF9FEFE0C08EEF9FEF97
:100B7000DDC0C8018CD40C970CF4D6C04CE050E01A
:100B8000BE016F5F7F4FC80107D58B819C8198277D
:100B9000892798279A8B898BF7014681578129816C
:100BA0003A814217530711F497FD05C0C80189D453
:100BB0008CEF9FEFBBC08F709270892B29F0C8011A
:100BC00080D48BEF9FEFB2C0AF80B884BA24AB243F
:100BD000BA24A114B10419F0E12CF12C1DC0C801F4
:100BE00070D48AEF9FEFA2C041E050E0BE01635F86
:100BF0007F4FC801D1D48D85811117C08D8581119A
:100C0000F3CFC801A1D4C8019FD4C8019DD4C801A5
:100C10009BD4FFEFEF1AFF0A8D819E8198278927C9
:100C20009827E816F90600F309C08D859FEF980F05
:100C30009D87882319F3C80187D4F7CFE12CF12CC5
:100C400041E050E0BE016D5E7F4FC801A5D48B89A5
:100C5000982F907C59F4882361F08B899FEF980F2F
:100C60009B8B882331F0C8016FD4F7CFC8016CD4B7
:100C70001B8A8B898111E4CF42E050E0BE01615FA5
:100C80007F4FC80189D442E050E0BE01635F7F4FCF
:100C9000C80182D4C80158D4C80156D4C80154D45C
:100CA000C80152D442E050E0BE016F5E7F4FC801E0
:100CB00073D48F8598898115914029F48D859E85FF
:100CC0008115914019F0812C912C14C089899A8941
:100CD0008115944029F0C801F4D387EF9FEF26C017
:100CE000B6016E5F7F4F44E050E0C80155D481E00B
:100CF00090E01CC089899A899827892798278816A7
:100D0000990630F4C80120D42FEF821A920AF2CF4C
:100D10008FEFE81AF80AEA14FB0409F091CFC80132
:100D2000D0D386EF9FEF02C08DEF9FEF63960FB693
:100D3000F894DEBF0FBECDBFDF91CF911F910F9111
:100D4000FF90EF90DF90CF90BF90AF909F908F90EB
:100D50007F906F905F904F9008958F929F92AF9287
:100D6000BF92CF92DF92EF92FF920F931F93CF9398
:100D7000DF9300D000D0CDB7DEB78C015B016A01F4
:100D8000BADD4C01009709F057C0F8014281538148
:100D90006481758180917C0390917D03A0917E0395
:100DA000B0917F03481759076A077B0709F448C0C9
:100DB0000E94BE1F7801F8E0EF0EF11C6F707727DC
:100DC0007C5FC7011DD4813009F03EC089E693E005
:100DD0009A838983F80182819381A481B5818B8371
:100DE0009C83AD83BE8345E350E0BE016F5F7F4FC0
:100DF000C7018DD3892B19F4812C912C1AC0B50110
:100E0000C801C5DD892BC1F3C70188D3892BA1F3A4
:100E100033E0A32EB12CA60168E873E1C80154DECB
:100E20004C01F1E0AF1AB10821F08F3F2FEF92078C
:100E300091F3C70158D308C088248394912C04C02F
:100E40009EEF892E99249A94C40126960FB6F894A1
:100E5000DEBF0FBECDBFDF91CF911F910F91FF90ED
:100E6000EF90DF90CF90BF90AF909F908F900895BC
:100E70002091C203222399F03FB7F8942091C20336
:100E8000213059F42DB32093C0034DB32091C103F9
:100E9000209524232DBB3FBF02C03093C0038CBDDF
:100EA0009DBD08958091C203882361F09FB7F89497
:100EB0002091C2038091C003213019F48DBB9FBFE4
:100EC00008958FBF089544E050E0BC0181E090E0B8
:100ED0000C94011044E050E0BC0185E090E00C94DB
:100EE000011044E050E0BC018FE090E00C94011050
:100EF0008F929F92AF92BF92CF92DF92EF92FF922A
:100F00000F931F93CF93DF931F921F92CDB7DEB73E
:100F10004C016A0159018AEA93E069837A830E944D
:100F20009C0F80E590E0A4DF46E050E069817A8183
:100F300089E090E00E940110C6010296D2DFC8014C
:100F40000296C1DFC7010296C5DFACDFF501428121
:100F5000538164817581F401428353836483758373
:100F60000F900F90DF91CF911F910F91FF90EF9015
:100F7000DF90CF90BF90AF909F908F9008956F9229
:100F80007F928F929F92AF92BF92CF92DF92EF9219
:100F9000FF920F931F93CF93DF93CDB7DEB76E977A
:100FA0000FB6F894DEBF0FBECDBF6C015B017A01B6
:100FB0004901380100E02FEF4FEF6FEFCE01499666
:100FC0000E94B82329E633E03A8329838B8D9C8DD8
:100FD000AD8DBE8D8B839C83AD83BE8338872F837D
:100FE000F30182819381A481B58189879A87AB8738
:100FF000BC873E872D87F40182819381A481B581CE
:101000008F87988BA98BBA8B3C8B2B8BF7014281F6
:101010005381648175814D8B5E8B6F8B788FCE0190
:1010200001967C018E01095F1F4F9E01235F3F4F98
:10103000AE014D5E5F4FB501C6015ADF6E960FB629
:10104000F894DEBF0FBECDBFDF91CF911F910F91FE
:10105000FF90EF90DF90CF90BF90AF909F908F90D8
:101060007F906F90089529E633E0FC01318320835F
:10107000FB014281538164817581FC01428353836A
:101080006483758308950F9300E020E040E060E002
:1010900080E993E00E94B82380E893E00F910C94DC
:1010A000AE2381E086270895862F0895DC01ED9117
:1010B000FC91048CF58DE02D199591E08927089518
:1010C000CF93DF931F92CDB7DEB76983DC01ED913B
:1010D000FC910280F381E02D41E050E0BE016F5FA2
:1010E0007F4F19950F90DF91CF91089521E0FC017A
:1010F0008485843009F420E0822F0895FC019485D2
:10110000FB018485981303C081E0943009F480E0EA
:1011100008950F931F93CF93DF93EC018A018C8581
:10112000843019F0E0D4892B39F481E090E09B837E
:101130008A8380E090E001C0C801DF91CF911F91C8
:101140000F910895FC018485843009F0AAC580E0E0
:1011500090E00895CF93DF931F92CDB7DEB741E0C3
:1011600050E0BE016F5F7F4FFC01848540D51816AB
:1011700019061CF4898190E002C08FEF9FEF0F9059
:10118000DF91CF910895FC01848531C50F931F93A2
:10119000CF93DF931F92CDB7DEB78C01DC01ED91C9
:1011A000FC910480F581E02D1995892B49F0BE0151
:1011B0006F5F7F4FF80184859BD5898190E002C0E5
:1011C0008FEF9FEF0F90DF91CF911F910F910895B7
:1011D000FC018485B9C5CF92DF92EF92FF920F9305
:1011E0001F93CF93DF93CDB7DEB7AF970FB6F894C9
:1011F000DEBF0FBECDBF7C018B016A01CE0101961F
:101200000E94AE23CE01099674D2CE018A960E9426
:10121000AE2360E873E0CE01849625DFBE016C5DED
:101220007F4FCE0101965ADBAE01465D5F4FB8019C
:10123000CE01019692DD81309105C1F4D701ED9187
:10124000FC910484F585E02D89E693E09DA38CA3B1
:101250000CA51DA52EA53FA50EA31FA328A739A742
:10126000A601BE016C5D7F4FC7011995AF960FB601
:10127000F894DEBF0FBECDBFDF91CF911F910F91CC
:10128000FF90EF90DF90CF900895FC0113821282BF
:1012900048EE53E060E070E04483558366837783D3
:1012A0008CE592E09183808384E084870895FC013B
:1012B0008485843009F00AC380E00895DF92EF92BC
:1012C000FF920F931F93CF93DF93EC017B018A0171
:1012D0008C85843009F040C0D12C8D2DF7D281113E
:1012E00002C0DC8607C08B7F8831D9F3D39484E0B9
:1012F000D812F3CF8C85843079F120910A02309195
:101300000B022F5F3F4F11F420E030EC30930B02C3
:1013100020930A0240910A0250910B0220E061E002
:101320001ED3B7016E5F7F4FA8018C8566D38111F4
:1013300003C084E08C8710C0CE01B9DF873149F04B
:1013400061E070E080E090E00E94ED1FCE01AFDF31
:10135000EECF81E090E002C080E090E0DF91CF919D
:101360001F910F91FF90EF90DF900895CF92DF9241
:10137000EF92FF92CF93DF93EC018C85843061F183
:101380008FD30E94BE1F6B017C01CE0190DF8823AA
:1013900059F00E94BE1F6C197D098E099F09683E95
:1013A00073408105910588F0CE0181DF882311F01B
:1013B0008C85AFD2EC85F0E0EE0FFF1FE857FC4FB5
:1013C0001182108284E08C8707C061E070E080E0C9
:1013D00090E00E94ED1FD9CFDF91CF91FF90EF9069
:1013E000DF90CF900895CF93DF93EC018C8584300C
:1013F000C9F0CE015CDF8431A9F0882399F08831EF
:1014000089F08C3169F4E881F9810480F581E02D5F
:10141000CE01199521E0892B09F420E0822F03C029
:1014200081E001C080E0DF91CF9108950F9300E04B
:1014300020E040E060E086E993E00E94B8230F914D
:1014400008950F9300E020E040E060E08CE993E035
:101450000E94B8230F910895DC01ED91FC91008C5E
:10146000F18DE02D199429E633E0FC0131832083CE
:10147000FB014189528963897489FC01428353834A
:10148000648375830895FC01858996890895FC011C
:10149000818D928D0895CF93DF931F92CDB7DEB7E4
:1014A0006983DC01ED91FC910280F381E02D41E044
:1014B00050E0BE016F5F7F4F19950F90DF91CF9184
:1014C0000895CF93DF93EC01898D9A8D892B41F09C
:1014D000E881F9810680F781E02DCE011995F4CFDE
:1014E000DF91CF910895CF93DF93EC018C85843009
:1014F00059F00FD2EC85F0E0EE0FFF1FE857FC4FDC
:101500001182108284E08C87DF91CF910895FC01D5
:10151000108E178A6E5F7F4F848559C4FC018485C5
:1015200098C4CF93DF93EC019A018F89988DAB011A
:10153000BC018C850AD42F89388D280F391F388F2C
:101540002F8BDF91CF9108950F931F93CF93DF934C
:101550001F92CDB7DEB78C01FC01818D928D892B56
:1015600051F041E050E0BE016F5F7F4F84853FD373
:10157000181619061CF08FEF9FEF08C0F801818D37
:10158000928D0197928F818F898190E00F90DF91EA
:10159000CF911F910F910895CF93DF93EC01898D27
:1015A0009A8D009719F48FEF9FEF0FC048175907D6
:1015B00008F0AC018C851BD318161906A4F7298DE9
:1015C0003A8D281B390B3A8F298FDF91CF910895DF
:1015D000CF93DF931F92CDB7DEB7FC01218D328D03
:1015E000232B41F0BE016F5F7F4F848581D38981BA
:1015F00090E002C08FEF9FEF0F90DF91CF910895A1
:10160000FF920F931F93CF93DF93EC018B018C8597
:101610008430D1F4F12C8F2D59D1811102C0FC8678
:1016200006C08831E1F3F39484E0F812F4CF8C859E
:10163000843051F01E870D871A8E198E20E0A80184
:1016400062E08DD181E001C080E0DF91CF911F91F8
:101650000F91FF9008950F931F93CF93DF93CDB712
:10166000DEB728970FB6F894DEBF0FBECDBF8C0152
:10167000DC01ED91FC910284F385E02D1995F801D0
:1016800084850FD3181619063CF548E050E0BE01DA
:101690006F5F7F4FD8011C968C91A9D2181619063E
:1016A000ECF4BE016F5F7F4FC8010F960E94D423F8
:1016B0008D8190E0982F88272E81820F911DF8014F
:1016C000968B858B8F8190E0982F88272885820FB5
:1016D000911D928F818F02C080E090E028960FB616
:1016E000F894DEBF0FBECDBFDF91CF911F910F9158
:1016F0000895FC011382128248EE53E060E070E02E
:10170000448355836683778380E892E09183808366
:1017100084E08487CF010F960C94AE23CF92DF92A2
:10172000EF92FF920F931F93CF93DF93CDB7DEB766
:10173000AF970FB6F894DEBF0FBECDBF7C018B0113
:101740006A01CE0101960E94AE23CE010996D1DF37
:10175000CE018A960E94AE2360E873E0CE018496A3
:1017600082DCBE016C5D7F4FCE010196B7D8AE0121
:10177000465D5F4FB801CE010196EFDA81309105E9
:10178000C1F4D701ED91FC910088F189E02D89E643
:1017900093E09DA38CA30CA51DA52EA53FA50EA38C
:1017A0001FA328A739A7A601BE016C5D7F4FC70103
:1017B0001995AF960FB6F894DEBF0FBECDBFDF917F
:1017C000CF911F910F91FF90EF90DF90CF900895F0
:1017D0000F9300E020E040E060E082EA93E00E94A6
:1017E000B8230F910895CF92DF92EF92FF920F935B
:1017F00030E0C12CF2E1DF2EFAE7EF2EF12C4C1590
:101800005D056E057F0540F4F694E794D794C79480
:101810003F5F3630A1F737E041E04327211102C096
:1018200050E701C050E5242F30E03595279523700F
:101830000C70202B252BFC012083417041830F91DC
:10184000FF90EF90DF90CF90089590E0982F882739
:1018500044E050E0845F9B4FD4C3282F30E02C5FDE
:101860003F4F922F8827860F971FF4C362E070E0E6
:10187000F4CFFB01282F30E02C5F3F4F922F8827B9
:10188000642F8E0F9F1F3BC3CF93DF93C82FD62F9C
:10189000472F64E070E0EDDF4D2F65E070E08C2FA6
:1018A000DF91CF91E6CF462F62E070E0E2CFCF9399
:1018B000DF93C82FD62F472F60E170E0DADF4D2F7E
:1018C00061E170E08C2FDF91CF91D3CF0F931F9305
:1018D000CF93DF9300D0CDB7DEB7182F00E021E023
:1018E00040E059E06DE370E0CE0101967CDF898134
:1018F0009A81BEDA63E070E0812FAFDF8B83D2DAAA
:101900008B810F900F900F90DF91CF911F910F91CE
:1019100008950F931F93CF93DF931F921F92CDB71C
:10192000DEB7182F00E021E040E059E06DE370E001
:10193000CE01019658DF89819A819ADA40E150E020
:10194000612F8AEA93E02FD56FEF812FACDFAADAFF
:101950000F900F90DF91CF911F910F910895CF922B
:10196000DF92EF92FF920F931F93CF93DF931F921B
:101970001F92CDB7DEB7182FD62E7A01C22E8FEF69
:10198000860F853070F5812FC4DF00E021E040E054
:1019900059E06DE370E0CE01019625DF89819A81DF
:1019A00067DA4D2D4C2960E070E0812F62DFE11491
:1019B000F10411F0B7010AC06091A8037091A90366
:1019C0006F5F7F4F7093A9036093A803812F5CDF43
:1019D00041E050E0612F8AEA93E0E5D463DA81E0E8
:1019E00001C080E00F900F90DF91CF911F910F9178
:1019F000FF90EF90DF90CF900895CF92DF92EF921B
:101A0000FF920F931F93CF93DF931F921F92CDB737
:101A1000DEB7182F7B016A01FB0180818F3F51F4F3
:101A200081818F3F99F482818F3F81F483818F3F41
:101A300069F42AC081110AC0FB018181811106C0AD
:101A40008281811103C083818823F1F0C114D10404
:101A5000D9F000E021E040E059E06DE370E0CE0114
:101A60000196C1DE89819A8103DAB701812FEDDE0B
:101A7000B601812F1CDF44E050E0612F8AEA93E039
:101A800092D410DA81E001C080E00F900F90DF91D6
:101A9000CF911F910F91FF90EF90DF90CF9008951D
:101AA0000F931F93CF93DF931F921F92CDB7DEB793
:101AB000182F00E021E040E059E06DE370E0CE0136
:101AC000019691DE89819A81D3D948E050E0612F57
:101AD0008AEA93E068D4E6D90F900F90DF91CF9116
:101AE0001F910F910895BF92CF92DF92EF92FF92D4
:101AF0000F931F93CF93DF9300D0CDB7DEB7B82EEF
:101B00006B017A01413088E0580718F0E12C98E029
:101B1000F92E00E021E040E059E06DE370E0CE01F5
:101B2000019661DE89819A81A3D96B2D8AEA93E0BF
:101B3000C1D28C0163E070E08B2D8FDE8B83B2D934
:101B40008B81873111F08C3131F40E94731F0E1597
:101B50001F05F8F202C0E12CF12C00E021E040E08A
:101B600059E06DE370E0CE0101963DDE89819A81F6
:101B70007FD99701A6016B2D8AEA93E04ED340E20C
:101B800050E06B2D8AEA93E00ED48B2D6FDE84FD3E
:101B90001CC063E070E08B2D60DE811106C082D92D
:101BA0008B2DB7DE80E090E015C07CD90E94731FBA
:101BB00000E021E040E059E06DE370E0CE010196E5
:101BC00012DE89819A8154D9E0CF60E18B2D6BDEE2
:101BD00069D9C7010F900F900F90DF91CF911F919E
:101BE0000F91FF90EF90DF90CF90BF900895AF924C
:101BF000BF92CF92DF92EF92FF920F931F93CF93FA
:101C0000DF931F921F92CDB7DEB7182F5B016A01D9
:101C100000E021E040E059E06DE370E0CE01019684
:101C2000E2DD89819A8124D9612F8AEA93E072D218
:101C30007C01009799F463E070E0812F0EDE84311F
:101C400009F18823F9F021E030E08C3111F420E033
:101C500030E0EE24FF24E21AF30A14C0C816D906B5
:101C60000CF476011E141F046CF400E09701A5012A
:101C7000612F8AEA93E04CD340E450E0612F8AEA76
:101C800093E091D30FD9C7010F900F90DF91CF91BF
:101C90001F910F91FF90EF90DF90CF90BF90AF908A
:101CA00008950F931F93CF93DF9300D01F92CDB76A
:101CB000DEB7182F00E021E040E059E06DE370E06E
:101CC000CE01019690DD89819A81D2D8612F8AEA6E
:101CD00093E020D28B839C83E5D88B819C810F90ED
:101CE0000F900F900F90DF91CF911F910F9108955A
:101CF000EF92FF920F931F93CF93DF931F921F9248
:101D0000CDB7DEB7182F7B0100E021E040E059E0BD
:101D10006DE370E0CE01019666DD89819A81A8D8D5
:101D200001E021E030E0A701612F8AEA93E0F0D2E0
:101D3000B9D881E090E00F900F90DF91CF911F9183
:101D40000F91FF90EF90089508959F92AF92BF92E8
:101D5000CF92DF92EF92FF920F931F93CF93DF9377
:101D60001F921F92CDB7DEB7982E6B015A017901F1
:101D700000E021E040E059E06DE370E0CE01019623
:101D800032DD89819A8174D8692D8AEA93E092D1F3
:101D90008E159F0528F4692D8AEA93E08BD17C018A
:101DA00087019501A601692D8AEA93E0CDD17AD801
:101DB000C7010F900F90DF91CF911F910F91FF906E
:101DC000EF90DF90CF90BF90AF909F900895CF920B
:101DD000DF92EF92FF920F931F93CF93DF931F92A7
:101DE0001F92CDB7DEB7182F7B016A01FB018081FE
:101DF000811109C08181811106C08281811103C0D6
:101E000083818823C9F0C114D104B1F000E021E03E
:101E100040E059E06DE370E0CE010196E4DC898199
:101E20009A8126D8B701812F10DDB601812F3FDDC1
:101E300039D881E090E002C080E090E00F900F90F0
:101E4000DF91CF911F910F91FF90EF90DF90CF9096
:101E500008950F931F93CF93DF931F921F92CDB7D7
:101E6000DEB7182F00E021E040E059E06DE370E0BC
:101E7000CE010196B8DC89819A810E94380740E240
:101E800050E0612F8AEA93E08ED2812FEFDC84FD4F
:101E90001DC0812FEBDC83FF07C068E1812F03DDCC
:101EA00001D880E090E019C00E9452070E94731F81
:101EB00000E021E040E059E06DE370E0CE010196E2
:101EC00092DC89819A810E943807DFCF60E1812FFF
:101ED000EADC0E94520781E090E00F900F90DF91C2
:101EE000CF911F910F9108958EBD00000DB407FE94
:101EF000FDCF8EB508952C9808952C9A08951F93C0
:101F0000CF93DF931F921F92CDB7DEB7182F6A834E
:101F10009983F1DF80EFE8DF9981892FE5DF812F59
:101F2000E3DF6A81862FE0DFE8DF81E00F900F902A
:101F3000DF91CF911F910895CF93DF93EC016CE275
:101F400071E080E090E00E94ED1F0E94FE1C249A48
:101F50008091C203882399F09FB7F8948091C203BF
:101F6000813059F48DB38093C0032DB38091C103A8
:101F7000809582238DBB9FBF02C09093C00380E5F4
:101F80008CBD1DBC60E880E090E0B9DF65E58BE1C9
:101F900090E0B5DF65E58AE190E0B1DF8091C203B2
:101FA000882361F09FB7F8942091C2038091C00309
:101FB000213019F48DBB9FBF01C08FBF80E090E43A
:101FC0009983888380E090E69987888780E098E409
:101FD0009B838A8380E098E69B878A8780E090E5F0
:101FE0009D838C8380E090E79D878C8780E098E5D7
:101FF0009F838E8380E098E79F878E87DF91CF91C4
:102000000895CF92DF92EF92FF920F931F93CF9399
:10201000DF93EC017A018B016C01C40ED51ECC1547
:10202000DD0571F068DF80EF5FDF8D2F5DDF8C2FC6
:102030005BDF2196F80181918F0156DF5EDFEFCFE4
:10204000C701DF91CF911F910F91FF90EF90DF902B
:10205000CF9008951F93CF93DF931F92CDB7DEB734
:10206000182F998348DF8FE03FDF9981892F3CDF6C
:10207000812F3ADF80E038DF89833FDF89810F904D
:10208000DF91CF911F9108951F93CF93DF93182F66
:1020900060E270E0E2DBC82FD0E061E270E0812F07
:1020A000DCDBDC2FCC279E01282BC901DF91CF91EF
:1020B0001F910895FF920F931F93CF93DF93F62EF6
:1020C000C0E0D0E08F2DE0DF8C01009719F08F2D5C
:1020D000DBDFEC01C017D107A9F7CE01DF91CF916B
:1020E0001F910F91FF9008951F93CF93DF93182FA7
:1020F00066E270E0B2DBC82FD0E067E270E0812FCB
:10210000ACDBDC2FCC279E01282BC901DF91CF91BE
:102110001F910895FF920F931F93CF93DF93F62E95
:10212000C0E0D0E08F2DE0DF8C01009719F08F2DFB
:10213000DBDFEC01C017D107A9F7CE01DF91CF910A
:102140001F910F91FF9008956F927F929F92AF928F
:10215000BF92CF92DF92EF92FF920F931F93CF9394
:10216000DF931F92CDB7DEB7D82E962E3A015901D4
:1021700064E270E0892D998370DBE82EF12C65E232
:1021800070E0892D6ADBFE2CEE24E82AE60CF71CB1
:10219000970137706D2C9981792E690C711C690C2F
:1021A000711CD301ED91FC91E20FF31FC901800F67
:1021B000911F8130984098F0C12C48E0D42EC21A6B
:1021C000D30AA601B501CF011CDFA8014C195D0996
:1021D000B5016C0D7D1DF3018081918103C0A801C3
:1021E000B501CF010EDFE00EF11E4F2D64E270E06D
:1021F000892D3FDB4E2D65E270E0892D0F90DF9138
:10220000CF911F910F91FF90EF90DF90CF90BF90F3
:10221000AF909F907F906F902CCB0F931F9389016D
:102220009A0140E050E090DF1F910F910895CF9206
:10223000DF92EF92FF920F931F93CF93DF93EC0106
:102240007A018B016C01C40ED51ECC15DD0579F029
:1022500052DE8FE049DE8D2F47DE8C2F45DE219642
:1022600080E042DEF80181938F0147DEEECFC701A7
:10227000DF91CF911F910F91FF90EF90DF90CF9062
:102280000895AF92BF92CF92DF92EF92FF920F9399
:102290001F93CF93DF931F921F92CDB7DEB75A8360
:1022A00049835901E981FA81F7707C01E60EF11C3E
:1022B000E60EF11CD70118968D919C9119978E0FFF
:1022C0009F1F98012E0F3F1F2130384090F0C12CE6
:1022D00068E0D62ECE1ADF0AA601B501A8DFA80154
:1022E0004C195D09B5016C0D7D1DF7018085918547
:1022F00002C0A801B5010F900F90DF91CF911F91FF
:102300000F91FF90EF90DF90CF90BF90AF908FCF65
:102310008F929F92AF92BF92CF92DF92EF92FF92F5
:102320000F931F93CF93DF936C01962E5A0179017F
:10233000802E68E270E0892D90DAC82FD0E069E243
:1023400070E0892D8ADADC2FCC27C82B8701950114
:10235000AE01692DC60195DF811018C0CE0DDF1DBD
:102360004D2F68E270E0892D84DA4C2F69E270E02D
:10237000892DDF91CF911F910F91FF90EF90DF900A
:10238000CF90BF90AF909F908F9073CADF91CF9105
:102390001F910F91FF90EF90DF90CF90BF90AF9083
:1023A0009F908F900895CF93C62F61E070E08C2F9F
:1023B00060DA61E070E08C2F50DA8111FACFCF91B2
:1023C00008957F928F929F92AF92BF92CF92DF92A9
:1023D000EF92FF920F931F93CF93DF936C01162F11
:1023E000942EE9011E77106883E590E00E9438077B
:1023F00060E0F60184850E9400219A94812F74DDAB
:102400007C2EEC2EFD2EAA24A394B12C8E2D8719A0
:10241000891518F5811119C00023B9F0802F812C7E
:10242000883048F49501082E01C0220F0A94EAF77B
:10243000822A8F5FF5CF812F57DD982D90952881C7
:1024400092238821982B988304C0812F4DDDF701BA
:102450008083FFEFEF1AFF0AD9CFC90DD11D80E0AD
:1024600043DD888361E0F60184850E940021DF91CD
:10247000CF911F910F91FF90EF90DF90CF90BF9081
:10248000AF909F908F907F900C945207FC016487CF
:1024900045870895EF92FF921F93CF93DF931F928A
:1024A000CDB7DEB77C01162F83E590E049830E940B
:1024B000380760E0F70184850E940021812F8E7724
:1024C00013DD4981842F10DD61E0F70184850E94CE
:1024D00000210F90DF91CF911F91FF90EF900C940E
:1024E0005207CF92DF92EF92FF920F931F93CF93F9
:1024F000DF931F921F92CDB7DEB78C01E62EF42E2C
:1025000083E590E029833A830E94380760E0F80170
:1025100084850E9400218E2D8E77E6DC2981E22EB3
:10252000C22E3A81D32E8C2D8E198F1528F4F601E8
:1025300081916F01D9DCF7CF61E0F80184850E94B9
:1025400000210F900F90DF91CF911F910F91FF907D
:10255000EF90DF90CF900C9452071F93CF93DF93AF
:10256000EC01162F83E590E00E94380760E08C852F
:102570000E940021812F8E778068B6DC80E0B4DC79
:10258000182F61E08C850E9400210E945207812F44
:10259000DF91CF911F9108950F93411112DF0F9199
:1025A0000895EF92FF921F93CF93DF931F92CDB7C1
:1025B000DEB77C01162F4983D0DF4981482B612F7C
:1025C000C7010F90DF91CF911F91FF90EF9062CFE5
:1025D000EF92FF921F93CF93DF931F92CDB7DEB799
:1025E0007C01162F4983B9DF498140954823612F2B
:1025F000C7010F90DF91CF911F91FF90EF904ACFCD
:10260000DF92EF92FF920F931F93CF93DF93EC0132
:102610008B01D42E790140E062E03CDF44E06AE0C7
:10262000CE0138DF40E864E1CE01BBDF98014D2DDB
:1026300062E1CE0156DF43E062E0CE012BDF08E825
:1026400013E16AE0CE0189DF82FD06C00150110965
:10265000C1F783E090E010C040E062E0CE011ADFF5
:1026600064E4CE017ADFF701808362E4CE0175DF96
:10267000F701818380E090E0DF91CF911F910F916E
:10268000FF90EF90DF900895CF93DF93EC014FE040
:1026900062E000DF62E370E080E090E00E94ED1F06
:1026A00062E0CE015ADF84FDFBCFDF91CF91089528
:1026B000CF93DF93EC0168E250DF982F9370933053
:1026C00039F0482F436068E2CE01DF91CF91E2CE2E
:1026D000DF91CF910895CF93DF93EC0161E08C857A
:1026E0000E94C72061E08C850E94002161E08D85F9
:1026F0000E94C7208D850E943521892B59F461E005
:102700008D850E94002162E370E080E090E00E94ED
:10271000ED1F02C0CE01B8DF40E864E5CE01BADEAD
:1027200049EA66E5CE01B6DE43E068E5CE01B2DEF9
:1027300048EE6AE5CE01AEDE40E46AE2CE01AADEF2
:102740004DE362E2CE01A6DECE01DF91CF91B0CFA4
:102750002F923F925F926F927F928F929F92AF9251
:10276000BF92CF92DF92EF92FF920F931F93CF937E
:10277000DF9300D01F92CDB7DEB73C01962E542ECA
:10278000302E082DA114B10419F0F501408101C0CB
:1027900040E0242EF0E10F9F200C112440E062E085
:1027A000C3012B833C8376DE4FE768E0C30172DE12
:1027B00040E864E1C301F5DE2B813C81432D62E1F9
:1027C000C3018FDE422D6AE1C30164DE492D62E060
:1027D000C30160DE8CE0981204C040E86AE1C301E6
:1027E000E0DE90ED292E97E0392E68E0C301B5DEDA
:1027F000982F952139F480FD5DC0E1E02E1A310853
:10280000A1F758C06CE0C301A8DE982E837109F0CF
:1028100053C0E114F104D9F0C114D104C1F064E152
:10282000C3019BDE482FF6018081841708F446C05F
:102830004083970162E1C301AFDE68E1C3018DDE31
:10284000182F1770A114B10411F0F501108393FC37
:1028500037C0E114F104B1F1C114D10499F1898DAB
:10286000882381F1F6014081413019F4143019F4C4
:102870001FC0423010F487E026C01111FCCF425037
:102880009E012F5F3F4FB701C301BADE0097E1F40D
:10289000F6018081E80EF11CF70132979081898161
:1028A0009813E9CF319690818A819813E4CF0AC0BA
:1028B0008FEF09C083E007C081E005C084E003C05A
:1028C00082E001C080E090E00F900F900F900F9099
:1028D000DF91CF911F910F91FF90EF90DF90CF90FC
:1028E000BF90AF909F908F907F906F905F903F9040
:1028F0002F9008958F92AF92BF92CF92DF92EF9276
:10290000FF920F931F93AF928C2C570168017901AE
:10291000042F9B0140E36CE01BDF0F901F910F9190
:10292000FF90EF90DF90CF90BF90AF908F90089581
:102930004F925F926F927F928F929F92AF92CF92BF
:10294000EF92FF920F931F93CF93DF931F921F92EB
:10295000CDB7DEB73C016A832A0149014115510513
:1029600021F1F9018081823000F140E86CE1C3017E
:102970002FDE87E08983A12CC12CCE0101967C013A
:102980008401920141E0BE016E5F7F4FC301B2DF5F
:10299000009779F4F4018081823049F481E090E07D
:1029A0002981211106C080E004C084E001C081E0DB
:1029B00090E00F900F90DF91CF911F910F91FF90BA
:1029C000EF90CF90AF909F908F907F906F905F909F
:1029D0004F9008959A01AB0166E2AACF2F923F92E1
:1029E0004F925F926F927F928F929F92AF92BF921F
:1029F000CF92DF92EF92FF920F931F93CF93DF93CB
:102A0000CDB7DEB72D970FB6F894DEBF0FBECDBFA2
:102A10003C012B01B42E40E54B1508F4E1C040E821
:102A20006CE1D6DD2224239482E0281691F093E015
:102A30002916E1F0A1E02A12D7C083E98983BB20DF
:102A4000D1F041E0F2018081853008F440E0D12CE2
:102A500017C085E98983BB2081F041E0D2018C91C8
:102A6000883008F440E073E0D72E0AC087E98983F4
:102A700066E0D62E04C0D12C02C053E0D52E40E033
:102A80005B2DB8EFDB9E500D112457FD50E0442321
:102A900021F088E88B8373E001C072E091E0852F1C
:102AA000877009F490E0852F859585958595890F28
:102AB00021F4442311F1585F20C0442311F063E056
:102AC00001C064E0861708F4682F80E090E092016E
:102AD0002D0D311DE72FE80FA1E0B0E0AC0FBD1FB9
:102AE000AE0FB11DFD01D901A80FB91F1196AC9110
:102AF000A0830196861770F3DCCF43E0342E50326A
:102B00000CF453C0B0E7BA838C819B8189279D81E7
:102B100089279E8189278F839E01285F3F4F47E049
:102B2000BE016F5F7F4FC3015D876ADD5D850097E2
:102B300009F0A8C01B863A86FE0137964F0179E05E
:102B40000BC0780F88248394912C8C0E9D1E880EC8
:102B5000911C87E0821B8A87CB844C2D4295407F55
:102B60004C0D6AE1C3015D877C8794DCA12CCE010A
:102B70000B967C018E01065F1F4F94017C85472FC9
:102B8000BE016F5F7F4FC301B5DE5D858230910569
:102B900001F56CE1C301E1DC5D8585FD23C05230A8
:102BA0001CF58B8182608B8352E0952F97709B87F9
:102BB000252F25952595259582E0820F392FF0E167
:102BC0008F9F300D11243A8371E09111BACF70E0DC
:102BD000B8CF009709F056C0503294F450E292CF2B
:102BE00086E00CC082E00AC085E008C0F20183875D
:102BF000822D880F820D8F5F808380E090E042C03D
:102C00008B81883819F052E044E002C053E043E081
:102C100080E090E092012D0D311DF901E80FF91FC0
:102C2000652F680FA1E0B0E0AC0FBD1FA60FB11D6E
:102C30006C9161830196841780F38A858330F1F467
:102C40008B8581111BC09E012D5F3F4F41E0B40178
:102C5000C301D6DC0097B1F49B81D40111968C910D
:102C6000119798130DC09C8112968C91129798130E
:102C700007C08C9182FFBACF2394D6CE81E0BECF1D
:102C800087E0BCCF2D960FB6F894DEBF0FBECDBF48
:102C9000DF91CF911F910F91FF90EF90DF90CF9038
:102CA000BF90AF909F908F907F906F905F904F906C
:102CB0003F902F9008958F929F92AF92CF92EF9274
:102CC000FF920F931F93CF93DF9300D01F92CDB746
:102CD000DEB74C0180E589831A829E012D5F3F4F4C
:102CE00042E0BE016F5F7F4FC4018ADC0097B9F4F8
:102CF000A12CC12CE12CF12C00E010E020E030E010
:102D000044E0BE016F5F7F4FC401F4DD8330910565
:102D100021F0009721F481E001C080E090E00F9065
:102D20000F900F900F90DF91CF911F910F91FF9017
:102D3000EF90CF90AF909F908F900895CF93DF93B7
:102D400000D0CDB7DEB722E02B83AE014D5F5F4FE1
:102D5000BE016F5F7F4F3EDE009731F021E00297AA
:102D600009F020E0822F01C081E00F900F900F90BA
:102D7000DF91CF91089540E0BC0130DE21E0892B46
:102D800009F020E0822F0895CF92DF92EF92FF9218
:102D90000F931F93CF93DF93EC018B010E94BE1F13
:102DA0006B017C0188819981DC01ED91FC910480AB
:102DB000F581E02D1995892B69F40E94BE1F6C19CD
:102DC0007D098E099F0968397A438105910550F381
:102DD00080E00CC088819981DC01ED91FC91068036
:102DE000F781E02D1995F801808381E0DF91CF9183
:102DF0001F910F91FF90EF90DF90CF9008950F9368
:102E00001F93CF93DF93EA0108811981600F711F2F
:102E1000BBDF882331F00F5F1F4F1983088381E0E8
:102E200001C080E0DF91CF911F910F9108953F92F3
:102E30004F925F926F927F928F929F92AF92BF92CA
:102E4000CF92DF92EF92FF920F931F93CF93DF9376
:102E500000D0CDB7DEB78C016B011A8219825C01FC
:102E600022E0A20EB11CAE014F5F5F4FB501C7DF7C
:102E7000811103C080E090E0BBC0D80112969C9005
:102E80001B82E12CF12C412C512C32014394BE01C8
:102E90006D5F7F4FC80178DF882361F329813A8114
:102EA000C90101969A8389836B81F801E20FF31FB0
:102EB0006283462F4F7750E0449D9001459D300D31
:102EC000549D300D1124E20EF31E97E0440C551C66
:102ED000661C771C9A95D1F767FDD9CF292D207FE5
:102EE00033243394203309F0312C8150F601808350
:102EF000332031F1AE014F5F5F4FB501C8017FDF75
:102F0000882309F4B7CFAE014F5F5F4FB501C80109
:102F100076DF882309F4AECFD6018C91F801E80F53
:102F2000F11D4380512C542C44248481480E511CA3
:102F3000F801828181FF08C0F2E04F0E511C04C0ED
:102F400080E0412C512C01C082E0A82EB12C612CD4
:102F5000712C48012BE0821A2AEF920AC3018A0DD4
:102F60009B1D8E159F05A0F5BE016D5F7F4FC801AB
:102F70000BDF882309F47ECFD4018D919C910097BB
:102F8000A9F0332099F029813A8122503109F601C4
:102F90004081241B31094216530640F4DC01ED91B7
:102FA000FC910190F081E02D6B81199589819A81C6
:102FB0008C3DB5E09B0728F42B81F801E80FF91F41
:102FC000228301969A838983EFEF6E1A7E0AC6CF19
:102FD000F801EB50FA4F80819181892B39F4898176
:102FE0009A818D3D954010F01A82198289819A81CB
:102FF0000F900F900F90DF91CF911F910F91FF9045
:10300000EF90DF90CF90BF90AF909F908F907F9088
:103010006F905F904F903F900895AF92BF92CF9284
:10302000DF92EF92FF920F931F93CF93DF9300D025
:103030001F92CDB7DEB77C01F90180E09E2F9F770C
:10304000EE0FEF2FEE1FFF0BF195309709F0906810
:10305000A1E0B0E0AC0FBD1FA80FB11D9C938F5F26
:10306000309761F7A82EB12CDA01AA19BB09149682
:103070006C93BE016F5F7F4F80E090E04A195B095F
:103080008A159B0554F4FB01D190BF018A01080FFA
:10309000191FF801D5820196F3CFF7018081918144
:1030A00089010F5F1F4F0A0D1B1DFC01208131811B
:1030B000F90122813381A801BD01F90119956C0143
:1030C0005DD7F701E052FA4F608371838283938367
:1030D00081E0C016D10609F080E00F900F900F90AC
:1030E0000F90DF91CF911F910F91FF90EF90DF90A4
:1030F000CF90BF90AF900895C9010296DB01FD010A
:10310000E61BF70B2D91222331F0FA01E80FF91F8E
:1031100020830196F4CF9C012E1B3F0B240F351FFB
:10312000D9011297FC931196EC930895CF93DF93F6
:10313000EC0188819981009731F1DC01ED91FC91DE
:103140000488F589E02D199581111FC0FE01E95011
:10315000FA4F80819181892BB1F48DEF9FEF91839C
:10316000808388819981DC01ED91FC910284F38553
:10317000E02D199588819981DC01ED91FC910288FF
:10318000F389E02D199580E001C081E0DF91CF91B6
:1031900008952F923F924F925F926F927F928F92FB
:1031A0009F92AF92BF92CF92EF92FF920F931F9395
:1031B000CF93DF93CDB7DEB72C970FB6F894DEBF71
:1031C0000FBECDBF4C011B012A013901AFDF8111B8
:1031D00011C1F401EF50FA4F60817181D4018D91DA
:1031E0009C911197AD50BA4FFC012081318161153E
:1031F000710541F04D915C91D9011E96ED91FC91C4
:103200001F971FC0F9010484F585E02DFC87EB872B
:10321000ED91FC9129E633E03A832983D401A5514D
:10322000BA4F12964D915D916D917C9115974B839C
:103230005C836D837E83AF01BE016F5F7F4FEB8543
:10324000FC851995F4018130910509F0CBC0E2525B
:10325000FA4F9183808387E0E2E2F2E0DE0111968B
:1032600001900D928A95E1F7FE01319680E090E0A1
:103270002191D401A80FB91F17962C93019687307E
:103280009105B1F70115110559F0F0E2CF9EC0018B
:103290001124866028E0E29E700111248E2901C06D
:1032A00082E04114510431F06114710411F480681A
:1032B00001C0806CD4011E968C931E971F961C92A1
:1032C0001F978FE050968C937401B2E0EB0EF11CC7
:1032D0002FE030E0A701B101C4010EDF0115110597
:1032E00051F09C01A701B801C40106DF9C01A701B0
:1032F000B501C40101DF4114510469F09C01A7012B
:10330000B201C401F9DE6114710429F09C01A70126
:10331000B301C401F1DE9C0125503109A70160E130
:10332000C4017BDE2BD6F401E052FA4F6083718337
:103330008283938384010C511A4FF8016083718357
:1033400082839383F40180819181DC01ED91FC9172
:103350000480F581E02D1995892BB9F40FD6D80199
:103360004D905D906D907C90641975098609970960
:1033700068397A438105910528F3F401E950FA4F41
:103380008CEF9FEF9183808322C0BE01685F7F4FE7
:10339000C4014DDD0497D9F4F401858194012950CD
:1033A0003A4F790181110FC0E9D5D8016D937D9312
:1033B0008D939C931397F401E851FA4F1082F70113
:1033C0001182108217C090E0D9018D939C93F40173
:1033D00080819181DC01ED91FC910288F389E02DDF
:1033E000199506C0E950FA4F8EEF9FEF91838083C5
:1033F00080E001C081E02C960FB6F894DEBF0FBECE
:10340000CDBFDF91CF911F910F91FF90EF90CF90A3
:10341000BF90AF909F908F907F906F905F904F90F4
:103420003F902F900895AF92BF92CF92EF920F935B
:103430001F93A12CB12CC12CE12C00E010E0A9DEDF
:103440001F910F91EF90CF90BF90AF9008952F9262
:103450003F924F925F926F927F928F929F92AF9224
:10346000BF92CF92DF92EF92FF920F931F93CF9371
:10347000DF9300D01F92CDB7DEB78C014DB65EB69C
:1034800055DE882309F443C179D56B017C015801CD
:103490002CE1A21A2AEFB20AF50180819181A28162
:1034A000B381A7019601281B390B4A0B5B0BDA018C
:1034B000C90189399A43A105B10590F434978081F7
:1034C0009181A281B381A7019601281B390B4A0B78
:1034D0005B0BDA01C90189399A43A105B105C8F12D
:1034E000480148E1841A4AEF940AD4012C91F8016A
:1034F00080819181222371F0E950FA4F2CEF3FEF48
:1035000031832083DC01ED91FC910288F389E02D69
:103510001995FDC020ECF80122831382DC01ED91A6
:10352000FC910280F381E02D42E050E0B8016E5F33
:103530007F4F1995F801E052FA4FC082D182E282A2
:10354000F382F501C082D182E282F38281E0D4016C
:103550008C93F80180819181DC01ED91FC910480D4
:10356000F581E02D1995892B09F4D3C0BE016F5F59
:103570007F4FC8015CDCFC01009709F4CAC0D5018B
:10358000CD92DD92ED92FC921397D80112968C9118
:10359000807F803309F0A0C04801B7E18B1ABAEFF1
:1035A0009B0AD4018D919C91892B09F4B2C02DB650
:1035B0003EB6698170E0D801A60FB71F13964C91F3
:1035C000139750E0542F442714968C911497480F6A
:1035D000511DCA0101962DB73EB7281B390B0FB6F6
:1035E000F8943EBF0FBE2DBF8DB79EB701965C010C
:1035F00020E030E0BC83AB832417350769F06B8093
:103600007C80620E731ED30115966C90D5016D926D
:103610005D012F5F3F4FF0CFDC01A20FB31F1C9263
:10362000D8011296BC91B670BA83B230E9F539016F
:10363000660E771ED801A60DB71D1596AC9015978E
:10364000B12CBA2CAA2416964C91A40EB11C4BEFA7
:103650005FEF461B570B421B530B4E0F5F1FB3010F
:10366000695F7F4F600F711FD401ED91FC91199537
:1036700080E4F80182837A807382B482A582D801C3
:103680008D919D91BD01DC01ED91FC910280F38152
:10369000E02D44E050E01995F801E052FA4FC08265
:1036A000D182E282F38212C04DEF5FEF461B570BCF
:1036B000421B530B4E0F5F1F620F731F6B5F7F4FD9
:1036C000600F711FD401ED91FC9119950FB6F8941C
:1036D0003EBE0FBE2DBE1DC0803C91F480EDF801B2
:1036E00082831382D8018D919D91BD01DC01ED9102
:1036F000FC910280F381E02D42E050E0199509C071
:10370000803D39F4F801E851FA4F108202C080E0A0
:1037100001C081E00FB6F8945EBE0FBE4DBE0F90A3
:103720000F900F900F90DF91CF911F910F91FF900D
:10373000EF90DF90CF90BF90AF909F908F907F9051
:103740006F905F904F903F902F9008958F929F922F
:10375000BF92CF92DF92EF92FF920F931F93CF937E
:10376000DF931F921F92CDB7DEB74C01B42E152FF9
:10377000790169837A83DADC69817A81882309F4A3
:1037800044C0FB0101900020E9F73197E61BF70BDD
:10379000C70107968E0F9F1F8D3D9540B0F56401C0
:1037A00082E0C80ED11C25E030E0A601C401A4DCF3
:1037B000EB2DF12F60E070E09401280F391F6E159A
:1037C0007F0549F04191D901A60FB71F12964C937E
:1037D0006F5F7F4FF4CF011102C060E301C061E36E
:1037E000970125503109280F391FA601C4010F90F8
:1037F0000F90DF91CF911F910F91FF90EF90DF908D
:10380000CF90BF909F908F9008CC80E00F900F904A
:10381000DF91CF911F910F91FF90EF90DF90CF90AC
:10382000BF909F908F9008950F93FA010190002010
:10383000E9F79F0121503109241B350B00E086DF99
:103840000F910895CF92DF92FF920F931F93CF9322
:10385000DF931F921F92CDB7DEB76C01F42E81E08B
:10386000841708F43EC0FB0101900020E9F7E61B35
:10387000F70B3896ED3DF540A0F5C60169837A83D4
:1038800055DC69817A81882361F1F601E252FA4FB1
:1038900080819181019611F481E090E09183808391
:1038A00080819181F6019783808786010E5F1F4F8B
:1038B00027E030E0A801C6011FDCF601E80FF91F80
:1038C000F2829C0124503109A80162E8C6010F90E0
:1038D0000F90DF91CF911F910F91FF90DF90CF90CC
:1038E0009CCB80E00F900F90DF91CF911F910F91B3
:1038F000FF90DF90CF90089540E0A4CFCF92DF9269
:10390000EF92FF920F931F93CF93DF93CDB7DEB764
:103910002C970FB6F894DEBF0FBECDBF7C01FB0124
:103920006A010381228141816081CE01079620D7FF
:1039300009851A852B853C85F701E551FA4F0283ED
:103940001383248335833896D182C08232971182C3
:103950001082C7012C960FB6F894DEBF0FBECDBF04
:10396000DF91CF911F910F91FF90EF90DF90CF905B
:103970000895CF92DF92EF92FF920F931F93CF9310
:10398000DF9300D01F92CDB7DEB76C01790185516E
:103990009A4F4B835C8369837A83E0D6F601E950C2
:1039A000FA4F8FEF9FEF918380834B815C81698118
:1039B0007A81C601A3DFF601E751FA4FF182E08276
:1039C000F60111830083EB50FA4F118210820F90A1
:1039D0000F900F900F90DF91CF911F910F91FF905B
:1039E000EF90DF90CF9008950F9300E020E040E04B
:1039F00060E08AEB93E0BCD60F910895CF93CFB7E8
:103A0000F8948091C303811123C0E4EAF2E0849129
:103A1000EEE5F2E09491E82FF0E0EE0FFF1FE751A2
:103A2000FD4FA591B4918C91892319F461E085E350
:103A3000E7D361E085E3ABD38CB580618CBD8CB5F9
:103A400080648CBD61E084E3A2D361E083E39FD313
:103A50008091C3038F5F8093C303CFBFCF9108953D
:103A60009C01FC01EE56FE4F80819181680F791F09
:103A7000613941E0740730F4718360830296820FEC
:103A8000931F089580E090E00895CF92DF92EF9227
:103A9000FF920F931F93CF93DF93CDB7DEB7C45937
:103AA000D1400FB6F894DEBF0FBECDBFDB01E8ED0D
:103AB000F9E04852564FE417F50719F08D918193BC
:103AC000FACF108268ED79E085EC9BE01FD783E5A3
:103AD00093E09A838983CD56DE4F19821882C359A9
:103AE000D1404AE068ED79E0CE0101960E940102E2
:103AF0007C0160EA72E00E942502009749F0FC0117
:103B0000248135812730310519F48681978102C0DF
:103B100080E793E065EA72E00E942502009729F0B1
:103B200004960E944C028C0102C000E010E060EAA2
:103B300072E0C7010E942502009749F0FC01248130
:103B400035812730310519F48681978102C080E7DD
:103B500093E06AEA72E00E942502009729F0049639
:103B60000E944C026C0102C0C12CD12C60EA72E0B0
:103B7000C7010E942502FC01009739F084819581DC
:103B8000079719F48681978102C080E793E063EB81
:103B900072E00E942502009729F004960E944C02D0
:103BA0007C0102C0E12CF12C68EA71E085EC9BE01D
:103BB0005ED6B80185EC9BE0A9D669E971E085EC99
:103BC0009BE055D6B60185EC9BE0A0D66CE871E091
:103BD00085EC9BE04CD6B70185EC9BE097D6B7010E
:103BE00080EA9BE088D763EB72E080EA9BE00E946A
:103BF000FB25882371F064E871E085EC9BE076D6C4
:103C0000B80185EC9BE082D663E671E085EC9BE031
:103C10006DD66AEB72E080EA9BE0EDD7882379F0FD
:103C200068E571E085EC9BE061D66EE371E085ECC0
:103C30009BE05CD668E071E085EC9BE018D66BED0C
:103C400072E080EA9BE057D7CC56DE4F0FB6F8946F
:103C5000DEBF0FBECDBFDF91CF911F910F91FF90BF
:103C6000EF90DF90CF9008950F931F93CF93DF9342
:103C7000CDB7DEB762970FB6F894DEBF0FBECDBFEB
:103C800026E040E855E260E070E085EC9BE024D45B
:103C9000B5DE60E172E0CE01019676D56CE072E0AF
:103CA000CE01079671D564E172E0CE010D966CD518
:103CB0008E010F5F1F4F9E01295F3F4FAE01435F93
:103CC0005F4F6CE172E080E893E00E94BF076FEB0A
:103CD00072E085EC9BE01AD68AEC99E00E946B13A7
:103CE00067EC71E085EC9BE001D662960FB6F89424
:103CF000DEBF0FBECDBFDF91CF911F910F91089511
:103D0000EF92FF920F931F93CF93DF938AEC99E08A
:103D100015D8882309F46EC08AEC99E02CD8882342
:103D200009F468C06EEC72E08AE99BE0E4D663EBCC
:103D300071E085EC9BE0DAD5CBECD9E00CEA1BE036
:103D400069917801D8016D938D0186EA9BE028D7AF
:103D50004AE050E0F701608185EC9BE04AD66AEDCD
:103D600072E085EC9BE0A8D5F9E0CF3CDF0741F796
:103D700066EA7BE08AE99BE0FED66CED72E08AE9B8
:103D80009BE0FFD620E030E042E350E068E67BE0D5
:103D90008AE99BE04ED76FED72E084EC93E0ACDDF6
:103DA00048E65BE06BEE72E084EC93E03DDD85EC91
:103DB0009BE08AD568E67BE085EC9BE0A7D56BEDC0
:103DC00072E086EA9BE097D66BED72E08AE99BE0B1
:103DD00092D682E3E8E6FBE0DF011D928A95E9F7DF
:103DE0008AEC99E0DF91CF911F910F91FF90EF90B6
:103DF0000C945B16DF91CF911F910F91FF90EF9084
:103E0000089584EC93E092D981111EC060EF72E0B6
:103E100085EC9BE07BD526E133E044E253E069E2A8
:103E200073E084EC93E0FFDA84EC93E07FD988239D
:103E300041F36AE373E085EC9BE068D56DE473E0E1
:103E400084EC93E059DDDDCF84EC93E06FD98823D7
:103E500031F056DF62E370E080E090E0BED084ECA9
:103E600093E0F5CA0F931F9300E020E040E060E08C
:103E700086EB9BE07DD46BED72E080EB9BE026D679
:103E80006BED72E086EA9BE021D66BED72E080EA92
:103E90009BE01CD66BED72E08AE99BE017D646E109
:103EA00067E18AEC99E00E9446128DEB99E00E944E
:103EB00045090DEB19E025E43DE14BE557E068E1EC
:103EC00072E084EC93E055DD1F910F9108958AE92B
:103ED0009BE095D580EA9BE092D586EA9BE08FD562
:103EE00080EB9BE08CC508951F920F920FB60F9246
:103EF00011242F933F938F939F93AF93BF93809100
:103F0000BD0B9091BE0BA091BF0BB091C00B309137
:103F1000BC0B23E0230F2D3720F40196A11DB11D0A
:103F200005C026E8230F0296A11DB11D2093BC0BEE
:103F30008093BD0B9093BE0BA093BF0BB093C00BAF
:103F40008091C10B9091C20BA091C30BB091C40B97
:103F50000196A11DB11D8093C10B9093C20BA0933C
:103F6000C30BB093C40BBF91AF919F918F913F91C1
:103F70002F910F900FBE0F901F9018952FB7F894A8
:103F80006091BD0B7091BE0B8091BF0B9091C00BE7
:103F90002FBF08953FB7F8948091C10B9091C20B49
:103FA000A091C30BB091C40B26B5A89B05C02F3FB1
:103FB00019F00196A11DB11D3FBF6627782F892FEB
:103FC0009A2F620F711D811D911D42E0660F771FB0
:103FD000881F991F4A95D1F70895CF92DF92EF92EB
:103FE000FF92CF93DF936B017C01D4DFEB01C1140F
:103FF000D104E104F10479F076DFCCDF6C1B7D0B9A
:10400000683E7340A0F381E0C81AD108E108F108C6
:10401000C851DC4FECCFDF91CF91FF90EF90DF9054
:10402000CF900895789484B5826084BD84B5816012
:1040300084BD85B5826085BD85B5816085BDEEE6B0
:10404000F0E0808181608083E1E8F0E0108280818F
:1040500082608083808181608083E0E8F0E08081FD
:1040600081608083E1EBF0E0808184608083E0EB1D
:10407000F0E0808181608083E1E9F0E0808182600E
:104080008083808181608083E0E9F0E080818160CD
:104090008083E1EAF0E080818260808380818160BA
:1040A0008083E0EAF0E0808181608083E1E2F1E0FA
:1040B000808182608083808181608083E0E2F1E0A2
:1040C000808181608083EAE7F0E080818460808382
:1040D000808182608083808181608083808180682C
:1040E00080831092C100089590E0FC013197E23185
:1040F000F10508F04BC0EE58FF4FE6C580918000F7
:104100008F7703C0809180008F7D80938000089519
:1041100080918000877FF9CF84B58F7702C084B506
:104120008F7D84BD08958091B0008F7703C080910A
:10413000B0008F7D8093B0000895809190008F77BC
:1041400007C0809190008F7D03C080919000877F91
:104150008093900008958091A0008F7707C0809190
:10416000A0008F7D03C08091A000877F8093A00076
:104170000895809120018F7707C0809120018F7D65
:1041800003C080912001877F809320010895CF9301
:10419000DF9390E0FC01E75DFD4F2491FC01E159C4
:1041A000FD4F8491882349F190E0880F991FFC010D
:1041B000E751FD4FA591B49181539D4FFC01C591ED
:1041C000D4919FB7611108C0F8948C9120958223F7
:1041D0008C93888182230AC0623051F4F8948C91C8
:1041E000322F309583238C938881822B888304C05F
:1041F000F8948C91822B8C939FBFDF91CF9108957F
:104200000F931F93CF93DF931F92CDB7DEB7282F65
:1042100030E0F901ED51FE4F8491F901E75DFD4F6A
:104220001491F901E159FD4F04910023C1F0882355
:1042300019F0698359DF6981E02FF0E0EE0FFF1F6D
:10424000E153FD4FA591B4919FB7F8948C91611102
:1042500003C01095812301C0812B8C939FBF0F90C9
:10426000DF91CF911F910F910895CF93DF93282F66
:1042700030E0F901ED51FE4F8491F901E75DFD4F0A
:10428000D491F901E159FD4FC491CC2389F08111FA
:104290002BDFEC2FF0E0EE0FFF1FEB54FD4FA5914D
:1042A000B4912C912D2381E090E021F480E002C0B4
:1042B00080E090E0DF91CF910895FC01818D228D07
:1042C00090E0805C9F4F821B91098F73992708951E
:1042D000FC01918D828D981731F0828DE80FF11DD0
:1042E000858D90E008958FEF9FEF0895FC01918DEB
:1042F000828D981761F0828DDF01A80FB11D5D9648
:104300008C91928D9F5F9F73928F90E008958FEFB5
:104310009FEF08958BE293E2892B39F080E090E0E3
:10432000892B19F098D1811125C080E090E0892B6C
:1043300041F080E090E0892B21F00E940000811183
:104340001CC080E090E0892B41F080E090E0892B58
:1043500021F00E940000811113C080E090E0892BC1
:10436000A1F080E090E0892B81F00E940000811193
:104370000AC008950E940000D8CF0E940000E1CF3B
:104380000E940000EACF0C9400000895FC01848D87
:10439000DF01A80FB11DA35ABF4F2C91848D90E06F
:1043A00001968F739927848FA689B7892C93A0894A
:1043B000B1898C9180648C93938D848D981306C001
:1043C0000288F389E02D80818F7D80830895CF93CB
:1043D000DF93EC01888D8823C1F0EA89FB89808115
:1043E00085FD05C0A889B9898C9186FD0EC00FB6E0
:1043F00007FCF5CF808185FFF2CFA889B9898C9120
:1044000085FFEDCFCE01C2DFE8CFDF91CF910895D8
:10441000CF92DF92FF920F931F93CF93DF931F9260
:10442000CDB7DEB76C01DC015B969C915B975C9627
:104430008C915C97981307C05096ED91FC91519721
:10444000808185FD31C0F601038D10E00F5F1F4FA5
:104450000F731127F02EF601848DF81210C00FB6DD
:1044600007FCF9CFD6015096ED91FC9151978081D0
:1044700085FFF1CFC601698389DF6981ECCF838D28
:10448000E80FF11DE35AFF4F6083D6015B960C9352
:104490005B975296ED91FC91539780818062808367
:1044A00081E058968C930DC0D6015696ED91FC9103
:1044B000579760835096ED91FC915197808180646D
:1044C000808381E090E00F90DF91CF911F910F9159
:1044D000FF90DF90CF900895BF92CF92DF92EF923E
:1044E000FF92CF93DF93EC016A017B01B22EE88942
:1044F000F98982E08083411581EE580761057105D5
:1045000099F060E079E08DE390E0A7019601BAD3DD
:1045100021503109410951095695479537952795FD
:10452000211580E1380790F0E889F989108260E868
:1045300074E88EE190E0A7019601A4D321503109DF
:10454000410951095695479537952795EC85FD8585
:104550003083EE85FF852083188EEC89FD89B0823B
:10456000EA89FB89808180618083EA89FB89808177
:1045700088608083EA89FB89808180688083EA89FA
:10458000FB8980818F7D8083DF91CF91FF90EF90B9
:10459000DF90CF90BF9008951F920F920FB60F92A9
:1045A00011240BB60F922F938F939F93EF93FF934A
:1045B000E091D50BF091D60B8081E091DB0BF0916F
:1045C000DC0B82FD12C090818091DE0B8F5F8F73B8
:1045D0002091DF0B821751F0E091DE0BF0E0EB53FE
:1045E000F44F958F8093DE0B01C08081FF91EF9196
:1045F0009F918F912F910F900BBE0F900FBE0F9038
:104600001F9018951F920F920FB60F9211240BB6A0
:104610000F922F933F934F935F936F937F938F935B
:104620009F93AF93BF93EF93FF9385EC9BE0AEDE38
:10463000FF91EF91BF91AF919F918F917F916F917A
:104640005F914F913F912F910F900BBE0F900FBE36
:104650000F901F90189585EC9BE02FDE21E0892BB1
:1046600009F420E0822F08951092C80B1092C70B16
:1046700088EE93E0A0E0B0E08093C90B9093CA0B62
:10468000A093CB0BB093CC0B89E593E09093C60B32
:104690008093C50B85EC90E09093D20B8093D10B67
:1046A00084EC90E09093D40B8093D30B80EC90E05B
:1046B0009093D60B8093D50B81EC90E09093D80B20
:1046C0008093D70B82EC90E09093DA0B8093D90B18
:1046D00086EC90E09093DC0B8093DB0B1092DE0B6A
:1046E0001092DF0B1092E00B1092E10B0895AF9245
:1046F000BF92CF92DF92EF92FF920F931F93CF93CF
:10470000DF936C017B01C0E0D0E000E010E0F60137
:10471000EC0FFD1F4AE050E06281C7016AD15C01E5
:104720006EE2C701CAD08A0D9B1D080F191F219682
:10473000C330D10561F74AE050E0F6016581C70159
:1047400058D1800F911FDF91CF911F910F91FF9052
:10475000EF90DF90CF90BF90AF90089529E633E0BF
:10476000FC01318320831282138214821582089502
:104770000F93FC0189E693E09183808362834383F6
:10478000248305830F91089529E633E0FC013183EA
:104790002083FB014081518162817381FC0142834E
:1047A0005383648375830895FB0140815181628145
:1047B0007381FC014283538364837583089589E682
:1047C00093E09093630C8093620C1092640C1092AF
:1047D000650C1092660C1092670C0895089522DC07
:1047E000FDDF42DACAE8D1E20CDB2097E9F392DD83
:1047F000FBCFCF92DF92EF92FF920F931F93CF9355
:10480000DF936C017A01EB01E60EF71E00E010E089
:10481000CE15DF0561F06991D601ED91FC91019013
:10482000F081E02DC6011995080F191FF1CFC801BD
:10483000DF91CF911F910F91FF90EF90DF90CF907C
:1048400008956115710581F0DB010D900020E9F7F5
:10485000AD0141505109461B570BDC01ED91FC9114
:104860000280F381E02D199480E090E00895EF92AA
:10487000FF920F931F93CF93DF938C01FB01C0E056
:10488000D0E064917F018FEFE81AF80A662361F0A7
:10489000D801ED91FC910190F081E02DC8011995AE
:1048A000C80FD91FF701EDCFCE01DF91CF911F9136
:1048B0000F91FF90EF900895C4CFDC01ED91FC9132
:1048C0000190F081E02D19940F931F93CF93DF9304
:1048D000EC016DE0F2DF8C016AE0CE01EEDF800FCB
:1048E000911FDF91CF911F910F9108950F931F9307
:1048F000CF93DF93EC01BBDF8C01CE01E5DF800FAE
:10490000911FDF91CF911F910F9108950F931F93E6
:10491000CF93DF93EC0195DF8C01CE01D5DF800FC3
:10492000911FDF91CF911F910F9108958F929F92C8
:10493000AF92BF92CF92DF92EF92FF920F931F93AD
:10494000CF93DF93CDB7DEB7A1970FB6F894DEBF54
:104950000FBECDBF7C01C42EE52FCB01D22E19A2F4
:1049600021E02D1510F02AE0D22E8E010F5D1F4F91
:104970008D2C912CA12CB12C6C2D7E2FA501940196
:1049800081D18C2DD29E80191124015011098A30B9
:1049900014F4805D01C0895CF80180832115310524
:1049A0004105510521F0C22EE32FCA01E5CFB80120
:1049B000C70147DFA1960FB6F894DEBF0FBECDBF8B
:1049C000DF91CF911F910F91FF90EF90DF90CF90EB
:1049D000BF90AF909F908F9008952115310541F4BD
:1049E000DC01ED91FC910190F081E02D642F199490
:1049F0009DCF9A01462F50E060E070E0EECFFC01C1
:104A00008081918103C2CF93DF93EC0188819981EA
:104A1000009709F0FBD1198218821D821C821B822B
:104A20001A82DF91CF9108950F931F93CF93DF9355
:104A3000EC018B016F5F7F4F8881998176D200975F
:104A400031F0998388831B830A8381E001C080E071
:104A5000DF91CF911F910F910895CF93DF93EC01D8
:104A600088819981892B29F08A819B8186179707F4
:104A700058F4CE01D9DF882341F08C819D81892BA8
:104A800019F4E881F981108281E0DF91CF910895D6
:104A9000EF92FF920F931F93CF93DF93EC017B0173
:104AA0008A01BA01DADF811103C0CE01ACDF06C092
:104AB0001D830C83B701888199812DD3CE01DF91AD
:104AC000CF911F910F91FF90EF900895FC011182FB
:104AD000108213821282158214826115710551F0C1
:104AE000FB0101900020E9F7AF0141505109461B3D
:104AF000570BCECF0895CF93DF93EC01611571056D
:104B000059F0FB0101900020E9F7AF014150510934
:104B1000461B570BBDDF01C076DFCE01DF91CF9181
:104B20000895EF92FF920F931F93CF93DF93EC01C1
:104B30007B010C811D816115710511F480E014C0A9
:104B40004115510581F0040F151FB80186DF882338
:104B5000A9F3288139818C819D81B701820F931F30
:104B6000DAD21D830C8381E0DF91CF911F910F91E9
:104B7000FF90EF900895FB01448155816081718120
:104B8000D0CF6115710551F0FB0101900020E9F7CC
:104B9000AF0141505109461B570BC3CF80E0089528
:104BA000EF92FF920F931F93CF93DF9300D01F924A
:104BB000CDB7DEB77C01862F4AE050E08E010F5F53
:104BC0001F4FB80190E0BDD2F80101900020E9F735
:104BD000AF0141505109401B510BB801C701A1DF82
:104BE0000F900F900F900F90DF91CF911F910F9129
:104BF000FF90EF900895FC0124813581232B31F43F
:104C000021E06115710599F0FB0108C0FC0180816C
:104C100091816115710531F421E0FC0180818823C7
:104C200031F004C06FD221E0892B09F020E0822FFF
:104C300008950F931F93CF93DF93EB014115510517
:104C4000E1F02097D1F0FC016481758126173707C8
:104C500098F4621B730B8A010150110960177107E8
:104C600008F48B01FC0160817181620F731FA80140
:104C7000CE0158D2C00FD11F1882DF91CF911F9162
:104C80000F910895A1E21A2EAA1BBB1BFD010DC0B6
:104C9000AA1FBB1FEE1FFF1FA217B307E407F507EC
:104CA00020F0A21BB30BE40BF50B661F771F881FC8
:104CB000991F1A9469F760957095809590959B015E
:104CC000AC01BD01CF010895EE0FFF1F0590F491D7
:104CD000E02D19940790F691E02D1994CF93DF936E
:104CE0008230910510F482E090E0E0916A0CF0913E
:104CF0006B0C20E030E0A0E0B0E0309739F140816B
:104D0000518148175907B8F04817590771F4828143
:104D10009381109729F013969C938E9312972CC031
:104D200090936B0C80936A0C27C02115310531F0EC
:104D30004217530718F0A901DB0101C0EF019A01E6
:104D4000BD01DF010280F381E02DD7CF21153105B0
:104D5000F9F0281B390B2430310580F48A819B81BE
:104D60006115710521F0FB019383828304C0909348
:104D70006B0C80936A0CFE01329644C0FE01E20F78
:104D8000F31F8193919322503109398328833AC0CC
:104D90002091680C3091690C232B41F42091020280
:104DA000309103023093690C2093680C209100022B
:104DB000309101022115310541F42DB73EB74091E4
:104DC000040250910502241B350BE091680CF09110
:104DD000690CE217F307A0F42E1B3F0B28173907C5
:104DE00078F0AC014E5F5F4F2417350748F04E0F47
:104DF0005F1F5093690C4093680C8193919302C09C
:104E0000E0E0F0E0CF01DF91CF910895CF93DF9301
:104E1000009709F487C0FC01329713821282C09177
:104E20006A0CD0916B0C209781F420813181280F7E
:104E3000391F8091680C9091690C8217930779F55E
:104E4000F093690CE093680C6DC0DE0120E030E067
:104E5000AE17BF0750F412964D915C9113979D01C8
:104E60004115510509F1DA01F3CFB383A2834081E3
:104E70005181840F951F8A179B0771F48D919C9126
:104E80001197840F951F02969183808312968D91BE
:104E90009C911397938382832115310529F4F09314
:104EA0006B0CE0936A0C3EC0D9011396FC93EE9311
:104EB00012974D915D91A40FB51FEA17FB0779F486
:104EC00080819181840F951F0296D90111969C9340
:104ED0008E938281938113969C938E931297E0E038
:104EE000F0E08A819B81009719F0FE01EC01F9CF77
:104EF000CE01029628813981820F931F2091680C80
:104F00003091690C2817390769F4309729F4109209
:104F10006B0C10926A0C02C013821282D093690C3F
:104F2000C093680CDF91CF9108956F927F928F921A
:104F30009F92AF92BF92CF92DF92EF92FF920F9328
:104F40001F93CF93DF93EC01CB01209779F4DF918E
:104F5000CF911F910F91FF90EF90DF90CF90BF9076
:104F6000AF909F908F907F906F90B8CEFE01E60F2C
:104F7000F71F9E0122503109E217F30708F4A8C079
:104F8000D9010D911C91119706171707B0F0053044
:104F9000110508F49BC0A801445051094617570752
:104FA00008F494C002501109061B170B01931193CA
:104FB0006D937C93CF012ADF89C05B01A01AB10AEF
:104FC0004E01800E911EA0916A0CB0916B0C612C69
:104FD000712C60E070E0109709F449C0A815B9057C
:104FE000C9F5ED90FC901197670142E0C40ED11C09
:104FF000CA14DB0478F147018A189B08640142E077
:10500000C40ED11C1296BC9012971396AC91B5E0C9
:10501000CB16D10440F0B282A38391828082D90161
:105020008D939C9309C00E5F1F4F0E0D1F1DF9013C
:1050300011830083EB2DFA2F6115710531F0DB012F
:105040001396FC93EE93129741C0F0936B0CE09390
:105050006A0C3CC06D917C9111976616770608F436
:105060003B01BD0112960D90BC91A02DB4CF609173
:10507000680C7091690C68157905E9F46816790671
:10508000D0F440910002509101024115510541F4C4
:105090004DB75EB76091040270910502461B570B35
:1050A000E417F507A8F4F093690CE093680CF90194
:1050B000918380830BC012DE7C01009749F0A80128
:1050C000BE0117D0CE01A2DEC70104C0CE0102C0CE
:1050D00080E090E0DF91CF911F910F91FF90EF90D2
:1050E000DF90CF90BF90AF909F908F907F906F9008
:1050F0000895FB01DC0102C001900D924150504027
:10510000D8F70895FB01DC018D9101908019011001
:10511000D9F3990B0895FB01DC0101900D92002059
:10512000E1F70895FB01DC014150504048F0019047
:105130000D920020C9F701C01D9241505040E0F788
:1051400008954532510518F4423008F004C0FB01BF
:105150001082CB010895BB274A3031F4992322F401
:10516000BDE2909581959F4F01C0BB27FB0155275C
:10517000AA27880F991FAA1FA41710F0A41B8395B4
:105180005051B9F7A05DAA3308F0A95DA19300972B
:1051900079F7B111B1931192CB0100C0DC01FC0190
:1051A000672F71917723E1F7329704C07C916D935B
:1051B00070836291AE17BF07C8F3089513E0CCE186
:1051C000D3E000E005C022970109FE010BBF82DD9C
:0E51D000CE31D10780E00807B1F7F894FFCF89
:1051DE0000006C0C80000100000000C0C0A803019C
:1051EE00FFFFFF00C0A80322C0A80302DEADBEFF72
:1051FE0006ED00044D515454046E756C6C004E61F6
:10520E004E00496E66696E69747900652D00747280
:10521E0075650066616C73650022225C5C620866CF
:10522E000C6E0A720D7409000000000060088908F7
:10523E00A208AA08C608E8085E09EB08C308B60962
:10524E00F3097608510854087E085608000000003D
:10525E004B0A910A470AA40AE80A610A000B730A6C
:10526E00870A8E0B8E0A2B0BCC0A2C0A330A430AA2
:10527E0075736572006E616D6500706F7369746928
:10528E006F6E006163636573730064656E790045CC
:10529E00746865726E657420426567696E007B2264
:1052AE00524649442022203A22002000227D0052FC
:1052BE004649445F414343455353005246494400D7
:1052CE00547279696E6720746F20636F6E6E6563BA
:1052DE007420636C69656E7420746F2073657276CA
:1052EE0065722E2E2E006370736761746577617917
:1052FE0079797900726F6F74004D795F61726475A0
:10530E00696E6F436C69656E7400436C69656E748B
:10531E0020436F6E6E65637465642121004C00003E
:10532E00000000301D000000000822F9235D2176E8
:0C533E00216821E7210000000077230017
:00000001FF
