:1000000011C1000040C100003EC100003CC1000021
:100010003AC1000038C1000036C1000034C1000000
:1000200032C1000030C100002EC100002CC1000010
:100030002AC1000028C1000026C1000024C1000020
:1000400022C1000020C100001EC100001CC1000030
:100050001AC1000018C1000016C100000C941E1641
:1000600012C100000C944E190C9484190CC10000AC
:100070000AC1000008C1000006C1000004C1000060
:1000800002C1000000C10000FEC00000FCC0000072
:10009000FAC00000F8C00000F6C00000F4C0000084
:1000A000F2C00000F0C00000EEC00000ECC0000094
:1000B000EAC00000E8C00000E6C00000E4C00000A4
:1000C000E2C00000E0C00000DEC00000DCC00000B4
:1000D000DAC00000D8C00000D6C00000D4C00000C4
:1000E000D2C000003617391728172C17321770178F
:1000F0003D17411747174B174F17551759175D17DE
:100100007017631767176B1700000A0B02090C0DB5
:100110000E080703040100000000000000000000BA
:1001200000000000000000000000000000000000CF
:10013000000000001211100000000000000000008C
:1001400000000000000000000000000000000102AC
:1001500010202008081020401020408002010201D9
:100160000804020101020408102040808040201091
:1001700008040201800402018040201008040201EA
:100180000804020101020408102040800102040852
:10019000102040800505050507050808080802022B
:1001A00002020A0A08080404040401010101010111
:1001B00001010303030303030303040707070C0CF4
:1001C0000C0C0C0C0C0C02020202060606060606BB
:1001D00006060B0B0B0B0B0B0B0B00002200250074
:1001E00028002B002E003100340002010000050120
:1001F00008010B0100002100240027002A002D0027
:100200003000330001010000040107010A01090266
:100210006502BE02450618082308EA091316B61936
:10022000611A2B0211241FBECFEFD1E2DEBFCDBF7A
:1002300000E00CBF13E0A0E0B2E0E0E8FCE300E087
:100240000BBF02C007900D92A233B107D9F726E089
:10025000A2E3B3E001C01D92AC35B207E1F712E0B2
:10026000C2E2D2E000E006C022970109FE010BBF06
:100270000E94101CCE30D10780E00807A9F70E9429
:10028000711A0C942F1EBCCEEF92FF920F931F9306
:10029000CF93DF93EC017B018A0169E272E085EB89
:1002A00095E00E94C91ABE0185EB95E00E94C91A2B
:1002B0006BE372E085EB95E00E94C91AE7010E0D31
:1002C0001F1DC017D10731F0699185EB95E00E94A1
:1002D000CA1AF7CF6EE372E085EB95E00E94C91A67
:1002E00060E575E085EB95E00E94E31A85EB95E00B
:1002F000DF91CF911F910F91FF90EF900C94D11A45
:100300000F931F93CF93DF93CDB7DEB762970FB6EE
:10031000F894DEBF0FBECDBF6EE072E0CE01019655
:100320000E94461A6AE072E0CE0107960E94461AC1
:1003300062E172E0CE010D960E94461A8E010F5FB7
:100340001F4F9E01295F3F4FAE01435F5F4F6AE140
:1003500072E08CE695E015D426E040E855E260E0D6
:1003600070E085EB95E00E94EE1868E472E085EBA2
:1003700095E00E94F31A62960FB6F894DEBF0FBEA6
:10038000CDBFDF91CF911F910F91089582E393E04C
:100390000E94B311811119C067E572E085EB95E009
:1003A0000E94F31A6DE772E082E393E00E9431133A
:1003B00082E393E00E94B311882341F36EE872E078
:1003C00085EB95E00E94F31AE1CF82E393E00E946F
:1003D000B3118823D1F061EA72E085EB95E00E94C9
:1003E000F31A45EB52E062EC72E082E393E00E9484
:1003F00033156BEC72E082E393E00E949B1568E892
:1004000073E180E090E00E94971682E393E00C9401
:1004100049130F931F9300E020E040E060E086E581
:1004200095E00E943A1A6DE372E080E595E00E9443
:10043000D31B83E495E02BD503E415E024E431E0FD
:100440004BE557E066E172E082E393E00E94D81545
:100450001F910F91089580E595E00C946C1BCF934C
:10046000CFB7F89480915F05811127C0E9ECF1E0E6
:100470008491E3E8F1E09491E82FF0E0EE0FFF1FA4
:10048000EC50FE4FA591B4918C91892321F461E049
:1004900085E30E94AA1761E085E30E9471178CB57D
:1004A00080618CBD8CB580648CBD61E084E30E946A
:1004B000711761E083E30E94711780915F058F5F80
:1004C00080935F05CFBFCF9108950F9300E020E0A8
:1004D00040E060E080E695E00E943A1A0F910895AE
:1004E000FB014281538164817581FC014283538306
:1004F00064837583178216820895CF93FB018191DF
:100500008111FDCFFB0180E090E020E030E0CAE007
:100510006191662309F12430310564F56E3271F47E
:100520008F3F910509F034F5DA01A20FB31F12963F
:100530008C932F5F3F4F80E090E0EACFDC01CA9FB1
:10054000C001CB9F900D1124772767FD70956053F4
:100550007109860F971FDCCF8F3F910509F054F486
:10056000243031053CF4FA01E20FF31F828381E06D
:1005700090E002C080E090E0CF9108950F9300E0FA
:1005800020E040E060E086E695E00E943A1A0F9194
:100590000895AF92BF92CF92DF92EF92FF920F93A6
:1005A0001F93CF93DF9300D0CDB7DEB76C017B01F3
:1005B0000E946816F601778366838601085F1F4FE5
:1005C000B6016A5F7F4F42E050E0C801ACD581E0E0
:1005D00090E09A83898342E050E0BE016F5F7F4FD5
:1005E000C801A1D580E091E09A83898342E050E080
:1005F000BE016F5F7F4FC80196D51A82198242E013
:1006000050E0BE016F5F7F4FC8018DD542E050E0E2
:10061000BE016F5F7F4FC80186D542E050E0BE014A
:100620006F5F7F4FC8017FD56701F6018081882306
:1006300001F1F7016F018191811113C05601AE18CC
:10064000BF081A141B0484F4AB8241E050E0BE01E1
:100650006D5F7F4FC80167D5A501B701C80163D59C
:1006600003C08E3239F7EACF7601FFEFEF1AFF0AA7
:10067000DCCF1B8241E050E0BE016D5F7F4FC801BF
:1006800052D5E12CFF24F394FA82E98242E050E053
:10069000BE016F5F7F4FC80146D5FA82E98242E012
:1006A00050E0BE016F5F7F4FC8013DD581E090E013
:1006B0000F900F900F90DF91CF911F910F91FF90AE
:1006C000EF90DF90CF90BF90AF9008954F925F92E0
:1006D0006F927F928F929F92AF92BF92CF92DF9252
:1006E000EF92FF920F931F93CF93DF93CDB7DEB7B7
:1006F00063970FB6F894DEBF0FBECDBF7C015B01E0
:100700006A010E9468162B013C018701085F1F4F98
:100710004501A12CB12CC801A0D51816190694F0DA
:100720000E94681664197509860997098616970646
:10073000A806B906D0F062E370E080E090E00E9485
:100740009716E9CFF7014281538164817581818DCC
:10075000928DA38DB48D481759076A077B0741F422
:10076000858D968DC59721F406C08FEF9FEFE0C071
:100770008EEF9FEFDDC0C8018CD40C970CF4D6C06F
:100780004CE050E0BE016F5F7F4FC80107D58B8101
:100790009C819827892798279A8B898BF701468116
:1007A000578129813A814217530711F497FD05C0FB
:1007B000C80189D48CEF9FEFBBC08F709270892BDA
:1007C00029F0C80180D48BEF9FEFB2C0AF80B8840E
:1007D000BA24AB24BA24A114B10419F0E12CF12CF1
:1007E0001DC0C80170D48AEF9FEFA2C041E050E065
:1007F000BE01635F7F4FC801D1D48D85811117C0C1
:100800008D858111F3CFC801A1D4C8019FD4C8013F
:100810009DD4C8019BD4FFEFEF1AFF0A8D819E8102
:10082000982789279827E816F90600F309C08D85CF
:100830009FEF980F9D87882319F3C80187D4F7CFBE
:10084000E12CF12C41E050E0BE016D5E7F4FC8010C
:10085000A5D48B89982F907C59F4882361F08B89DB
:100860009FEF980F9B8B882331F0C8016FD4F7CF8F
:10087000C8016CD41B8A8B898111E4CF42E050E01F
:10088000BE01615F7F4FC80189D442E050E0BE01E4
:10089000635F7F4FC80182D4C80158D4C80156D4C1
:1008A000C80154D4C80152D442E050E0BE016F5E8A
:1008B0007F4FC80173D48F8598898115914029F4A1
:1008C0008D859E858115914019F0812C912C14C045
:1008D00089899A898115944029F0C801F4D387EF5A
:1008E0009FEF26C0B6016E5F7F4F44E050E0C80125
:1008F00055D481E090E01CC089899A89982789277E
:1009000098278816990630F4C80120D42FEF821A50
:10091000920AF2CF8FEFE81AF80AEA14FB0409F002
:1009200091CFC801D0D386EF9FEF02C08DEF9FEF2C
:1009300063960FB6F894DEBF0FBECDBFDF91CF91A7
:100940001F910F91FF90EF90DF90CF90BF90AF90ED
:100950009F908F907F906F905F904F9008958F92AF
:100960009F92AF92BF92CF92DF92EF92FF920F933E
:100970001F93CF93DF9300D000D0CDB7DEB78C01AB
:100980005B016A01BADD4C01009709F057C0F8011C
:1009900042815381648175818091680590916905D8
:1009A000A0916A05B0916B05481759076A077B0744
:1009B00009F448C00E9468167801F8E0EF0EF11CB7
:1009C0006F7077277C5FC7011DD4813009F03EC06E
:1009D0008FE293E09A838983F80182819381A481D5
:1009E000B5818B839C83AD83BE8345E350E0BE011C
:1009F0006F5F7F4FC7018DD3892B19F4812C912C08
:100A00001AC0B501C801C5DD892BC1F3C70188D360
:100A1000892BA1F333E0A32EB12CA60168E873E182
:100A2000C80154DE4C01F1E0AF1AB10821F08F3F4C
:100A30002FEF920791F3C70158D308C088248394FD
:100A4000912C04C09EEF892E99249A94C401269675
:100A50000FB6F894DEBF0FBECDBFDF91CF911F91CF
:100A60000F91FF90EF90DF90CF90BF90AF909F904D
:100A70008F90089520915E05222399F03FB7F89456
:100A800020915E05213059F42DB320935C054DB3C0
:100A900020915D05209524232DBB3FBF02C03093DC
:100AA0005C058CBD9DBD089580915E05882361F035
:100AB0009FB7F89420915E0580915C05213019F470
:100AC0008DBB9FBF08958FBF089544E050E0BC01E7
:100AD00081E090E00C94030E44E050E0BC0185E01E
:100AE00090E00C94030E44E050E0BC018FE090E0F5
:100AF0000C94030E8F929F92AF92BF92CF92DF928F
:100B0000EF92FF920F931F93CF93DF931F921F9249
:100B1000CDB7DEB74C016A01590186E995E06983DA
:100B20007A830E949E0D80E590E0A4DF46E050E0CD
:100B300069817A8189E090E00E94030EC6010296E5
:100B4000D2DFC8010296C1DFC7010296C5DFACDF64
:100B5000F5014281538164817581F401428353839D
:100B6000648375830F900F90DF91CF911F910F9148
:100B7000FF90EF90DF90CF90BF90AF909F908F90BD
:100B800008956F927F928F929F92AF92BF92CF9271
:100B9000DF92EF92FF920F931F93CF93DF93CDB726
:100BA000DEB76E970FB6F894DEBF0FBECDBF6C01F7
:100BB0005B017A014901380100E02FEF4FEF6FEF41
:100BC000CE0149960E943A1A2FE233E03A832983F4
:100BD0008B8D9C8DAD8DBE8D8B839C83AD83BE83B1
:100BE00038872F83F30182819381A481B58189871E
:100BF0009A87AB87BC873E872D87F40182819381DA
:100C0000A481B5818F87988BA98BBA8B3C8B2B8B5A
:100C1000F70142815381648175814D8B5E8B6F8BAF
:100C2000788FCE0101967C018E01095F1F4F9E01D6
:100C3000235F3F4FAE014D5E5F4FB501C6015ADFE6
:100C40006E960FB6F894DEBF0FBECDBFDF91CF9189
:100C50001F910F91FF90EF90DF90CF90BF90AF90DA
:100C60009F908F907F906F9008952FE233E0FC016A
:100C700031832083FB014281538164817581FC01B2
:100C8000428353836483758308950F9300E020E0CB
:100C900040E060E08CE795E00E943A1A8CE695E02F
:100CA0000F910C94301A81E086270895862F0895BD
:100CB000DC01ED91FC91048CF58DE02D199591E00E
:100CC00089270895CF93DF931F92CDB7DEB769834D
:100CD000DC01ED91FC910280F381E02D41E050E0D8
:100CE000BE016F5F7F4F19950F90DF91CF910895EF
:100CF00021E0FC018485843009F420E0822F0895EE
:100D0000FC019485FB018485981303C081E0943035
:100D100009F480E008950F931F93CF93DF93EC01C4
:100D20008A018C85843019F0E0D4892B39F481E074
:100D300090E09B838A8380E090E001C0C801DF914E
:100D4000CF911F910F910895FC018485843009F0A3
:100D5000AAC580E090E00895CF93DF931F92CDB7AE
:100D6000DEB741E050E0BE016F5F7F4FFC0184853C
:100D700040D5181619061CF4898190E002C08FEF47
:100D80009FEF0F90DF91CF910895FC01848531C5CD
:100D90000F931F93CF93DF931F92CDB7DEB78C01D4
:100DA000DC01ED91FC910480F581E02D1995892BF2
:100DB00049F0BE016F5F7F4FF80184859BD5898123
:100DC00090E002C08FEF9FEF0F90DF91CF911F91C6
:100DD0000F910895FC018485B9C5CF92DF92EF92FF
:100DE000FF920F931F93CF93DF93CDB7DEB7AF97EB
:100DF0000FB6F894DEBF0FBECDBF7C018B016A0138
:100E0000CE0101960E94301ACE01099674D2CE010D
:100E10008A960E94301A6CE675E0CE01849625DF32
:100E2000BE016C5D7F4FCE0101965ADBAE01465D7F
:100E30005F4FB801CE01019692DD81309105C1F47A
:100E4000D701ED91FC910484F585E02D8FE293E0CC
:100E50009DA38CA30CA51DA52EA53FA50EA31FA386
:100E600028A739A7A601BE016C5D7F4FC701199560
:100E7000AF960FB6F894DEBF0FBECDBFDF91CF9116
:100E80001F910F91FF90EF90DF90CF900895FC019C
:100E90001382128248EE53E060E070E04483558391
:100EA0006683778387ED92E09183808384E08487F3
:100EB0000895FC018485843009F00AC380E0089518
:100EC000DF92EF92FF920F931F93CF93DF93EC018A
:100ED0007B018A018C85843009F040C0D12C8D2D96
:100EE000F7D2811102C0DC8607C08B7F8831D9F32D
:100EF000D39484E0D812F3CF8C85843079F120919B
:100F00002002309121022F5F3F4F11F420E030EC9E
:100F1000309321022093200240912002509121021F
:100F200020E061E01ED3B7016E5F7F4FA8018C8582
:100F300066D3811103C084E08C8710C0CE01B9DF75
:100F4000873149F061E070E080E090E00E94971600
:100F5000CE01AFDFEECF81E090E002C080E090E014
:100F6000DF91CF911F910F91FF90EF90DF90089547
:100F7000CF92DF92EF92FF92CF93DF93EC018C85BB
:100F8000843061F18FD30E9468166B017C01CE0121
:100F900090DF882359F00E9468166C197D098E092C
:100FA0009F09683E73408105910588F0CE0181DF7D
:100FB000882311F08C85AFD2EC85F0E0EE0FFF1F97
:100FC000EC58FA4F1182108284E08C8707C061E0F0
:100FD00070E080E090E00E949716D9CFDF91CF912A
:100FE000FF90EF90DF90CF900895CF93DF93EC01C7
:100FF0008C858430C9F0CE015CDF8431A9F0882370
:1010000099F0883189F08C3169F4E881F9810480A4
:10101000F581E02DCE01199521E0892B09F420E01E
:10102000822F03C081E001C080E0DF91CF9108955D
:101030000F9300E020E040E060E082E895E00E944D
:101040003A1A0F9108950F9300E020E040E060E02D
:1010500088E895E00E943A1A0F910895DC01ED911D
:10106000FC91008CF18DE02D19942FE233E0FC010E
:1010700031832083FB014189528963897489FC0192
:1010800042835383648375830895FC01858996891F
:101090000895FC01818D928D0895CF93DF931F9267
:1010A000CDB7DEB76983DC01ED91FC910280F3815D
:1010B000E02D41E050E0BE016F5F7F4F19950F902A
:1010C000DF91CF910895CF93DF93EC01898D9A8DB5
:1010D000892B41F0E881F9810680F781E02DCE016E
:1010E0001995F4CFDF91CF910895CF93DF93EC0161
:1010F0008C85843059F00FD2EC85F0E0EE0FFF1FA5
:10110000EC58FA4F1182108284E08C87DF91CF91E6
:101110000895FC01108E178A6E5F7F4F848559C435
:10112000FC01848598C4CF93DF93EC019A018F89E9
:10113000988DAB01BC018C850AD42F89388D280F7E
:10114000391F388F2F8BDF91CF9108950F931F9305
:10115000CF93DF931F92CDB7DEB78C01FC01818D59
:10116000928D892B51F041E050E0BE016F5F7F4FBF
:1011700084853FD3181619061CF08FEF9FEF08C027
:10118000F801818D928D0197928F818F898190E0F6
:101190000F90DF91CF911F910F910895CF93DF931F
:1011A000EC01898D9A8D009719F48FEF9FEF0FC096
:1011B0004817590708F0AC018C851BD3181619067F
:1011C000A4F7298D3A8D281B390B3A8F298FDF918F
:1011D000CF910895CF93DF931F92CDB7DEB7FC0177
:1011E000218D328D232B41F0BE016F5F7F4F8485AF
:1011F00081D3898190E002C08FEF9FEF0F90DF9144
:10120000CF910895FF920F931F93CF93DF93EC013B
:101210008B018C858430D1F4F12C8F2D59D1811123
:1012200002C0FC8606C08831E1F3F39484E0F81232
:10123000F4CF8C85843051F01E870D871A8E198E5D
:1012400020E0A80162E08DD181E001C080E0DF9163
:10125000CF911F910F91FF9008950F931F93CF93FC
:10126000DF93CDB7DEB728970FB6F894DEBF0FBE79
:10127000CDBF8C01DC01ED91FC910284F385E02D62
:101280001995F80184850FD3181619063CF548E026
:1012900050E0BE016F5F7F4FD8011C968C91A9D2A0
:1012A00018161906ECF4BE016F5F7F4FC8010F9648
:1012B0000E94561A8D8190E0982F88272E81820FE8
:1012C000911DF801968B858B8F8190E0982F882750
:1012D0002885820F911D928F818F02C080E090E05F
:1012E00028960FB6F894DEBF0FBECDBFDF91CF9129
:1012F0001F910F910895FC011382128248EE53E072
:1013000060E070E044835583668377838BEF92E0DF
:101310009183808384E08487CF010F960C94301AE8
:10132000CF92DF92EF92FF920F931F93CF93DF93B1
:10133000CDB7DEB7AF970FB6F894DEBF0FBECDBF07
:101340007C018B016A01CE0101960E94301ACE0108
:101350000996D1DFCE018A960E94301A6CE675E0BC
:10136000CE01849682DCBE016C5D7F4FCE0101967A
:10137000B7D8AE01465D5F4FB801CE010196EFDAF6
:1013800081309105C1F4D701ED91FC910088F1897C
:10139000E02D8FE293E09DA38CA30CA51DA52EA5A7
:1013A0003FA50EA31FA328A739A7A601BE016C5D08
:1013B0007F4FC7011995AF960FB6F894DEBF0FBEE9
:1013C000CDBFDF91CF911F910F91FF90EF90DF90F4
:1013D000CF9008950F9300E020E040E060E08EE8B9
:1013E00095E00E943A1A0F910895CF92DF92EF9202
:1013F000FF920F9330E0C12CF2E1DF2EFAE7EF2EDF
:10140000F12C4C155D056E057F0540F4F694E794CC
:10141000D794C7943F5F3630A1F737E041E04327C8
:10142000211102C050E701C050E5242F30E035956E
:10143000279523700C70202B252BFC0120834170F5
:1014400041830F91FF90EF90DF90CF90089590E04F
:10145000982F882744E050E0845F9B4FD4C3282F07
:1014600030E02C5F3F4F922F8827860F971FF4C3E1
:1014700062E070E0F4CFFB01282F30E02C5F3F4F9B
:10148000922F8827642F8E0F9F1F3BC3CF93DF932C
:10149000C82FD62F472F64E070E0EDDF4D2F65E0B9
:1014A00070E08C2FDF91CF91E6CF462F62E070E0A5
:1014B000E2CFCF93DF93C82FD62F472F60E170E0A4
:1014C000DADF4D2F61E170E08C2FDF91CF91D3CF28
:1014D0000F931F93CF93DF9300D0CDB7DEB7182FB4
:1014E00000E021E040E059E06DE370E0CE010196BC
:1014F0007CDF89819A81BEDA63E070E0812FAFDF03
:101500008B83D2DA8B810F900F900F90DF91CF9168
:101510001F910F9108950F931F93CF93DF931F9205
:101520001F92CDB7DEB7182F00E021E040E059E070
:101530006DE370E0CE01019658DF89819A819ADAD5
:1015400040E150E0612F86E995E02FD56FEF812FC4
:10155000ACDFAADA0F900F90DF91CF911F910F911E
:101560000895CF92DF92EF92FF920F931F93CF9344
:10157000DF931F921F92CDB7DEB7182FD62E7A01B8
:10158000C22E8FEF860F853070F5812FC4DF00E00B
:1015900021E040E059E06DE370E0CE01019625DFE7
:1015A00089819A8167DA4D2D4C2960E070E0812FA6
:1015B00062DFE114F10411F0B7010AC060919405F3
:1015C000709195056F5F7F4F7093950560939405BB
:1015D000812F5CDF41E050E0612F86E995E0E5D4A2
:1015E00063DA81E001C080E00F900F90DF91CF912E
:1015F0001F910F91FF90EF90DF90CF900895CF92C1
:10160000DF92EF92FF920F931F93CF93DF931F927E
:101610001F92CDB7DEB7182F7B016A01FB018081D5
:101620008F3F51F481818F3F99F482818F3F81F404
:1016300083818F3F69F42AC081110AC0FB01818137
:10164000811106C08281811103C083818823F1F05A
:10165000C114D104D9F000E021E040E059E06DE38D
:1016600070E0CE010196C1DE89819A8103DAB7016B
:10167000812FEDDEB601812F1CDF44E050E0612FA9
:1016800086E995E092D410DA81E001C080E00F9005
:101690000F90DF91CF911F910F91FF90EF90DF900E
:1016A000CF9008950F931F93CF93DF931F921F92B4
:1016B000CDB7DEB7182F00E021E040E059E06DE340
:1016C00070E0CE01019691DE89819A81D3D948E0FC
:1016D00050E0612F86E995E068D4E6D90F900F902D
:1016E000DF91CF911F910F910895BF92CF92DF921A
:1016F000EF92FF920F931F93CF93DF9300D0CDB75C
:10170000DEB7B82E6B017A01413088E0580718F037
:10171000E12C98E0F92E00E021E040E059E06DE393
:1017200070E0CE01019661DE89819A81A3D96B2D8B
:1017300086E995E0C1D28C0163E070E08B2D8FDEED
:101740008B83B2D98B81873111F08C3131F40E94B7
:101750001D160E151F05F8F202C0E12CF12C00E059
:1017600021E040E059E06DE370E0CE0101963DDEFE
:1017700089819A817FD99701A6016B2D86E995E031
:101780004ED340E250E06B2D86E995E00ED48B2DD0
:101790006FDE84FD1CC063E070E08B2D60DE811184
:1017A00006C082D98B2DB7DE80E090E015C07CD9D1
:1017B0000E941D1600E021E040E059E06DE370E07A
:1017C000CE01019612DE89819A8154D9E0CF60E181
:1017D0008B2D6BDE69D9C7010F900F900F90DF91B1
:1017E000CF911F910F91FF90EF90DF90CF90BF901E
:1017F0000895AF92BF92CF92DF92EF92FF920F9334
:101800001F93CF93DF931F921F92CDB7DEB7182F90
:101810005B016A0100E021E040E059E06DE370E027
:10182000CE010196E2DD89819A8124D9612F86E972
:1018300095E072D27C01009799F463E070E0812F0B
:101840000EDE843109F18823F9F021E030E08C319B
:1018500011F420E030E0EE24FF24E21AF30A14C071
:10186000C816D9060CF476011E141F046CF400E0AF
:101870009701A501612F86E995E04CD340E450E043
:10188000612F86E995E091D30FD9C7010F900F9092
:10189000DF91CF911F910F91FF90EF90DF90CF904C
:1018A000BF90AF9008950F931F93CF93DF9300D015
:1018B0001F92CDB7DEB7182F00E021E040E059E0DD
:1018C0006DE370E0CE01019690DD89819A81D2D8D6
:1018D000612F86E995E020D28B839C83E5D88B81AC
:1018E0009C810F900F900F900F90DF91CF911F91DF
:1018F0000F910895EF92FF920F931F93CF93DF9371
:101900001F921F92CDB7DEB7182F7B0100E021E0B8
:1019100040E059E06DE370E0CE01019666DD89811B
:101920009A81A8D801E021E030E0A701612F86E983
:1019300095E0F0D2B9D881E090E00F900F90DF9160
:10194000CF911F910F91FF90EF90089508959F926E
:10195000AF92BF92CF92DF92EF92FF920F931F93BD
:10196000CF93DF931F921F92CDB7DEB7982E6B01F6
:101970005A01790100E021E040E059E06DE370E0B8
:10198000CE01019632DD89819A8174D8692D86E96C
:1019900095E092D18E159F0528F4692D86E995E092
:1019A0008BD17C0187019501A601692D86E995E01F
:1019B000CDD17AD8C7010F900F90DF91CF911F91B1
:1019C0000F91FF90EF90DF90CF90BF90AF909F90DE
:1019D0000895CF92DF92EF92FF920F931F93CF93D0
:1019E000DF931F921F92CDB7DEB7182F7B016A01DC
:1019F000FB018081811109C08181811106C0828132
:101A0000811103C083818823C9F0C114D104B1F0CE
:101A100000E021E040E059E06DE370E0CE01019686
:101A2000E4DC89819A8126D8B701812F10DDB601C7
:101A3000812F3FDD39D881E090E002C080E090E066
:101A40000F900F90DF91CF911F910F91FF90EF902A
:101A5000DF90CF9008950F931F93CF93DF931F9242
:101A60001F92CDB7DEB7182F00E021E040E059E02B
:101A70006DE370E0CE010196B8DC89819A810E9405
:101A80003A0540E250E0612F86E995E08ED2812F41
:101A9000EFDC84FD1DC0812FEBDC83FF07C068E114
:101AA000812F03DD01D880E090E019C00E94540529
:101AB0000E941D1600E021E040E059E06DE370E077
:101AC000CE01019692DC89819A810E943A05DFCF8E
:101AD00060E1812FEADC0E94540581E090E00F90E4
:101AE0000F90DF91CF911F910F9108958EBD00004F
:101AF0000DB407FEFDCF8EB508952C9808952C9A4D
:101B000008951F93CF93DF931F921F92CDB7DEB737
:101B1000182F6A839983F1DF80EFE8DF9981892F9D
:101B2000E5DF812FE3DF6A81862FE0DFE8DF81E0F8
:101B30000F900F90DF91CF911F910895CF93DF9376
:101B4000EC016CE271E080E090E00E9497160E9448
:101B50002F02249A80915E05882399F09FB7F8940C
:101B600080915E05813059F48DB380935C052DB36F
:101B700080915D05809582238DBB9FBF02C09093AD
:101B80005C0580E58CBD1DBC60E880E090E0B9DFBD
:101B900065E58BE190E0B5DF65E58AE190E0B1DFD6
:101BA00080915E05882361F09FB7F89420915E05CF
:101BB00080915C05213019F48DBB9FBF01C08FBFA0
:101BC00080E090E49983888380E090E69987888715
:101BD00080E098E49B838A8380E098E69B878A87ED
:101BE00080E090E59D838C8380E090E79D878C87E3
:101BF00080E098E59F838E8380E098E79F878E87BB
:101C0000DF91CF910895CF92DF92EF92FF920F93E1
:101C10001F93CF93DF93EC017A018B016C01C40E0B
:101C2000D51ECC15DD0571F068DF80EF5FDF8D2FED
:101C30005DDF8C2F5BDF2196F80181918F0156DFEC
:101C40005EDFEFCFC701DF91CF911F910F91FF9022
:101C5000EF90DF90CF9008951F93CF93DF931F9263
:101C6000CDB7DEB7182F998348DF8FE03FDF99812A
:101C7000892F3CDF812F3ADF80E038DF89833FDF27
:101C800089810F90DF91CF911F9108951F93CF937A
:101C9000DF93182F60E270E0E2DBC82FD0E061E252
:101CA00070E0812FDCDBDC2FCC279E01282BC901C3
:101CB000DF91CF911F910895FF920F931F93CF93C0
:101CC000DF93F62EC0E0D0E08F2DE0DF8C0100978F
:101CD00019F08F2DDBDFEC01C017D107A9F7CE017A
:101CE000DF91CF911F910F91FF9008951F93CF9394
:101CF000DF93182F66E270E0B2DBC82FD0E067E216
:101D000070E0812FACDBDC2FCC279E01282BC90192
:101D1000DF91CF911F910895FF920F931F93CF935F
:101D2000DF93F62EC0E0D0E08F2DE0DF8C0100972E
:101D300019F08F2DDBDFEC01C017D107A9F7CE0119
:101D4000DF91CF911F910F91FF9008956F927F9235
:101D50009F92AF92BF92CF92DF92EF92FF920F933A
:101D60001F93CF93DF931F92CDB7DEB7D82E962E59
:101D70003A01590164E270E0892D998370DBE82E05
:101D8000F12C65E270E0892D6ADBFE2CEE24E82A56
:101D9000E60CF71C970137706D2C9981792E690C30
:101DA000711C690C711CD301ED91FC91E20FF31FC2
:101DB000C901800F911F8130984098F0C12C48E0F4
:101DC000D42EC21AD30AA601B501CF011CDFA80187
:101DD0004C195D09B5016C0D7D1DF3018081918168
:101DE00003C0A801B501CF010EDFE00EF11E4F2D9B
:101DF00064E270E0892D3FDB4E2D65E270E0892DB5
:101E00000F90DF91CF911F910F91FF90EF90DF9096
:101E1000CF90BF90AF909F907F906F902CCB0F93FF
:101E20001F9389019A0140E050E090DF1F910F91CC
:101E30000895CF92DF92EF92FF920F931F93CF936B
:101E4000DF93EC017A018B016C01C40ED51ECC1519
:101E5000DD0579F052DE8FE049DE8D2F47DE8C2FD5
:101E600045DE219680E042DEF80181938F0147DE56
:101E7000EECFC701DF91CF911F910F91FF90EF90AF
:101E8000DF90CF900895AF92BF92CF92DF92EF9202
:101E9000FF920F931F93CF93DF931F921F92CDB7A3
:101EA000DEB75A8349835901E981FA81F7707C01D1
:101EB000E60EF11CE60EF11CD70118968D919C914F
:101EC00019978E0F9F1F98012E0F3F1F213038400A
:101ED00090F0C12C68E0D62ECE1ADF0AA601B5011B
:101EE000A8DFA8014C195D09B5016C0D7D1DF70136
:101EF0008085918502C0A801B5010F900F90DF91F8
:101F0000CF911F910F91FF90EF90DF90CF90BF90F6
:101F1000AF908FCF8F929F92AF92BF92CF92DF926E
:101F2000EF92FF920F931F93CF93DF936C01962E46
:101F30005A017901802E68E270E0892D90DAC82F6D
:101F4000D0E069E270E0892D8ADADC2FCC27C82B3B
:101F500087019501AE01692DC60195DF811018C07A
:101F6000CE0DDF1D4D2F68E270E0892D84DA4C2FF5
:101F700069E270E0892DDF91CF911F910F91FF9061
:101F8000EF90DF90CF90BF90AF909F908F9073CAEB
:101F9000DF91CF911F910F91FF90EF90DF90CF9045
:101FA000BF90AF909F908F900895CF93C62F61E020
:101FB00070E08C2F60DA61E070E08C2F50DA8111D4
:101FC000FACFCF910895CF92DF92EF92FF920F93C5
:101FD0001F93CF93DF93EC018B017AD66B017C01C9
:101FE00088819981DC01ED91FC910480F581E02DDF
:101FF0001995892B61F46CD66C197D098E099F099E
:1020000068397A438105910558F380E00CC08881D6
:102010009981DC01ED91FC910680F781E02D199505
:10202000F801808381E0DF91CF911F910F91FF90A4
:10203000EF90DF90CF9008950F931F93CF93DF938E
:10204000EA0108811981600F711FBDDF882331F01B
:102050000F5F1F4F1983088381E001C080E0DF918B
:10206000CF911F910F9108953F924F925F926F927F
:102070007F928F929F92AF92BF92CF92DF92EF9218
:10208000FF920F931F93CF93DF9300D0CDB7DEB7AE
:102090008C016B011A8219825C0122E0A20EB11C34
:1020A000AE014F5F5F4FB501C7DF811103C080E014
:1020B00090E0BBC0D80112969C901B82E12CF12CC1
:1020C000412C512C32014394BE016D5F7F4FC801FA
:1020D0007ADF882361F329813A81C90101969A83C5
:1020E00089836B81F801E20FF31F6283462F4F77DC
:1020F00050E0449D9001459D300D549D300D1124BC
:10210000E20EF31E97E0440C551C661C771C9A9552
:10211000D1F767FDD9CF292D207F33243394203385
:1021200009F0312C8150F6018083332031F1AE016A
:102130004F5F5F4FB501C8017FDF882309F4B7CF38
:10214000AE014F5F5F4FB501C80176DF882309F408
:10215000AECFD6018C91F801E80FF11D4380512CD0
:10216000542C44248481480E511CF801828181FF43
:1021700008C0F2E04F0E511C04C080E0412C512CED
:1021800001C082E0A82EB12C612C712C480123EFF4
:10219000821A2DEF920AC3018A0D9B1D8E159F0591
:1021A000A0F5BE016D5F7F4FC8010DDF882309F4E4
:1021B0007ECFD4018D919C910097A9F0332099F0A6
:1021C00029813A8122503109F6014081241B3109CD
:1021D0004216530640F4DC01ED91FC910190F08130
:1021E000E02D6B81199589819A81843FB1E09B072D
:1021F00028F42B81F801E80FF91F228301969A83B6
:102200008983EFEF6E1A7E0AC6CFF801E35FFD4FB8
:1022100080819181892B39F489819A81853F914010
:1022200010F01A82198289819A810F900F900F9075
:10223000DF91CF911F910F91FF90EF90DF90CF90A2
:10224000BF90AF909F908F907F906F905F904F90D6
:102250003F900895AF92BF92CF92DF92EF92FF929C
:102260000F931F93CF93DF9300D01F92CDB7DEB7AC
:102270007C01F90180E09E2F9F77EE0FEF2FEE1F7C
:10228000FF0BF195309709F09068A1E0B0E0AC0F3A
:10229000BD1FA80FB11D9C938F5F309761F7A82ECB
:1022A000B12CDA01AA19BB0914966C93BE016F5FB9
:1022B0007F4F80E090E04A195B098A159B0554F432
:1022C000FB01D190BF018A01080F191FF801D582C7
:1022D0000196F3CFF7018081918189010F5F1F4F34
:1022E0000A0D1B1DFC0120813181F90122813381FE
:1022F000A801BD01F90119956C01EAD4F701E85074
:10230000FE4F608371838283938381E0C016D10680
:1023100009F080E00F900F900F900F90DF91CF9118
:102320001F910F91FF90EF90DF90CF90BF90AF90F3
:102330000895C9010296DB01FD01E61BF70B2D9103
:10234000222331F0FA01E80FF91F20830196F4CF20
:102350009C012E1B3F0B240F351FD9011297FC93B4
:102360001196EC930895CF93DF93EC0188819981C6
:10237000009731F1DC01ED91FC910488F589E02DA5
:10238000199581111FC0FE01E15FFD4F8081918190
:10239000892BB1F48DEF9FEF9183808388819981A0
:1023A000DC01ED91FC910284F385E02D1995888183
:1023B0009981DC01ED91FC910288F389E02D19955A
:1023C00080E001C081E0DF91CF9108952F923F928C
:1023D0004F925F926F927F928F929F92AF92BF9235
:1023E000CF92EF92FF920F931F93CF93DF93CDB7CE
:1023F000DEB72C970FB6F894DEBF0FBECDBF4C01F1
:102400001B012A013901AFDF811112C1F401E75F1D
:10241000FD4F60817181D4018D919C911197A55FD1
:10242000BD4FFC01208131816115710541F04D9155
:102430005C91D9011E96ED91FC911F971FC0F90187
:102440000484F585E02DFC87EB87ED91FC912FE26C
:1024500033E03A832983D401AD5FBD4F12964D918D
:102460005D916D917C9115974B835C836D837E8329
:10247000AF01BE016F5F7F4FEB85FC851995892BFE
:1024800009F4CDC081E090E0F401EA50FE4F918361
:10249000808387E0E2E2F2E0DE01119601900D9286
:1024A0008A95E1F7FE01319680E090E02191D40118
:1024B000A80FB91F17962C93019687309105B1F795
:1024C0000115110559F0F0E2CF9EC001112486607C
:1024D00028E0E29E700111248E2901C082E041149F
:1024E000510431F06114710411F4806801C0806CF2
:1024F000D4011E968C931E971F961C921F978FE0F7
:1025000050968C937401B2E0EB0EF11C2FE030E09A
:10251000A701B101C4010DDF0115110551F09C01A6
:10252000A701B801C40105DF9C01A701B501C401E1
:1025300000DF4114510469F09C01A701B201C401FC
:10254000F8DE6114710429F09C01A701B301C401F4
:10255000F0DE9C0125503109A70160E1C4017ADE5B
:10256000B7D3F401E850FE4F608371838283938375
:10257000840104501E4FF80160837183828393832A
:10258000F40180819181DC01ED91FC910480F58161
:10259000E02D1995892BB9F49BD3D8014D905D900E
:1025A0006D907C90641975098609970968397A439A
:1025B0008105910528F3F401E15FFD4F8CEF9FEF5A
:1025C0009183808321C0BE01685F7F4FC4014CDDD1
:1025D0000497D1F4F40185819401215F3D4F790185
:1025E00081110EC075D3D8016D937D938D939C930B
:1025F0001397F401FE5F1082F7011182108218C058
:1026000090E0D9018D939C93F40180819181DC014C
:10261000ED91FC910288F389E02D199507C0F40132
:10262000E15FFD4F8EEF9FEF9183808380E001C0DB
:1026300081E02C960FB6F894DEBF0FBECDBFDF91C0
:10264000CF911F910F91FF90EF90CF90BF90AF90DF
:102650009F908F907F906F905F904F903F902F90C2
:102660000895AF92BF92CF92EF920F931F93A12C38
:10267000B12CC12CE12C00E010E020E030E040E083
:1026800050E0A4DE1F910F91EF90CF90BF90AF90DC
:1026900008952F923F924F925F926F927F928F9206
:1026A0009F92AF92BF92CF92DF92EF92FF920F93E1
:1026B0001F93CF93DF9300D01F92CDB7DEB78C016D
:1026C0004DB65EB650DE882309F440C101D36B01DC
:1026D0007C01580124E0A21A2EEFB20AF501808194
:1026E0009181A281B381A7019601281B390B4A0B66
:1026F0005B0BDA01C90189399A43A105B10590F450
:10270000349780819181A281B381A7019601281B12
:10271000390B4A0B5B0BDA01C90189399A43A105D0
:10272000B105B8F148014EEF941AD4012C91F8018B
:1027300080819181222371F0E15FFD4F2CEF3FEF0B
:1027400031832083DC01ED91FC910288F389E02D37
:102750001995FCC020ECF80122831382DC01ED9175
:10276000FC910280F381E02D42E050E0B8016E5F01
:102770007F4F1995F801E850FE4FC082D182E28266
:10278000F382F501C082D182E282F38281E0D4013A
:102790008C93F80180819181DC01ED91FC910480A2
:1027A000F581E02D1995892B09F4D2C0BE016F5F28
:1027B0007F4FC80159DCFC01009709F4C9C0D5015D
:1027C000CD92DD92ED92FC921397D80112968C91E6
:1027D000807F803309F0A0C04801BFEF8B1ABDEFA6
:1027E0009B0AD4018D919C91892B09F4B1C02DB61F
:1027F0003EB6698170E0D801A60FB71F13964C91C1
:10280000139750E0542F442714968C911497480F37
:10281000511DCA0101962DB73EB7281B390B0FB6C3
:10282000F8943EBF0FBE2DBF8DB79EB701965C01D9
:1028300020E030E0BC83AB832417350769F06B8060
:102840007C80620E731ED30115966C90D5016D923B
:102850005D012F5F3F4FF0CFDC01A20FB31F1C9231
:10286000D8011296BC91B670BA83B230E9F539013D
:10287000660E771ED801A60DB71D1596AC9015975C
:10288000B12CBA2CAA2416964C91A40EB11C4BEF75
:102890005FEF461B570B421B530B4E0F5F1FB301DD
:1028A000695F7F4F600F711FD401ED91FC91199505
:1028B00080E4F80182837A807382B482A582D80191
:1028C0008D919D91BD01DC01ED91FC910280F38120
:1028D000E02D44E050E01995F801E850FE4FC08229
:1028E000D182E282F38212C04DEF5FEF461B570B9D
:1028F000421B530B4E0F5F1F620F731F6B5F7F4FA7
:10290000600F711FD401ED91FC9119950FB6F894E9
:102910003EBE0FBE2DBE1CC0803C91F480EDF80180
:1029200082831382D8018D919D91BD01DC01ED91CF
:10293000FC910280F381E02D42E050E0199508C03F
:10294000803D31F4F801FE5F108202C080E001C0DA
:1029500081E00FB6F8945EBE0FBE4DBE0F900F9093
:102960000F900F90DF91CF911F910F91FF90EF90FB
:10297000DF90CF90BF90AF909F908F907F906F909F
:102980005F904F903F902F9008958F929F92BF92AB
:10299000CF92DF92EF92FF920F931F93CF93DF932B
:1029A0001F921F92CDB7DEB74C01B42E152F7901BF
:1029B00069837A83D8DC69817A81882309F444C0E9
:1029C000FB0101900020E9F73197E61BF70BC701E7
:1029D00007968E0F9F1F853F9140B0F5640182E0FE
:1029E000C80ED11C25E030E0A601C401A2DCEB2D0D
:1029F000F12F60E070E09401280F391F6E157F05FC
:102A000049F04191D901A60FB71F12964C936F5F01
:102A10007F4FF4CF011102C060E301C061E3970171
:102A200025503109280F391FA601C4010F900F90BE
:102A3000DF91CF911F910F91FF90EF90DF90CF909A
:102A4000BF909F908F9006CC80E00F900F90DF9109
:102A5000CF911F910F91FF90EF90DF90CF90BF909B
:102A60009F908F9008950F93FA0101900020E9F74D
:102A70009F0121503109241B350B00E086DF0F91A7
:102A80000895CF92DF92FF920F931F93CF93DF931E
:102A90001F921F92CDB7DEB76C01F42E81E0841730
:102AA00008F43EC0FB0101900020E9F7E61BF70B9C
:102AB0003896E53FF140A0F5C60169837A8353DC7F
:102AC00069817A81882361F1F601EA50FE4F8081A5
:102AD0009181019611F481E090E09183808380815F
:102AE0009181F6019783808786010E5F1F4F27E053
:102AF00030E0A801C6011DDCF601E80FF91FF282E3
:102B00009C0124503109A80162E8C6010F900F9082
:102B1000DF91CF911F910F91FF90DF90CF909ACBD3
:102B200080E00F900F90DF91CF911F910F91FF9058
:102B3000DF90CF90089540E0A4CFCF92DF92EF9244
:102B4000FF920F931F93CF93DF93CDB7DEB72C97F0
:102B50000FB6F894DEBF0FBECDBF7C01FB016A014A
:102B60000381228141816081CE01079683D409854A
:102B70001A852B853C85F701ED5FFD4F028313839A
:102B8000248335833896D182C08232971182108295
:102B9000C7012C960FB6F894DEBF0FBECDBFDF91F4
:102BA000CF911F910F91FF90EF90DF90CF900895FC
:102BB000CF92DF92EF92FF920F931F93CF93DF9309
:102BC00000D01F92CDB7DEB76C0179018D5F9D4FAC
:102BD0004B835C8369837A8343D4F601E15FFD4FC5
:102BE0008FEF9FEF918380834B815C8169817A8134
:102BF000C601A3DFF601EF5FFD4FF182E082F6012F
:102C000011830083E35FFD4F118210820F900F90BC
:102C10000F900F90DF91CF911F910F91FF90EF9048
:102C2000DF90CF9008950F9300E020E040E060E057
:102C300086EA95E01FD40F91089508951F920F9290
:102C40000FB60F9211242F933F938F939F93AF93BF
:102C5000BF938091AD059091AE05A091AF05B09165
:102C6000B0053091AC0523E0230F2D3720F40196F9
:102C7000A11DB11D05C026E8230F0296A11DB11D9F
:102C80002093AC058093AD059093AE05A093AF055E
:102C9000B093B0058091B1059091B205A091B305B4
:102CA000B091B4050196A11DB11D8093B10590931B
:102CB000B205A093B305B093B405BF91AF919F91B6
:102CC0008F913F912F910F900FBE0F901F901895ED
:102CD0002FB7F8946091AD057091AE058091AF0566
:102CE0009091B0052FBF08953FB7F8948091B1053A
:102CF0009091B205A091B305B091B40526B5A89BFB
:102D000005C02F3F19F00196A11DB11D3FBF6627D9
:102D1000782F892F9A2F620F711D811D911D42E01E
:102D2000660F771F881F991F4A95D1F70895CF9294
:102D3000DF92EF92FF92CF93DF936B017C01D4DFA0
:102D4000EB01C114D104E104F10479F076DFCCDFAA
:102D50006C1B7D0B683E7340A0F381E0C81AD1085C
:102D6000E108F108C851DC4FECCFDF91CF91FF9023
:102D7000EF90DF90CF900895789484B5826084BD01
:102D800084B5816084BD85B5826085BD85B581606F
:102D900085BDEEE6F0E0808181608083E1E8F0E0CF
:102DA0001082808182608083808181608083E0E8FE
:102DB000F0E0808181608083E1EBF0E080818460DD
:102DC0008083E0EBF0E0808181608083E1E9F0E0E6
:102DD000808182608083808181608083E0E9F0E08F
:102DE000808181608083E1EAF0E08081826080837D
:102DF000808181608083E0EAF0E08081816080836F
:102E0000E1E2F1E080818260808380818160808363
:102E1000E0E2F1E0808181608083EAE7F0E0808198
:102E200084608083808182608083808181608083F0
:102E30008081806880831092C100089590E0FC0139
:102E40003197E231F10508F04BC0EE58FF4FE2C474
:102E5000809180008F7703C0809180008F7D809368
:102E60008000089580918000877FF9CF84B58F77A7
:102E700002C084B58F7D84BD08958091B0008F77A6
:102E800003C08091B0008F7D8093B0000895809141
:102E900090008F7707C0809190008F7D03C0809154
:102EA0009000877F8093900008958091A0008F7795
:102EB00007C08091A0008F7D03C08091A000877F14
:102EC0008093A0000895809120018F7707C08091A2
:102ED00020018F7D03C080912001877F8093200196
:102EE0000895CF93DF9390E0FC01E25BFE4F2491C5
:102EF000FC01EC56FE4F8491882349F190E0880F45
:102F0000991FFC01EC50FE4FA591B49186529E4F43
:102F1000FC01C591D4919FB7611108C0F8948C91C0
:102F2000209582238C93888182230AC0623051F4D9
:102F3000F8948C91322F309583238C938881822B47
:102F4000888304C0F8948C91822B8C939FBFDF916F
:102F5000CF9108950F931F93CF93DF931F92CDB717
:102F6000DEB7282F30E0F901E85FFE4F8491F901C8
:102F7000E25BFE4F1491F901EC56FE4F04910023E1
:102F8000C1F0882319F0698359DF6981E02FF0E0EF
:102F9000EE0FFF1FE652FE4FA591B4919FB7F89434
:102FA0008C91611103C01095812301C0812B8C93FA
:102FB0009FBF0F90DF91CF911F910F910895FC015A
:102FC000818D228D90E0805C9F4F821B91098F73D1
:102FD00099270895FC01918D828D981731F0828D8B
:102FE000E80FF11D858D90E008958FEF9FEF089514
:102FF000FC01918D828D981761F0828DDF01A80F01
:10300000B11D5D968C91928D9F5F9F73928F90E022
:1030100008958FEF9FEF08958DEA99E1892B39F09C
:1030200080E090E0892B19F098D1811125C080E0D3
:1030300090E0892B41F080E090E0892B21F00E9404
:10304000000081111CC080E090E0892B41F080E0FD
:1030500090E0892B21F00E940000811113C080E0D4
:1030600090E0892BA1F080E090E0892B81F00E9414
:10307000000081110AC008950E940000D8CF0E946C
:103080000000E1CF0E940000EACF0C9400000895F8
:10309000FC01848DDF01A80FB11DA35ABF4F2C91F5
:1030A000848D90E001968F739927848FA689B789C4
:1030B0002C93A089B1898C9180648C93938D848D9D
:1030C000981306C00288F389E02D80818F7D80836C
:1030D0000895CF93DF93EC01888D8823C1F0EA89AE
:1030E000FB89808185FD05C0A889B9898C9186FD01
:1030F0000EC00FB607FCF5CF808185FFF2CFA889FF
:10310000B9898C9185FFEDCFCE01C2DFE8CFDF9189
:10311000CF910895CF92DF92FF920F931F93CF9399
:10312000DF931F92CDB7DEB76C01DC015B969C91FB
:103130005B975C968C915C97981307C05096ED91C5
:10314000FC915197808185FD31C0F601038D10E01F
:103150000F5F1F4F0F731127F02EF601848DF812A9
:1031600010C00FB607FCF9CFD6015096ED91FC9137
:103170005197808185FFF1CFC601698389DF69811D
:10318000ECCF838DE80FF11DE35AFF4F6083D6012A
:103190005B960C935B975296ED91FC9153978081CF
:1031A0008062808381E058968C930DC0D60156963C
:1031B000ED91FC91579760835096ED91FC9151975A
:1031C00080818064808381E090E00F90DF91CF91D7
:1031D0001F910F91FF90DF90CF900895BF92CF92F3
:1031E000DF92EF92FF92CF93DF93EC016A017B01B4
:1031F000B22EE889F98982E08083411581EE580773
:103200006105710599F060E079E08DE390E0A70138
:103210009601DED221503109410951095695479551
:1032200037952795211580E1380790F0E889F989CD
:10323000108260E874E88EE190E0A7019601C8D2A0
:1032400021503109410951095695479537952795E0
:10325000EC85FD853083EE85FF852083188EEC8913
:10326000FD89B082EA89FB89808180618083EA8957
:10327000FB89808188608083EA89FB8980818068FE
:103280008083EA89FB8980818F7D8083DF91CF9164
:10329000FF90EF90DF90CF90BF9008951F920F9214
:1032A0000FB60F9211240BB60F922F938F939F930B
:1032B000EF93FF93E091C505F091C6058081E09101
:1032C000CB05F091CC0582FD12C090818091CE0596
:1032D0008F5F8F732091CF05821751F0E091CE055B
:1032E000F0E0EB54FA4F958F8093CE0501C08081BA
:1032F000FF91EF919F918F912F910F900BBE0F90A7
:103300000FBE0F901F9018951F920F920FB60F923D
:1033100011240BB60F922F933F934F935F936F93AC
:103320007F938F939F93AF93BF93EF93FF9385EB1F
:1033300095E0AEDEFF91EF91BF91AF919F918F919C
:103340007F916F915F914F913F912F910F900BBEA5
:103350000F900FBE0F901F90189585EB95E02FDE14
:1033600021E0892B09F420E0822F08951092B805FE
:103370001092B70588EE93E0A0E0B0E08093B90525
:103380009093BA05A093BB05B093BC058FE193E081
:103390009093B6058093B50585EC90E09093C205B7
:1033A0008093C10584EC90E09093C4058093C3059D
:1033B00080EC90E09093C6058093C50581EC90E089
:1033C0009093C8058093C70582EC90E09093CA055E
:1033D0008093C90586EC90E09093CC058093CB0553
:1033E0001092CE051092CF051092D0051092D10503
:1033F0000895AF92BF92CF92DF92EF92FF920F9318
:103400001F93CF93DF936C017B01C0E0D0E000E01D
:1034100010E0F601EC0FFD1F4AE050E06281C701A9
:1034200055D15C016EE2C701B5D08A0D9B1D080F16
:10343000191F2196C330D10561F74AE050E0F6012B
:103440006581C70143D1800F911FDF91CF911F91FB
:103450000F91FF90EF90DF90CF90BF90AF900895C5
:103460002FE233E0FC013183208312821382148225
:10347000158208950F93FC018FE293E0918380837E
:1034800062834383248305830F9108952FE233E001
:10349000FC0131832083FB01408151816281738172
:1034A000FC0142835383648375830895FB0140814B
:1034B000518162817381FC014283538364837583EC
:1034C00008958FE293E090935306809352061092F2
:1034D00054061092550610925606109257060895FB
:1034E00008954ADCFDDF0E948001CCE0D8E10E9413
:1034F000C6012097E1F390DDFACFCF92DF92EF92F1
:10350000FF920F931F93CF93DF936C017A01EB012E
:10351000E60EF71E00E010E0CE15DF0561F06991C0
:10352000D601ED91FC910190F081E02DC601199535
:10353000080F191FF1CFC801DF91CF911F910F9193
:10354000FF90EF90DF90CF9008956115710581F0A5
:10355000DB010D900020E9F7AD0141505109461BF8
:10356000570BDC01ED91FC910280F381E02D199461
:1035700080E090E00895DC01ED91FC91DB01149670
:103580004D915C9115976D917C910280F381E02DB6
:103590001994DBCFDC01ED91FC910190F081E02DDD
:1035A00019940F931F93CF93DF93EC016DE0F2DF3B
:1035B0008C016AE0CE01EEDF800F911FDF91CF9189
:1035C0001F910F9108950F931F93CF93DF93EC01F9
:1035D000D2DF8C01CE01E5DF800F911FDF91CF910B
:1035E0001F910F9108950F931F93CF93DF93EC01D9
:1035F000ACDF8C01CE01D5DF800F911FDF91CF9121
:103600001F910F9108958F929F92AF92BF92CF9288
:10361000DF92EF92FF920F931F93CF93DF93CDB77B
:10362000DEB7A1970FB6F894DEBF0FBECDBF7C0109
:10363000C42EE52FCB01D22E19A221E02D1510F0BA
:103640002AE0D22E8E010F5D1F4F8D2C912CA12CC4
:10365000B12C6C2D7E2FA5019401BAD08C2DD29E59
:1036600080191124015011098A3014F4805D01C0C1
:10367000895CF8018083211531054105510521F050
:10368000C22EE32FCA01E5CFB801C7015EDFA196C4
:103690000FB6F894DEBF0FBECDBFDF91CF911F9163
:1036A0000F91FF90EF90DF90CF90BF90AF909F90E1
:1036B0008F9008952115310541F4DC01ED91FC91C5
:1036C0000190F081E02D642F19949DCF9A01462F2F
:1036D00050E060E070E0EECFFC01808191813CC160
:1036E000CF93DF93EC0188819981009709F034D161
:1036F000198218821D821C821B821A82DF91CF914F
:1037000008950F931F93CF93DF93EC018B016F5FAD
:103710007F4F88819981AFD1009731F09983888359
:103720001B830A8381E001C080E0DF91CF911F916C
:103730000F910895CF93DF93EC0188819981892BB4
:1037400029F08A819B818617970758F4CE01D9DF2B
:10375000882341F08C819D81892B19F4E881F981BE
:10376000108281E0DF91CF910895EF92FF920F9345
:103770001F93CF93DF93EC017B018A01BA01DADF5B
:10378000811103C0CE01ACDF06C01D830C83B701DD
:10379000888199815DD2CE01DF91CF911F910F91E8
:1037A000FF90EF900895FC01118210821382128223
:1037B000158214826115710551F0FB010190002002
:1037C000E9F7AF0141505109461B570BCECF089581
:1037D000A1E21A2EAA1BBB1BFD010DC0AA1FBB1F15
:1037E000EE1FFF1FA217B307E407F50720F0A21B87
:1037F000B30BE40BF50B661F771F881F991F1A94F4
:1038000069F760957095809590959B01AC01BD011D
:10381000CF010895EE0FFF1F0590F491E02D19944C
:103820000790F691E02D1994CF93DF9382309105A4
:1038300010F482E090E0E0915A06F0915B0620E0FF
:1038400030E0A0E0B0E0309739F140815181481775
:103850005907B8F04817590771F48281938110977E
:1038600029F013969C938E9312972CC090935B062D
:1038700080935A0627C02115310531F042175307AE
:1038800018F0A901DB0101C0EF019A01BD01DF01C0
:103890000280F381E02DD7CF21153105F9F0281BE7
:1038A000390B2430310580F48A819B8161157105C3
:1038B00021F0FB019383828304C090935B06809385
:1038C0005A06FE01329644C0FE01E20FF31F8193B7
:1038D000919322503109398328833AC020915806A8
:1038E00030915906232B41F42091020230910302BA
:1038F000309359062093580620910002309101021E
:103900002115310541F42DB73EB740910402509185
:103910000502241B350BE0915806F0915906E21779
:10392000F307A0F42E1B3F0B2817390778F0AC01E2
:103930004E5F5F4F2417350748F04E0F5F1F5093BF
:103940005906409358068193919302C0E0E0F0E05D
:10395000CF01DF91CF910895CF93DF93009709F4C2
:1039600087C0FC01329713821282C0915A06D0910F
:103970005B06209781F420813181280F391F8091C7
:103980005806909159068217930779F5F0935906D6
:10399000E09358066DC0DE0120E030E0AE17BF07AF
:1039A00050F412964D915C9113979D01411551056C
:1039B00009F1DA01F3CFB383A28340815181840FEF
:1039C000951F8A179B0771F48D919C911197840F15
:1039D000951F02969183808312968D919C911397E7
:1039E000938382832115310529F4F0935B06E093DC
:1039F0005A063EC0D9011396FC93EE9312974D914F
:103A00005D91A40FB51FEA17FB0779F480819181BE
:103A1000840F951F0296D90111969C938E938281F3
:103A2000938113969C938E931297E0E0F0E08A8145
:103A30009B81009719F0FE01EC01F9CFCE010296AF
:103A400028813981820F931F2091580630915906A1
:103A50002817390769F4309729F410925B06109201
:103A60005A0602C013821282D0935906C093580698
:103A7000DF91CF9108956F927F928F929F92AF9234
:103A8000BF92CF92DF92EF92FF920F931F93CF934B
:103A9000DF93EC01CB01209779F4DF91CF911F9157
:103AA0000F91FF90EF90DF90CF90BF90AF909F90DD
:103AB0008F907F906F90B8CEFE01E60FF71F9E01AA
:103AC00022503109E217F30708F4A8C0D9010D917B
:103AD0001C91119706171707B0F00530110508F46F
:103AE0009BC0A801445051094617570708F494C0D9
:103AF00002501109061B170B019311936D937C93D0
:103B0000CF012ADF89C05B01A01AB10A4E01800EE5
:103B1000911EA0915A06B0915B06612C712C60E059
:103B200070E0109709F449C0A815B905C9F5ED90E2
:103B3000FC901197670142E0C40ED11CCA14DB044B
:103B400078F147018A189B08640142E0C40ED11C39
:103B50001296BC9012971396AC91B5E0CB16D10497
:103B600040F0B282A38391828082D9018D939C938D
:103B700009C00E5F1F4F0E0D1F1DF9011183008339
:103B8000EB2DFA2F6115710531F0DB011396FC93D3
:103B9000EE93129741C0F0935B06E0935A063CC047
:103BA0006D917C9111976616770608F43B01BD0173
:103BB00012960D90BC91A02DB4CF609158067091D3
:103BC000590668157905E9F468167906D0F440912C
:103BD0000002509101024115510541F44DB75EB705
:103BE0006091040270910502461B570BE417F5071C
:103BF000A8F4F0935906E0935806F9019183808365
:103C00000BC012DE7C01009749F0A801BE0117D05D
:103C1000CE01A2DEC70104C0CE0102C080E090E068
:103C2000DF91CF911F910F91FF90EF90DF90CF9098
:103C3000BF90AF909F908F907F906F900895FB0101
:103C4000DC0102C001900D9241505040D8F7089518
:103C5000FB01DC0101900D920020E1F7089512E0D4
:103C6000C2E2D2E000E005C022970109FE010BBFCD
:103C7000D7DDC432D10780E00807B1F7F894FFCF51
:103C800000005C06800001000000C0A80301FFFFE7
:103C9000FF00C0A80322C0A8030EDEADBEFF06EDE4
:103CA00000C000044D515454044D65737361676541
:103CB0002061727269766564205B005D20006D7919
:103CC000537472696E673A0045746865726E657404
:103CD00020426567696E00547279696E6720746F5F
:103CE00020636F6E6E65637420636C69656E74200B
:103CF000746F207365727665722E2E2E004D795F7B
:103D000061726475696E6F436C69656E7400436CB3
:103D100069656E7420436F6E6E65637465642121FE
:103D20000053656E74204461746120746F20427288
:103D30006F6B65720048656C6C6F2C576F726C64AA
:103D400021006F7574546F70696300696E546F70F1
:103D50006963000000000062068B06A406AC06C87A
:103D600006EA066007ED06C506B807F507780653AC
:103D700006560680065806000000004D08930849C4
:103D800008A608EA086308020975088908900990DE
:103D9000082D09CE082E0835084508000000008AC5
:103DA000187D1ADF17F817EA17691800000000F9E4
:023DB0001900F8
:00000001FF
