:1000000074C00000A1C000009FC000009DC000009F
:100010009BC0000099C0000097C0000095C0000080
:1000200093C0000091C000008FC000008DC0000090
:100030008BC0000089C0000087C0000085C00000A0
:1000400083C0000081C000007FC000007DC00000B0
:100050007BC0000079C0000077C00000FBC6000034
:1000600073C0000037C300006BC300006DC0000008
:100070006BC0000069C0000067C0000065C00000E0
:1000800063C0000061C000005FC000005DC00000F0
:100090005BC0000059C0000057C0000055C0000000
:1000A00053C0000051C000004FC000004DC0000010
:1000B0004BC0000049C0000047C0000045C0000020
:1000C00043C0000041C000003FC000003DC0000030
:1000D0003BC0000039C0000037C0000035C0000040
:1000E00033C000003B01D203D30111241FBECFEF68
:1000F000D1E2DEBFCDBF00E00CBF12E0A0E0B2E075
:10010000E4E1F5E100E00BBF02C007900D92A633D9
:10011000B107D9F723E0A6E3B2E001C01D92A833EE
:10012000B207E1F710E0C8EED0E000E005C022978A
:100130000109FE010BBF72D7C43ED10780E008075A
:10014000B1F774D30C94790A5BCF26E040E855E20E
:1001500060E070E08EE892E05DD280EF84B985B116
:10016000866085B90895AF92BF92CF92DF92EF92E9
:10017000FF920F931F93CF93DF93CDB7DEB72C97EA
:100180000FB6F894DEBF0FBECDBFB6B08BE6C82E5B
:1001900082E0D82E0CE612E0E12CF12CF8013A971F
:1001A00080818B21AA24A394811101C0A12CF60186
:1001B000A082F8018081A81609F43BC0AA20D1F0E2
:1001C0004AE0B701CE010796C8D56EE072E0CE01D5
:1001D00001967BD5BE01695F7F4FCE01019611D696
:1001E000BC018EE892E091D3CE01019607D5CE01F5
:1001F000079604D56A2D70E04AE0CE010796ADD58A
:10020000B80169507109CE01019689D5BE01695FB7
:100210007F4FCE010196F5D56BE172E003D6BC01AC
:100220008EE892E072D3CE010196E8D4CE01079613
:10023000E5D4F6018081F8018083FFEFEF1AFF0A11
:100240008BE0C80ED11C055F1F4FE4E0EE16F104F1
:1002500009F0A4CF2C960FB6F894DEBF0FBECDBF29
:10026000DF91CF911F910F91FF90EF90DF90CF9092
:10027000BF90AF9008951F93CF93DF93D1E0D093B9
:1002800062026AE172E083E692E01FD580910D027E
:100290008093690210926A0210926B0210926C02B3
:1002A000C2E0C0936D026AE172E08EE692E00DD585
:1002B00080910C0280937402D093750210927602A2
:1002C0001092770284E0809378026AE172E089E715
:1002D00092E0FBD480910B0280937F02C093800256
:1002E000109281021092820288E0809383026AE178
:1002F00072E084E892E0E9D480910A0280938A0255
:1003000013E010938B0210928C0210928D0280E108
:10031000809336026AE172E087E392E0D6D480915E
:10032000090280933D0210923E0210923F02109209
:10033000400280E2809341026AE172E082E492E04E
:10034000C4D48091080280934802D093490210924D
:100350004A0210924B0280E480934C026AE172E000
:100360008DE492E0B2D48091070280935302C0934F
:100370005402109255021092560280E88093570260
:100380006AE172E088E592E0A0D480910602809351
:100390005E0210935F021092600210926102DF9180
:1003A000CF911F91089588E592E028D48DE492E0E2
:1003B00025D482E492E022D487E392E01FD484E83B
:1003C00092E01CD489E792E019D48EE692E016D42C
:1003D00083E692E013C4C7DE8EE892E00CD01816D4
:1003E000190644F48EE892E007D44AE050E08EE823
:1003F00092E039C30895FC01818D228D90E0805CEC
:100400009F4F821B91098F7399270895FC01918D4D
:10041000828D981731F0828DE80FF11D858D90E067
:1004200008958FEF9FEF0895FC01918D828D9817AD
:1004300061F0828DDF01A80FB11D5D968C91928DC8
:100440009F5F9F73928F90E008958FEF9FEF0895C5
:1004500089EC93E0892B39F080E090E0892B19F04A
:1004600098D1811125C080E090E0892B41F080E097
:1004700090E0892B21F00E94000081111CC080E0D7
:1004800090E0892B41F080E090E0892B21F00E94E0
:100490000000811113C080E090E0892BA1F080E082
:1004A00090E0892B81F00E94000081110AC008951C
:1004B0000E940000D8CF0E940000E1CF0E940000FF
:1004C000EACF0C9400000895FC01848DDF01A80F91
:1004D000B11DA35ABF4F2C91848D90E001968F736C
:1004E0009927848FA689B7892C93A089B1898C918B
:1004F00080648C93938D848D981306C00288F38951
:10050000E02D80818F7D80830895CF93DF93EC0170
:10051000888D8823C1F0EA89FB89808185FD05C02B
:10052000A889B9898C9186FD0EC00FB607FCF5CF5E
:10053000808185FFF2CFA889B9898C9185FFEDCFA5
:10054000CE01C2DFE8CFDF91CF910895CF92DF9245
:10055000FF920F931F93CF93DF931F92CDB7DEB718
:100560006C01DC015B969C915B975C968C915C972F
:10057000981307C05096ED91FC915197808185FDAD
:1005800031C0F601038D10E00F5F1F4F0F7311276D
:10059000F02EF601848DF81210C00FB607FCF9CFCB
:1005A000D6015096ED91FC915197808185FFF1CF56
:1005B000C601698389DF6981ECCF838DE80FF11D66
:1005C000E35AFF4F6083D6015B960C935B9752967C
:1005D000ED91FC91539780818062808381E05896F1
:1005E0008C930DC0D6015696ED91FC915797608380
:1005F0005096ED91FC91519780818064808381E0D9
:1006000090E00F90DF91CF911F910F91FF90DF90BD
:10061000CF900895BF92CF92DF92EF92FF92CF9347
:10062000DF93EC016A017B01B22EE889F98982E04F
:100630008083411581EE58076105710599F060E0EE
:1006400079E08DE390E0A7019601BCD421503109F7
:10065000410951095695479537952795211580E110
:10066000380790F0E889F989108260E874E88EE133
:1006700090E0A7019601A6D4215031094109510902
:100680005695479537952795EC85FD853083EE8502
:10069000FF852083188EEC89FD89B082EA89FB8969
:1006A000808180618083EA89FB8980818860808382
:1006B000EA89FB89808180688083EA89FB8980815F
:1006C0008F7D8083DF91CF91FF90EF90DF90CF906F
:1006D000BF9008951F920F920FB60F9211240BB680
:1006E0000F922F938F939F93EF93FF93E0919E022E
:1006F000F0919F028081E091A402F091A50282FD19
:1007000012C090818091A7028F5F8F732091A80201
:10071000821751F0E091A702F0E0E257FD4F958F6C
:100720008093A70201C08081FF91EF919F918F91EB
:100730002F910F900BBE0F900FBE0F901F9018952A
:100740001F920F920FB60F9211240BB60F922F9398
:100750003F934F935F936F937F938F939F93AF9349
:10076000BF93EF93FF938EE892E0AEDEFF91EF919F
:10077000BF91AF919F918F917F916F915F914F91B9
:100780003F912F910F900BBE0F900FBE0F901F90B7
:1007900018958EE892E02FDE21E0892B09F420E005
:1007A000822F0895109291021092900288EE93E0A9
:1007B000A0E0B0E08093920290939302A093940201
:1007C000B093950289E292E090938F0280938E021B
:1007D00085EC90E090939B0280939A0284EC90E0E9
:1007E00090939D0280939C0280EC90E090939F02F6
:1007F00080939E0281EC90E09093A1028093A002EE
:1008000082EC90E09093A3028093A20286EC90E0A9
:100810009093A5028093A4021092A7021092A802BE
:100820001092A9021092AA020895089569D3FDDFDB
:100830008CDCC8E2D2E0CFDD2097E9F309DEFBCF04
:10084000CF92DF92EF92FF920F931F93CF93DF939C
:100850006C017A01EB01E60EF71E00E010E0CE1508
:10086000DF0561F06991D601ED91FC910190F08175
:10087000E02DC6011995080F191FF1CFC801DF91AE
:10088000CF911F910F91FF90EF90DF90CF9008953F
:100890006115710581F0DB010D900020E9F7AD01D4
:1008A00041505109461B570BDC01ED91FC91028030
:1008B000F381E02D199480E090E00895DC01ED9142
:1008C000FC91DB0114964D915C9115976D917C9193
:1008D0000280F381E02D1994DC01ED91FC910190EF
:1008E000F081E02D19940F931F93CF93DF93EC01C8
:1008F0006DE0F2DF8C016AE0CE01EEDF800F911F28
:10090000DF91CF911F910F9108950F931F93CF9374
:10091000DF93EC01D3DF8C01CE01E5DF800F911F67
:10092000DF91CF911F910F9108958F929F92AF9277
:10093000BF92CF92DF92EF92FF920F931F93CF93CC
:10094000DF93CDB7DEB7A1970FB6F894DEBF0FBE29
:10095000CDBF7C01C42EE52FCB01D22E19A221E000
:100960002D1510F02AE0D22E8E010F5D1F4F8D2C19
:10097000912CA12CB12C6C2D7E2FA501940122D39A
:100980008C2DD29E80191124015011098A3014F443
:10099000805D01C0895CF801808321153105410526
:1009A000510521F0C22EE32FCA01E5CFB801C701DE
:1009B0006FDFA1960FB6F894DEBF0FBECDBFDF91FB
:1009C000CF911F910F91FF90EF90DF90CF90BF904C
:1009D000AF909F908F900895CF92DF92EF92FF9209
:1009E0000F931F93CF93DF93EC016A017B012115D5
:1009F000310579F4E881F9810190F081E02D642FCF
:100A0000DF91CF911F910F91FF90EF90DF90CF90EA
:100A100019942A303105D9F477FF18C06DE25CDFF4
:100A20008C0144275527BA014C195D096E097F09CD
:100A30002AE0CE017ADF800F911FDF91CF911F91C5
:100A40000F91FF90EF90DF90CF9008952AE0B701CB
:100A5000A601CE01DF91CF911F910F91FF90EF90F2
:100A6000DF90CF9062CF0F931F93CF93DF93EC0172
:100A70009A01AB01662757FD6095762FADDF8C019B
:100A8000CE0131DF800F911FDF91CF911F910F9128
:100A900008950F931F93CF93DF93EC0125D26887BE
:100AA00079878A879B87E881F9810084F185E02D29
:100AB000CE01199597FF14C017D2088519852A858C
:100AC0003B85601B710B820B930B0C811D812E816A
:100AD0003F81601771078207930728F38FEF9FEF1D
:100AE000DF91CF911F910F910895CF93DF93EC0188
:100AF000CE01CFDF97FD11C08D32910571F09C01C1
:100B0000205331092A30310540F0E881F98106800F
:100B1000F781E02DCE011995EBCFDF91CF910895AC
:100B2000CF92DF92FF920F931F93CF93DF9300D06A
:100B30001F92CDB7DEB76C01062FD7DFFC0197FD02
:100B400049C020E030E0A901F12C112707FD1095E4
:100B5000E017F107E1F0ED32F105B9F0CF01C097F0
:100B60000A97A8F4AAE0B0E04FD29B01AC01CF01F4
:100B7000AA2797FDA095BA2F280F391F4A1F5B1F80
:100B8000205331094109510902C0FF24F394D601D1
:100B9000ED91FC910680F781E02DC60129833A830F
:100BA0004B835C831995C60174DFFC01C0972981D2
:100BB0003A814B815C810A9758F2E017F10741F2C4
:100BC000FF2061F066277727CB01621B730B840B34
:100BD000950B06C060E070E0CB0102C0CA01B9010C
:100BE0000F900F900F900F90DF91CF911F910F9169
:100BF000FF90DF90CF90089561E092CFFC0180815B
:100C00009181B7C2CF93DF93EC01888199810097DE
:100C100009F0AFD2198218821D821C821B821A82AF
:100C2000DF91CF9108950F931F93CF93DF93EC0142
:100C30008B016F5F7F4F888199812AD3009731F0B4
:100C4000998388831B830A8381E001C080E0DF9160
:100C5000CF911F910F910895CF93DF93EC0188817D
:100C60009981892B29F08A819B818617970758F4EF
:100C7000CE01D9DF882341F08C819D81892B19F425
:100C8000E881F981108281E0DF91CF910895EF92A0
:100C9000FF920F931F93CF93DF93EC017B018A01A7
:100CA000BA01DADF811103C0CE01ACDF06C01D83BB
:100CB0000C83B70188819981D8D3CE01DF91CF9180
:100CC0001F910F91FF90EF900895FC011182108207
:100CD00013821282158214826115710551F0FB0195
:100CE00001900020E9F7AF0141505109461B570B15
:100CF000CECF0895CF93DF93EC01FB0186179707C2
:100D000051F0608171816115710521F04481558137
:100D1000BEDF01C077DFCE01DF91CF910895FC01E6
:100D2000118210821382128215821482E3CFCF9334
:100D3000DF93EC016115710559F0FB010190002072
:100D4000E9F7AF0141505109461B570BA0DF01C025
:100D500059DFCE01DF91CF9108950F931F93CF9369
:100D6000DF93CDB7DEB762970FB6F894DEBF0FBE44
:100D7000CDBF8C01CB01F801118210821382128247
:100D80001582148250E0BE016F5F7F4F75D3BE01A4
:100D90006F5F7F4FC801CBDF62960FB6F894DEBF5E
:100DA0000FBECDBFDF91CF911F910F910895EF92AC
:100DB000FF920F931F93CF93DF93EC017B010C8184
:100DC0001D816115710511F480E014C041155105B4
:100DD00081F0040F151FB8013FDF8823A9F3288194
:100DE00039818C819D81B701820F931F3ED31D8372
:100DF0000C8381E0DF91CF911F910F91FF90EF90D5
:100E00000895CF93DF93EC01FB014481558160810C
:100E10007181CDDF811102C0CE01F4DECE01DF9100
:100E2000CF910895CF93DF93EC016115710561F0C7
:100E3000FB0101900020E9F7AF0141505109461B29
:100E4000570BB5DF811102C0CE01DCDECE01DF9190
:100E5000CF9108951F920F920FB60F9211242F93E6
:100E60003F938F939F93AF93BF9380912C03909167
:100E70002D03A0912E03B0912F0330912B0323E07B
:100E8000230F2D3720F40196A11DB11D05C026E8C2
:100E9000230F0296A11DB11D20932B0380932C03D9
:100EA00090932D03A0932E03B0932F0380913003D2
:100EB00090913103A0913203B09133030196A11DAB
:100EC000B11D8093300390933103A0933203B0930C
:100ED0003303BF91AF919F918F913F912F910F90CD
:100EE0000FBE0F901F9018952FB7F89460912C03A8
:100EF00070912D0380912E0390912F032FBF0895A1
:100F0000789484B5826084BD84B5816084BD85B5E4
:100F1000826085BD85B5816085BDEEE6F0E08081AB
:100F200081608083E1E8F0E01082808182608083CC
:100F3000808181608083E0E8F0E08081816080834F
:100F4000E1EBF0E0808184608083E0EBF0E0808181
:100F500081608083E1E9F0E080818260808380812C
:100F600081608083E0E9F0E0808181608083E1EA54
:100F7000F0E0808182608083808181608083E0EA0C
:100F8000F0E0808181608083E1E2F1E08081826035
:100F90008083808181608083E0E2F1E080818160F4
:100FA0008083EAE7F0E080818460808380818260D2
:100FB00080838081816080838081806880831092BB
:100FC000C1000895A1E21A2EAA1BBB1BFD010DC092
:100FD000AA1FBB1FEE1FFF1FA217B307E407F507E9
:100FE00020F0A21BB30BE40BF50B661F771F881FC5
:100FF000991F1A9469F760957095809590959B015B
:10100000AC01BD01CF0108950DD0A59F900DB49FF7
:10101000900DA49F800D911D112408950790F691C5
:10102000E02D1994A29FB001B39FC001A39F700D42
:10103000811D1124911DB29F700D811D1124911DE0
:101040000895CF93DF938230910510F482E090E011
:10105000E0913603F091370320E030E0A0E0B0E00B
:10106000309739F14081518148175907B8F0481736
:10107000590771F482819381109729F013969C93FC
:101080008E9312972CC0909337038093360327C01A
:101090002115310531F04217530718F0A901DB0182
:1010A00001C0EF019A01BD01DF010280F381E02D53
:1010B000D7CF21153105F9F0281B390B2430310524
:1010C00080F48A819B816115710521F0FB01938376
:1010D000828304C09093370380933603FE013296D7
:1010E00044C0FE01E20FF31F819391932250310916
:1010F000398328833AC02091340330913503232B60
:1011000041F4209102023091030230933503209381
:10111000340320910002309101022115310541F480
:101120002DB73EB74091040250910502241B350BA8
:10113000E0913403F0913503E217F307A0F42E1B7E
:101140003F0B2817390778F0AC014E5F5F4F24172B
:10115000350748F04E0F5F1F50933503409334031B
:101160008193919302C0E0E0F0E0CF01DF91CF9155
:101170000895CF93DF93009709F487C0FC0132975D
:1011800013821282C0913603D0913703209781F4E5
:1011900020813181280F391F8091340390913503CC
:1011A0008217930779F5F0933503E09334036DC00C
:1011B000DE0120E030E0AE17BF0750F412964D91EB
:1011C0005C9113979D014115510509F1DA01F3CFA7
:1011D000B383A28340815181840F951F8A179B0797
:1011E00071F48D919C911197840F951F02969183B4
:1011F000808312968D919C911397938382832115FE
:10120000310529F4F0933703E09336033EC0D9014A
:101210001396FC93EE9312974D915D91A40FB51F19
:10122000EA17FB0779F480819181840F951F02965C
:10123000D90111969C938E938281938113969C93EE
:101240008E931297E0E0F0E08A819B81009719F07D
:10125000FE01EC01F9CFCE01029628813981820F7F
:10126000931F20913403309135032817390769F40F
:10127000309729F4109237031092360302C013827C
:101280001282D0933503C0933403DF91CF91089538
:101290006F927F928F929F92AF92BF92CF92DF9286
:1012A000EF92FF920F931F93CF93DF93EC01CB014B
:1012B000209779F4DF91CF911F910F91FF90EF90DC
:1012C000DF90CF90BF90AF909F908F907F906F9066
:1012D000B8CEFE01E60FF71F9E0122503109E2173A
:1012E000F30708F4A8C0D9010D911C9111970617B6
:1012F0001707B0F00530110508F49BC0A801445051
:1013000051094617570708F494C002501109061BEB
:10131000170B019311936D937C93CF012ADF89C042
:101320005B01A01AB10A4E01800E911EA0913603F6
:10133000B0913703612C712C60E070E0109709F4D4
:1013400049C0A815B905C9F5ED90FC901197670142
:1013500042E0C40ED11CCA14DB0478F147018A189C
:101360009B08640142E0C40ED11C1296BC901297F7
:101370001396AC91B5E0CB16D10440F0B282A383B2
:1013800091828082D9018D939C9309C00E5F1F4F7B
:101390000E0D1F1DF90111830083EB2DFA2F61152E
:1013A000710531F0DB011396FC93EE93129741C067
:1013B000F0933703E09336033CC06D917C91119715
:1013C0006616770608F43B01BD0112960D90BC919C
:1013D000A02DB4CF60913403709135036815790561
:1013E000E9F468167906D0F44091000250910102A8
:1013F0004115510541F44DB75EB7609104027091FB
:101400000502461B570BE417F507A8F4F0933503C4
:10141000E0933403F901918380830BC012DE7C01D9
:10142000009749F0A801BE0117D0CE01A2DEC70186
:1014300004C0CE0102C080E090E0DF91CF911F9107
:101440000F91FF90EF90DF90CF90BF90AF909F9063
:101450008F907F906F900895FB01DC0102C0019096
:101460000D9241505040D8F70895FB01DC010190E6
:101470000D920020E1F708954532510518F44230ED
:1014800008F004C0FB011082CB010895BB274A304D
:1014900031F4992322F4BDE2909581959F4F01C0CC
:1014A000BB27FB015527AA27880F991FAA1FA4173E
:1014B00010F0A41B83955051B9F7A05DAA3308F032
:1014C000A95DA193009779F7B111B1931192CB0166
:1014D00000C0DC01FC01672F71917723E1F732979F
:1014E00004C07C916D9370836291AE17BF07C8F3FF
:1014F000089510E0C8EED0E000E005C02297010991
:10150000FE010BBF8BDDCA3ED10780E00807B1F7B3
:04151000F894FFCF7D
:101514000000380380001E1F202122232425436F4E
:10152400756E746572206F662020007075626C6938
:10153400736865640000000000A6022004FB011427
:0615440002060285020010
:00000001FF
