:100000000FC500003EC500003CC500003AC5000019
:1000100038C5000036C5000034C5000032C50000F8
:1000200030C500002EC500002CC500002AC5000008
:1000300028C5000026C5000024C5000022C5000018
:1000400020C500001EC500001CC500001AC5000028
:1000500018C5000016C5000014C500000C949338A4
:1000600010C500000C94C23B0C94F83B0AC500007C
:1000700008C5000006C5000004C5000002C5000058
:1000800000C50000FEC40000FCC40000FAC400006B
:10009000F8C40000F6C40000F4C40000F2C400007C
:1000A000F0C40000EEC40000ECC40000EAC400008C
:1000B000E8C40000E6C40000E4C40000E2C400009C
:1000C000E0C40000DEC40000DCC40000DAC40000AC
:1000D000D8C40000D6C40000D4C40000D2C40000BC
:1000E000D0C40000A939AC399B399F39A539E3390F
:1000F000B039B439BA39BE39C239C839CC39D03936
:10010000E339D639DA39DE3900000000003E5B4FB2
:100110005B3E3E6B4F6B3E1C3E7C3E1C183C7E3C67
:10012000181C577D571C1C5E7F5E1C00183C180075
:10013000FFE7C3E7FF0018241800FFE7DBE7FF3005
:10014000483A060E2629792926407F050507407F73
:1001500005253F5A3CE73C5A7F3E1C1C08081C1CE6
:100160003E7F14227F22145F5F005F5F06097F01DC
:100170007F006689956A606060606094A2FFA294C7
:1001800008047E040810207E201008082A1C080895
:100190001C2A08081E101010100C1E0C1E0C3038E3
:1001A0003E3830060E3E0E06000000000000005FE4
:1001B00000000007000700147F147F14242A7F2A00
:1001C00012231308646236495620500008070300C2
:1001D000001C2241000041221C002A1C7F1C2A080E
:1001E000083E080800807030000808080808000071
:1001F00060600020100804023E5149453E00427FE5
:10020000400072494949462141494D331814127F33
:100210001027454545393C4A4949314121110907D3
:100220003649494936464949291E00001400000054
:100230004034000000081422411414141414004126
:1002400022140802015909063E415D594E7C1211E3
:10025000127C7F494949363E414141227F4141411B
:100260003E7F494949417F090909013E4141517396
:100270007F0808087F00417F41002040413F017F07
:10028000081422417F404040407F021C027F7F04CF
:1002900008107F3E4141413E7F090909063E415118
:1002A000215E7F09192946264949493203017F0108
:1002B000033F4040403F1F2040201F3F4038403F09
:1002C000631408146303047804036159494D43001F
:1002D0007F4141410204081020004141417F040256
:1002E00001020440404040400003070800205454ED
:1002F00078407F28444438384444442838444428CB
:100300007F385454541800087E090218A4A49C781D
:100310007F0804047800447D40002040403D007F79
:100320001028440000417F40007C047804787C0859
:100330000404783844444438FC182424181824242D
:1003400018FC7C08040408485454542404043F4412
:10035000243C4040207C1C2040201C3C4030403C41
:1003600044281028444C9090907C4464544C4400A1
:100370000836410000007700000041360800020105
:100380000204023C2623263C1EA1A161123A4040F1
:10039000207A38545455592155557941225454786E
:1003A00042215554784020545579400C1E52721207
:1003B0003955555559395454545939555454580090
:1003C00000457C410002457D420001457C407D1294
:1003D00011127DF0282528F07C54554500205454F6
:1003E0007C547C0A097F4932494949323A444444A1
:1003F0003A324A4848303A4141217A3A42402078DC
:10040000009DA0A07D3D4242423D3D4040403D3CDC
:1004100024FF2424487E4943662B2FFC2F2BFF0901
:1004200029F620C0887E09032054547941000044F5
:100430007D413048484A32384040227A007A0A0AE0
:10044000727D0D19317D2629292F28262929292653
:1004500030484D4020380808080808080808382F98
:1004600010C8ACBA2F102834FA00007B0000081422
:100470002A142222142A14085500550055AA55AAF8
:1004800055AAFF55FF55FF000000FF00101010FF98
:1004900000141414FF001010FF00FF1010F010F0F3
:1004A000141414FC001414F700FF0000FF00FF14E4
:1004B00014F404FC141417101F10101F101F141430
:1004C000141F00101010F0000000001F101010107A
:1004D0001F10101010F010000000FF10101010106E
:1004E00010101010FF10000000FF140000FF00FFAC
:1004F00000001F10170000FC04F414141710171448
:1005000014F404F40000FF00F71414141414141469
:10051000F700F7141414171410101F101F141414DC
:10052000F4141010F010F000001F101F0000001F46
:1005300014000000FC140000F010F01010FF10FF79
:10054000141414FF141010101F00000000F010FF0E
:10055000FFFFFFFFF0F0F0F0F0FFFFFF00000000F2
:1005600000FFFF0F0F0F0F0F3844443844FC4A4A76
:100570004A347E02020606027E027E02635549412B
:10058000633844443C04407E201E2006027E020262
:1005900099A5E7A5991C2A492A1C4C7201724C3076
:1005A0004A4D4D303048784830BC625A463D3E494D
:1005B0004949007E0101017E2A2A2A2A2A44445FF1
:1005C000444440514A444040444A51400000FF01E5
:1005D00003E080FF000008086B6B083612362436F3
:1005E000060F090F06000018180000001010003058
:1005F00040FF0101001F01011E00191D1712003CE0
:100600003C3C3C000000000000000100FF00320004
:100610000100000102000007030030100400000088
:1006200008000202090000000A0000000C0000009F
:100630000D0000000F000000100000001100070076
:100640001200000013000000FF00C8001000901608
:1006500011002702FF00320012001A00FF003200D2
:100660001300001829002A00FF00320030000000AB
:100670003100000032000000350006023600080894
:100680003700070038000102390000003C0000007C
:100690003D0000002000000021000000500000008C
:1006A0005100EF005200000053003F01600000A71E
:1006B000610003006A00000090001000920000003A
:1006C00093000300950000119700000098000000BF
:1006D000070033010100B903FF8357FFFAB3040099
:1006E000000606B60125B00168CC0105B10600156B
:1006F0001C1C83AAC0065050013C1E08B4070240CF
:10070000002A2A0D783A01553601C035010044020D
:1007100000021100FF962900FF322E89298F2B023B
:10072000E200E401E510E601E710E870F200EA00FB
:10073000EB20EC3CEDC8E938F1011B1A1A022461E8
:10074000255C183619011F88FF051F80FF051F90C3
:10075000FF051FD4FF05170536092838FF28283C58
:1007600002000300040005EF060007000801093F2E
:10077000446F6E652100526F756E6465642072650A
:10078000637473202866696C6C65642920202000DE
:10079000526F756E64656420726563747320286F90
:1007A00075746C696E6529202000547269616E67EA
:1007B0006C6573202866696C6C6564292020202094
:1007C00020202000547269616E676C657320286F69
:1007D00075746C696E6529202020202020004369F3
:1007E00072636C657320286F75746C696E6529205F
:1007F0002020202020202000436972636C65732034
:100800002866696C6C656429202020202020202027
:10081000200052656374616E676C65732028666999
:100820006C6C6564292020202020200052656374B0
:10083000616E676C657320286F75746C696E6529CD
:10084000202020202000486F72697A2F566572742C
:10085000204C696E6573202020202020202020005D
:100860004C696E657320202020202020202020202D
:100870002020202020202020200054657874202073
:100880002020202020202020202020202020202068
:100890002020200053637265656E2066696C6C20B1
:1008A0002020202020202020202020202000426501
:1008B0006E63686D61726B20202020202020202034
:1008C0002020202020202054696D6520286D696338
:1008D000726F7365636F6E647329005573696E6719
:1008E00020416461667275697420322E382220546A
:1008F000465420427265616B6F757420426F61725D
:10090000642050696E6F757400544654204C434403
:1009100020746573740000000A0B02090C0D0E08A8
:1009200007030401000000000000000000000000B8
:1009300000000000000000000000000000000000B7
:100940000000121110000000000000000000000074
:100950000000000000000000000000000102102064
:1009600020080810204010204080020102010804E5
:100970000201010204081020408080402010080479
:1009800002018004020180402010080402010804D2
:100990000201010204081020408001020408102016
:1009A000408005050505070508080808020202023F
:1009B0000A0A0808040404040101010101010101FB
:1009C0000303030303030303040707070C0C0C0CC6
:1009D0000C0C0C0C020202020606060606060606AF
:1009E0000B0B0B0B0B0B0B0B000022002500280040
:1009F0002B002E0031003400020100000501080127
:100A00000B0100002100240027002A002D003000E7
:100A1000330001010000040107010A01FA302A3CF9
:100A200011241FBECFEFD1E2DEBFCDBF00E00CBF6F
:100A300013E0A0E0B2E0E4E1F2E800E00BBF02C0A6
:100A400007900D92A832B107D9F723E0A8E2B3E0EE
:100A500001C01D92A83FB207E1F71AE0C0E2DAE058
:100A600000E006C022970109FE010BBF0E94004171
:100A7000CC31D10780E00807A9F70E946E3C0C94A6
:100A80000841BECA2F923F924F925F926F927F921F
:100A90008F929F92AF92BF92CF92DF92EF92FF928E
:100AA0000F931F93CF93DF9300D01F92CDB7DEB784
:100AB0004C017C836B836A015901C8018701AC0139
:100AC0004C195D0957FF03C0519541955109950196
:100AD0006B817C81261B370B37FF03C03195219535
:100AE000310922242394312C2417350714F0212CAA
:100AF000312C2114310459F03A2D2B2D5C01832F18
:100B0000922F3B812C81DC82CB82C32ED22EAB81F3
:100B1000BC81AA16BB065CF43C2D2D2D6C01832FE5
:100B2000922F3B812C81BC82AB82A32EB22E250159
:100B3000EB81FC814E1A5F0A3C016C187D0877FE40
:100B400003C0719461947108720157FE03C0FFEFF6
:100B5000EF1AFF0AF594E794C816D9062CF421E0A1
:100B600030E03A83298324C06FEF7FEF7A83698373
:100B70001FC0D401ED91FC910480F581E02D980116
:100B800021143104D9F04B815C81B601C40119955F
:100B9000E618F708F7FE06C0E981FA81CE0EDF1EDF
:100BA000E40CF51C2B813C812F5F3F4F3C832B8352
:100BB0006B817C81A616B706E4F604C0A6016B81A2
:100BC0007C81E4CF0F900F900F900F90DF91CF9129
:100BD0001F910F91FF90EF90DF90CF90BF90AF905B
:100BE0009F908F907F906F905F904F903F902F904D
:100BF00008956F927F928F929F92AF92BF92CF9201
:100C0000DF92EF92FF920F931F93CF93DF93EC014C
:100C10005B016A0139014801E881F9810284F385A9
:100C2000E02D87011995E881F981A601480D591D2C
:100C3000415051090284F385E02D9301B501CE01A5
:100C40001995E881F9810084F185E02D9401A601D0
:100C5000B501CE011995E881F981B501660D771DC1
:100C6000615071090084F185E02D9401A601CE0147
:100C70001995DF91CF911F910F91FF90EF90DF9029
:100C8000CF90BF90AF909F908F907F906F9008957E
:100C9000EF92FF920F931F93DC01ED91FC91240FD3
:100CA000351F215031090680F781E02D7801890137
:100CB0009B0119951F910F91FF90EF900895EF926E
:100CC000FF920F931F93DC01ED91FC91260F371FCC
:100CD000215031090680F781E02D78018A011995AC
:100CE0001F910F91FF90EF9008956F927F928F92D6
:100CF0009F92AF92BF92CF92DF92EF92FF920F93AB
:100D00001F93CF93DF935C014A0169013801EB0126
:100D1000C60ED71ECC15DD0574F4D501ED91FC91FE
:100D20000084F185E02D87019301A401BE01C50176
:100D300019952196EFCFDF91CF911F910F91FF90E1
:100D4000EF90DF90CF90BF90AF909F908F907F906B
:100D50006F900895EF92FF920F931F93DC01ED9136
:100D6000FC9111971A960D911C911B9718962D9135
:100D70003C9119970684F785E02D7B0140E050E017
:100D800060E070E019951F910F91FF90EF9008952A
:100D90000895FC011382128284E092E091838083A3
:100DA000758364835783468371876087538742873F
:100DB000158A158614861786168621E0248B8FEFF8
:100DC0009FEF938B828B918B808B268B178A089554
:100DD0002F923F924F925F926F927F928F929F924B
:100DE000AF92BF92CF92DF92EF92FF920F931F9339
:100DF000CF93DF9300D000D0CDB7DEB79E838D8335
:100E00006B015A01790166246394712C621A730A8A
:100E100044245524421A530A440C551CDC01ED911C
:100E2000FC91420F531F0480F581E02D9801199524
:100E3000AD81BE81ED91FC911197A5014E195F091D
:100E40000480F581E02D9801B601CD011995AD81A1
:100E5000BE81ED91FC911197B6016E0D7F1D04804E
:100E6000F581E02D9801A501CD011995AD81BE81D7
:100E7000ED91FC911197B6016E197F090480F581FF
:100E8000E02D9801A501CD011995812C912C8E148E
:100E90009F040CF0A1C077FC08C0B1E0EB1AF10888
:100EA000E2E04E0E511C640C751CFFEF8F1A9F0A76
:100EB000C401880F991F0196680E791EC4018C0D1C
:100EC0009D1D9C838B83AD81BE81ED91FC9111971B
:100ED0000480F581E02D980115012E0C3F1CA10125
:100EE000BC01CD011995F601E819F909FA83E983E6
:100EF000AD81BE81ED91FC9111970480F581E02DCB
:100F00009801A10169817A81CD011995AD81BE81D8
:100F1000ED91FC9111970480F581E02D9801150168
:100F20002E183F08A1016B817C81CD011995AD81FF
:100F3000BE81ED91FC9111970480F581E02D98011F
:100F4000A10169817A81CD01199514012A0C3B1CFC
:100F5000AD81BE81ED91FC9111970480F581E02D6A
:100F60009801A101C6018E0D9F1D9C838B83BC013E
:100F7000CD011995AD81BE81ED91FC911197048051
:100F8000F581E02D9801A101C6018E199F099A8370
:100F90008983BC01CD011995150128183908AD8147
:100FA000BE81ED91FC9111970480F581E02D9801AF
:100FB000A1016B817C81CD011995AD81BE81ED913F
:100FC000FC9111970480F581E02D9801A1016981C0
:100FD0007A81CD0119955BCF26960FB6F894DEBFC6
:100FE0000FBECDBFDF91CF911F910F91FF90EF907A
:100FF000DF90CF90BF90AF909F908F907F906F9039
:101000005F904F903F902F9008952F923F924F9274
:101010005F926F927F928F929F92AF92BF92CF9288
:10102000DF92EF92FF920F931F93CF93DF9300D045
:1010300000D0CDB7DEB79E838D834B013A016901A5
:10104000802F44244394512C421A530A22243324DF
:10105000221A330A220C331CAA24A394B12C01E0D7
:1010600010E0982F94709983A82FA270AA83B82FAC
:10107000B870BB8381708C83C50101978C159D0569
:101080000CF0A6C057FC08C0E1E0CE1AD108F2E08F
:101090002F0E311C420C531C0E5F1F4F400E511E71
:1010A0008981882311F1AD81BE81ED91FC91119769
:1010B0000480F581E02D9701A3014C0D5D1DB50164
:1010C000680D791DCD011995AD81BE81ED91FC9121
:1010D00011970480F581E02D9701A501460D571D5C
:1010E000B4016C0D7D1DCD011995BA81BB2311F1A1
:1010F000AD81BE81ED91FC9111970480F581E02DC9
:101100009701A3014C195D09B501680D791DCD0149
:101110001995AD81BE81ED91FC9111970480F58107
:10112000E02D9701A3014A195B09B4016C0D7D1DE7
:10113000CD011995BB81BB2311F1AD81BE81ED912C
:10114000FC9111970480F581E02D9701A501460DD2
:10115000571DB4016C197D09CD011995AD81BE8172
:10116000ED91FC9111970480F581E02D9701A30189
:101170004C0D5D1DB4016A197B09CD011995BC8127
:10118000BB2311F1AD81BE81ED91FC9111970480DB
:10119000F581E02D9701A3014A195B09B4016C198F
:1011A0007D09CD011995AD81BE81ED91FC9111971D
:1011B0000480F581E02D9701A3014C195D09B4016C
:1011C0006A197B09CD011995BFEFAB1ABB0A54CF41
:1011D00026960FB6F894DEBF0FBECDBFDF91CF913C
:1011E0001F910F91FF90EF90DF90CF90BF90AF9045
:1011F0009F908F907F906F905F904F903F902F9037
:1012000008952F923F924F925F926F927F928F92AA
:101210009F92AF92BF92CF92DF92EF92FF920F9385
:101220001F93CF93DF93CDB7DEB728970FB6F8940F
:10123000DEBF0FBECDBF5C011B015A8349833887D7
:101240002F83FC82EB8288248394912C821A930A48
:101250003901719461947108660C771C270123E0B1
:10126000420E511CEE24E394F12C302F31703D835B
:1012700002700E83C7010197EF81F8858E179F07D3
:101280000CF07BC097FC0AC08F81988501979887E6
:101290008F8392E0690E711C860C971CC201AB8192
:1012A000BC818A1B9B0B880E991EBD81BB2369F1F3
:1012B000D501ED91FC912F813885220F331F2F5FCF
:1012C0003F4F8B819C81280F391F0084F185E02DD1
:1012D000860149815A81AF81B8854A1B5B0BB701F2
:1012E000620D731DC5011995D501ED91FC91008426
:1012F000F185E02D920149815A814E195F096F8174
:101300007885620D731DC5011995BE81BB2371F1EE
:10131000D501ED91FC912F813885220F331F2F5F6E
:101320003F4F8B819C81280F391F0084F185E02D70
:10133000860149815A81AF81B8854A1B5B0BB10197
:101340006E197F09C5011995D501ED91FC910084B5
:10135000F185E02D920149815A814E195F09B10151
:101360008F819885681B790BC50119959FEFE91A44
:10137000F90AA2E04A0E511C7DCF28960FB6F894C8
:10138000DEBF0FBECDBFDF91CF911F910F91FF90B8
:10139000EF90DF90CF90BF90AF909F908F907F9015
:1013A0006F905F904F903F902F9008956F927F9233
:1013B0008F929F92AF92BF92CF92DF92EF92FF9265
:1013C0000F931F93CF93DF93EC014B013A01590127
:1013D0006801E881F981220F331F2F5F3F4FA3017E
:1013E0004A195B090084F185E02D1995E12CF12C57
:1013F00003E09501A301B401CE0103DFDF91CF919A
:101400001F910F91FF90EF90DF90CF90BF90AF9022
:101410009F908F907F906F9008952F923F924F9260
:101420005F926F927F928F929F92AF92BF92CF9274
:10143000DF92EF92FF920F931F93CF93DF93CDB77D
:10144000DEB728970FB6F894DEBF0FBECDBF9887E2
:101450008F833B014A013C832B831E830D835701FD
:10146000EE24FF24EA18FB08EE0CFF1CC9018E0DC8
:101470009F1D9A8389832B014A0C5B1CAF81B88521
:10148000ED91FC9111970284F385E02D86019C017A
:10149000A401B201CD0119952D803E80280C391C84
:1014A000AF81B885ED91FC911197A101415051098F
:1014B0000284F385E02D29813A81B201CD0119958D
:1014C000ED81FE81EE0EFF1E8A0C9B1CAF81B8855C
:1014D000ED91FC9111970084F185E02D9701A40115
:1014E000B301CD011995EB81FC816E0E7F1EAF819A
:1014F000B885ED91FC911197B30161507109008499
:10150000F185E02D9701A401CD011995760101E047
:101510009501A401B2018F81988577DD6A187B0857
:10152000B1E06B1A710802E09501A401B3018F814B
:1015300098856BDD41018A189B08E1E08E1A9108BD
:1015400004E09501A401B3018F8198855EDD08E078
:101550009501A401B2018F81988557DD28960FB6B9
:10156000F894DEBF0FBECDBFDF91CF911F910F91D9
:10157000FF90EF90DF90CF90BF90AF909F908F90B3
:101580007F906F905F904F903F902F9008952F9293
:101590003F924F925F926F927F928F929F92AF9203
:1015A000BF92CF92DF92EF92FF920F931F93CF9350
:1015B000DF9300D000D0CDB7DEB75C017A836983BA
:1015C0003A013C832B834801FE82ED8226016701AC
:1015D000D194C194D108CC0CDD1C1B012E0C3F1CF6
:1015E000D501ED91FC912C0D3D1D0684F785E02D74
:1015F0007201B101C50119958C0C9D1CB1E08B1ACB
:101600009108ED81FE816E0E7F1E69817A818B814A
:101610009C81680F791F6E1B7F0B615071096201FD
:10162000740101E09F01A301C501EBDD02E02D8102
:101630003E81A301B101C501E4DD26960FB6F89401
:10164000DEBF0FBECDBFDF91CF911F910F91FF90F5
:10165000EF90DF90CF90BF90AF909F908F907F9052
:101660006F905F904F903F902F9008952F923F92F0
:101670004F925F926F927F928F929F92AF92BF92A2
:10168000CF92DF92EF92FF920F931F93CF93DF934E
:1016900000D01F92CDB7DEB79C838B831B012A013C
:1016A00049013801FA82E982DC01ED91FC91068062
:1016B000F781E02D75011995AB81BC81ED91FC910D
:1016C00011970680F781E02D860129813A81A301D7
:1016D000B401CD011995AB81BC81ED91FC911197BD
:1016E0000680F781E02D82019101A60169817A814E
:1016F000CD0119950F900F900F900F90DF91CF9122
:101700001F910F91FF90EF90DF90CF90BF90AF901F
:101710009F908F907F906F905F904F903F902F9011
:1017200008952F923F924F925F926F927F928F9285
:101730009F92AF92BF92CF92DF92EF92FF920F9360
:101740001F93CF93DF93CDB7DEB7AE970FB6F89464
:10175000DEBF0FBECDBF98878F834B013A012901B1
:101760001EA70DA7B701DA82C982BE8AAD8A041707
:1017700015074CF4872D38014DA78EA7982D892D7C
:101780004901492E582E2DA53EA549815A8142175F
:1017900053075CF49DA58EA55EA74DA799838A8308
:1017A000942D852D2B01692F782F8DA59EA586154B
:1017B00097055CF4962D872D6DA47EA49DA78EA71A
:1017C000982D892D4201492E582EA981BA816A1679
:1017D0007B0619F5481459042CF0942D852D24010D
:1017E000892E982E641575052CF0861697060CF434
:1017F0004B01B201AF81B885ED91FC911197940135
:10180000261B370B2F5F3F4F0284F385E02D0D8998
:101810001E89A301CD01199552C1C20188199909E8
:101820002DA53EA526193709FB01E819F909FA8704
:10183000E98749815A81461957095E874D87DB013F
:10184000A419B509BA8BA98BE981FA814DA55EA5CA
:10185000E41BF50BF88FEF8B69817A8146175707E8
:1018600029F0415051095C8F4B8F04C0ADA5BEA536
:10187000BC8FAB8F1301A12CB12C65011B821C8284
:101880001D821E82A901662757FD6095762F4D8F18
:101890005E8F6F8F78A32D853E85442737FD409559
:1018A000542F29A33AA34BA35CA3AC01662757FD91
:1018B0006095762F4DA35EA36FA378A769857A857F
:1018C000882777FD8095982F69A77AA78BA79CA773
:1018D000EB8DFC8DE215F3050CF44EC06B817C8121
:1018E0008D819E812D8D3E8D4F8D58A10E94C340CC
:1018F0007401E20EF31EC601B50129A13AA14BA164
:101900005CA10E94C340B401620F731F8B819C8154
:10191000AD81BE812DA13EA14FA158A5820F931F7D
:10192000A41FB51F8B839C83AD83BE8389A59AA515
:10193000ABA5BCA5A80EB91ECA1EDB1E6E157F0581
:101940002CF0962F872FB701E92EF82EAF81B8859E
:10195000ED91FC9111979701261B370B2F5F3F4F9D
:101960000284F385E02D0D891E89A101CD01199511
:10197000BFEF2B1A3B0AACCF91014DA55EA5241BEE
:10198000350B69897A89629FC001639F900D729FB0
:10199000900D11249C01442737FD4095542F2B8333
:1019A0003C834D835E83C1018619970949855A8519
:1019B000489F6001499FD00C589FD00C1124EE2401
:1019C000D7FCE094FE2C6F89788D882777FD809571
:1019D000982F6F8B788F898F9A8F8D859E85AA27F8
:1019E00097FDA095BA2F8D879E87AF87B88B2989E1
:1019F0003A89442737FD4095542F298B3A8B4B8BDE
:101A00005C8B49855A85662757FD6095762F4987F7
:101A10005A876B877C87E981FA81E215F3050CF41C
:101A20004EC06B817C818D819E812F89388D498D3F
:101A30005A8D0E94C3405201A20EB31EC701B601C7
:101A40002D853E854F8558890E94C340B401620FA1
:101A5000731F8B819C81AD81BE8129893A894B8915
:101A60005C89820F931FA41FB51F8B839C83AD835A
:101A7000BE8389859A85AB85BC85C80ED91EEA1EB2
:101A8000FB1E6A157B052CF0962F872FB501A92E1A
:101A9000B82EAF81B885ED91FC9111979501261B69
:101AA000370B2F5F3F4F0284F385E02D0D891E8990
:101AB000A101CD011995BFEF2B1A3B0AACCFAE9611
:101AC0000FB6F894DEBF0FBECDBFDF91CF911F914F
:101AD0000F91FF90EF90DF90CF90BF90AF909F90CD
:101AE0008F907F906F905F904F903F902F900895D0
:101AF0002F923F924F925F926F927F928F929F921E
:101B0000AF92BF92CF92DF92EF92FF920F931F930B
:101B1000CF93DF93CDB7DEB72C970FB6F894DEBF27
:101B20000FBECDBF9C878B873A0118870F83FA863B
:101B3000E986CD82DC0118968D919C9119976817E2
:101B400079070CF09EC01A968D919C911B974817AF
:101B500059070CF096C08C2C912CCB01B6E0CB9E93
:101B6000800D911D1124181619060CF08AC0C401AD
:101B7000E3E0880F991FEA95E1F7840F951F181687
:101B800019060CF07EC0AB85BC8557968C918111EF
:101B900003C0203B08F02F5F5B016B011C8258E003
:101BA000452E51E0552E461A570AB5E02B9F400CA2
:101BB000511C1124EC81E53031F0F201EA0DFB1DDE
:101BC00024912B8301C01B827A82698213011E82B9
:101BD0003B8130FF13C0AB85BC85ED91FC91BD818D
:101BE000B13031F40480F581E02D2F81388519C0A2
:101BF0000684F785E02DEF80F8841EC0E985FA851C
:101C00002F813885E217F307F9F0AB85BC85ED919C
:101C1000FC91BD81B13059F40480F581E02D298516
:101C20003A85A101B5018B859C8519950DC0068467
:101C3000F785E02DE984FA848401940149815A8171
:101C4000B6018B859C851995EB81E695EB83FE812A
:101C5000FF5FFE8329813A81280D391D3A8329834C
:101C60003FEF231A330AF83009F0B2CF4C814F5FAF
:101C70004C83C80CD91C8FEFA81AB80A463009F05B
:101C800099CF2C960FB6F894DEBF0FBECDBFDF9173
:101C9000CF911F910F91FF90EF90DF90CF90BF9069
:101CA000AF909F908F907F906F905F904F903F90FC
:101CB0002F900895CF92EF92FF920F931F93CF939F
:101CC000DF93EC01262F6A3049F42C898E859F859D
:101CD00038E0239F800D911D112431C06D3099F1A2
:101CE000EA88FB88088919894E855F856C857D8522
:101CF000CC88FEDE2C89422F50E08C859D8536E015
:101D0000239F800D911D11249D878C872E8922236E
:101D1000D1F06AEF64039001659F300D112468854E
:101D20007985260F371F281739076CF4F3E0440F25
:101D3000551FFA95E1F78E859F85840F951F9F8724
:101D40008E871D861C8681E090E0DF91CF911F91E8
:101D50000F91FF90EF90CF900895FC0175876487F5
:101D6000578746870895611101C061E0FC01648BCB
:101D70000895FC01738B628B718B608B0895FC015D
:101D80006370658B8481958126813781613039F05C
:101D9000633029F0918780873387228708953187C0
:101DA0002087938782870895FC0180859185089517
:101DB000FC01828593850895FC018DB188638DB9FE
:101DC0009D9AA1E0B1E08C9188678C93158A158665
:101DD00014861786168681E0848B8FEF9FEF918B98
:101DE000808B80EF90E09187808780E491E09387FB
:101DF000828708959F92AF92BF92CF92DF92EF9227
:101E0000FF920F931F93CF93DF93EC01A62EF42E36
:101E1000B22E902E40E451E060EF70E00E94C906BF
:101E200081E392E099838883E9A66A2D70E0FB0143
:101E3000EE55F64FE491F0E0EE0FFF1FE851F64F3C
:101E4000A591B491BA8FA98F4F2D50E0FA01EE55AC
:101E5000F64FE491F0E0EE0FFF1FE851F64F859149
:101E600094919C8F8B8F2B2D30E0F901EE55F64F1E
:101E7000E491F0E0EE0FFF1FE851F64F8591949149
:101E80009E8F8D8F10E0F801EE55F64FE491F0E053
:101E9000EE0FFF1FE851F64FC590D490D8A2CF8E19
:101EA000FB01E45AF64F649169A3FA01E45AF64F34
:101EB00044914AA3F901E45AF64F24912BA3F80167
:101EC000E45AF64F04910CA399A1892F80958DA314
:101ED0008AA180958EA38BA180958FA3009508A7DA
:101EE0008C91892B8C93EB8DFC8D80819AA1892B11
:101EF0008083ED8DFE8D80819BA1892B8083EF8D6A
:101F0000F8A180819CA1892B808361E08A2D0E94A9
:101F1000E43961E08F2D0E94E43961E08B2D0E944D
:101F2000E43961E0892D0E94E439EE2041F061E05E
:101F30008E2D0E941D3A61E08E2D0E94E439CE0163
:101F4000DF91CF911F910F91FF90EF90DF90CF9095
:101F5000BF90AF909F9030CFCF93DF93EC01E98D8E
:101F6000FA8D808199A1892B8083ED8DFE8D8081F2
:101F70009BA1892B8083EF8DF8A180819CA1892B67
:101F8000808389A5882369F060E00E941D3A62E0A1
:101F900070E080E090E00E94003961E089A50E9435
:101FA0001D3AE98DFA8D80819DA189238083EB8D77
:101FB000FC8D80819EA1892380838EB18F7C8EB918
:101FC0007398A59880910201877E80930201809189
:101FD00002018F7980930201ED8DFE8D80819FA19A
:101FE00089238083ED8DFE8D80819BA1892B808349
:101FF00083E0ED8DFE8D90812FA192239083ED8D56
:10200000FE8D90812BA1922B9083815091F7E98DC9
:10201000FA8D808199A1892B8083DF91CF910895DA
:10202000CF93DF93FC01A18DB28D8C9195A1892373
:102030008C9380859185A38DB48D2C9136A123231B
:102040002C932EB12F7C20612EB97398A598A2E015
:10205000B1E02C91277E2C932C912F792C93C58D58
:10206000D68D288137A123232883C58DD68D28813D
:1020700033A1232B2883C38DD48D288132A1232B18
:1020800028836EB19C0121503109232F3327A901E8
:10209000440F551F440F551F40736F7C462B4EB99C
:1020A0009EB1A90155954795559547954870977FDD
:1020B000492B4EB994B3A901440F551F40729F7D1F
:1020C000492B44BB9C91A90163E0559547956A95BE
:1020D000E1F74871977E492B4C939C9175E0220F54
:1020E000331F7A95E1F720769F79292B2C93C58DA4
:1020F000D68D988127A192239883C58DD68D9881FE
:1021000023A1922B9883C38DD48D988126A19223ED
:1021100098839EB19F7C90619EB97398A5989C917D
:10212000977E9C939C919F7990629C93C58DD68D50
:10213000988127A192239883C58DD68D988123A15C
:10214000922B9883C38DD48D988122A1922B988352
:102150004EB1815090E09C01220F331F220F331F9C
:1021600020734F7C242B2EB94EB19C0135952795B9
:10217000359527952870477F242B2EB944B39C01B1
:10218000220F331F20724F7D242B24BB4C919C01C6
:1021900063E0359527956A95E1F72871477E242BF2
:1021A0002C932C9175E0880F991F7A95E1F7807632
:1021B0002F79822B8C93C58DD68D888197A1892309
:1021C0008883C58DD68D888193A1892B888382854C
:1021D0009385C38DD48D288136A1232328832EB1E6
:1021E0002F7C20622EB97398A5982C91277E2C9372
:1021F0002C912F792C93C58DD68D288137A123233F
:102200002883C58DD68D288133A1232B2883C38DA8
:10221000D48D288132A1232B28836EB19C012150BB
:102220003109232F3327A901440F551F440F551F90
:1022300040736F7C462B4EB99EB1A90155954795C9
:10224000559547954870977F492B4EB994B3A9018E
:10225000440F551F40729F7D492B44BB9C91A9019F
:10226000C3E055954795CA95E1F74871977E492B8C
:102270004C939C91D5E0220F331FDA95E1F720763D
:102280009F79292B2C93C58DD68D988127A19223D8
:102290009883C58DD68D988123A1922B9883C38D69
:1022A000D48D988126A1922398839EB19F7C9062C1
:1022B0009EB97398A5989C91977E9C939C919F79C9
:1022C00090629C93C58DD68D988127A19223988387
:1022D000C58DD68D988123A1922B9883C38DD48DE3
:1022E000988122A1922B98834EB1815090E09C015D
:1022F000220F331F220F331F20734F7C242B2EB944
:102300004EB19C0135952795359527952870477FC7
:10231000242B2EB944B39C01220F331F20724F7D12
:10232000242B24BB4C919C01C3E035952795CA957D
:10233000E1F72871477E242B2C932C91D5E0880F50
:10234000991FDA95E1F780762F79822B8C93A58DF2
:10235000B68D8C9197A189238C93A58DB68D8C9188
:1023600093A1892B8C93A18DB28D8C9191A1892BF6
:102370008C93DF91CF9108956F927F928F929F926D
:10238000AF92BF92CF92DF92EF92FF920F931F9383
:10239000CF93DF93FC01772EA62EA18DB28D8C9169
:1023A00095A189238C93A38DB48D8C9196A18923BB
:1023B0008C93808D823001F181111CC08EB18F7C95
:1023C0008EB97398A59880910201877E809302014F
:1023D000809102018F7980930201A58DB68D8C9139
:1023E00097A189238C93A58DB68D8C9193A1892B70
:1023F0008C9310C0833071F48EB180638EB9739A60
:10240000A59880910201877E80930201809102014C
:102410008F790EC08EB18F7C8EB9739AA5988091FA
:102420000201877E80930201809102018F7980648E
:1024300080930201A58DB68D8C9197A189238C93F1
:10244000A58DB68D8C9193A1892B8C93A38DB48D82
:102450008C9192A1892B8C93AEB1C72F90E0D92F8C
:10246000CE01880F991F880F991FB82FB073BB2E0C
:10247000AF7CAB2BAEB9AEB1CE0195958795959556
:102480008795B82FB870CB2EA77FAB2BAEB9A4B36E
:10249000CE01880F991FB82FB072DB2EAF7DAB2B0A
:1024A000A4BBA0910201CE0113E0959587951A95E2
:1024B000E1F7B82FB8716B2EA77EAB2BA09302016A
:1024C0008091020105E0CC0FDD1F0A95E1F7C0768F
:1024D0008F798C2B80930201A58DB68D8C9197A15D
:1024E00089238C93A58DB68D8C9193A1892B8C9388
:1024F000AEB17727CB01880F991F880F991FD82F6E
:10250000D073AF7CAD2BAEB9AEB1CB0195958795AD
:1025100095958795182F1870A77FA12BAEB9A4B3F6
:10252000CB01880F991F082F0072AF7DA02BA4BB91
:10253000A0910201CB01B3E095958795BA95E1F79B
:10254000B82FB871FB2EA77EAB2BA0930201809110
:10255000020195E0660F771F9A95E1F7962F907626
:10256000E92E8F79892B80930201A58DB68D8C91F0
:1025700097A189238C93A58DB68D8C9193A1892BDE
:102580008C93BA01A9014150510961097109DB011C
:10259000CA0126E0B695A795979587952A95D1F714
:1025A0004C0180E090E07A10BFC18816990609F4CA
:1025B00066C020E1A58DB68D3C91C7A13C233C931C
:1025C000A58DB68D3C91C3A13C2B3C93A58DB68DBA
:1025D0003C91C7A13C233C93A58DB68D3C91C3A1F2
:1025E0003C2B3C93A58DB68D3C91C7A13C233C93DD
:1025F000A58DB68D3C91C3A13C2B3C93A58DB68D8A
:102600003C91C7A13C233C93A58DB68D3C91C3A1C1
:102610003C2B3C93A58DB68D3C91C7A13C233C93AC
:10262000A58DB68D3C91C3A13C2B3C93A58DB68D59
:102630003C91C7A13C233C93A58DB68D3C91C3A191
:102640003C2B3C93A58DB68D3C91C7A13C233C937C
:10265000A58DB68D3C91C3A13C2B3C93A58DB68D29
:102660003C91C7A13C233C93A58DB68D3C91C3A161
:102670003C2B3C93215009F09DCF019696CF4F7390
:102680004150C8F0A58DB68D8C9197A189238C936C
:10269000A58DB68D8C9193A1892B8C93A58DB68D2C
:1026A0008C9197A189238C93A58DB68D8C9193A144
:1026B000892B8C93E5CFA18DB28D8C9191A1892B23
:1026C0008C93DF91CF911F910F91FF90EF90DF904E
:1026D000CF90BF90AF909F908F907F906F90089514
:1026E000AEB1AF7CAB29AEB9AEB1A77FAC29AEB964
:1026F000A4B3AF7DAD29A4BBA0910201A77EA629FA
:10270000A0930201A0910201AF79AC2BA09302012A
:10271000A58DB68DAC9077A0A720AC92A58DB68D77
:10272000AC9073A0A728AC92AEB1AF7CAD2BAEB984
:10273000AEB1A77FA12BAEB9A4B3AF7DA02BA4BB34
:10274000A0910201A77EAF29A0930201A0910201EE
:10275000AF79AE29A0930201A58DB68DAC9077A07C
:10276000A720AC92A58DB68DAC9073A0A728AC9293
:10277000AEB1AF7CAB29AEB9AEB1A77FAC29AEB9D3
:10278000A4B3AF7DAD29A4BBA0910201A77EA62969
:10279000A0930201A0910201AF79AC2BA09302019A
:1027A000A58DB68DAC9077A0A720AC92A58DB68DE7
:1027B000AC9073A0A728AC92AEB1AF7CAD2BAEB9F4
:1027C000AEB1A77FA12BAEB9A4B3AF7DA02BA4BBA4
:1027D000A0910201A77EAF29A0930201A09102015E
:1027E000AF79AE29A0930201A58DB68DAC9077A0EC
:1027F000A720AC92A58DB68DAC9073A0A728AC9203
:10280000AEB1AF7CAB29AEB9AEB1A77FAC29AEB942
:10281000A4B3AF7DAD29A4BBA0910201A77EA629D8
:10282000A0930201A0910201AF79AC2BA093020109
:10283000A58DB68DAC9077A0A720AC92A58DB68D56
:10284000AC9073A0A728AC92AEB1AF7CAD2BAEB963
:10285000AEB1A77FA12BAEB9A4B3AF7DA02BA4BB13
:10286000A0910201A77EAF29A0930201A0910201CD
:10287000AF79AE29A0930201A58DB68DAC9077A05B
:10288000A720AC92A58DB68DAC9073A0A728AC9272
:10289000AEB1AF7CAB29AEB9AEB1A77FAC29AEB9B2
:1028A000A4B3AF7DAD29A4BBA0910201A77EA62948
:1028B000A0930201A0910201AF79AC2BA093020179
:1028C000A58DB68DAC9077A0A720AC92A58DB68DC6
:1028D000AC9073A0A728AC92AEB1AF7CAD2BAEB9D3
:1028E000AEB1A77FA12BAEB9A4B3AF7DA02BA4BB83
:1028F000A0910201A77EAF29A0930201A09102013D
:10290000AF79AE29A0930201A58DB68DAC9077A0CA
:10291000A720AC92A58DB68DAC9073A0A728AC92E1
:10292000215009F0DDCE01968816990611F020E1BC
:10293000D7CE4F73415008F4BECE8EB18F7C8B2919
:102940008EB98EB1877F8C298EB984B38F7D8D2906
:1029500084BB80910201877E862980930201809149
:1029600002018F798C2B80930201A58DB68D8C91FD
:1029700097A189238C93A58DB68D8C9193A1892BDA
:102980008C938EB18F7C8D2B8EB98EB1877F812BEE
:102990008EB984B38F7D802B84BB80910201877EAA
:1029A0008F2980930201809102018F798E29809373
:1029B0000201A58DB68D8C9197A189238C93A58D4D
:1029C000B68D8C9193A1892B8C93B4CF4C7F38E03A
:1029D000439FC001112430E0E3E035952795EA9547
:1029E000E1F7822B932B687F962B0895AF92BF92CD
:1029F000CF92DF92EF92FF920F931F93CF93DF93CB
:102A000000D01F92CDB7DEB75C01DC015996ED9185
:102A1000FC915A97808195969C9195978923808304
:102A20005B96ED91FC915C97808196969C918923B1
:102A30008083EEB170E0CB01880F991F880F991F3A
:102A40008073EF7C8E2B8EB9EEB1CB019595879577
:102A5000959587958870E77F8E2B8EB9E4B3CB016F
:102A6000880F991F8072EF7D8E2B84BB02E011E0EE
:102A7000D801EC91CB01F3E095958795FA95E1F7B4
:102A80008871E77E8E2B8C938C9195E0660F771F73
:102A90009A95E1F760768F79682B6C93D5015D96F6
:102AA000ED91FC915E97808197969C9197978923F1
:102AB00080835D96ED91FC915E97808193969C91C9
:102AC0009397892B80835B96ED91FC915C97808135
:102AD00092969C91892B80838AE090E029833A83A7
:102AE0004B835C830E9425397EB129813A814B81D9
:102AF0005C81852F9927AA27BB27682F660F660F51
:102B000060737F7C672B6EB96EB169017A017AE1DF
:102B1000F694E794D794C7947A95D1F77C2D787082
:102B2000677F762B7EB974B3682F660F60727F7DE6
:102B3000672B64BBF801608169017A01ABE1F6940F
:102B4000E794D794C794AA95D1F77C2D7871677EC6
:102B5000762B708360818295880F80766F79862BC3
:102B60008083D5015D96ED91FC915E97808197966B
:102B70009C919797892380835D96ED91FC915E9758
:102B8000808193969C91892B80838AE090E02983B1
:102B90003A834B835C830E9425397EB129813A8137
:102BA0004B815C81CA01AA27BB27682F660F660F7D
:102BB00060737F7C672B6EB96EB169017A0192E117
:102BC000F694E794D794C7949A95D1F77C2D7870B2
:102BD000677F762B7EB974B3682F660F60727F7D36
:102BE000672B64BBF801608169017A0173E1F69497
:102BF000E794D794C7947A95D1F77C2D7871677E46
:102C0000762B708360818295880F80766F79862B12
:102C10008083D5015D96ED91FC915E9780819796BA
:102C20009C919797892380835D96ED91FC915E97A7
:102C3000808193969C91892B80838AE090E0298300
:102C40003A834B835C830E9425399EB129813A8166
:102C50004B815C81C32ED42EE52EFF248C2D880F52
:102C6000880F80739F7C892B8EB96EB1DA01C90100
:102C7000FAE0B695A79597958795FA95D1F788705C
:102C8000677F862B8EB994B38C2D880F80729F7DC1
:102C9000892B84BBF8016081DA01C9017BE0B6951C
:102CA000A795979587957A95D1F78871677E862B3A
:102CB000808380819C2D9295990F90768F79982BA7
:102CC0009083D5015D96ED91FC915E9780819796FA
:102CD0009C919797892380835D96ED91FC915E97F7
:102CE000808193969C91892B80838AE090E0298350
:102CF0003A834B835C830E9425399EB129813A81B6
:102D00004B815C81822F880F880F80739F7C892B79
:102D10008EB96EB1DA01C901E2E0B695A795979533
:102D20008795EA95D1F78870677F862B8EB994B323
:102D3000822F880F80729F7D892B84BBF801608170
:102D4000DA01C90113E0B695A795979587951A956D
:102D5000D1F78871677E862B808380812295220F30
:102D600020768F79282B2083D5015D96ED91FC91FB
:102D70005E97808197969C919797892380835D9633
:102D8000ED91FC915E97808193969C919397892B0E
:102D900080835996ED91FC915A97808191969C91F0
:102DA000892B80830F900F900F900F90DF91CF9120
:102DB0001F910F91FF90EF90DF90CF90BF90AF9059
:102DC0000895DF92EF92FF920F931F93CF93DF93BB
:102DD000EC017A01C901E98DFA8D20813DA12323FF
:102DE0002083288D2111E3C42D89223089F02330DE
:102DF00021F1213079F5EFEEF0E09F01201B310B3E
:102E0000AB01EE19FF098C01CF017B01B90123C091
:102E10002FEE30E0D901A81BB90BC901861B970B17
:102E20002FE331E0B901601B710B8901041B150B05
:102E3000A801FC017B01BD010EC04FE351E09A01E6
:102E4000281B390B461B570BF701C8018A01B70134
:102E5000790101C0FB01AB8DBC8D2C913EA12323D8
:102E60002C932EB12F7C2EB97398A5982091020136
:102E7000277E20930201209102012F7920930201E5
:102E8000AD8DBE8D2C913FA123232C93AD8DBE8D96
:102E90002C913BA1232B2C932EB12F7C2EB9739810
:102EA000A59A20910201277E28602093020120919B
:102EB00002012F7920930201AD8DBE8D2C913FA18F
:102EC00023232C93AD8DBE8D2C913BA1232B2C93D2
:102ED000AB8DBC8D2C913AA1232B2C93DEB0272FE8
:102EE0003327D901AA0FBB1FAA0FBB1FA073BD2D8B
:102EF000BF7CAB2BAEB9DEB0D901B595A795B59522
:102F0000A795A870BD2DB77FAB2BAEB9D4B2D901B0
:102F1000AA0FBB1FA072BD2DBF7DAB2BA4BBD09051
:102F20000201D901B595A795B595A795B595A79532
:102F3000A871BD2DB77EAB2BA0930201A091020119
:102F4000B5E0220F331FBA95E1F72076AF792A2B2F
:102F500020930201AD8DBE8D2C913FA123232C9394
:102F6000AD8DBE8D2C913BA1232B2C93AEB1772739
:102F70009B01220F331F220F331F2073AF7C2A2B9C
:102F80002EB9AEB19B0135952795359527952870BB
:102F9000A77F2A2B2EB9A4B39B01220F331F2072C7
:102FA000AF7D2A2B24BBA09102019B01B3E0359594
:102FB0002795BA95E1F72871A77E2A2B2093020165
:102FC0002091020135E0660F771F3A95E1F76076B0
:102FD0002F79622B60930201AD8DBE8D2C913FA1A4
:102FE00023232C93AD8DBE8D2C913BA1232B2C93B1
:102FF000AB8DBC8D2C913EA123232C932EB12F7C25
:103000002EB97398A59820910201277E2093020182
:10301000209102012F7920930201AD8DBE8D2C915C
:103020003FA123232C93AD8DBE8D2C913BA1232B4F
:103030002C932EB12F7C2EB97398A59A2091020162
:10304000277E286020930201209102012F792062BF
:1030500020930201AD8DBE8D2C913FA123232C9393
:10306000AD8DBE8D2C913BA1232B2C93AB8DBC8DB4
:103070002C913AA1232B2C93AEB1292F3327B901E0
:10308000660F771F660F771F6073AF7C6A2B6EB970
:10309000AEB1B90175956795759567956870A77F0D
:1030A0006A2B6EB9A4B3B901660F771F6072AF7D4A
:1030B0006A2B64BBA0910201B901B3E075956795D5
:1030C000BA95E1F76871A77E6A2B6093020160915F
:1030D000020175E0220F331F7A95E1F720766F79B0
:1030E000262B20930201AD8DBE8D2C913FA1232371
:1030F0002C93AD8DBE8D2C913BA1232B2C936EB1C7
:1031000099279C01220F331F220F331F20736F7CDE
:10311000262B2EB96EB19C013595279535952795AF
:103120002870677F262B2EB964B39C01220F331FB2
:1031300020726F7D262B24BB609102019C01A3E0CD
:1031400035952795AA95E1F72871677E262B209360
:10315000020120910201B5E0880F991FBA95E1F7AD
:1031600080762F79822B80930201AD8DBE8D8C915C
:103170009FA189238C93AD8DBE8D8C919BA1892BB2
:103180008C93AB8DBC8D8C919EA189238C938EB139
:103190008F7C8EB97398A59880910201877E809369
:1031A0000201809102018F7980930201AD8DBE8D65
:1031B0008C919FA189238C93AD8DBE8D8C919BA109
:1031C000892B8C938EB18F7C8EB97398A59A809140
:1031D0000201877E886080930201809102018F79CD
:1031E000806480930201AD8DBE8D8C919FA1892357
:1031F0008C93AD8DBE8D8C919BA1892B8C93AB8DC7
:10320000BC8D8C919AA1892B8C936EB18F2D9927AF
:103210009C01220F331F220F331F20736F7C262B3C
:103220002EB96EB19C013595279535952795287057
:10323000677F262B2EB964B39C01220F331F2072A7
:103240006F7D262B24BB609102019C0173E03595B4
:1032500027957A95E1F72871677E262B2093020146
:1032600020910201A5E0880F991FAA95E1F78076C9
:103270002F79822B80930201AD8DBE8D8C919FA101
:1032800089238C93AD8DBE8D8C919BA1892B8C93C2
:103290002EB1FF24C701880F991F880F991F8073D3
:1032A0002F7C822B8EB92EB1C70195958795959568
:1032B00087958870277F822B8EB924B3C701880F2A
:1032C000991F80722F7D822B84BB20910201C70140
:1032D00073E0959587957A95E1F78871277E822B23
:1032E00080930201809102019701A5E0220F331F14
:1032F000AA95E1F720768F79282B20930201AD8DD6
:10330000BE8D8C919FA189238C93AD8DBE8D8C91A8
:103310009BA1892B8C93AB8DBC8D8C919EA1892315
:103320008C938EB18F7C8EB97398A5988091020191
:10333000877E80930201809102018F798093020140
:10334000AD8DBE8D8C919FA189238C93AD8DBE8D4B
:103350008C919BA1892B8C938EB18F7C8EB97398A5
:10336000A59A80910201877E8860809302018091F6
:103370000201806680930201AD8DBE8D8C919FA16C
:1033800089238C93AD8DBE8D8C919BA1892B8C93C1
:10339000AB8DBC8D8C919AA1892B8C936EB1812FB2
:1033A00099279C01220F331F220F331F20736F7C3C
:1033B000262B2EB96EB19C0135952795359527950D
:1033C0002870677F262B2EB964B39C01220F331F10
:1033D00020726F7D262B24BB609102019C0173E05B
:1033E000359527957A95E1F72871677E262B2093EE
:1033F000020120910201A5E0880F991FAA95E1F72B
:1034000080762F79822B80930201AD8DBE8D8C91B9
:103410009FA189238C93AD8DBE8D8C919BA1892B0F
:103420008C932EB11127C801880F991F880F991FFF
:1034300080732F7C822B8EB92EB1C801959587950C
:10344000959587958870277F822B8EB924B3C80104
:10345000880F991F80722F7D822B84BB20910201DF
:10346000C80173E0959587957A95E1F78871277E75
:10347000822B8093020180910201A5E0000F111FB1
:10348000AA95E1F700768F79082B00930201AD8DA4
:10349000BE8D8C919FA189238C93AD8DBE8D8C9117
:1034A0009BA1892B8C93AB8DBC8D8C919EA1892384
:1034B0008C938EB18F7C8EB97398A5988091020100
:1034C000877E80930201809102018F7980930201AF
:1034D000AD8DBE8D8C919FA189238C93AD8DBE8DBA
:1034E0008C919BA1892B8C938EB18F7C8EB9739A12
:1034F000A59880910201877E80930201809102014C
:103500008F7980930201AD8DBE8D8C919FA189230F
:103510008C93AD8DBE8D8C919BA1892B8C93AB8DA3
:10352000BC8D8C919AA1892B8C936EB18F2F99278A
:103530009C01220F331F220F331F20736F7C262B19
:103540002EB96EB19C013595279535952795287034
:10355000677F262B2EB964B39C01220F331F207284
:103560006F7D262B24BB609102019C01A3E0359561
:103570002795AA95E1F72871677E262B20930201F3
:1035800020910201B5E0880F991FBA95E1F7807686
:103590002F79822B80930201AD8DBE8D8C919FA1DE
:1035A00089238C93AD8DBE8D8C919BA1892B8C939F
:1035B0002EB1FF27CF01880F991F880F991F8073A5
:1035C0002F7C822B8EB92EB1CF019595879595953D
:1035D00087958870277F822B8EB924B3CF01880FFF
:1035E000991F80722F7D822B84BB20910201CF0115
:1035F00063E0959587956A95E1F78871277E822B20
:10360000809302018091020175E0EE0FFF1F7A9511
:10361000E1F7E0768F79E82BE0930201ED8DFE8DE6
:1036200080819FA189238083ED8DFE8D80819BA168
:10363000892B8083EB8DFC8D80819EA189238083E3
:103640008EB18F7C8EB97398A59880910201877E88
:1036500080930201809102018F7980930201ED8DA8
:10366000FE8D80819FA189238083ED8DFE8D8081D9
:103670009BA1892B80838EB18F7C8EB9739AA5987C
:1036800080910201877E80930201809102018F79EF
:10369000806280930201ED8DFE8D80819FA1892340
:1036A0008083ED8DFE8D80819BA1892B8083EB8DA6
:1036B000FC8D80819AA1892B80836EB1852F9927FB
:1036C0009C01220F331F220F331F20736F7C262B88
:1036D0002EB96EB19C0135952795359527952870A3
:1036E000677F262B2EB964B39C01220F331F2072F3
:1036F0006F7D262B24BB609102019C0113E0359560
:1037000027951A95E1F72871677E262B20930201F1
:103710002091020105E0880F991F0A95E1F7807654
:103720002F79822B80930201ED8DFE8D80819FA1E8
:1037300089238083ED8DFE8D80819BA1892B8083E1
:103740002EB15527CA01880F991F880F991F8073C2
:103750002F7C822B8EB92EB1CA01959587959595B0
:1037600087958870277F822B8EB924B3CA01880F72
:10377000991F80722F7D822B84BB20910201CA0188
:10378000E3E095958795EA95E1F78871277E822B8E
:103790008093020180910201F5E0440F551FFA95D4
:1037A000E1F740768F79482B409302014EC32130D8
:1037B00009F058C3EB8DFC8D20813EA1232320838B
:1037C0002EB12F7C2EB97398A59820910201277EE7
:1037D00020930201209102012F792064209302019D
:1037E000ED8DFE8D20813FA123232083ED8DFE8D65
:1037F00020813BA1232B2083EB8DFC8D20813AA1DE
:10380000232B2083EEB1272F3327A901440F551F07
:10381000440F551F4073EF7C4E2B4EB9EEB1A901FA
:1038200055954795559547954870E77F4E2B4EB96E
:10383000E4B3A901440F551F4072EF7D4E2B44BBEA
:10384000E0910201A901F3E055954795FA95E1F75A
:103850004871E77E4E2B4093020140910201A5E0A2
:10386000220F331FAA95E1F720764F79242B20935E
:103870000201ED8DFE8D20813FA123232083ED8D5C
:10388000FE8D20813BA1232B2083EB8DFC8D20819D
:103890003EA1232320832EB12F7C2EB97398A598A7
:1038A00020910201277E20930201209102012066CF
:1038B00020930201ED8DFE8D20813FA123232083E3
:1038C000ED8DFE8D20813BA1232B2083EB8DFC8D84
:1038D00020813AA1232B20834EB177279B01220F11
:1038E000331F220F331F20734F7C242B2EB94EB170
:1038F0009B0135952795359527952870477F242B73
:103900002EB944B39B01220F331F20724F7D242B0D
:1039100024BB409102019B01F3E035952795FA9570
:10392000E1F72871477E242B2093020120910201A8
:10393000A5E0660F771FAA95E1F760762F79622BD5
:1039400060930201ED8DFE8D20813FA12323208312
:10395000ED8DFE8D20813BA1232B2083EB8DFC8DF3
:1039600020813EA1232320832EB12F7C20612EB9FC
:103970007398A59820910201277E2093020120913F
:1039800002012F79206420930201ED8DFE8D2081AC
:103990003FA123232083ED8DFE8D20813BA1232B8E
:1039A0002083EB8DFC8D20813AA1232B20836EB1E7
:1039B0002F2D3327A901440F551F440F551F407366
:1039C0006F7C462B4EB96EB1A9015595479555951B
:1039D00047954870677F462B4EB964B3A901440FE1
:1039E000551F40726F7D462B44BB60910201A901B7
:1039F000A3E055954795AA95E1F74871677E462B58
:103A00004093020140910201B5E0220F331FBA95A5
:103A1000E1F720764F79242B20930201ED8DFE8D66
:103A200020813FA123232083ED8DFE8D20813BA1AA
:103A3000232B2083EB8DFC8D20813EA1232320832B
:103A40002EB12F7C20612EB97398A5982091020188
:103A5000277E20930201209102012066209302011B
:103A6000ED8DFE8D20813FA123232083ED8DFE8DE2
:103A700020813BA1232B2083EB8DFC8D20813AA15B
:103A8000232B20834EB1FF249701220F331F220FD7
:103A9000331F20734F7C242B2EB94EB197013595DF
:103AA0002795359527952870477F242B2EB944B349
:103AB0009701220F331F20724F7D242B24BB40918E
:103AC00002019701E3E035952795EA95E1F7287122
:103AD000477E242B20930201409102019701F5E0DB
:103AE000220F331FFA95E1F720764F79242B20938C
:103AF0000201ED8DFE8D20813FA123232083ED8DDA
:103B0000FE8D20813BA1232B2083EB8DFC8D20811A
:103B10003EA1232320832EB12F7C20612EB97398E0
:103B2000A59820910201277E209302012091020195
:103B30002F7920930201ED8DFE8D20813FA123235B
:103B40002083ED8DFE8D20813BA1232B2083EB8DE7
:103B5000FC8D20813AA1232B20836EB1292F33279E
:103B6000A901440F551F440F551F40736F7C462B0E
:103B70004EB96EB1A9015595479555954795487031
:103B8000677F462B4EB964B3A901440F551F40729D
:103B90006F7D462B44BB60910201A901F3E055956E
:103BA0004795FA95E1F74871677E462B40930201ED
:103BB00040910201A5E0220F331FAA95E1F720767C
:103BC0004F79242B20930201ED8DFE8D20813FA1A2
:103BD00023232083ED8DFE8D20813BA1232B208389
:103BE000EB8DFC8D20813EA1232320832EB12F7CE1
:103BF00020612EB97398A59820910201277E209309
:103C00000201209102012F79206220930201ED8DA3
:103C1000FE8D20813FA123232083ED8DFE8D208109
:103C20003BA1232B2083EB8DFC8D20813AA1232BFC
:103C300020834EB199279C01220F331F220F331F7F
:103C400020734F7C242B2EB94EB19C0135952795BE
:103C5000359527952870477F242B2EB944B39C01B6
:103C6000220F331F20724F7D242B24BB4091020171
:103C70009C0173E0359527957A95E1F72871477E89
:103C8000242B2093020120910201E5E0880F991F67
:103C9000EA95E1F780762F79822B80930201ED8DF2
:103CA000FE8D80819FA189238083ED8DFE8D808193
:103CB0009BA1892B8083EB8DFC8D80819EA1892324
:103CC00080838EB18F7C80628EB97398A598809125
:103CD0000201877E80930201809102018F79809397
:103CE0000201ED8DFE8D80819FA189238083ED8D62
:103CF000FE8D80819BA1892B8083EB8DFC8D808143
:103D00009AA1892B80834EB1812F99279C01220F84
:103D1000331F220F331F20734F7C242B2EB94EB13B
:103D20009C0135952795359527952870477F242B3D
:103D30002EB944B39C01220F331F20724F7D242BD8
:103D400024BB409102019C0163E0359527956A955B
:103D5000E1F72871477E242B209302012091020174
:103D600075E0880F991F7A95E1F780762F79822B7D
:103D700080930201ED8DFE8D80819FA18923808338
:103D8000ED8DFE8D80819BA1892B8083EB8DFC8D39
:103D900080819EA1892380838EB18F7C80628EB9C1
:103DA0007398A59880910201877E8093020180918B
:103DB00002018F79806280930201ED8DFE8D8081FA
:103DC0009FA189238083ED8DFE8D80819BA1892B0E
:103DD0008083EB8DFC8D80819AA1892B80832EB10D
:103DE0001127C801880F991F880F991F80732F7C96
:103DF000822B8EB92EB1C80195958795959587959B
:103E00008870277F822B8EB924B3C801880F991F31
:103E100080722F7D822B84BB20910201C801B3E008
:103E200095958795BA95E1F78871277E822B8093C7
:103E300002018091020195E0000F111F9A95E1F7B0
:103E400000768F79082B00930201ED8DFE8D808125
:103E50009FA189238083ED8DFE8D80819BA1892B7D
:103E600080832BC02250223040F5AB01662757FDDE
:103E70006095762F33272227AA2797FDA095BA2F82
:103E8000282B392B4A2B5B2B6AE2CE010E94F614B9
:103E9000C701AA2797FDA095BA2FAC013327222787
:103EA000C801AA2797FDA095BA2F282B392B4A2B9A
:103EB0005B2B6BE2CE010E94F614E98DFA8D8081B6
:103EC00099A1892B8083DF91CF911F910F91FF9052
:103ED000EF90DF900895CF92DF92EF92FF920F93D1
:103EE0001F93CF93DF93EC0169017801121613063B
:103EF0000CF04FC057FD4DC08A859B854817590768
:103F00000CF047C088859985681779070CF041C087
:103F1000FB01E20FF31F9F012150310937FD39C02A
:103F200077FF03C06F0160E070E02817390734F0B5
:103F30009C01215031096C01C61AD70A8A01CE01B1
:103F40000E94E1169601442737FD4095542FB70192
:103F5000CE010E94BC11888D811110C00A851B857D
:103F600001501109288539852150310940E050E080
:103F700060E070E0CE010E94E1160BC0CE01DF913F
:103F8000CF911F910F91FF90EF90DF90CF900C9405
:103F90001010DF91CF911F910F91FF90EF90DF9064
:103FA000CF900895CF92DF92EF92FF920F931F93DD
:103FB000CF93DF93EC0169017801121613060CF020
:103FC0004FC077FD4DC088859985681779070CF03B
:103FD00047C08A859B85481759070CF041C09A0154
:103FE0002C0D3D1D89010150110917FD39C057FFE6
:103FF00003C0690140E050E00817190734F08C0154
:10400000015011096C01C41AD50A9B01CE010E940E
:10401000E1169601442737FD4095542FB701CE0194
:104020000E94BC11888D811110C00A851B8501502A
:104030001109288539852150310940E050E060E0C0
:1040400070E0CE010E94E1160BC0CE01DF91CF914E
:104050001F910F91FF90EF90DF90CF900C94101074
:10406000DF91CF911F910F91FF90EF90DF90CF9054
:1040700008958F929F92AF92BF92CF92DF92EF926C
:10408000FF920F931F93CF93DF93EC0159016801C7
:104090004701121613060CF06BC0101611060CF037
:1040A00067C088859985681779070CF061C0EA8434
:1040B000FB844E155F050CF05BC0FB01E20FF31FA4
:1040C0009F012150310937FD53C0DA01A00FB11F04
:1040D0008D010150110917FD4BC077FF03C05F012F
:1040E00060E070E057FF03C06D0140E050E028172A
:1040F000390734F09C01215031095C01A61AB70A36
:104100000E151F0534F08701015011096701C41A0B
:10411000D50ACE010E94E1169601D5010E94E54024
:104120009B01AC01B401CE010E94BC11888D8111AC
:1041300010C00A851B850150110928853985215039
:10414000310940E050E060E070E0CE010E94E116ED
:104150000FC0CE01DF91CF911F910F91FF90EF9093
:10416000DF90CF90BF90AF909F908F900C941010E5
:10417000DF91CF911F910F91FF90EF90DF90CF9043
:10418000BF90AF909F908F900895EF92FF920F9302
:104190001F93CF93DF93EC017B01888D811151C177
:1041A000ED89E150E33068F4F0E0DF01A65DBD4F3A
:1041B0008C9190E0EE0FFF1FEC5DFD4F208131816F
:1041C00004C020E030E080E090E0E98DFA8D40818D
:1041D0005DA145234083EB8DFC8D40815EA145238D
:1041E00040834EB14F7C4EB97398A598409102011F
:1041F000477E40930201409102014F7940930201B2
:10420000ED8DFE8D40815FA145234083ED8DFE8DB8
:1042100040815BA1452B40834EB14F7C4EB9739AD0
:10422000A59840910201477E40930201409102010E
:104230004F7940930201ED8DFE8D40815FA14523B2
:104240004083ED8DFE8D40815BA1452B4083EB8D3E
:10425000FC8D40815AA1452B40834EB14F7C4EB915
:104260007398A59840910201477E409302014091C6
:1042700002014F7940930201ED8DFE8D40815FA1D7
:1042800045234083ED8DFE8D40815BA1452B40830E
:104290006EB1AC01440F551F440F551F40736F7C26
:1042A000462B4EB96EB1AC0155954795559547953E
:1042B0004870677F462B4EB9A59860910201AC010A
:1042C00013E0559547951A95E1F74871677E462B9F
:1042D000409302014091020105E0880F991F0A9561
:1042E000E1F780764F79842B80930201ED8DFE8D6E
:1042F00080819FA189238083ED8DFE8D80819BA18C
:10430000892B8083EB8DFC8D80819EA18923808306
:104310008EB18F7C8EB97398A59880910201877EAB
:1043200080930201809102018F7980930201ED8DCB
:10433000FE8D80819FA189238083ED8DFE8D8081FC
:104340009BA1892B80838EB18F7C8EB9739AA5989F
:1043500080910201877E80930201809102018F7912
:10436000806280930201ED8DFE8D80819FA1892363
:104370008083ED8DFE8D80819BA1892B8083EB8DC9
:10438000FC8D80819AA1892B80838EB18F7C8EB920
:104390007398A59880910201877E80930201909185
:1043A0000201832F8295880F80769F79892B8093D5
:1043B0000201ED8DFE8D80819FA189238083ED8D8B
:1043C000FE8D80819BA1892B80834EB1C9019927E5
:1043D0009C01220F331F220F331F20734F7C242B8D
:1043E0002EB94EB19C0135952795359527952870A6
:1043F000477F242B2EB944B39C01220F331F207218
:104400004F7D242B24BB20910201277E20930201A3
:1044100020910201E5E0880F991FEA95E1F7807687
:104420002F79822B80930201ED8DFE8D80819FA1DB
:1044300089238083ED8DFE8D80819BA1892B8083D4
:1044400012C08150833078F40A851B850150110910
:10445000288539852150310940E050E060E070E066
:10446000CE010E94E11620E03CE241E050E0B701BD
:10447000CE01DF91CF911F910F91FF90EF900C949F
:10448000BC11EF92FF920F931F93CF93DF93EC0138
:10449000790177FD4BC557FD49C588859985681712
:1044A00079070CF043C58A859B85481759070CF09E
:1044B0003DC5E98DFA8D80819DA189238083888DFA
:1044C0008111D1C18D89823059F08330B1F08130B2
:1044D000D1F48FEE90E0841B950BAB01BC0113C0AF
:1044E0008FEE90E09C01261B370BB9018FE391E022
:1044F0009C01241B350BA90106C08FE391E0861BAC
:10450000970BBA01AC01EB8DFC8D80819EA18923B4
:1045100080838EB18F7C8EB97398A59880910201AB
:10452000877E80930201809102018F79809302013E
:10453000ED8DFE8D80819FA189238083ED8DFE8D81
:1045400080819BA1892B80838EB18F7C8EB9739AD9
:10455000A59880910201877E8093020180910201DB
:104560008F7980930201ED8DFE8D80819FA189233B
:104570008083ED8DFE8D80819BA1892B8083EB8DC7
:10458000FC8D80819AA1892B8083EEB1872F99279A
:104590009C01220F331F220F331F2073EF7C2E2B21
:1045A0002EB9EEB19C013595279535952795287044
:1045B000E77F2E2B2EB9E4B39C01220F331F20720C
:1045C000EF7D2E2B24BBE09102019C0113E0359579
:1045D00027951A95E1F72871E77E2E2B209302018B
:1045E0002091020105E0880F991F0A95E1F7807676
:1045F0002F79822B80930201ED8DFE8D80819FA10A
:1046000089238083ED8DFE8D80819BA1892B808302
:104610002EB17727CB01880F991F880F991F8073C0
:104620002F7C822B8EB92EB1CB01959587959595D0
:1046300087958870277F822B8EB924B3CB01880F92
:10464000991F80722F7D822B84BB20910201CB01A8
:10465000A3E095958795AA95E1F78871277E822B2F
:104660008093020180910201B5E0660F771FBA9531
:10467000E1F760768F79682B60930201ED8DFE8DF6
:1046800080819FA189238083ED8DFE8D80819BA1F8
:10469000892B8083EB8DFC8D80819EA18923808373
:1046A0008EB18F7C8EB97398A59880910201877E18
:1046B00080930201809102018F7980930201ED8D38
:1046C000FE8D80819FA189238083ED8DFE8D808169
:1046D0009BA1892B80838EB18F7C8EB9739AA5980C
:1046E00080910201877E80930201809102018F797F
:1046F000806280930201ED8DFE8D80819FA18923D0
:104700008083ED8DFE8D80819BA1892B8083EB8D35
:10471000FC8D80819AA1892B80836EB1852F99278A
:104720009C01220F331F220F331F20736F7C262B17
:104730002EB96EB19C013595279535952795287032
:10474000677F262B2EB964B39C01220F331F207282
:104750006F7D262B24BB609102019C01F3E035950F
:104760002795FA95E1F72871677E262B20930201A1
:1047700020910201A5E0880F991FAA95E1F78076A4
:104780002F79822B80930201ED8DFE8D80819FA178
:1047900089238083ED8DFE8D80819BA1892B808371
:1047A0002EB15527CA01880F991F880F991F807352
:1047B0002F7C822B8EB92EB1CA0195958795959540
:1047C00087958870277F822B8EB924B3CA01880F02
:1047D000991F80722F7D822B84BB20910201CA0118
:1047E00033E0959587953A95E1F78871277E822B7E
:1047F000809302018091020165E0440F551F6A9584
:10480000E1F740768F79482B40930201ED8DFE8DC4
:1048100080819FA189238083ED8DFE8D80819BA166
:10482000892B8083EB8DFC8D80819EA189238083E1
:104830008EB18F7C8EB97398A59880910201877E86
:1048400080930201809102018F7980930201ED8DA6
:10485000FE8D80819FA189238083ED8DFE8D8081D7
:104860009BA1892B11C2813009F0AAC2ED89E150C8
:10487000E33028F4F0E0EF5DFD4F808101C080E07F
:10488000EB8DFC8D90812EA1922390839EB19F7C15
:1048900090619EB97398A59A90910201977E90932A
:1048A0000201909102019F79906490930201ED8D35
:1048B000FE8D90812FA192239083ED8DFE8D9081AE
:1048C0002BA1922B9083EB8DFC8D90812AA1922BB2
:1048D00090839EB19F7C9EB9EEB190E09C0135958E
:1048E0002795359527952870E77F2E2B2EB9A5980B
:1048F00020910201A3E095958795AA95E1F788712B
:10490000277E822B80930201809102018F79809310
:104910000201ED8DFE8D80819FA189238083ED8D25
:10492000FE8D80819BA1892B8083EB8DFC8D808106
:104930009EA1892380838EB18F7C8EB97398A598B0
:1049400080910201877E80930201809102018F791C
:10495000806480930201ED8DFE8D80819FA189236B
:104960008083ED8DFE8D80819BA1892B8083EB8DD3
:10497000FC8D80819AA1892B8083EEB1872F9927A6
:104980009C01220F331F220F331F2073EF7C2E2B2D
:104990002EB9EEB19C013595279535952795287050
:1049A000E77F2E2B2EB9E4B39C01220F331F207218
:1049B000EF7D2E2B24BBE09102019C01A3E03595F5
:1049C0002795AA95E1F72871E77E2E2B2093020107
:1049D00020910201B5E0880F991FBA95E1F7807622
:1049E0002F79822B80930201ED8DFE8D80819FA116
:1049F00089238083ED8DFE8D80819BA1892B80830F
:104A0000EB8DFC8D80819EA1892380838EB18F7C6C
:104A10008EB97398A59880910201877E80930201D8
:104A200080910201806680930201ED8DFE8D808170
:104A30009FA189238083ED8DFE8D80819BA1892B91
:104A40008083EB8DFC8D80819AA1892B80832EB190
:104A50007727CB01880F991F880F991F80732F7CB0
:104A6000822B8EB92EB1CB0195958795959587951B
:104A70008870277F822B8EB924B3CB01880F991FB2
:104A800080722F7D822B84BB20910201CB01E3E059
:104A900095958795EA95E1F78871277E822B80931B
:104AA000020180910201F5E0660F771FFA95E1F7A8
:104AB00060768F79682B60930201ED8DFE8D808189
:104AC0009FA189238083ED8DFE8D80819BA1892B01
:104AD0008083EB8DFC8D80819EA1892380838EB1A4
:104AE0008F7C80618EB97398A59880910201877E32
:104AF00080930201809102018F798064809302018A
:104B0000ED8DFE8D80819FA189238083ED8DFE8DAB
:104B100080819BA1892B8083EB8DFC8D80819AA164
:104B2000892B80836EB1852F99279C01220F331F1B
:104B3000220F331F20736F7C262B2EB96EB19C0180
:104B400035952795359527952870677F262B2EB9A3
:104B500064B39C01220F331F20726F7D262B24BB70
:104B6000609102019C0173E0359527957A95E1F7F4
:104B70002871677E262B2093020120910201E5E037
:104B8000880F991FEA95E1F780762F79822B809321
:104B90000201ED8DFE8D80819FA189238083ED8DA3
:104BA000FE8D80819BA1892B8083EB8DFC8D808184
:104BB0009EA1892380838EB18F7C80618EB973988A
:104BC000A59880910201877E809302018091020165
:104BD000806680930201ED8DFE8D80819FA18923E7
:104BE0008083ED8DFE8D80819BA1892B8083EB8D51
:104BF000FC8D80819AA1892B80832EB15527CA0113
:104C0000880F991F880F991F80732F7C822B8EB974
:104C10002EB1CA0195958795959587958870277FC0
:104C2000822B8EB924B3CA01880F991F80722F7D01
:104C3000822B84BB20910201CA0113E095958795D0
:104C40001A95E1F78871277E822B8093020180916B
:104C5000020105E0440F551F0A95E1F740768F7970
:104C6000482B40930201ED8DFE8D80819FA1892309
:104C70008083ED8DFE8D80819BA1892B8083EB8DC0
:104C8000FC8D80819EA1892380838EB18F7C8EB91B
:104C9000739AA59880910201877E8093020180918A
:104CA00002018F79806480930201ED8DFE8D8081F9
:104CB0009FA189238083ED8DFE8D80819BA1892B0F
:104CC0008083EB8DFC8D80819AA1892B80834EB1EE
:104CD0008F2D99279C01220F331F220F331F207322
:104CE0004F7C242B2EB94EB19C01359527953595D7
:104CF00027952870477F242B2EB944B39C01220F9F
:104D0000331F20724F7D242B24BB409102019C0154
:104D1000E3E035952795EA95E1F72871477E242B46
:104D20002093020120910201F5E0880F991FFA9566
:104D3000E1F780762F79822B80930201ED8DFE8D35
:104D400080819FA189238083ED8DFE8D80819BA131
:104D5000892B80832EB1FF24C701880F991F880FEC
:104D6000991F80732F7C822B8EB92EB1C701959528
:104D70008795959587958870277F822B8EB924B368
:104D8000C701880F991F80722F7D822B84BB2091D1
:104D90000201C70103E0959587950A95E1F78871AF
:104DA000277E822B8093020120910201C70135E00A
:104DB000880F991F3A95E1F780762F79822BA2C050
:104DC0008250823008F0ACC00A851B850150110961
:104DD0002885398521503109CE010E94E116E98DDF
:104DE000FA8D80819DA189238083EB8DFC8D80814C
:104DF0009EA1892380838EB180638EB9739AA59812
:104E000080910201877E80930201809102018F7957
:104E100080930201ED8DFE8D80819FA18923808387
:104E2000ED8DFE8D80819BA1892B8083EB8DFC8D88
:104E300080819AA1892B80839EB18F2D880F880F46
:104E400080739F7C892B8EB99EB18F2D8695869518
:104E50008870977F892B8EB994B38F2D880F8072BD
:104E60009F7D892B84BB909102018F2D869586951D
:104E700086958871977E892B80930201909102011B
:104E80008F2D8295880F80769F79892B80930201E0
:104E9000ED8DFE8D80819FA189238083ED8DFE8D18
:104EA00080819BA1892B80839EB18E2D880F880FD6
:104EB00080739F7C892B8EB92EB1C70196958795FB
:104EC000969587958870277F822B8EB994B38E2D07
:104ED000880F80729F7D892B84BB20910201C701BE
:104EE00013E0969587951A95E1F78871277E822BB6
:104EF00080930201909102018E2D8295880F807619
:104F00009F79892B80930201ED8DFE8D80819FA179
:104F100089238083ED8DFE8D80819BA1892B8083E9
:104F2000E98DFA8D808199A1892B8083DF91CF91C2
:104F30001F910F91FF90EF900895CF92DF92EF9223
:104F4000FF920F931F93CF93DF93EC010E94BF0E4C
:104F5000E98DFA8D80819DA189238083888D8111BF
:104F6000ACC0ED89E150E33040F4F0E0EE0FFF1FFC
:104F7000E55EFD4F8081918102C080E390E1EB8D81
:104F8000FC8D20813EA1232320832EB12F7C2EB9BE
:104F90007398A59820910201277E20930201209109
:104FA00002012F7920930201ED8DFE8D20813FA11A
:104FB00023232083ED8DFE8D20813BA1232B208395
:104FC0002EB12F7C2EB97398A59820910201277ECF
:104FD0002093020120910201206620930201ED8DB1
:104FE000FE8D20813FA123232083ED8DFE8D208126
:104FF0003BA1232B2083EB8DFC8D20813AA1232B19
:1050000020832EB12F7C2EB97398A59A209102018E
:10501000277E20930201209102012F792093020123
:10502000ED8DFE8D20813FA123232083ED8DFE8D0C
:1050300020813BA1232B20834EB199279C01220F75
:10504000331F220F331F20734F7C242B2EB94EB1F8
:105050009C0135952795359527952870477F242BFA
:105060002EB924B3880F991F80722F7D822B84BBA9
:1050700080910201877E80930201809102018F79E5
:1050800080930201ED8DFE8D80819FA18923808315
:10509000ED8DFE8D80819BA1892B80830A851B85E8
:1050A00001501109288539852150310940E050E02F
:1050B00060E070E0CE010E94E116888D813009F039
:1050C00062C0ED89E150E33028F4F0E0E85EFD4F86
:1050D000808101C080E0EB8DFC8D90812EA1922318
:1050E00090839EB19F7C90619EB97398A59A909190
:1050F0000201977E90930201909102019F79906442
:1051000090930201ED8DFE8D90812FA192239083CB
:10511000ED8DFE8D90812BA1922B9083EB8DFC8DDC
:1051200090812AA1922B90839EB19F7C9EB94EB113
:1051300090E09C0135952795359527952870477FF8
:10514000242B2EB9A5982091020163E095958795AF
:105150006A95E1F78871277E822B80930201809106
:1051600002018F7980930201ED8DFE8D80819FA1D8
:1051700089238083ED8DFE8D80819BA1892B808387
:10518000CE010E941010888D823009F07CC08D897C
:10519000813069F040F0823071F0833079F438E288
:1051A000C32ED12C0BC028E8C22ED12C07C098EEFC
:1051B000C92ED12C03C088E4C82ED12CEB8DFC8DD8
:1051C00080819EA1892380838EB18F7C80618EB97E
:1051D000739AA59A80910201877E80930201809143
:1051E00002018F79806480930201ED8DFE8D8081B4
:1051F0009FA189238083ED8DFE8D80819BA1892BCA
:105200008083EB8DFC8D80819AA1892B80838EB168
:105210008F7C80628EB92EB1C60196958795969542
:1052200087958870277F822B8EB9A59820910201DF
:10523000C60103E0969587950A95E1F78871277E68
:10524000822B80930201809102018F798093020169
:10525000ED8DFE8D80819FA189238083ED8DFE8D54
:1052600080819BA1892B80830A851B8501501109B0
:10527000288539852150310940E050E060E070E038
:10528000CE010E94E116888D833009F07AC08D89A5
:10529000813069F040F0823071F0833071F4B0E613
:1052A000EB2EF12C0AC0A0ECEA2EF12C06C0F0EA9D
:1052B000EF2EF12C02C0E12CF12CEB8DFC8D8081C6
:1052C0009EA1892380838EB18F7C80618EB9739A71
:1052D000A59A80910201877E80930201809102014C
:1052E0008F79806480930201ED8DFE8D80819FA176
:1052F00089238083ED8DFE8D80819BA1892B808306
:10530000EB8DFC8D80819AA1892B80838EB18F7C5F
:105310008EB92EB1C7019695879596958795887019
:10532000277F822B8EB9A59820910201C701E3E067
:1053300096958795EA95E1F78871277E822B809371
:105340000201809102018F7980930201ED8DFE8D23
:1053500080819FA189238083ED8DFE8D80819BA11B
:10536000892B80830A851B85015011092885398581
:105370002150310940E050E060E070E0CE010E9431
:10538000E116DF91CF911F910F91FF90EF90DF9089
:10539000CF9008950F931F93CF93DF93EC018B0170
:1053A0000E94AC0F68EC70E080E090E00E94003951
:1053B000053283E9180729F00832E3E91E0709F0EE
:1053C0003AC1188EE98DFA8D80819DA18923808351
:1053D00008E016E0F80125913491F80132966591C4
:1053E00074912F3F310529F480E090E00E9400394C
:1053F00017C1EB8DFC8D80819EA189238083EEB146
:10540000432F5527CA01880F991F880F991F807352
:10541000EF7C8E2B8EB9EEB1CA0195958795959547
:1054200087958870E77F8E2B8EB9E4B3CA01880F09
:10543000991F8072EF7D8E2B84BBE0910201CA011F
:10544000F3E095958795FA95E1F78871E77E8E2BC5
:105450008093020180910201A5E0440F551FAA9597
:10546000E1F740768F79482B40930201ED8DFE8D58
:1054700080819FA189238083ED8DFE8D80819BA1FA
:10548000892B80834EB13327C901880F991F880F5C
:10549000991F80734F7C842B8EB94EB1C9019595AD
:1054A0008795959587958870477F842B8EB944B3EF
:1054B000C901880F991F80724F7D842B84BB409156
:1054C0000201C901F3E095958795FA95E1F7887196
:1054D000477E842B8093020180910201A5E0220F78
:1054E000331FAA95E1F720768F79282B20930201AC
:1054F000ED8DFE8D80819FA189238083ED8DFE8DB2
:1055000080819BA1892B8083EB8DFC8D80819AA16A
:10551000892B80834EB1272F3327C901880F991F0C
:10552000880F991F80734F7C842B8EB94EB1C901AF
:1055300095958795959587958870477F842B8EB92B
:1055400044B3C901880F991F80724F7D842B84BB9F
:1055500040910201C901A3E095958795AA95E1F7CD
:105560008871477E842B8093020180910201B5E00F
:10557000220F331FBA95E1F720768F79282B2093DD
:105580000201ED8DFE8D80819FA189238083ED8DA9
:10559000FE8D80819BA1892B80834EB1CB01992701
:1055A0009C01220F331F220F331F20734F7C242BAB
:1055B0002EB94EB19C0135952795359527952870C4
:1055C000477F242B2EB944B39C01220F331F207236
:1055D0004F7D242B24BB409102019C01E3E03595D3
:1055E0002795EA95E1F72871477E242B2093020145
:1055F00020910201F5E0880F991FFA95E1F7807676
:105600002F79822B80930201ED8DFE8D80819FA1E9
:1056100089238083ED8DFE8D80819BA1892B8083E2
:105620000C5F1F4FF6E0043D1F0709F0D3CE6D89D4
:10563000CE0183DCBCC3013483E9180709F0C3C37E
:1056400082E0888FE98DFA8D80819DA189238083F6
:10565000EB8DFC8D80819EA1892380838EB18F7C10
:105660008EB97398A59880910201877E809302017C
:10567000809102018F79806280930201ED8DFE8D11
:1056800080819FA189238083ED8DFE8D80819BA1E8
:10569000892B8083EB8DFC8D80819AA1892B80835F
:1056A0008EB18F7C8EB97398A59880910201877E08
:1056B00080930201809102018F7980930201ED8D28
:1056C000FE8D80819FA189238083ED8DFE8D808159
:1056D0009BA1892B808362E370E080E090E00E94D0
:1056E0000039EB8DFC8D80819EA1892380838EB152
:1056F0008F7C80628EB9739AA59880910201877E13
:1057000080930201809102018F7980930201ED8DD7
:10571000FE8D80819FA189238083ED8DFE8D808108
:105720009BA1892B8083EB8DFC8D80819AA1892B95
:1057300080838EB18F7C8EB97398A5988091020179
:10574000877E80930201809102018F79809302010C
:10575000ED8DFE8D80819FA189238083ED8DFE8D4F
:1057600080819BA1892B8083EB8DFC8D80819EA104
:10577000892380838EB18F7C8EB97398A598809190
:105780000201886180930201809102018F798093E8
:105790000201ED8DFE8D80819FA189238083ED8D97
:1057A000FE8D80819BA1892B8083EB8DFC8D808178
:1057B0009AA1892B80838EB18F7C8EB9739AA5981C
:1057C00080910201877E80930201809102018066B0
:1057D00080930201ED8DFE8D80819FA189238083BE
:1057E000ED8DFE8D80819BA1892B8083EB8DFC8DBF
:1057F00080819EA1892380838EB18F7C8EB973981E
:10580000A598809102018861809302018091020134
:105810008F79806280930201ED8DFE8D80819FA142
:1058200089238083ED8DFE8D80819BA1892B8083D0
:10583000EB8DFC8D80819AA1892B80838EB18F7C2A
:105840008EB97398A59A80910201877E8093020198
:10585000809102018F7980930201ED8DFE8D808110
:105860009FA189238083ED8DFE8D80819BA1892B53
:105870008083EB8DFC8D80819EA1892380838EB1F6
:105880008F7C8EB97398A59880910201877E809352
:105890000201809102018F7980930201ED8DFE8DCE
:1058A00080819FA189238083ED8DFE8D80819BA1C6
:1058B000892B80838EB18F7C80618EB97398A59877
:1058C00080910201886180930201809102018F79A9
:1058D000806280930201ED8DFE8D80819FA18923DE
:1058E0008083ED8DFE8D80819BA1892B8083EB8D44
:1058F000FC8D80819AA1892B80838EB18F7C806200
:105900008EB9739AA59880910201877E80930201D7
:1059100080910201806680930201ED8DFE8D808171
:105920009FA189238083ED8DFE8D80819BA1892B92
:1059300080838EB18F7C80628EB9739AA598809196
:105940000201877E8093020180910201806680932C
:105950000201ED8DFE8D80819FA189238083ED8DD5
:10596000FE8D80819BA1892B8083EB8DFC8D8081B6
:105970009EA1892380838EB18F7C80618EB97398BC
:10598000A5988091020188618093020180910201B3
:10599000806680930201ED8DFE8D80819FA1892319
:1059A0008083ED8DFE8D80819BA1892B8083EB8D83
:1059B000FC8D80819AA1892B80838EB18F7C8EB9DA
:1059C0007398A5988091020188618093020180916B
:1059D00002018F7980930201ED8DFE8D80819FA160
:1059E00089238083ED8DFE8D80819BA1892B80830F
:1059F000EB8DFC8D80819EA1892380838EB18F7C6D
:105A000080618EB9739AA59A80910201877E8093F6
:105A10000201809102018F79806480930201ED8DF3
:105A2000FE8D80819FA189238083ED8DFE8D8081F5
:105A30009BA1892B8083EB8DFC8D80819AA1892B82
:105A400080838EB18F7C80628EB97398A598809187
:105A50000201877E80930201809102018F798093F9
:105A60000201ED8DFE8D80819FA189238083ED8DC4
:105A7000FE8D80819BA1892B8083EB8DFC8D8081A5
:105A80009EA1892380838EB18F7C80628EB9739AA8
:105A9000A59A80910201877E809302018091020184
:105AA0008F79806480930201ED8DFE8D80819FA1AE
:105AB00089238083ED8DFE8D80819BA1892B80833E
:105AC000EB8DFC8D80819AA1892B80838EB18F7C98
:105AD00080618EB97398A59A80910201877E886053
