:100000000FC100003EC100003CC100003AC1000029
:1000100038C1000036C1000034C1000032C1000008
:1000200030C100002EC100002CC100002AC1000018
:1000300028C1000026C1000024C1000022C1000028
:1000400020C100001EC100001CC100001AC1000038
:1000500018C1000016C1000014C100000C94DB1789
:1000600010C100000C94301B0C94661B0AC10000E8
:1000700008C1000006C1000004C1000002C1000068
:1000800000C10000FEC00000FCC00000FAC000007B
:10009000F8C00000F6C00000F4C00000F2C000008C
:1000A000F0C00000EEC00000ECC00000EAC000009C
:1000B000E8C00000E6C00000E4C00000E2C00000AC
:1000C000E0C00000DEC00000DCC00000DAC00000BC
:1000D000D8C00000D6C00000D4C00000D2C00000CC
:1000E000D0C0000018191B190A190E191419521939
:1000F0001F19231929192D19311937193B193F19BE
:100100005219451949194D1900000A0B02090C0D25
:100110000E080703040100000000000000000000BA
:1001200000000000000000000000000000000000CF
:10013000000000001211100000000000000000008C
:1001400000000000000000000000000000000102AC
:1001500010202008081020401020408002010201D9
:100160000804020101020408102040808040201091
:1001700008040201800402018040201008040201EA
:100180000804020101020408102040800102040852
:10019000102040800505050507050808080802022B
:1001A00002020A0A08080404040401010101010111
:1001B00001010303030303030303040707070C0CF4
:1001C0000C0C0C0C0C0C02020202060606060606BB
:1001D00006060B0B0B0B0B0B0B0B00002200250074
:1001E00028002B002E003100340002010000050120
:1001F00008010B0100002100240027002A002D0027
:100200003000330001010000040107010A018B01E5
:100210008E06BB0A8E0C150EDD0F4616981B431C6E
:1002200011241FBECFEFD1E2DEBFCDBF00E00CBF77
:1002300014E0A0E0B2E0E6E2FDE300E00BBF02C0A4
:1002400007900D92A234B107D9F725E0A2E4B4E0FB
:1002500001C01D92A03CB207E1F712E0C0E2D2E07B
:1002600000E006C022970109FE010BBF0E940E1E8E
:10027000CE30D10780E00807A9F70E94531C0C94E8
:10028000911EBECE0E9624E1FC0111922A95E9F74B
:100290000895CF93DF93EC01625F7F4F0E94281C8B
:1002A000CE01DF91CF910895CF93DF93EC016E5E85
:1002B0007F4F0E94281CCE01DF91CF910895CF93EC
:1002C000DF93EC016A5E7F4F0E94281CCE01DF9114
:1002D000CF910895CF93DF93EC01625E7F4F0E9430
:1002E000281CCE01DF91CF91089580E3FB0180832C
:1002F0003296842F82958F7090E1899F4019112446
:100300004A3014F4405D01C0495C4293882311F0E7
:10031000482FEFCF08950F9300E020E040E060E029
:1003200082E494E00E941C1C0F9108956F927F92CA
:100330008F929F92AF92BF92CF92DF92EF92FF92F5
:100340000F931F93CF93DF93CDB7DEB7AC970FB664
:10035000F894DEBF0FBECDBF7C01862EB42EA52E35
:1003600020E2922ECE0101966C01FC01292D119202
:100370002A95E9F70FEF2FEF4FEF6FEF86960E9468
:100380001C1C80E494E09AA389A389A59AA5ABA537
:10039000BCA58BA39CA3ADA3BEA38701095B1F4F84
:1003A00043E450E0BE016F5D7F4FC8010E947B0EA9
:1003B000019609F4BCC081E089838A8386E0782EA7
:1003C0007B821C82F70164817581868197810E94FE
:1003D000FD1D6D837E838F839887A986BA8680E80A
:1003E00090E09C878B874CE150E0B601C8010E94E9
:1003F000850EF601292D11922A95E9F7570188E01B
:10040000A80EB11CF501D60101900D927A94E1F786
:1004100040E150E0B601C8010E94850EF60111923C
:100420009A94E9F796E0692E712C40E250E0B6010B
:10043000C8010E94850EF1E06F1A7108B1F783E6DA
:10044000898392E89A8393E59B838C8385E38D83EC
:1004500081E08E838F829DE3988797E099878A87D2
:1004600086E0F501DE011B9601900D928A95E1F779
:100470008CE0898B8A8B6DE072E0CE0143960E94FE
:10048000841EF7014385BE01675E7F4FC7012DDFE4
:10049000F7014485BE01655E7F4FC70126DFF70186
:1004A0004585BE01635E7F4FC7011FDF4EE150E00F
:1004B000B601C8010E94850EF3E08F121EC082E3D0
:1004C000898384E08A83F70196859B8397859C8343
:1004D00090899D8391899E8396E39F838887828DEF
:1004E0008987838D8A87848D8B87858D8C874CE067
:1004F00050E0B601C8010E94850E87E3898386E03B
:100500008A8391E09B8393E09C838D838FE08E832D
:100510008AE38F838BE388878FEF898749E050E0F8
:10052000B601C8010E94850EC8010E94820EAC96D9
:100530000FB6F894DEBF0FBECDBFDF91CF911F91F4
:100540000F91FF90EF90DF90CF90BF90AF909F9072
:100550008F907F906F9008952F923F924F925F926D
:100560006F927F928F929F92AF92BF92CF92DF92C3
:10057000EF92FF920F931F93CF93DF93CDB7DEB728
:10058000E3970FB6F894DEBF0FBECDBF7C012A0102
:100590003B0169010E9425184B015C018701095B41
:1005A0001F4FC8010E941F0F1816190694F00E94D1
:1005B0002518681979098A099B094616570668069D
:1005C0007906F0F062E370E080E090E00E94541859
:1005D000E8CF42E250E0BE016F5F7F4FC8010E944A
:1005E000C00E8981823031F4F8018589968983347F
:1005F000910541F019A6C8010E94550E89A566C152
:100600008FEF64C16D817E818F8198850E94FD1D71
:100610004B015C01F601608371838283938346E022
:1006200050E0B701685F7F4FCE014D960E94771E64
:10063000892B99F4F70180819181A281B381881679
:100640009906AA06BB0648F084819581A681B781E8
:1006500088159905AA05BB0528F4C8010E94550E06
:1006600080E034C189899A89AB89BC89F701868782
:100670009787A08BB18B3EECC32ED12CC8010E9472
:10068000980EF1E0CF1AD108C9F719A6C7018296D2
:100690009BA78AA7F701B696FDA7ECA708969FA788
:1006A0008EA73C976F018E9699AB88AB3897FBABC2
:1006B000EAAB5701F6E1AF0EB11C47018EE1880E9F
:1006C000911CC8010E943B0E181619060CF093CF1E
:1006D000C8010E94980E8333910509F4CDC0F4F44B
:1006E00081309105B9F11CF4892B59F3DFC08330B7
:1006F0009105C1F1069709F0D9C0C8010E94980E72
:100700003C0144E050E0B401C8010E94C00E212C1D
:10071000312C7724F4E06F1A71083FC08A339105B9
:1007200009F47EC03CF48533910561F0C69709F465
:100730003FC0BCC08B33910509F488C08F3F910541
:1007400001F2B4C0C8010E94980EC8010E94980E20
:1007500089A7B7CFC8010E94980E44E050E06AA96B
:100760007BA93AC0C8010E94980E3C0144E050E0C9
:10077000B501C8010E94C00E212C312C772494E0D1
:10078000691A7108261437040CF09BCFC8010E9427
:10079000980EEFEF2E1A3E0AF5CF261437040CF010
:1007A00090CFC8010E94980E8FEF281A380AF5CF13
:1007B000C8010E94980E782EF701828D811110C019
:1007C000838D81110DC0848D81110AC0858D8111A9
:1007D00007C044E050E0B601C8010E94C00E71CFCE
:1007E000E8A9F9A92080318042805380B601CE016A
:1007F00083960E94281C8DA19EA1AFA1B8A5821549
:100800009305A405B50529F3212C312C721409F4A4
:1008100058CFC8010E94980EFFEF2F1A3F0AF6CF5B
:10082000C8010E94980E44E050E06CA57DA5C80167
:100830000E94C00EF70166A177A180A591A50E9434
:10084000FD1D66A377A380A791A73BCFC8010E9497
:10085000980E44E050E06EA57FA5C8010E94C00E2E
:10086000F70162A573A584A595A50E94FD1D62A749
:1008700073A784A795A725CFC8010E94980E44E0CE
:1008800050E06AA57BA5C8010E94C00EF70162A1D5
:1008900073A184A195A10E94FD1D62A373A384A3EB
:1008A00095A366A777A780AB91AB0BCFC8010E9439
:1008B000980E382E612C712C361409F402CFC80121
:1008C0000E94980EFFEF6F1A7F0AF6CFE3960FB6DD
:1008D000F894DEBF0FBECDBFDF91CF911F910F9176
:1008E000FF90EF90DF90CF90BF90AF909F908F9050
:1008F0007F906F905F904F903F902F9008952F9230
:100900003F924F925F926F927F928F929F92AF929F
:10091000BF92CF92DF92EF92FF920F931F93CF93EC
:10092000DF93CDB7DEB727970FB6F894DEBF0FBEC3
:10093000CDBF8C0120ED37E040E050E061E070E099
:1009400080E090E00E949E1DD80114966D937D93E7
:100950008D939C931797F8016083718382839383AF
:100960004801F7E48F0E911CC4010E94670E64E4F5
:1009700070E0C4010E94F40E882309F423C10E9490
:1009800025186B017C01A12CB12C1D82180186E475
:10099000280E311CD801DE96BF83AE8338EE432E7D
:1009A00033E0532E612C712CF1018081833009F4E6
:1009B000F8C081111EC0F80184819581A681B7819C
:1009C0000196A11DB11D84839583A683B7830E94E0
:1009D00025186C197D098E099F09A30192010E94B7
:1009E000B91DA90161E0C801A1DC81E0D1018C93AE
:1009F000BAC08430F1F4F80184819581A681B78171
:100A00000196A11DB11D84839583A683B7830E949F
:100A100025186C197D098E099F09A30192010E9476
:100A2000B91DA90163E0C80181DCE2E0D101EC93CA
:100A30009AC0813051F5AE81BF814D915D916D912C
:100A40007C919E012F5F3F4FC80186DD8D838230F0
:100A500009F089C089819A81AB81BC81F8018483C6
:100A60009583A683B7830E9425186C197D098E098A
:100A70009F09A30192010E94B91DA90163E0C80169
:100A800055DCED81D101EC9374C0823009F06BC06C
:100A9000AE81BF814D915D916D917C919E012F5FE3
:100AA0003F4FC80159DD8D83853009F056C083E082
:100AB000F1018083F80182A193A1A4A1B5A1892BA2
:100AC0008A2B8B2B41F484E893E0A0E0B0E082A372
:100AD00093A3A4A3B5A3F80186A197A1A0A5B1A54E
:100AE000892B8A2B8B2B61F482A193A1A4A1B5A1A0
:100AF000B695A7959795879586A397A3A0A7B1A725
:100B0000D8019A964D915D916D917C919D979696A5
:100B10008D919D910D90BC91A02D452B462B472B7F
:100B200059F4AC01BD01440F551F661F771FF80132
:100B300042A753A764A775A7F80186A797A7A0ABFC
:100B4000B1AB82A593A5A4A5B5A582AB93ABA4AB8D
:100B5000B5ABAA24A394B12C0CC0FD81F63019F4D6
:100B6000D1011C9206C0BD81BF3F19F4F101108272
:100B70001D82F1E0AF16B10409F416CF0E942518CA
:100B80006C197D098E099F09D801DA962D913D9146
:100B90004D915C91DD97261737074807590708F0F4
:100BA00003CFC4010E94670EF80184819581A6815C
:100BB000B7810196A11DB11D84839583A683B78358
:100BC000C50102C080E090E027960FB6F894DEBF22
:100BD0000FBECDBFDF91CF911F910F91FF90EF908E
:100BE000DF90CF90BF90AF909F908F907F906F904D
:100BF0005F904F903F902F900895CF92DF92EF92A9
:100C0000FF920F931F93CF93DF93EC016B011AA216
:100C10001BA21CA21DA21EA21FA218A619A61AA6DC
:100C20001BA61CA61DA61EAA1FAA18AE19AE2AAF87
:100C30003BAF4CAF5DAFFC01FE96E082F1820283D8
:100C400013838C01085F1F4F86E0F80111928A958B
:100C5000E9F7CE0117DB86E0F601D80101900D928D
:100C60008A95E1F7FE01EA5BFF4F1082CE01DF912A
:100C7000CF911F910F91FF90EF90DF90CF903FCEDB
:100C8000FB014281538164817581FC01428353835E
:100C900064837583178216820895CF93FB01819137
:100CA0008111FDCFFB0180E090E020E030E0CAE060
:100CB0006191662309F12430310564F56E3271F4D7
:100CC0008F3F910509F034F5DA01A20FB31F129698
:100CD0008C932F5F3F4F80E090E0EACFDC01CA9F0A
:100CE000C001CB9F900D1124772767FD709560534D
:100CF0007109860F971FDCCF8F3F910509F054F4DF
:100D0000243031053CF4FA01E20FF31F828381E0C5
:100D100090E002C080E090E0CF9108950F9300E052
:100D200020E040E060E088E494E00E941C1C0F9109
:100D30000895AF92BF92CF92DF92EF92FF920F93FE
:100D40001F93CF93DF9300D0CDB7DEB76C017B014B
:100D50000E942518F601778366838601085F1F4F7E
:100D6000B6016A5F7F4F42E050E0C801CED781E014
:100D700090E09A83898342E050E0BE016F5F7F4F2D
:100D8000C801C3D780E091E09A83898342E050E0B4
:100D9000BE016F5F7F4FC801B8D71A82198242E047
:100DA00050E0BE016F5F7F4FC801AFD742E050E017
:100DB000BE016F5F7F4FC801A8D742E050E0BE017F
:100DC0006F5F7F4FC801A1D76701F601808188233B
:100DD00001F1F7016F018191811113C05601AE1825
:100DE000BF081A141B0484F4AB8241E050E0BE013A
:100DF0006D5F7F4FC80189D7A501B701C80185D7AD
:100E000003C08E3239F7EACF7601FFEFEF1AFF0AFF
:100E1000DCCF1B8241E050E0BE016D5F7F4FC80117
:100E200074D7E12CFF24F394FA82E98242E050E087
:100E3000BE016F5F7F4FC80168D7FA82E98242E046
:100E400050E0BE016F5F7F4FC8015FD781E090E047
:100E50000F900F900F90DF91CF911F910F91FF9006
:100E6000EF90DF90CF90BF90AF9008954F925F9238
:100E70006F927F928F929F92AF92BF92CF92DF92AA
:100E8000EF92FF920F931F93CF93DF93CDB7DEB70F
:100E900063970FB6F894DEBF0FBECDBF7C015B0138
:100EA0006A010E9425182B013C018701085F1F4F32
:100EB0004501A12CB12CC801C2D71816190694F00F
:100EC0000E942518641975098609970986169706E0
:100ED000A806B906D0F062E370E080E090E00E94DE
:100EE0005418E9CFF7014281538164817581818D66
:100EF000928DA38DB48D481759076A077B0741F47B
:100F0000858D968DC59721F406C08FEF9FEFE0C0C9
:100F10008EEF9FEFDDC0C801AED60C970CF4D6C0A3
:100F20004CE050E0BE016F5F7F4FC80129D78B8135
:100F30009C819827892798279A8B898BF70146816E
:100F4000578129813A814217530711F497FD05C053
:100F5000C801ABD68CEF9FEFBBC08F709270892B0E
:100F600029F0C801A2D68BEF9FEFB2C0AF80B88442
:100F7000BA24AB24BA24A114B10419F0E12CF12C49
:100F80001DC0C80192D68AEF9FEFA2C041E050E099
:100F9000BE01635F7F4FC801F3D68D85811117C0F5
:100FA0008D858111F3CFC801C3D6C801C1D6C80150
:100FB000BFD6C801BDD6FFEFEF1AFF0A8D819E8113
:100FC000982789279827E816F90600F309C08D8528
:100FD0009FEF980F9D87882319F3C801A9D6F7CFF3
:100FE000E12CF12C41E050E0BE016D5E7F4FC80165
:100FF000C7D68B89982F907C59F4882361F08B8910
:101000009FEF980F9B8B882331F0C80191D6F7CFC3
:10101000C8018ED61B8A8B898111E4CF42E050E053
:10102000BE01615F7F4FC801ABD642E050E0BE0118
:10103000635F7F4FC801A4D6C8017AD6C80178D6AD
:10104000C80176D6C80174D642E050E0BE016F5E9A
:101050007F4FC80195D68F8598898115914029F4D5
:101060008D859E858115914019F0812C912C14C09D
:1010700089899A898115944029F0C80116D687EF8D
:101080009FEF26C0B6016E5F7F4F44E050E0C8017D
:1010900077D681E090E01CC089899A8998278927B2
:1010A00098278816990630F4C80142D62FEF821A85
:1010B000920AF2CF8FEFE81AF80AEA14FB0409F05B
:1010C00091CFC801F2D586EF9FEF02C08DEF9FEF61
:1010D00063960FB6F894DEBF0FBECDBFDF91CF9100
:1010E0001F910F91FF90EF90DF90CF90BF90AF9046
:1010F0009F908F907F906F905F904F9008958F9208
:101100009F92AF92BF92CF92DF92EF92FF920F9396
:101110001F93CF93DF9300D000D0CDB7DEB78C0103
:101120005B016A01BADD4C01009709F057C0F80174
:10113000428153816481758180914A0490914B046E
:10114000A0914C04B0914D04481759076A077B07DA
:1011500009F448C00E9425187801F8E0EF0EF11C50
:101160006F7077277C5FC7013FD6813009F03EC0A2
:1011700080E494E09A838983F80182819381A48139
:10118000B5818B839C83AD83BE8345E350E0BE0174
:101190006F5F7F4FC701AFD5892B19F4812C912C3C
:1011A0001AC0B501C801C5DD892BC1F3C701AAD595
:1011B000892BA1F333E0A32EB12CA60168E873E1DB
:1011C000C80154DE4C01F1E0AF1AB10821F08F3FA5
:1011D0002FEF920791F3C7017AD508C08824839432
:1011E000912C04C09EEF892E99249A94C4012696CE
:1011F0000FB6F894DEBF0FBECDBFDF91CF911F9128
:101200000F91FF90EF90DF90CF90BF90AF909F90A5
:101210008F9008952091F404222399F03FB7F89419
:101220002091F404213059F42DB32093F2044DB3EE
:101230002091F304209524232DBB3FBF02C030939F
:10124000F2048CBD9DBD08958091F404882361F063
:101250009FB7F8942091F4048091F204213019F49E
:101260008DBB9FBF08958FBF089544E050E0BC013F
:1012700081E090E00C94341444E050E0BC0185E03F
:1012800090E00C94341444E050E0BC018FE090E016
:101290000C943414AF92BF92CF92DF92EF92FF92F0
:1012A0000F931F93CF93DF9300D000D0CDB7DEB75D
:1012B0006C015B018091B804811106C085E994E05E
:1012C0000CD681E08093B8048EE494E0F601978315
:1012D000868382EE94E00E94D11380E590E09ADF4D
:1012E00046E050E0B50189E090E00E94341400E04F
:1012F00020E040E060E0CE0101960E941C1CCE017F
:101300000396C1DFA1DF10EAE12E1FE0F12E00E01D
:1013100010E020E63AEE40E050E0B501F6018681AB
:1013200097816BDC5C018130910591F580E590E05F
:1013300071DFF60166817781CE0101960E94490135
:10134000CE010396A0DFF60166817781CE0101967A
:101350000E945F01CE01039688DFF60166817781E6
:10136000CE0101960E945401CE01039685DF6CDF09
:10137000F60166817781CE0101960E946A014B8158
:101380005C816D817E81F601428353836483758322
:10139000C50126960FB6F894DEBF0FBECDBFDF9114
:1013A000CF911F910F91FF90EF90DF90CF90BF9062
:1013B000AF9008958F929F92AF92BF92CF92DF929B
:1013C000EF92FF920F931F93CF93DF931F921F9281
:1013D000CDB7DEB74C016A01590182EE94E0698312
:1013E0007A830E94D11380E590E014DF46E050E05C
:1013F00069817A8189E090E00E943414C6010296E6
:1014000042DFC801029631DFC701029635DF1CDFDB
:10141000F5014281538164817581F40142835383D4
:10142000648375830F900F90DF91CF911F910F917F
:10143000FF90EF90DF90CF90BF90AF909F908F90F4
:1014400008956F927F928F929F92AF92BF92CF92A8
:10145000DF92EF92FF920F931F93CF93DF93CDB75D
:10146000DEB76E970FB6F894DEBF0FBECDBF6C012E
:101470005B017A014901380100E02FEF4FEF6FEF78
:10148000CE0149960E941C1C20E434E03A83298353
:101490008B8D9C8DAD8DBE8D8B839C83AD83BE83E8
:1014A00038872F83F30182819381A481B581898755
:1014B0009A87AB87BC873E872D87F4018281938111
:1014C000A481B5818F87988BA98BBA8B3C8B2B8B92
:1014D000F70142815381648175814D8B5E8B6F8BE7
:1014E000788FCE0101967C018E01095F1F4F9E010E
:1014F000235F3F4FAE014D5E5F4FB501C6015ADF1E
:101500006E960FB6F894DEBF0FBECDBFDF91CF91C0
:101510001F910F91FF90EF90DF90CF90BF90AF9011
:101520009F908F907F906F900895CF93DF93EC0101
:101530000E94121C80E590E06DDEBE016E5F7F4F61
:1015400044E050E08FE090E00E944A157DDECE013D
:10155000DF91CF91089520E434E0FC0131832083B2
:10156000FB014281538164817581FC014283538375
:101570006483758308950F9300E020E040E060E00D
:1015800088EC94E00E941C1C80EB94E00F910C947A
:10159000121C81E086270895862F0895DC01ED91C5
:1015A000FC91048CF58DE02D199591E08927089523
:1015B000CF93DF931F92CDB7DEB76983DC01ED9146
:1015C000FC910280F381E02D41E050E0BE016F5FAD
:1015D0007F4F19950F90DF91CF91089521E0FC0185
:1015E0008485843009F420E0822F0895FC019485DD
:1015F000FB018485981303C081E0943009F480E0F6
:1016000008950F931F93CF93DF93EC018A018C858C
:10161000843019F08ED6892B39F481E090E09B83D9
:101620008A8380E090E001C0C801DF91CF911F91D3
:101630000F910895FC018485843009F05FC780E034
:1016400090E00895CF93DF931F92CDB7DEB741E0CE
:1016500050E0BE016F5F7F4FFC018485F3D6181602
:1016600019061CF4898190E002C08FEF9FEF0F9064
:10167000DF91CF910895FC018485E4C60F931F93F9
:10168000CF93DF931F92CDB7DEB78C01DC01ED91D4
:10169000FC910480F581E02D1995892B49F0BE015C
:1016A0006F5F7F4FF801848552D7898190E002C037
:1016B0008FEF9FEF0F90DF91CF911F910F910895C2
:1016C000FC01848572C7CF92DF92EF92FF920F9355
:1016D0001F93CF93DF93CDB7DEB7AF970FB6F894D4
:1016E000DEBF0FBECDBF7C018B016A01CE0101962A
:1016F0000E94121CCE010996F0D3CE018A960E9458
:10170000121C60EB74E0CE01849625DFBE016C5D97
:101710007F4FCE010196B4DAAE01465D5F4FB8014E
:10172000CE010196ECDC81309105C1F4D701ED9139
:10173000FC910484F585E02D80E494E09DA38CA3C6
:101740000CA51DA52EA53FA50EA31FA328A739A74D
:10175000A601BE016C5D7F4FC7011995AF960FB60C
:10176000F894DEBF0FBECDBFDF91CF911F910F91D7
:10177000FF90EF90DF90CF900895FC01262F138209
:10178000128248EE53E060E070E044835583668344
:10179000778388E192E09183808324870895FC0118
:1017A0008485843009F087C480E00895DF92EF9249
:1017B000FF920F931F93CF93DF93EC017B018A017C
:1017C0008C85843009F040C0D12C8D2D74D48111CA
:1017D00002C0DC8607C08B7F8831D9F3D39484E0C4
:1017E000D812F3CF8C85843079F1209104023091A6
:1017F00005022F5F3F4F11F420E030EC30930502DB
:1018000020930402409104025091050220E061E01F
:101810009BD4B7016E5F7F4FA8018C8510D58111D5
:1018200003C084E08C8710C0CE01B9DF873149F056
:1018300061E070E080E090E00E945418CE01AFDFDC
:10184000EECF81E090E002C080E090E0DF91CF91A8
:101850001F910F91FF90EF90DF900895CF92DF924C
:10186000EF92FF92CF93DF93EC018C85843061F18E
:101870003BD50E9425186B017C01CE0190DF8823A7
:1018800059F00E9425186C197D098E099F09683E40
:1018900073408105910588F0CE0181DF882311F026
:1018A0008C852CD4EC85F0E0EE0FFF1FE054FB4F4D
:1018B0001182108284E08C8707C061E070E080E0D4
:1018C00090E00E945418D9CFDF91CF91FF90EF9014
:1018D000DF90CF900895CF93DF93EC018C85843017
:1018E000C9F0CE015CDF8431A9F0882399F08831FA
:1018F00089F08C3169F4E881F9810480F581E02D6B
:10190000CE01199521E0892B09F420E0822F03C034
:1019100081E001C080E0DF91CF9108950F9300E056
:1019200020E040E060E08EEC94E00E941C1C0F91EF
:101930000895CF93DF931F92CDB7DEB76983DC01A3
:10194000ED91FC910280F381E02D41E050E0BE0179
:101950006F5F7F4F19950F90DF91CF910895EF92B0
:10196000FF920F931F93CF93DF93CDB7DEB72D97E1
:101970000FB6F894DEBF0FBECDBF7C0100E010E0D3
:10198000602FCE010196F9DECE01019608DF8111AC
:1019900014C0F7014481558120E061E0802FD4D349
:1019A000802F20D4F70184819581F801EE0FFF1F6D
:1019B000E054FB4F9183808305C00F5F1F4F0430BD
:1019C0001105F1F62D960FB6F894DEBF0FBECDBF10
:1019D000DF91CF911F910F91FF90EF900895FC013F
:1019E000138212828CE392E09183808375836483F7
:1019F0000895BF92CF92DF92EF92FF920F931F93C1
:101A0000CF93DF93CDB7DEB72D970FB6F894DEBF37
:101A10000FBECDBF8C0140ECC42E44E0D42EB12CBF
:101A2000E12CF12C6B2DCE010196A7DED6012D9174
:101A30003D916D01F801848195812817390799F44A
:101A4000CE010196ACDE843159F0CE010196A7DEBD
:101A50008C3149F4CE010196EDDD892B99F003C05C
:101A6000EE24E394F12CB394F4E0BF12DBCFEF2823
:101A700069F4D801ED91FC910480F581E02DC80155
:101A8000199504C0CE010196E9DEEDCF2D960FB673
:101A9000F894DEBF0FBECDBFDF91CF911F910F91A4
:101AA000FF90EF90DF90CF90BF9008957F928F923C
:101AB0009F92AF92BF92CF92DF92EF92FF920F93DD
:101AC0001F93CF93DF93CDB7DEB72D970FB6F89462
:101AD000DEBF0FBECDBF6C015B014A018ADF50EC57
:101AE000E52E54E0F52E712C00E010E0672DCE01BC
:101AF000019643DEF701219131917F01F601848146
:101B000095812817390729F4CE01019648DE8731DF
:101B1000C9F07394F4E07F12E9CFC8012D960FB697
:101B2000F894DEBF0FBECDBFDF91CF911F910F9113
:101B3000FF90EF90DF90CF90BF90AF909F908F90ED
:101B40007F900895A401B501CE0101965ADD080FDA
:101B5000191FDFCFBF92CF92DF92EF92FF920F93C8
:101B60001F93CF93DF93CDB7DEB72D970FB6F894C1
:101B7000DEBF0FBECDBF8C016B01CB013ADF60EC45
:101B8000E62E64E0F62EB12C6B2DCE010196F5DD2C
:101B9000F701219131917F01F60184819581281708
:101BA000390751F4CE010196FADD873169F0CE0193
:101BB0000196F5DD8C3141F0B394F4E0BF12E4CF2F
:101BC00064E0C801DADD20C0CE01019633DD892B47
:101BD00099F38B819C81F801938382838D819E810F
:101BE000AF81B88584839583A683B78349855A8559
:101BF0006B857C85408751876287738788E192E097
:101C0000918380838D858487C8012D960FB6F894C3
:101C1000DEBF0FBECDBFDF91CF911F910F91FF901F
:101C2000EF90DF90CF90BF9008950F9300E020E0F9
:101C300040E060E084ED94E00E941C1C0F91089548
:101C4000DC01ED91FC91008CF18DE02D199420E4E4
:101C500034E0FC0131832083FB014189528963898F
:101C60007489FC0142835383648375830895FC0166
:101C7000858996890895FC01818D928D0895CF9371
:101C8000DF931F92CDB7DEB76983DC01ED91FC9144
:101C90000280F381E02D41E050E0BE016F5F7F4F95
:101CA00019950F90DF91CF910895CF93DF93EC01B9
:101CB000898D9A8D892B41F0E881F9810680F78121
:101CC000E02DCE011995F4CFDF91CF910895CF93F8
:101CD000DF93EC018C85843059F010D2EC85F0E074
:101CE000EE0FFF1FE054FB4F1182108284E08C87BF
:101CF000DF91CF910895FC01108E178A6E5F7F4FA0
:101D0000848598C4FC018485D9C4CF93DF93EC010A
:101D10009A018F89988DAB01BC018C8547D42F899E
:101D2000388D280F391F388F2F8BDF91CF91089571
:101D30000F931F93CF93DF931F92CDB7DEB78C0124
:101D4000FC01818D928D892B51F041E050E0BE0164
:101D50006F5F7F4F848576D3181619061CF08FEFBE
:101D60009FEF08C0F801818D928D0197928F818F2E
:101D7000898190E00F90DF91CF911F910F9108958D
:101D8000CF93DF93EC01898D9A8D009719F48FEF33
:101D90009FEF0FC04817590708F0AC018C8552D34C
:101DA00018161906A4F7298D3A8D281B390B3A8F7E
:101DB000298FDF91CF910895CF93DF931F92CDB7F5
:101DC000DEB7FC01218D328D232B41F0BE016F5F08
:101DD0007F4F8485BCD3898190E002C08FEF9FEF55
:101DE0000F90DF91CF910895FF920F931F93CF93A0
:101DF000DF93EC018B018C858430D1F4F12C8F2D95
:101E00005AD1811102C0FC8606C08831E1F3F394F7
:101E100084E0F812F4CF8C85843051F01E870D8752
:101E20001A8E198E20E0A80162E08ED181E001C0F7
:101E300080E0DF91CF911F910F91FF9008950F9354
:101E40001F93CF93DF93CDB7DEB728970FB6F894E3
:101E5000DEBF0FBECDBF8C01DC01ED91FC91028491
:101E6000F385E02D1995F801848548D318161906D5
:101E70003CF548E050E0BE016F5F7F4FD8011C96F3
:101E80008C91E0D218161906ECF4BE016F5F7F4FFB
:101E9000C8010F960E94381C8D8190E0982F8827EA
:101EA0002E81820F911DF801968B858B8F8190E09A
:101EB000982F88272885820F911D928F818F02C0CD
:101EC00080E090E028960FB6F894DEBF0FBECDBF3D
:101ED000DF91CF911F910F910895FC01138212821F
:101EE00048EE53E060E070E0448355836683778377
:101EF00086E492E09183808384E08487CF010F960B
:101F00000C94121CCF92DF92EF92FF920F931F93CB
:101F1000CF93DF93CDB7DEB7AF970FB6F894DEBFA0
:101F20000FBECDBF7C018B016A01CE0101960E94DC
:101F3000121CCE010996D1DFCE018A960E94121C96
:101F400060EB74E0CE01849606DBBE016C5D7F4FD2
:101F5000CE0101960E944006AE01465D5F4FB8017A
:101F6000CE010196CCD881309105C1F4D701ED9115
:101F7000FC910088F189E02D80E494E09DA38CA37E
:101F80000CA51DA52EA53FA50EA31FA328A739A705
:101F9000A601BE016C5D7F4FC7011995AF960FB6C4
:101FA000F894DEBF0FBECDBFDF91CF911F910F918F
:101FB000FF90EF90DF90CF9008950F9300E020E026
:101FC00040E060E08AED94E00E941C1C0F910895AF
:101FD000CF92DF92EF92FF920F9330E0C12CF2E1AB
:101FE000DF2EFAE7EF2EF12C4C155D056E057F050F
:101FF00040F4F694E794D794C7943F5F3630A1F746
:1020000037E041E04327211102C050E701C050E50D
:10201000242F30E03595279523700C70202B252B2D
:10202000FC012083417041830F91FF90EF90DF907E
:10203000CF90089590E0982F882744E050E0845F87
:102040009B4F12C4282F30E02C5F3F4F922F8827E0
:10205000860F971F32C462E070E0F4CFFB01282F97
:1020600030E02C5F3F4F922F8827642F8E0F9F1FE9
:102070007BC3CF93DF93C82FD62F472F64E070E048
:10208000EDDF4D2F65E070E08C2FDF91CF91E6CF33
:10209000462F62E070E0E2CFCF93DF93C82FD62FB8
:1020A000472F60E170E0DADF4D2F61E170E08C2FA7
:1020B000DF91CF91D3CF0F931F93CF93DF9300D0B6
:1020C000CDB7DEB7182F00E021E040E059E06DE326
:1020D00070E0CE0101967CDF89819A819BD863E014
:1020E00070E0812FAFDF8B83AFD88B810F900F9083
:1020F0000F90DF91CF911F910F9108950F931F9330
:10210000CF93DF931F921F92CDB7DEB7182F00E059
:1021100021E040E059E06DE370E0CE01019658DF28
:1021200089819A8177D840E150E0612F82EE94E076
:102130006DD56FEF812FACDF87D80F900F90DF91B7
:10214000CF911F910F910895CF92DF92EF92FF925E
:102150000F931F93CF93DF931F921F92CDB7DEB7DC
:10216000182FD62E7A01C22E8FEF860F853070F58C
:10217000812FC4DF00E021E040E059E06DE370E032
:10218000CE01019625DF89819A8144D84D2D4C29B5
:1021900060E070E0812F62DFE114F10411F0B7011B
:1021A0000AC06091E0047091E1046F5F7F4F70930B
:1021B000E1046093E004812F5CDF41E050E0612F97
:1021C00082EE94E023D540D881E001C080E00F90FA
:1021D0000F90DF91CF911F910F91FF90EF90DF90C3
:1021E000CF9008950F931F93CF93DF931F921F9269
:1021F000CDB7DEB7182F00E021E040E059E06DE3F5
:1022000070E0CE010196E4DE89819A8103D863E013
:1022100070E0812F17DF833119F016D880E008C0F5
:1022200042E050E0612F82EE94E0F0D40DD881E0DE
:102230000F900F90DF91CF911F910F910895CF9242
:10224000DF92EF92FF920F931F93CF93DF931F9232
:102250001F92CDB7DEB7182F7B016A01FB01808189
:102260008F3F51F481818F3F99F482818F3F81F4B8
:1022700083818F3F69F42CC081110AC0FB018181E9
:10228000811106C08281811103C08381882301F1FD
:10229000C114D104E9F000E021E040E059E06DE331
:1022A00070E0CE01019694DE89819A810E940A092C
:1022B000B701812FBFDEB601812FEEDE44E050E092
:1022C000612F82EE94E0A2D40E94240981E001C033
:1022D00080E00F900F90DF91CF911F910F91FF90B1
:1022E000EF90DF90CF9008950F931F93CF93DF93DC
:1022F0001F921F92CDB7DEB7182F00E021E040E01B
:1023000059E06DE370E0CE01019662DE89819A8129
:102310000E940A0948E050E0612F82EE94E076D4F2
:102320000E9424090F900F90DF91CF911F910F9180
:102330000895BF92CF92DF92EF92FF920F931F9377
:10234000CF93DF9300D0CDB7DEB7B82E6B017A0103
:10235000413088E0580718F0E12C98E0F92E00E0B1
:1023600021E040E059E06DE370E0CE01019630DEFF
:1023700089819A810E940A096B2D82EE94E0CDD268
:102380008C0163E070E08B2D5DDE8B830E9424095D
:102390008B81873111F08C3129F40CD60E151F0575
:1023A000F0F202C0E12CF12C00E021E040E059E025
:1023B0006DE370E0CE0101960BDE89819A810E9467
:1023C0000A099701A6016B2D82EE94E059D340E2F1
:1023D00050E06B2D82EE94E019D48B2D3CDE84FD11
:1023E0001EC063E070E08B2D2DDE811107C00E94BE
:1023F00024098B2D83DE80E090E017C00E94240921
:10240000D9D500E021E040E059E06DE370E0CE0175
:102410000196DEDD89819A810E940A09DECF60E1A2
:102420008B2D36DE0E942409C7010F900F900F906C
:10243000DF91CF911F910F91FF90EF90DF90CF90A0
:10244000BF900895AF92BF92CF92DF92EF92FF922A
:102450000F931F93CF93DF931F921F92CDB7DEB7D9
:10246000182F5B016A0100E021E040E059E06DE3D4
:1024700070E0CE010196ACDD89819A810E940A0943
:10248000612F82EE94E079D27C01009799F463E0A9
:1024900070E0812FD7DD843109F18823F9F021E044
:1024A00030E08C3111F420E030E0EE24FF24E21A19
:1024B000F30A14C0C816D9060CF476011E141F04C2
:1024C0006CF400E09701A501612F82EE94E053D3F4
:1024D00040E450E0612F82EE94E098D30E942409FA
:1024E000C7010F900F90DF91CF911F910F91FF9037
:1024F000EF90DF90CF90BF90AF9008950F931F9310
:10250000CF93DF9300D01F92CDB7DEB7182F00E036
:1025100021E040E059E06DE370E0CE01019658DD26
:1025200089819A810E940A09612F82EE94E025D266
:102530008B839C830E9424098B819C810F900F9038
:102540000F900F90DF91CF911F910F910895EF920F
:10255000FF920F931F93CF93DF931F921F92CDB7DC
:10256000DEB7182F7B0100E021E040E059E06DE389
:1025700070E0CE0101962CDD89819A810E940A09C2
:1025800001E021E030E0A701612F82EE94E0F3D278
:102590000E94240981E090E00F900F90DF91CF918D
:1025A0001F910F91FF90EF90089508959F92AF9221
:1025B000BF92CF92DF92EF92FF920F931F93CF9330
:1025C000DF931F921F92CDB7DEB7982E6B015A0191
:1025D000790100E021E040E059E06DE370E0CE01D8
:1025E0000196F6DC89819A810E940A09692D82EEA2
:1025F00094E093D18E159F0528F4692D82EE94E026
:102600008CD17C0187019501A601692D82EE94E0B1
:10261000CED10E942409C7010F900F90DF91CF9176
:102620001F910F91FF90EF90DF90CF90BF90AF90F0
:102630009F900895CF92DF92EF92FF920F931F9396
:10264000CF93DF931F921F92CDB7DEB7182F7B0178
:102650006A01FB018081811109C08181811106C05D
:102660008281811103C083818823D9F0C114D104F0
:10267000C1F000E021E040E059E06DE370E0CE0100
:102680000196A6DC89819A810E940A09B701812FEF
:10269000D1DCB601812F00DD0E94240981E090E0A9
:1026A00002C080E090E00F900F90DF91CF911F91DA
:1026B0000F91FF90EF90DF90CF9008950F931F93AD
:1026C000CF93DF931F921F92CDB7DEB7182F00E094
:1026D00021E040E059E06DE370E0CE01019678DC46
:1026E00089819A810E940A0940E250E0612F82EEBE
:1026F00094E08CD2812FAFDC84FD1DC0812FABDC38
:1027000083FF08C068E1812FC3DC0E94240980E0B8
:1027100090E018C00E9424094DD400E021E040E080
:1027200059E06DE370E0CE01019652DC89819A8117
:102730000E940A09DFCF60E1812FAADC0E942409F0
:1027400081E090E00F900F90DF91CF911F910F915A
:1027500008958EBD00000DB407FEFDCF8EB508951F
:102760002C9808952C9A08951F93CF93DF931F926E
:102770001F92CDB7DEB7182F6A839983F1DF80EF00
:10278000E8DF9981892FE5DF812FE3DF6A81862FDA
:10279000E0DFE8DF81E00F900F90DF91CF911F9194
:1027A0000895CF93DF93EC016CE271E080E090E05C
:1027B0007BD43AD2249A8091F404882399F09FB76D
:1027C000F8948091F404813059F48DB38093F2042D
:1027D0002DB38091F304809582238DBB9FBF02C0EF
:1027E0009093F20480E58CBD1DBC60E880E090E031
:1027F000BBDF65E58BE190E0B7DF65E58AE190E05E
:10280000B3DF8091F404882361F09FB7F89420919E
:10281000F4048091F204213019F48DBB9FBF01C0F4
:102820008FBF80E090E49983888380E090E6998769
:10283000888780E098E49B838A8380E098E69B8782
:102840008A8780E090E59D838C8380E090E79D8778
:102850008C8780E098E59F838E8380E098E79F8750
:102860008E87DF91CF910895CF92DF92EF92FF9202
:102870000F931F93CF93DF93EC017A018B016C01CF
:10288000C40ED51ECC15DD0571F06ADF80EF61DF67
:102890008D2F5FDF8C2F5DDF2196F80181918F01F5
:1028A00058DF60DFEFCFC701DF91CF911F910F910C
:1028B000FF90EF90DF90CF9008951F93CF93DF9319
:1028C0001F92CDB7DEB7182F99834ADF8FE041DF23
:1028D0009981892F3EDF812F3CDF80E03ADF8983B9
:1028E00041DF89810F90DF91CF911F9108951F9350
:1028F000CF93DF93182F60E270E0A4DBC82FD0E005
:1029000061E270E0812F9EDBDC2FCC279E01282B1B
:10291000C901DF91CF911F910895FF920F931F93EB
:10292000CF93DF93F62EC0E0D0E08F2DE0DF8C0157
:10293000009719F08F2DDBDFEC01C017D107A9F745
:10294000CE01DF91CF911F910F91FF9008951F93BA
:10295000CF93DF93182F66E270E074DBC82FD0E0CE
:1029600067E270E0812F6EDBDC2FCC279E01282BE5
:10297000C901DF91CF911F910895FF920F931F938B
:10298000CF93DF93F62EC0E0D0E08F2DE0DF8C01F7
:10299000009719F08F2DDBDFEC01C017D107A9F7E5
:1029A000CE01DF91CF911F910F91FF9008956F920B
:1029B0007F929F92AF92BF92CF92DF92EF92FF925F
:1029C0000F931F93CF93DF931F92CDB7DEB7D82E0F
:1029D000962E3A01590164E270E0892D998332DB29
:1029E000E82EF12C65E270E0892D2CDBFE2CEE2424
:1029F000E82AE60CF71C970137706D2C9981792E27
:102A0000690C711C690C711CD301ED91FC91E20FF2
:102A1000F31FC901800F911F8130984098F0C12C9D
:102A200048E0D42EC21AD30AA601B501CF011CDF9B
:102A3000A8014C195D09B5016C0D7D1DF301808164
:102A4000918103C0A801B501CF010EDFE00EF11E98
:102A50004F2D64E270E0892D01DB4E2D65E270E0C0
:102A6000892D0F90DF91CF911F910F91FF90EF90E3
:102A7000DF90CF90BF90AF909F907F906F90EECA05
:102A80000F931F9389019A0140E050E090DF1F915E
:102A90000F910895CF92DF92EF92FF920F931F93C1
:102AA000CF93DF93EC017A018B016C01C40ED51E2C
:102AB000CC15DD0579F054DE8FE04BDE8D2F49DE3D
:102AC0008C2F47DE219680E044DEF80181938F0150
:102AD00049DEEECFC701DF91CF911F910F91FF909B
:102AE000EF90DF90CF900895AF92BF92CF92DF9298
:102AF000EF92FF920F931F93CF93DF931F921F923A
:102B0000CDB7DEB75A8349835901E981FA81F7705D
:102B10007C01E60EF11CE60EF11CD70118968D9192
:102B20009C9119978E0F9F1F98012E0F3F1F2130E8
:102B3000384090F0C12C68E0D62ECE1ADF0AA601EC
:102B4000B501A8DFA8014C195D09B5016C0D7D1D0B
:102B5000F7018085918502C0A801B5010F900F9003
:102B6000DF91CF911F910F91FF90EF90DF90CF9069
:102B7000BF90AF908FCF8F929F92AF92BF92CF9224
:102B8000DF92EF92FF920F931F93CF93DF936C012D
:102B9000962E5A017901802E68E270E0892D52DA72
:102BA000C82FD0E069E270E0892D4CDADC2FCC2709
:102BB000C82B87019501AE01692DC60195DF8110F3
:102BC00018C0CE0DDF1D4D2F68E270E0892D46DA6A
:102BD0004C2F69E270E0892DDF91CF911F910F9109
:102BE000FF90EF90DF90CF90BF90AF909F908F902D
:102BF00035CADF91CF911F910F91FF90EF90DF9039
:102C0000CF90BF90AF909F908F900895CF93C62F95
:102C100061E070E08C2F22DA61E070E08C2F12DA34
:102C20008111FACFCF910895CF93CFB7F8948091C7
:102C3000F504811123C0E9ECF1E08491E3E8F1E0CF
:102C40009491E82FF0E0EE0FFF1FEC50FE4FA5919E
:102C5000B4918C91892319F461E085E35DD361E03F
:102C600085E321D38CB580618CBD8CB580648CBD2F
:102C700061E084E318D361E083E315D38091F50428
:102C80008F5F8093F504CFBFCF9108950F9300E03D
:102C900020E040E060E08EE095E0CED508E221E063
:102CA00048EA60EC88E095E0C7D501E021E048EA19
:102CB00060EC82E095E0C0D500E02FEF4FEF6FEFC2
:102CC0008CEF94E0B9D560E570E086EF94E00F9169
:102CD0000C94EF0C0F931F93CF93DF93CDB7DEB718
:102CE00062970FB6F894DEBF0FBECDBF26E040E876
:102CF00055E260E070E08DE195E052D466E672E066
:102D00008DE195E032D666E072E080EB94E00E94BF
:102D10004A09892B09F040C06DE872E08DE195E029
:102D200024D620E434E03A8329838091FE049091F4
:102D3000FF04A0910005B09101058B839C83AD83B6
:102D4000BE8338872F838091040590910505A0915B
:102D50000605B091070589879A87AB87BC873E87B0
:102D60002D8780910A0590910B05A0910C05B091DB
:102D70000D058F87988BA98BBA8B8E010F5F1F4F24
:102D80009E01295F3F4FAE01435F5F4F66E072E0F7
:102D900080EB94E00E94210A65EB72E08DE195E002
:102DA000CAD560EB74E0CE0101960E94950A8B8132
:102DB0009C81AD81BE8180930A0590930B05A09301
:102DC0000C05B0930D050AE015E0F80161918F0143
:102DD0004AE050E08DE195E089D665EC72E08DE146
:102DE00095E0A9D5F5E00E301F0779F78DE195E064
:102DF000AAD586EF94E00E94AF0C62960FB6F894C5
:102E0000DEBF0FBECDBFDF91CF911F910F9108950F
:102E1000EF92FF920F931F93CF93DF93CDB7DEB75F
:102E20002D970FB6F894DEBF0FBECDBF66EF74E0EE
:102E3000CE0101960E94AA0DCE0101960E94EE0AD3
:102E4000882309F4AAC067EC72E08DE195E08DD586
:102E500011E0CE0101960E946B0C882309F48FC00B
:102E6000CE0101960E941A0B892B99F3CE0101968F
:102E70000E94220B082FE0911D05F0911E05019084
:102E8000F081E02D682F8DE195E019950A3009F069
:102E900071C01123E9F26BED72E0CE01019665D5A8
:102EA0006BEE72E0CE01019660D563E073E0CE0177
:102EB00001965BD5CE01019646D565E173E0CE0162
:102EC000019653D565E273E0CE0101964ED56CE2D2
:102ED00073E0CE01019649D563E373E0CE0101961C
:102EE00044D56BE573E0CE0101963FD56BE773E007
:102EF000CE0101963AD563E873E0CE01019635D54F
:102F00006AE873E0CE01019630D567EA73E0CE013E
:102F100001962BD500E010E0802F4DD17C0160EFB1
:102F200073E0CE01019607D54AE050E0B801CE012A
:102F30000196C9D56EEF73E0CE010196FCD44AE04C
:102F400050E0B701CE010196BED563E074E0CE013A
:102F500001960BD50F5F1F4F06301105E9F668E0AB
:102F600074E0CE01019601D560E174E0CE010196D6
:102F7000FCD405C00D3009F46CCF10E06ACF61E0DD
:102F800070E080E090E090D0CE0101960E942E0C7F
:102F900068E174E08DE195E0E8D42D960FB6F894E1
:102FA000DEBF0FBECDBFDF91CF911F910F91FF907C
:102FB000EF90089508951F920F920FB60F9211246B
:102FC0002F933F938F939F93AF93BF93809115055A
:102FD00090911605A0911705B09118053091140530
:102FE00023E0230F2D3720F40196A11DB11D05C04C
:102FF00026E8230F0296A11DB11D2093140580938E
:10300000150590931605A0931705B09318058091A8
:10301000190590911A05A0911B05B0911C05019608
:10302000A11DB11D8093190590931A05A0931B054E
:10303000B0931C05BF91AF919F918F913F912F91BC
:103040000F900FBE0F901F9018952FB7F8946091B6
:1030500015057091160580911705909118052FBFE1
:1030600008953FB7F8948091190590911A05A091A1
:103070001B05B0911C0526B5A89B05C02F3F19F074
:103080000196A11DB11D3FBF6627782F892F9A2F6A
:10309000620F711D811D911D42E0660F771F881F11
:1030A000991F4A95D1F70895CF92DF92EF92FF9240
:1030B000CF93DF936B017C01D4DFEB01C114D1040A
:1030C000E104F10479F076DFCCDF6C1B7D0B683E08
:1030D0007340A0F381E0C81AD108E108F108C85193
:1030E000DC4FECCFDF91CF91FF90EF90DF90CF904E
:1030F0000895789484B5826084BD84B5816084BD70
:1031000085B5826085BD85B5816085BDEEE6F0E060
:10311000808181608083E1E8F0E0108280818260BC
:103120008083808181608083E0E8F0E0808181603D
:103130008083E1EBF0E0808184608083E0EBF0E06D
:10314000808181608083E1E9F0E08081826080831A
:10315000808181608083E0E9F0E08081816080830C
:10316000E1EAF0E0808182608083808181608083F9
:10317000E0EAF0E0808181608083E1E2F1E080813B
:1031800082608083808181608083E0E2F1E08081E1
:1031900081608083EAE7F0E08081846080838081C1
:1031A0008260808380818160808380818068808369
:1031B0001092C1000895863308F0865320917B0059
:1031C000982F9870277F922B90937B008770209187
:1031D0000C0290E4299F90011124822B80937C00A3
:1031E00080917A00806480937A0080917A0086FDD5
:1031F000FCCF809178002091790090E0922B089587
:1032000090E0FC013197E231F10508F04BC0EE5837
:10321000FF4FEDC4809180008F7703C080918000C4
:103220008F7D80938000089580918000877FF9CF03
:1032300084B58F7702C084B58F7D84BD0895809159
:10324000B0008F7703C08091B0008F7D8093B00075
:103250000895809190008F7707C0809190008F7DB6
:1032600003C080919000877F8093900008958091A3
:10327000A0008F7707C08091A0008F7D03C0809150
:10328000A000877F8093A0000895809120018F7710
:1032900007C0809120018F7D03C080912001877F2E
:1032A000809320010895CF93DF9390E0FC01E25BCF
:1032B000FE4F2491FC01EC56FE4F8491882349F186
:1032C00090E0880F991FFC01EC50FE4FA591B4913E
:1032D00086529E4FFC01C591D4919FB7611108C0E1
:1032E000F8948C91209582238C93888182230AC044
:1032F000623051F4F8948C91322F309583238C9363
:103300008881822B888304C0F8948C91822B8C93C3
:103310009FBFDF91CF9108950F931F93CF93DF93BA
:103320001F92CDB7DEB7282F30E0F901E85FFE4FDE
:103330008491F901E25BFE4F1491F901EC56FE4FC6
:1033400004910023C1F0882319F0698359DF698152
:10335000E02FF0E0EE0FFF1FE652FE4FA591B49173
:103360009FB7F8948C91611103C01095812301C01F
:10337000812B8C939FBF0F90DF91CF911F910F9165
:103380000895FC01818D228D90E0805C9F4F821B0F
:1033900091098F7399270895FC01918D828D98175B
:1033A00031F0828DE80FF11D858D90E008958FEF4B
:1033B0009FEF0895FC01918D828D981761F0828DA9
:1033C000DF01A80FB11D5D968C91928D9F5F9F7359
:1033D000928F90E008958FEF9FEF08958FE89BE123
:1033E000892B39F080E090E0892B19F098D1811178
:1033F00025C080E090E0892B41F080E090E0892BAF
:1034000021F00E94000081111CC080E090E0892B17
:1034100041F080E090E0892B21F00E9400008111B2
:1034200013C080E090E0892BA1F080E090E0892B30
:1034300081F00E94000081110AC008950E940000DE
:10344000D8CF0E940000E1CF0E940000EACF0C9488
:1034500000000895FC01848DDF01A80FB11DA35A5F
:10346000BF4F2C91848D90E001968F739927848FA4
:10347000A689B7892C93A089B1898C9180648C939B
:10348000938D848D981306C00288F389E02D808186
:103490008F7D80830895CF93DF93EC01888D8823FF
:1034A000C1F0EA89FB89808185FD05C0A889B989B9
:1034B0008C9186FD0EC00FB607FCF5CF808185FF8D
:1034C000F2CFA889B9898C9185FFEDCFCE01C2DFFB
:1034D000E8CFDF91CF910895CF92DF92FF920F93C3
:1034E0001F93CF93DF931F92CDB7DEB76C01DC0142
:1034F0005B969C915B975C968C915C97981307C048
:103500005096ED91FC915197808185FD31C0F60177
:10351000038D10E00F5F1F4F0F731127F02EF60180
:10352000848DF81210C00FB607FCF9CFD601509663
:10353000ED91FC915197808185FFF1CFC6016983A0
:1035400089DF6981ECCF838DE80FF11DE35AFF4FCE
:103550006083D6015B960C935B975296ED91FC913C
:10356000539780818062808381E058968C930DC050
:10357000D6015696ED91FC91579760835096ED9148
:10358000FC91519780818064808381E090E00F906E
:10359000DF91CF911F910F91FF90DF90CF90089511
:1035A000BF92CF92DF92EF92FF92CF93DF93EC0125
:1035B0006A017B01B22EE889F98982E08083411596
:1035C00081EE58076105710599F060E079E08DE3BF
:1035D00090E0A7019601CDD221503109410951094E
:1035E0005695479537952795211580E1380790F036
:1035F000E889F989108260E874E88EE190E0A7011B
:103600009601B7D221503109410951095695479584
:1036100037952795EC85FD853083EE85FF852083E2
:10362000188EEC89FD89B082EA89FB8980818061EE
:103630008083EA89FB89808188608083EA89FB89AD
:10364000808180688083EA89FB8980818F7D808387
:10365000DF91CF91FF90EF90DF90CF90BF900895D2
:103660001F920F920FB60F9211240BB60F922F9349
:103670008F939F93EF93FF93E0912D05F0912E058B
:103680008081E0913305F091340582FD12C0908174
:10369000809136058F5F8F7320913705821751F027
:1036A000E0913605F0E0E35EFA4F958F80933605A2
:1036B00001C08081FF91EF919F918F912F910F9089
:1036C0000BBE0F900FBE0F901F9018951F920F9278
:1036D0000FB60F9211240BB60F922F933F934F9377
:1036E0005F936F937F938F939F93AF93BF93EF936A
:1036F000FF938DE195E0AEDEFF91EF91BF91AF9129
:103700009F918F917F916F915F914F913F912F91F9
:103710000F900BBE0F900FBE0F901F9018958DE16C
:1037200095E02FDE21E0892B09F420E0822F089517
:103730001092200510921F0588EE93E0A0E0B0E003
:103740008093210590932205A0932305B09324052F
:1037500080E394E090931E0580931D0585EC90E036
:1037600090932A058093290584EC90E090932C0592
:1037700080932B0580EC90E090932E0580932D058F
:1037800081EC90E09093300580932F0582EC90E0DF
:10379000909332058093310586EC90E09093340548
:1037A0008093330510923605109237051092380534
:1037B000109239050895AF92BF92CF92DF92EF92A7
:1037C000FF920F931F93CF93DF936C017B01C0E0B7
:1037D000D0E000E010E0F601EC0FFD1F4AE050E001
:1037E0006281C70183D15C016EE2C701A5D08A0D59
:1037F0009B1D080F191F2196C330D10561F74AE0C0
:1038000050E0F6016581C70171D1800F911FDF91F2
:10381000CF911F910F91FF90EF90DF90CF90BF90CD
:10382000AF90089520E434E0FC01318320831282BC
:1038300013821482158208950F93FC0180E494E0B2
:103840009183808362834383248305830F9108954A
:1038500020E434E0FC0131832083FB01408151816D
:1038600062817381FC01428353836483758308956D
:10387000FB014081518162817381FC01428353834A
:1038800064837583089580E494E09093BB058093EE
:10389000BA051092BC051092BD051092BE0510929B
:1038A000BF050895089525DCFDDF14DACEEED9E1D9
:1038B000AFDA2097E9F392DDFBCFCF92DF92EF9260
:1038C000FF920F931F93CF93DF936C017A01EB016B
:1038D000E60EF71E00E010E0CE15DF0561F06991FD
:1038E000D601ED91FC910190F081E02DC601199572
:1038F000080F191FF1CFC801DF91CF911F910F91D0
:10390000FF90EF90DF90CF9008956115710581F0E1
:10391000DB010D900020E9F7AD0141505109461B34
:10392000570BDC01ED91FC910280F381E02D19949D
:1039300080E090E00895E9CFDC01ED91FC910190E9
:10394000F081E02D19940F931F93CF93DF93EC0137
:103950006DE0F2DF8C016AE0CE01EEDF800F911F97
:10396000DF91CF911F910F9108950F931F93CF93E4
:10397000DF93EC01CADF8C01CE01E5DF800F911FE0
:10398000DF91CF911F910F9108958F929F92AF92E7
:10399000BF92CF92DF92EF92FF920F931F93CF933C
:1039A000DF93CDB7DEB7A1970FB6F894DEBF0FBE99
:1039B000CDBF7C01C42EE52FCB01D22E19A221E070
:1039C0002D1510F02AE0D22E8E010F5D1F4F8D2C89
:1039D000912CA12CB12C6C2D7E2FA5019401C9D066
:1039E0008C2DD29E80191124015011098A3014F4B3
:1039F000805D01C0895CF801808321153105410596
:103A0000510521F0C22EE32FCA01E5CFB801C7014D
:103A10007CDFA1960FB6F894DEBF0FBECDBFDF915D
:103A2000CF911F910F91FF90EF90DF90CF90BF90BB
:103A3000AF909F908F900895CF92DF92EF92FF9278
:103A40000F931F93CF93DF93EC016A017B01211544
:103A5000310579F4E881F9810190F081E02D642F3E
:103A6000DF91CF911F910F91FF90EF90DF90CF905A
:103A700019942A303105D9F477FF18C06DE25CDF64
:103A80008C0144275527BA014C195D096E097F093D
:103A90002AE0CE017ADF800F911FDF91CF911F9135
:103AA0000F91FF90EF90DF90CF9008952AE0B7013B
:103AB000A601CE01DF91CF911F910F91FF90EF9062
:103AC000DF90CF9062CF9A01AB01662757FD6095DA
:103AD000762FB2CF2115310541F4DC01ED91FC9137
:103AE0000190F081E02D642F19944FCF9A01462F59
:103AF00050E060E070E0EECFCF93DF9300D01F92F4
:103B0000CDB7DEB79B01AC0161157105810591054B
:103B100059F069833A834B835C83DDD029813A81F4
:103B20004B815C8148D003C060E070E0CB010F9016
:103B30000F900F900F90DF91CF910895CF92DF9269
:103B4000EF92FF926B017C01621773078407950760
:103B50005CF4CA01B9016C197D098E099F09CCDF9B
:103B60006C0D7D1D8E1D9F1DFF90EF90DF90CF90FF
:103B70000895A1E21A2EAA1BBB1BFD010DC0AA1FAE
:103B8000BB1FEE1FFF1FA217B307E407F50720F0C6
:103B9000A21BB30BE40BF50B661F771F881F991F41
:103BA0001A9469F760957095809590959B01AC018A
:103BB000BD01CF010895052E97FB16F400940FD098
:103BC00057FD05D0D6DF07FC02D046F408C050955B
:103BD0004095309521953F4F4F4F5F4F08959095F9
:103BE0008095709561957F4F8F4F9F4F0895EE0F91
:103BF000FF1F0590F491E02D1994692796276927F6
:103C000078278727782708950DD0A59F900DB49F1A
:103C1000900DA49F800D911D112408950790F69199
:103C2000E02D1994A29FB001B39FC001A39F700D16
:103C3000811D1124911DB29F700D811D1124911DB4
:103C400008958F929F92AF92BF92CF92DF92EF92A0
:103C5000FF92CF93DF93EC01688179818A819B8108
:103C6000611571058105910521F464E279ED8BE51B
:103C700097E02DE133EF41E050E09DDF49015A012B
:103C80009B01AC01A7EAB1E4BFDF6B017C01ACEEA4
:103C9000B4EFA501940141D0C60ED71EE81EF91E4F
:103CA000F7FE06C081E0C81AD108E10880E8F80AEA
:103CB000C882D982EA82FB82C701B6019F77DF9171
:103CC000CF91FF90EF90DF90CF90BF90AF909F90FB
:103CD0008F900895B6CF80E092E0B3CF609300025A
:103CE0007093010280930202909303020895FB01F6
:103CF000DC0104C08D910190801921F441505040A5
:103D0000C8F7881B990B0895FB01DC0101900D9207
:103D10000020E1F70895B7FF77CF76DF821B930B82
:063D20000895F894FFCFA6
:103D26000100000000C000AABBCCDE020157495AC0
:103D36006E65740000000000D80A010B1A0B220BF6
:103D46003E0B600BD60B630B3B0B2E0C6B0CEE0A7B
:103D5600C90ACC0AF60ACE0A00000000990C560DD4
:103D6600AF0C000000003F0E850E3B0E980EDC0ED9
:103D7600550EF40E670E7B0E820F820E1F0FC00EBD
:103D8600200E270E370E547279696E6720746F20E5
:103D960067657420616E20495020616464726573A2
:103DA60073207573696E6720444843500046616905
:103DB6006C656420746F20636F6E666967757265E3
:103DC6002045746865726E6574207573696E672028
:103DD60044484350004D792049502061646472651F
:103DE60073733A20002E00576520476F74206120B8
:103DF6004E657720436C69656E7400485454502FA5
:103E0600312E3120323030204F4B00436F6E7465B7
:103E16006E742D547970653A20746578742F6874C1
:103E26006D6C00436F6E6E656374696F6E3A2063E6
:103E36006C6F7365003C21444F43545950452068CC
:103E4600746D6C3E003C68746D6C3E003C68656148
:103E5600643E003C6D65746120687474702D6571F4
:103E66007569763D22726566726573682220636F96
:103E76006E74656E743D2235223E003C7469746C26
:103E8600653E41726475696E6F20576562205061A8
:103E960067653C2F7469746C653E003C2F686561EC
:103EA600643E003C626F64793E003C68313E486582
:103EB6006C6C6F2066726F6D2041726475696E6FEF
:103EC600213C2F68313E003C703E412077656220E0
:103ED600706167652066726F6D2074686520417237
:103EE6006475696E6F207365727665722075736985
:103EF6006E672044484350207769746820416E619C
:103F06006C6F672052656164696E673C2F703E0076
:103F1600616E616C6F6720696E7075742000206930
:103F26007320003C62723E003C2F626F64793E0053
:103F36003C2F68746D6C3E00636C69656E7420641A
:103F46006973636F6E6E65637465640000000000DC
:103F56006C1A5D1CC119DA19CC194B1A0000000045
:023F6600DB1B63
:00000001FF
