:100000001BC600004AC6000048C6000046C60000E5
:1000100044C6000042C6000040C600003EC60000C4
:100020003CC600003AC6000038C6000036C60000D4
:1000300034C6000032C6000030C600002EC60000E4
:100040002CC600002AC6000028C6000026C60000F4
:1000500024C6000022C6000020C600000C94756D66
:100060001CC600000C94FF700C94357116C600007D
:1000700014C6000012C6000010C600000EC6000024
:100080000CC600000AC6000008C6000006C6000034
:1000900004C6000002C6000000C60000FEC5000045
:1000A000FCC50000FAC50000F8C50000F6C5000058
:1000B000F4C50000F2C50000F0C50000EEC5000068
:1000C000ECC50000EAC50000E8C50000E6C5000078
:1000D000E4C50000E2C50000E0C50000DEC5000088
:1000E000DCC50000DA64756532666D66D566C0678A
:1000F000726897695A6ABD6EC06EAF6EB36EB96EA4
:10010000F76EC46EC86ECE6ED26ED66EDC6EE06ECA
:10011000E46EF76EEA6EEE6EF26E00000000003ED6
:100120005B4F5B3E3E6B4F6B3E1C3E7C3E1C183C67
:100130007E3C181C577D571C1C5E7F5E1C00183CC3
:100140001800FFE7C3E7FF0018241800FFE7DBE70C
:10015000FF30483A060E2629792926407F050507F3
:10016000407F05253F5A3CE73C5A7F3E1C1C08084F
:100170001C1C3E7F14227F22145F5F005F5F060914
:100180007F017F006689956A606060606094A2FF6D
:10019000A29408047E040810207E201008082A1C5F
:1001A00008081C2A08081E101010100C1E0C1E0C2B
:1001B00030383E3830060E3E0E06000000000000CB
:1001C000005F00000007000700147F147F14242A3A
:1001D0007F2A12231308646236495620500008070C
:1001E0000300001C2241000041221C002A1C7F1C2D
:1001F0002A08083E0808008070300008080808082F
:10020000000060600020100804023E5149453E0095
:10021000427F400072494949462141494D331814F3
:10022000127F1027454545393C4A49493141211142
:1002300009073649494936464949291E0000140034
:100240000000403400000008142241141414141457
:10025000004122140802015909063E415D594E7CB5
:100260001211127C7F494949363E414141227F416A
:1002700041413E7F494949417F090909013E4141C8
:1002800051737F0808087F00417F41002040413FB3
:10029000017F081422417F404040407F021C027FC2
:1002A0007F0408107F3E4141413E7F090909063E17
:1002B0004151215E7F0919294626494949320301E6
:1002C0007F01033F4040403F1F2040201F3F4038F8
:1002D000403F631408146303047804036159494DD3
:1002E00043007F4141410204081020004141417F09
:1002F000040201020440404040400003070800207F
:10030000545478407F28444438384444442838447E
:1003100044287F385454541800087E090218A4A4B5
:100320009C787F0804047800447D40002040403DD4
:10033000007F1028440000417F40007C047804784E
:100340007C080404783844444438FC1824241818E1
:10035000242418FC7C08040408485454542404043D
:100360003F44243C4040207C1C2040201C3C40302A
:10037000403C44281028444C9090907C4464544C59
:1003800044000836410000007700000041360800B4
:1003900002010204023C2623263C1EA1A161123A5E
:1003A0004040207A385454555921555579412254AA
:1003B000547842215554784020545579400C1E52AF
:1003C0007212395555555939545454593955545454
:1003D000580000457C410002457D420001457C40BB
:1003E0007D1211127DF0282528F07C5455450020FF
:1003F00054547C547C0A097F4932494949323A4471
:1004000044443A324A4848303A4141217A3A4240DB
:100410002078009DA0A07D3D4242423D3D404040AD
:100420003D3C24FF2424487E4943662B2FFC2F2B80
:10043000FF0929F620C0887E090320545479410021
:1004400000447D413048484A32384040227A007AA0
:100450000A0A727D0D19317D2629292F282629297E
:10046000292630484D4020380808080808080808A0
:10047000382F10C8ACBA2F102834FA00007B0000C7
:1004800008142A142222142A14085500550055AACB
:1004900055AA55AAFF55FF55FF000000FF00101098
:1004A00010FF00141414FF001010FF00FF1010F0D4
:1004B00010F0141414FC001414F700FF0000FF00E7
:1004C000FF1414F404FC141417101F10101F101F35
:1004D0001414141F00101010F0000000001F101062
:1004E00010101F10101010F010000000FF1010105E
:1004F000101010101010FF10000000FF140000FF7B
:1005000000FF00001F10170000FC04F41414171063
:10051000171414F404F40000FF00F7141414141456
:100520001414F700F7141414171410101F101F14CC
:100530001414F4141010F010F000001F101F00002D
:10054000001F14000000FC140000F010F01010FF59
:1005500010FF141414FF141010101F00000000F0FE
:1005600010FFFFFFFFFFF0F0F0F0F0FFFFFF0000D3
:10057000000000FFFF0F0F0F0F0F3844443844FCFA
:100580004A4A4A347E02020606027E027E02635511
:100590004941633844443C04407E201E2006027ECC
:1005A000020299A5E7A5991C2A492A1C4C720172DE
:1005B0004C304A4D4D303048784830BC625A463D48
:1005C0003E494949007E0101017E2A2A2A2A2A44FD
:1005D000445F444440514A444040444A5140000032
:1005E000FF0103E080FF000008086B6B083612363D
:1005F0002436060F090F060000181800000010101E
:10060000003040FF0101001F01011E00191D1712DB
:10061000003C3C3C3C000000000000000100FF00EA
:100620003200010000010200000703003010040046
:10063000000008000202090000000A0000000C008F
:1006400000000D0000000F0000001000000011006D
:1006500007001200000013000000FF00C800100097
:10066000901611002702FF00320012001A00FF004E
:1006700032001300001829002A00FF003200300069
:100680000000310000003200000035000602360094
:1006900008083700070038000102390000003C005C
:1006A00000003D000000200000002100000050007C
:1006B00000005100EF005200000053003F016000B5
:1006C00000A7610003006A00000090001000920083
:1006D00000009300030095000011970000009800AF
:1006E0000000070033010100B903FF8357FFFAB38D
:1006F0000400000606B60125B00168CC0105B1066C
:1007000000151C1C83AAC0065050013C1E08B407EB
:100710000240002A2A0D783A01553601C035010001
:10072000440200021100FF962900FF322E89298F12
:100730002B02E200E401E510E601E710E870F200A8
:10074000EA00EB20EC3CEDC8E938F1011B1A1A0273
:100750002461255C183619011F88FF051F80FF05DD
:100760001F90FF051FD4FF05170536092838FF28FD
:10077000283C02000300040005EF06000700080102
:10078000093F29002C2000280020005363616E6E71
:10079000656420504943432773205549443A005328
:1007A00063616E006D657373616765427566663A75
:1007B000005D20004D657373616765206172726929
:1007C000766564205B00476F696E6720746F205305
:1007D000544152545F50524F44554354494F4E0078
:1007E0004920616D20696E20707265765374617462
:1007F000652053544152545F50524F44554354491D
:100800004F4E0049206469646E74207265636965A7
:100810007665206D736720666F7220736574526D04
:100820006C5374722C20736F2069276D20696E20C1
:1008300073616D65206C6F6F700020456E7465721A
:10084000696E6720204745545F50524F445F4F52B6
:100850004445525F44455441494C200020456E7444
:100860006572696E67207072657673746174652055
:100870004745545F50524F445F4F524445525F4486
:10088000455441494C2000427265616B696E672096
:100890007768696C65206C6F6F7000594553205004
:1008A0005245535345440053454C454354207072C0
:1008B00065737365640049206469646E74207265B1
:1008C0006369657665206D736720666F7220736556
:1008D00074576F6C5374722C20736F2069276D20CE
:1008E000696E2073616D65206C6F6F700020492008
:1008F000616D20696E20204745545F50524F445F20
:100900004F524445525F4C495354200020492061C6
:100910006D20696E2070726576537461746520472E
:1009200045545F50524F445F4F524445525F4C49CB
:100930005354200049206469646E742072656369B1
:10094000657665206D736720666F722072666964D4
:100950005375627363726962655374722C20736F8E
:100960002069276D20696E2073616D65206C6F6F43
:100970007000204920616D20696E20707265765389
:1009800074617465204745545F41555448454E5441
:1009900049434154494F4E200050726F7065722098
:1009A0004A736F6E206172726976656420616E644D
:1009B0002069732070617273656420696E206361C1
:1009C0006C6C6261636B0049206469646E742072B0
:1009D000656369657665206D736720666F72207345
:1009E0006574527544657461696C2C20736F20695D
:1009F000276D20696E2073616D65206C6F6F7000CC
:100A0000204920616D20696E204745545F52555F33
:100A100044455441494C20004920616D20696E20B5
:100A2000707265765374617465204745545F525502
:100A30005F44455441494C2000204920616D2069A4
:100A40006E2047575F434F4E4E4543544544200068
:100A5000204920616D20696E2047575F4449534308
:100A60004F4E4E45435445442000204920616D209F
:100A7000696E20434C49454E545F434F4E4E4543AB
:100A80005445442000547279696E6720746F206366
:100A90006F6E6E65637420746F204D515454204204
:100AA000726F6B65722E2E2E00204920616D2069B9
:100AB0006E20434C49454E545F4E4F545F434F4E5A
:100AC0004E454354454420005246494420496E69EE
:100AD0007469616C697A65640045746865726E65F5
:100AE0007420496E697469616C697A656400544662
:100AF0005420496E697469616C697A65640000000C
:100B00000A0B02090C0D0E08070304010000000087
:100B100000000000000000000000000000000000D5
:100B20000000000000000000000012111000000092
:100B300000000000000000000000000000000000B5
:100B400000000000010210202008081020401020A2
:100B50004080020102010804020101020408102081
:100B6000408080402010080402018004020180407F
:100B700020100804020108040201010204081020E8
:100B80004080010204081020408005050505070586
:100B900008080808020202020A0A080804040404F9
:100BA0000101010101010101030303030303030325
:100BB000040707070C0C0C0C0C0C0C0C02020202B4
:100BC00006060606060606060B0B0B0B0B0B0B0B9D
:100BD000000020002300260029002C002F003200F6
:100BE00000010000030106010901000022002500A8
:100BF00028002B002E003100340002010000050106
:100C000008010B0100002100240027002A002D000C
:100C10003000330001010000040107010A015D06F4
:100C2000DF060E096709EE0CC10ECC0E9310DF2112
:100C30009857677112724D5911241FBECFEFD1E240
:100C4000DEBFCDBF00E00CBF19E0A0E0B2E0E8E7F6
:100C5000F7EF00E00BBF02C007900D92A032B10782
:100C6000D9F72BE1A0E2B9E001C01D92A334B2078D
:100C7000E1F71CE0C6E3DCE000E006C022970109D2
:100C8000FE010BBF0E94EE78CE31D10780E008074D
:100C9000A9F70E9422720C94AB7BB2C9FC0182813D
:100CA0009381009749F06115710531F06150710928
:100CB000FC0180819181F5CF089510922109109255
:100CC000200910922309109222090895DB01109740
:100CD00049F0ED91FC9111970190F081E02DBC015C
:100CE000CD01199480E090E00895CF93DF93EC015B
:100CF000BC0184E090E0EADFFC01009729F0D18399
:100D0000C0831382128202C080E299E0DF91CF910A
:100D10000895CF93DF93EC01BC0184E090E0D6DF2F
:100D2000FC01009729F0D183C0831382128202C094
:100D300084E299E0DF91CF910895CF93DF93CDB70F
:100D4000DEB727970FB6F894DEBF0FBECDBF9A83EC
:100D500089836115710519F482ED94E001C0CB011E
:100D60009C838B837E836D834F83CE010196F7D066
:100D700027960FB6F894DEBF0FBECDBFDF91CF919F
:100D800008950F931F93CF93DF938B01FC01C281D2
:100D9000D381209759F0B8018A819B810E94307BD2
:100DA000892B39F00990D881C02DF3CF80E090E0F5
:100DB00001C0CE01DF91CF911F910F910895109244
:100DC00025091092240910922709109226090895E6
:100DD0000F931F93CF93DF93EC01088119810130AA
:100DE000110559F46A817B816115710531F084E543
:100DF00092E00E94307B892B41F0015011090230B2
:100E0000110518F48A819B8102C080E090E0DF9197
:100E1000CF911F910F910895FC0120812D3051F049
:100E200024F42950223030F505C0203219F02F3239
:100E300019F008950196F0CFFC0121812A3219F0B2
:100E40002F3279F008950296FC012081222321F3AC
:100E50002A3229F421812F3211F40296DDCF019636
:100E6000F3CFFC013296CF0121912223A9F22A303F
:100E7000D1F7D2CF08950F931F93CF93DF931F9293
:100E8000CDB7DEB78C01FC01828193816983C4DF19
:100E9000FC0120816981261307C00196BDDFF8019E
:100EA0009383828381E001C080E00F90DF91CF9136
:100EB0001F910F910895CF93DF93EC01AA81BB811D
:100EC0004C813D812C91273219F4C42FD32F15C0AA
:100ED0002232D9F3C42FD32FFD012AC03C3559F457
:100EE000FD01329612963C91A8E7B2E06C91611137
:100EF00010C0332339F13993DF01AE01FD01319682
:100F000011963C9111973323E9F03213E7CF3196D4
:100F100019C0631303C011963C91EBCF1296E6CF34
:100F2000322F3F7D31543A3148F429933196208154
:100F3000AE0130ED320F3A30C0F3F2CF33ED320F65
:100F4000323098F3DA011D92EC012C813D81FB8354
:100F5000EA83BD83AC83C901DF91CF910895BF922D
:100F6000CF92DF92EF92FF920F931F93CF93DF9375
:100F700000D000D0CDB7DEB78C01FC01808191811B
:100F8000C8DE6C016BE7C80176DF882309F43CC03A
:100F90006DE7C80170DF811135C086E0B82EC80149
:100FA0008ADF7C01009781F16AE3C80164DF88234E
:100FB00059F11A821982BE016F5F7F4FC80136D086
:100FC000882311F1B701C601DCDE009739F4C601B0
:100FD000D2D00097C9F0FC01F382E282FE01319683
:100FE000DC0114968B2D01900D928A95E1F76DE747
:100FF000C80141DF811106C06CE2C8013CDF8111EC
:10100000CECF02C0C60102C084E299E026960FB698
:10101000F894DEBF0FBECDBFDF91CF911F910F912E
:10102000FF90EF90DF90CF90BF900895FF920F93C5
:101030001F93CF93DF93EC018B018E81882309F4FA
:1010400043C081508E838A819B81E6DE9B838A83A5
:10105000FC0180818B3519F08B3759F01AC0CE0115
:101060003AD0FC0120813181232B49F126E030E088
:1010700009C0CE0174DFFC0120813181232BF9F0FE
:1010800027E030E0F801318320839383828381E07D
:1010900017C0873231F091E0823209F090E0F92EEA
:1010A00002C0FF24F394CE0106DF009741F0FF2039
:1010B00019F022E030E0E6CF21E030E0E3CF80E03D
:1010C0009E819F5F9E8301C080E0DF91CF911F9141
:1010D0000F91FF900895DF92EF92FF920F931F936D
:1010E000CF93DF9300D000D0CDB7DEB78C01FC01E9
:1010F00080819181FADD7C016BE5C801BCDE88232B
:1011000051F16DE5C801B7DE811123C096E0D92EFB
:101110001A821982BE016F5F7F4FC80187DF882363
:10112000D1F0C70159D00097B1F0FE013196DC0132
:1011300012968D2D01900D928A95E1F76DE5C8010B
:101140009ADE811106C06CE2C80195DE8111E0CF04
:1011500002C0C70102C080E299E026960FB6F8945B
:10116000DEBF0FBECDBFDF91CF911F910F91FF90DA
:10117000EF90DF900895CF93DF93EC016881798140
:101180008AE090E0A3DD009729F0FC011182108233
:1011900015821482EA81FB81309751F020813181E0
:1011A0002115310511F0F901F9CF9183808302C037
:1011B0009B838A83DF91CF910895DC011296ED9194
:1011C000FC91139780E090E0309729F00196019010
:1011D000F081E02DF9CF0895CF93DF93EC01688182
:1011E000798188E090E072DD009729F0FC0111829E
:1011F000108213821282EA81FB81309751F02081A4
:1012000031812115310511F0F901F9CF91838083E6
:1012100002C09B838A83DF91CF9108950F9300E0F2
:1012200020E040E060E088E299E00E94EB710F91DD
:101230000895FB014281538164817581FC014283E1
:10124000538364837583178216820895CF93FB01BD
:1012500081918111FDCFFB0180E090E020E030E042
:10126000CAE06191662309F12430310564F56E32DC
:1012700071F48F3F910509F034F5DA01A20FB31F25
:1012800012968C932F5F3F4F80E090E0EACFDC0115
:10129000CA9FC001CB9F900D1124772767FD7095E1
:1012A00060537109860F971FDCCF8F3F910509F0BE
:1012B00054F4243031053CF4FA01E20FF31F828329
:1012C00081E090E002C080E090E0CF9108950F931C
:1012D00000E020E040E060E08EE299E00E94EB71E7
:1012E0000F910895AF92BF92CF92DF92EF92FF924B
:1012F0000F931F93CF93DF9300D0CDB7DEB76C0170
:101300007B010E94BF6DF601778366838601085FCB
:101310001F4FB6016A5F7F4F42E050E0C801ACD575
:1013200081E090E09A83898342E050E0BE016F5FE4
:101330007F4FC801A1D580E091E09A83898342E084
:1013400050E0BE016F5F7F4FC80196D51A821982A7
:1013500042E050E0BE016F5F7F4FC8018DD542E093
:1013600050E0BE016F5F7F4FC80186D542E050E07C
:10137000BE016F5F7F4FC8017FD56701F601808195
:10138000882301F1F7016F018191811113C056018A
:10139000AE18BF081A141B0484F4AB8241E050E07D
:1013A000BE016D5F7F4FC80167D5A501B701C801B8
:1013B00063D503C08E3239F7EACF7601FFEFEF1A1B
:1013C000FF0ADCCF1B8241E050E0BE016D5F7F4F22
:1013D000C80152D5E12CFF24F394FA82E98242E05D
:1013E00050E0BE016F5F7F4FC80146D5FA82E982A7
:1013F00042E050E0BE016F5F7F4FC8013DD581E004
:1014000090E00F900F900F90DF91CF911F910F916F
:10141000FF90EF90DF90CF90BF90AF9008954F92E4
:101420005F926F927F928F929F92AF92BF92CF9274
:10143000DF92EF92FF920F931F93CF93DF93CDB77D
:10144000DEB763970FB6F894DEBF0FBECDBF7C0149
:101450005B016A010E94BF6D2B013C018701085F9F
:101460001F4F4501A12CB12CC801A0D51816190693
:1014700094F00E94BF6D6419750986099709861654
:101480009706A806B906D0F062E370E080E090E02D
:101490000E94EE6DE9CFF70142815381648175812D
:1014A000818D928DA38DB48D481759076A077B07EC
:1014B00041F4858D968DC59721F406C08FEF9FEF7F
:1014C000E0C08EEF9FEFDDC0C8018CD40C970CF408
:1014D000D6C04CE050E0BE016F5F7F4FC80107D51A
:1014E0008B819C819827892798279A8B898BF70174
:1014F0004681578129813A814217530711F497FD9C
:1015000005C0C80189D48CEF9FEFBBC08F7092706B
:10151000892B29F0C80180D48BEF9FEFB2C0AF8038
:10152000B884BA24AB24BA24A114B10419F0E12C74
:10153000F12C1DC0C80170D48AEF9FEFA2C041E01A
:1015400050E0BE01635F7F4FC801D1D48D8581110A
:1015500017C08D858111F3CFC801A1D4C8019FD4D4
:10156000C8019DD4C8019BD4FFEFEF1AFF0A8D81FB
:101570009E81982789279827E816F90600F309C065
:101580008D859FEF980F9D87882319F3C80187D415
:10159000F7CFE12CF12C41E050E0BE016D5E7F4FB2
:1015A000C801A5D48B89982F907C59F4882361F0C9
:1015B0008B899FEF980F9B8B882331F0C8016FD4E4
:1015C000F7CFC8016CD41B8A8B898111E4CF42E02C
:1015D00050E0BE01615F7F4FC80189D442E050E016
:1015E000BE01635F7F4FC80182D4C80158D4C801CF
:1015F00056D4C80154D4C80152D442E050E0BE01D0
:101600006F5E7F4FC80173D48F8598898115914093
:1016100029F48D859E858115914019F0812C912C9E
:1016200014C089899A898115944029F0C801F4D39E
:1016300087EF9FEF26C0B6016E5F7F4F44E050E01A
:10164000C80155D481E090E01CC089899A89982707
:10165000892798278816990630F4C80120D42FEFDF
:10166000821A920AF2CF8FEFE81AF80AEA14FB0402
:1016700009F091CFC801D0D386EF9FEF02C08DEF64
:101680009FEF63960FB6F894DEBF0FBECDBFDF911C
:10169000CF911F910F91FF90EF90DF90CF90BF906F
:1016A000AF909F908F907F906F905F904F90089534
:1016B0008F929F92AF92BF92CF92DF92EF92FF9262
:1016C0000F931F93CF93DF9300D000D0CDB7DEB739
:1016D0008C015B016A01BADD4C01009709F057C02B
:1016E000F801428153816481758180913009909124
:1016F0003109A0913209B0913309481759076A0797
:101700007B0709F448C00E94BF6D7801F8E0EF0E36
:10171000F11C6F7077277C5FC7011DD4813009F001
:101720003EC08EE199E09A838983F801828193819A
:10173000A481B5818B839C83AD83BE8345E350E058
:10174000BE016F5F7F4FC7018DD3892B19F4812CA8
:10175000912C1AC0B501C801C5DD892BC1F3C701A1
:1017600088D3892BA1F333E0A32EB12CA60168E81E
:1017700073E1C80154DE4C01F1E0AF1AB10821F069
:101780008F3F2FEF920791F3C70158D308C08824E9
:101790008394912C04C09EEF892E99249A94C401BD
:1017A00026960FB6F894DEBF0FBECDBFDF91CF9166
:1017B0001F910F91FF90EF90DF90CF90BF90AF906F
:1017C0009F908F90089520917609222399F03FB73A
:1017D000F89420917609213059F42DB3209374099F
:1017E0004DB320917509209524232DBB3FBF02C026
:1017F000309374098CBD9DBD08958091760988232E
:1018000061F09FB7F8942091760980917409213096
:1018100019F48DBB9FBF08958FBF089544E050E039
:10182000BC0181E090E00C94AC1444E050E0BC01B9
:1018300085E090E00C94AC1444E050E0BC018FE0F3
:1018400090E00C94AC148F929F92AF92BF92CF9283
:10185000DF92EF92FF920F931F93CF93DF931F922C
:101860001F92CDB7DEB74C016A0159018EE599E0B0
:1018700069837A830E94471480E590E0A4DF46E004
:1018800050E069817A8189E090E00E94AC14C60141
:101890000296D2DFC8010296C1DFC7010296C5DFFA
:1018A000ACDFF5014281538164817581F40142838B
:1018B0005383648375830F900F90DF91CF911F91B5
:1018C0000F91FF90EF90DF90CF90BF90AF909F90DF
:1018D0008F9008956F927F928F929F92AF92BF9256
:1018E000CF92DF92EF92FF920F931F93CF93DF93EC
:1018F000CDB7DEB76E970FB6F894DEBF0FBECDBF83
:101900006C015B017A014901380100E02FEF4FEFD4
:101910006FEFCE0149960E94EB712EE139E03A83D8
:1019200029838B8D9C8DAD8DBE8D8B839C83AD83E8
:10193000BE8338872F83F30182819381A481B5818F
:1019400089879A87AB87BC873E872D87F401828180
:101950009381A481B5818F87988BA98BBA8B3C8B9F
:101960002B8BF70142815381648175814D8B5E8B96
:101970006F8B788FCE0101967C018E01095F1F4F1E
:101980009E01235F3F4FAE014D5E5F4FB501C60123
:101990005ADF6E960FB6F894DEBF0FBECDBFDF9153
:1019A000CF911F910F91FF90EF90DF90CF90BF905C
:1019B000AF909F908F907F906F9008952EE139E0C7
:1019C000FC0131832083FB01428153816481758155
:1019D000FC01428353836483758308950F9300E071
:1019E00020E040E060E084E499E00E94EB7184E351
:1019F00099E00F910C94E17181E086270895862F7C
:101A00000895DC01ED91FC91048CF58DE02D199584
:101A100091E089270895CF93DF931F92CDB7DEB76A
:101A20006983DC01ED91FC910280F381E02D41E0BE
:101A300050E0BE016F5F7F4F19950F90DF91CF91FE
:101A4000089521E0FC018485843009F420E0822F90
:101A50000895FC019485FB018485981303C081E0FF
:101A6000943009F480E008950F931F93CF93DF9390
:101A7000EC018A018C85843019F0E0D4892B39F48B
:101A800081E090E09B838A8380E090E001C0C80100
:101A9000DF91CF911F910F910895FC0184858430CF
:101AA00009F0AAC580E090E00895CF93DF931F92DC
:101AB000CDB7DEB741E050E0BE016F5F7F4FFC0164
:101AC000848540D5181619061CF4898190E002C05F
:101AD0008FEF9FEF0F90DF91CF910895FC018485E8
:101AE00031C50F931F93CF93DF931F92CDB7DEB70E
:101AF0008C01DC01ED91FC910480F581E02D1995BC
:101B0000892B49F0BE016F5F7F4FF80184859BD51B
:101B1000898190E002C08FEF9FEF0F90DF91CF910E
:101B20001F910F910895FC018485B9C5CF92DF9272
:101B3000EF92FF920F931F93CF93DF93CDB7DEB752
:101B4000AF970FB6F894DEBF0FBECDBF7C018B01FF
:101B50006A01CE0101960E94E171CE01099674D20C
:101B6000CE018A960E94E17164E379E0CE01849609
:101B700025DFBE016C5D7F4FCE0101965ADBAE01C1
:101B8000465D5F4FB801CE01019692DD813091052F
:101B9000C1F4D701ED91FC910484F585E02D8EE12F
:101BA00099E09DA38CA30CA51DA52EA53FA50EA372
:101BB0001FA328A739A7A601BE016C5D7F4FC701EF
:101BC0001995AF960FB6F894DEBF0FBECDBFDF916B
:101BD000CF911F910F91FF90EF90DF90CF900895DC
:101BE000FC011382128248EE53E060E070E044830F
:101BF00055836683778387E892E09183808384E0CE
:101C000084870895FC018485843009F00AC380E04C
:101C10000895DF92EF92FF920F931F93CF93DF937C
:101C2000EC017B018A018C85843009F040C0D12C05
:101C30008D2DF7D2811102C0DC8607C08B7F8831E1
:101C4000D9F3D39484E0D812F3CF8C85843079F122
:101C500020910A0230910B022F5F3F4F11F420E0D8
:101C600030EC30930B0220930A0240910A0250910B
:101C70000B0220E061E01ED3B7016E5F7F4FA80129
:101C80008C8566D3811103C084E08C8710C0CE019F
:101C9000B9DF873149F061E070E080E090E00E94B8
:101CA000EE6DCE01AFDFEECF81E090E002C080E0CC
:101CB00090E0DF91CF911F910F91FF90EF90DF9017
:101CC0000895CF92DF92EF92FF92CF93DF93EC01D2
:101CD0008C85843061F18FD30E94BF6D6B017C01D4
:101CE000CE0190DF882359F00E94BF6D6C197D09E9
:101CF0008E099F09683E73408105910588F0CE01E9
:101D000081DF882311F08C85AFD2EC85F0E0EE0FF7
:101D1000FF1FE45CF64F1182108284E08C8707C0BD
:101D200061E070E080E090E00E94EE6DD9CFDF913D
:101D3000CF91FF90EF90DF90CF900895CF93DF93F6
:101D4000EC018C858430C9F0CE015CDF8431A9F0D0
:101D5000882399F0883189F08C3169F4E881F98120
:101D60000480F581E02DCE01199521E0892B09F43D
:101D700020E0822F03C081E001C080E0DF91CF919D
:101D800008950F9300E020E040E060E08AE499E0ED
:101D90000E94EB710F9108950F9300E020E040E066
:101DA00060E080E599E00E94EB710F910895DC01FD
:101DB000ED91FC91008CF18DE02D19942EE139E02C
:101DC000FC0131832083FB01418952896389748935
:101DD000FC0142835383648375830895FC018589E4
:101DE00096890895FC01818D928D0895CF93DF939C
:101DF0001F92CDB7DEB76983DC01ED91FC910280C3
:101E0000F381E02D41E050E0BE016F5F7F4F1995F7
:101E10000F90DF91CF910895CF93DF93EC01898DDF
:101E20009A8D892B41F0E881F9810680F781E02DB8
:101E3000CE011995F4CFDF91CF910895CF93DF9321
:101E4000EC018C85843059F00FD2EC85F0E0EE0F78
:101E5000FF1FE45CF64F1182108284E08C87DF91D3
:101E6000CF910895FC01108E178A6E5F7F4F848595
:101E700059C4FC01848598C4CF93DF93EC019A0187
:101E80008F89988DAB01BC018C850AD42F89388D40
:101E9000280F391F388F2F8BDF91CF9108950F9323
:101EA0001F93CF93DF931F92CDB7DEB78C01FC0158
:101EB000818D928D892B51F041E050E0BE016F5F22
:101EC0007F4F84853FD3181619061CF08FEF9FEFC4
:101ED00008C0F801818D928D0197928F818F898141
:101EE00090E00F90DF91CF911F910F910895CF93C4
:101EF000DF93EC01898D9A8D009719F48FEF9FEF96
:101F00000FC04817590708F0AC018C851BD3181671
:101F10001906A4F7298D3A8D281B390B3A8F298F82
:101F2000DF91CF910895CF93DF931F92CDB7DEB7A6
:101F3000FC01218D328D232B41F0BE016F5F7F4F5D
:101F4000848581D3898190E002C08FEF9FEF0F904D
:101F5000DF91CF910895FF920F931F93CF93DF935B
:101F6000EC018B018C858430D1F4F12C8F2D59D16B
:101F7000811102C0FC8606C08831E1F3F39484E04D
:101F8000F812F4CF8C85843051F01E870D871A8E9D
:101F9000198E20E0A80162E08DD181E001C080E0CF
:101FA000DF91CF911F910F91FF9008950F931F9391
:101FB000CF93DF93CDB7DEB728970FB6F894DEBF87
:101FC0000FBECDBF8C01DC01ED91FC910284F38545
:101FD000E02D1995F80184850FD3181619063CF5E4
:101FE00048E050E0BE016F5F7F4FD8011C968C9196
:101FF000A9D218161906ECF4BE016F5F7F4FC80115
:102000000F960E9407728D8190E0982F88272E816D
:10201000820F911DF801968B858B8F8190E0982F10
:1020200088272885820F911D928F818F02C080E0C2
:1020300090E028960FB6F894DEBF0FBECDBFDF91BB
:10204000CF911F910F910895FC011382128248EEE7
:1020500053E060E070E044835583668377838BEAC6
:1020600092E09183808384E08487CF010F960C9463
:10207000E171CF92DF92EF92FF920F931F93CF9374
:10208000DF93CDB7DEB7AF970FB6F894DEBF0FBEC4
:10209000CDBF7C018B016A01CE0101960E94E171E6
:1020A000CE010996D1DFCE018A960E94E17164E3E8
:1020B00079E0CE01849682DCBE016C5D7F4FCE015B
:1020C0000196B7D8AE01465D5F4FB801CE010196CB
:1020D000EFDA81309105C1F4D701ED91FC910088D0
:1020E000F189E02D8EE199E09DA38CA30CA51DA59F
:1020F0002EA53FA50EA31FA328A739A7A601BE01A1
:102100006C5D7F4FC7011995AF960FB6F894DEBF8F
:102110000FBECDBFDF91CF911F910F91FF90EF9038
:10212000DF90CF9008950F9300E020E040E060E062
:1021300086E599E00E94EB710F910895CF92DF92AE
:10214000EF92FF920F9330E0C12CF2E1DF2EFAE71D
:10215000EF2EF12C4C155D056E057F0540F4F694CD
:10216000E794D794C7943F5F3630A1F737E041E05A
:102170004327211102C050E701C050E5242F30E071
:102180003595279523700C70202B252BFC0120837F
:10219000417041830F91FF90EF90DF90CF900895B1
:1021A00090E0982F882744E050E0845F9B4FD4C391
:1021B000282F30E02C5F3F4F922F8827860F971FE4
:1021C000F4C362E070E0F4CFFB01282F30E02C5F15
:1021D0003F4F922F8827642F8E0F9F1F3BC3CF93B3
:1021E000DF93C82FD62F472F64E070E0EDDF4D2F2F
:1021F00065E070E08C2FDF91CF91E6CF462F62E053
:1022000070E0E2CFCF93DF93C82FD62F472F60E146
:1022100070E0DADF4D2F61E170E08C2FDF91CF911C
:10222000D3CF0F931F93CF93DF9300D0CDB7DEB7FB
:10223000182F00E021E040E059E06DE370E0CE01AE
:1022400001967CDF89819A81BEDA63E070E0812F9C
:10225000AFDF8B83D2DA8B810F900F900F90DF91DD
:10226000CF911F910F9108950F931F93CF93DF93F9
:102270001F921F92CDB7DEB7182F00E021E040E09B
:1022800059E06DE370E0CE01019658DF89819A81B3
:102290009ADA40E150E0612F8EE599E02FD56FEF9B
:1022A000812FACDFAADA0F900F90DF91CF911F91B1
:1022B0000F910895CF92DF92EF92FF920F931F93A9
:1022C000CF93DF931F921F92CDB7DEB7182FD62E74
:1022D0007A01C22E8FEF860F853070F5812FC4DF13
:1022E00000E021E040E059E06DE370E0CE010196AE
:1022F00025DF89819A8167DA4D2D4C2960E070E0F5
:10230000812F62DFE114F10411F0B7010AC060917E
:102310005C0970915D096F5F7F4F70935D096093F9
:102320005C09812F5CDF41E050E0612F8EE599E090
:10233000E5D463DA81E001C080E00F900F90DF9177
:10234000CF911F910F91FF90EF90DF90CF90089564
:10235000CF92DF92EF92FF920F931F93CF93DF9371
:102360001F921F92CDB7DEB7182F7B016A01FB01C8
:1023700080818F3F51F481818F3F99F482818F3F1B
:1023800081F483818F3F69F42AC081110AC0FB0167
:102390008181811106C08281811103C083818823DC
:1023A000F1F0C114D104D9F000E021E040E059E09F
:1023B0006DE370E0CE010196C1DE89819A8103DA76
:1023C000B701812FEDDEB601812F1CDF44E050E024
:1023D000612F8EE599E092D410DA81E001C080E0AF
:1023E0000F900F90DF91CF911F910F91FF90EF9081
:1023F000DF90CF9008950F931F93CF93DF931F9299
:102400001F92CDB7DEB7182F00E021E040E059E081
:102410006DE370E0CE01019691DE89819A81D3D976
:1024200048E050E0612F8EE599E068D4E6D90F903E
:102430000F90DF91CF911F910F910895BF92CF928E
:10244000DF92EF92FF920F931F93CF93DF9300D011
:10245000CDB7DEB7B82E6B017A01413088E058075E
:1024600018F0E12C98E0F92E00E021E040E059E07E
:102470006DE370E0CE01019661DE89819A81A3D976
:102480006B2D8EE599E0C1D28C0163E070E08B2D5D
:102490008FDE8B83B2D98B81873111F08C3131F48F
:1024A0000E94746D0E151F05F8F202C0E12CF12C8C
:1024B00000E021E040E059E06DE370E0CE010196DC
:1024C0003DDE89819A817FD99701A6016B2D8EE52A
:1024D00099E04ED340E250E06B2D8EE599E00ED4AA
:1024E0008B2D6FDE84FD1CC063E070E08B2D60DE01
:1024F000811106C082D98B2DB7DE80E090E015C037
:102500007CD90E94746D00E021E040E059E06DE369
:1025100070E0CE01019612DE89819A8154D9E0CF14
:1025200060E18B2D6BDE69D9C7010F900F900F9082
:10253000DF91CF911F910F91FF90EF90DF90CF909F
:10254000BF900895AF92BF92CF92DF92EF92FF9229
:102550000F931F93CF93DF931F921F92CDB7DEB7D8
:10256000182F5B016A0100E021E040E059E06DE3D3
:1025700070E0CE010196E2DD89819A8124D9612F34
:102580008EE599E072D27C01009799F463E070E0E7
:10259000812F0EDE843109F18823F9F021E030E04B
:1025A0008C3111F420E030E0EE24FF24E21AF30A2B
:1025B00014C0C816D9060CF476011E141F046CF45E
:1025C00000E09701A501612F8EE599E04CD340E42E
:1025D00050E0612F8EE599E091D30FD9C7010F909C
:1025E0000F90DF91CF911F910F91FF90EF90DF90AF
:1025F000CF90BF90AF9008950F931F93CF93DF9329
:1026000000D01F92CDB7DEB7182F00E021E040E0E8
:1026100059E06DE370E0CE01019690DD89819A81E9
:10262000D2D8612F8EE599E020D28B839C83E5D8A8
:102630008B819C810F900F900F900F90DF91CF9125
:102640001F910F910895EF92FF920F931F93CF93D5
:10265000DF931F921F92CDB7DEB7182F7B0100E0EA
:1026600021E040E059E06DE370E0CE01019666DDC7
:1026700089819A81A8D801E021E030E0A701612F8B
:102680008EE599E0F0D2B9D881E090E00F900F90FC
:10269000DF91CF911F910F91FF90EF9008950895D2
:1026A0009F92AF92BF92CF92DF92EF92FF920F93E1
:1026B0001F93CF93DF931F921F92CDB7DEB7982E53
:1026C0006B015A01790100E021E040E059E06DE33F
:1026D00070E0CE01019632DD89819A8174D8692D2E
:1026E0008EE599E092D18E159F0528F4692D8EE52F
:1026F00099E08BD17C0187019501A601692D8EE5BA
:1027000099E0CDD17AD8C7010F900F90DF91CF918A
:102710001F910F91FF90EF90DF90CF90BF90AF90FF
:102720009F900895CF92DF92EF92FF920F931F93A5
:10273000CF93DF931F921F92CDB7DEB7182F7B0187
:102740006A01FB018081811109C08181811106C06C
:102750008281811103C083818823C9F0C114D1040F
:10276000B1F000E021E040E059E06DE370E0CE011F
:102770000196E4DC89819A8126D8B701812F10DD8A
:10278000B601812F3FDD39D881E090E002C080E0C2
:1027900090E00F900F90DF91CF911F910F91FF90DC
:1027A000EF90DF90CF9008950F931F93CF93DF9317
:1027B0001F921F92CDB7DEB7182F00E021E040E056
:1027C00059E06DE370E0CE010196B8DC89819A8111
:1027D0000E94E30B40E250E0612F8EE599E08ED23B
:1027E000812FEFDC84FD1DC0812FEBDC83FF07C050
:1027F00068E1812F03DD01D880E090E019C00E94DC
:10280000FD0B0E94746D00E021E040E059E06DE3B3
:1028100070E0CE01019692DC89819A810E94E30BDF
:10282000DFCF60E1812FEADC0E94FD0B81E090E0C8
:102830000F900F90DF91CF911F910F9108958EBD52
:1028400000000DB407FEFDCF8EB508952C980895B5
:102850002C9A08951F93CF93DF931F921F92CDB7A9
:10286000DEB7182F6A839983F1DF80EFE8DF998163
:10287000892FE5DF812FE3DF6A81862FE0DFE8DF44
:1028800081E00F900F90DF91CF911F910895CF932A
:10289000DF93EC016CE271E080E090E00E94EE6D6D
:1028A0000E94064B249A80917609882399F09FB75D
:1028B000F89480917609813059F48DB3809374092E
:1028C0002DB380917509809582238DBB9FBF02C077
:1028D0009093740980E58CBD1DBC60E880E090E0B9
:1028E000B9DF65E58BE190E0B5DF65E58AE190E071
:1028F000B1DF80917609882361F09FB7F894209129
:10290000760980917409213019F48DBB9FBF01C0F5
:102910008FBF80E090E49983888380E090E6998778
:10292000888780E098E49B838A8380E098E69B8791
:102930008A8780E090E59D838C8380E090E79D8787
:102940008C8780E098E59F838E8380E098E79F875F
:102950008E87DF91CF910895CF92DF92EF92FF9211
:102960000F931F93CF93DF93EC017A018B016C01DE
:10297000C40ED51ECC15DD0571F068DF80EF5FDF7A
:102980008D2F5DDF8C2F5BDF2196F80181918F0108
:1029900056DF5EDFEFCFC701DF91CF911F910F911F
:1029A000FF90EF90DF90CF9008951F93CF93DF9328
:1029B0001F92CDB7DEB7182F998348DF8FE03FDF36
:1029C0009981892F3CDF812F3ADF80E038DF8983CE
:1029D0003FDF89810F90DF91CF911F9108951F9361
:1029E000CF93DF93182F60E270E0E2DBC82FD0E0D6
:1029F00061E270E0812FDCDBDC2FCC279E01282BED
:102A0000C901DF91CF911F910895FF920F931F93FA
:102A1000CF93DF93F62EC0E0D0E08F2DE0DF8C0166
:102A2000009719F08F2DDBDFEC01C017D107A9F754
:102A3000CE01DF91CF911F910F91FF9008951F93C9
:102A4000CF93DF93182F66E270E0B2DBC82FD0E09F
:102A500067E270E0812FACDBDC2FCC279E01282BB6
:102A6000C901DF91CF911F910895FF920F931F939A
:102A7000CF93DF93F62EC0E0D0E08F2DE0DF8C0106
:102A8000009719F08F2DDBDFEC01C017D107A9F7F4
:102A9000CE01DF91CF911F910F91FF9008956F921A
:102AA0007F929F92AF92BF92CF92DF92EF92FF926E
:102AB0000F931F93CF93DF931F92CDB7DEB7D82E1E
:102AC000962E3A01590164E270E0892D998370DBFA
:102AD000E82EF12C65E270E0892D6ADBFE2CEE24F5
:102AE000E82AE60CF71C970137706D2C9981792E36
:102AF000690C711C690C711CD301ED91FC91E20F02
:102B0000F31FC901800F911F8130984098F0C12CAC
:102B100048E0D42EC21AD30AA601B501CF011CDFAA
:102B2000A8014C195D09B5016C0D7D1DF301808173
:102B3000918103C0A801B501CF010EDFE00EF11EA7
:102B40004F2D64E270E0892D3FDB4E2D65E270E091
:102B5000892D0F90DF91CF911F910F91FF90EF90F2
:102B6000DF90CF90BF90AF909F907F906F902CCBD5
:102B70000F931F9389019A0140E050E090DF1F916D
:102B80000F910895CF92DF92EF92FF920F931F93D0
:102B9000CF93DF93EC017A018B016C01C40ED51E3B
:102BA000CC15DD0579F052DE8FE049DE8D2F47DE52
:102BB0008C2F45DE219680E042DEF80181938F0163
:102BC00047DEEECFC701DF91CF911F910F91FF90AC
:102BD000EF90DF90CF900895AF92BF92CF92DF92A7
:102BE000EF92FF920F931F93CF93DF931F921F9249
:102BF000CDB7DEB75A8349835901E981FA81F7706D
:102C00007C01E60EF11CE60EF11CD70118968D91A1
:102C10009C9119978E0F9F1F98012E0F3F1F2130F7
:102C2000384090F0C12C68E0D62ECE1ADF0AA601FB
:102C3000B501A8DFA8014C195D09B5016C0D7D1D1A
:102C4000F7018085918502C0A801B5010F900F9012
:102C5000DF91CF911F910F91FF90EF90DF90CF9078
:102C6000BF90AF908FCF8F929F92AF92BF92CF9233
:102C7000DF92EF92FF920F931F93CF93DF936C013C
:102C8000962E5A017901802E68E270E0892D90DA43
:102C9000C82FD0E069E270E0892D8ADADC2FCC27DA
:102CA000C82B87019501AE01692DC60195DF811002
:102CB00018C0CE0DDF1D4D2F68E270E0892D84DA3B
:102CC0004C2F69E270E0892DDF91CF911F910F9118
:102CD000FF90EF90DF90CF90BF90AF909F908F903C
:102CE00073CADF91CF911F910F91FF90EF90DF900A
:102CF000CF90BF90AF909F908F900895CF93C62FA5
:102D000061E070E08C2F60DA61E070E08C2F50DAC7
:102D10008111FACFCF9108957F928F929F92AF92B7
:102D2000BF92CF92DF92EF92FF920F931F93CF93B8
:102D3000DF936C01162F942EE9011E77106883E54E
:102D400090E00E94E30B60E0F60184850E94316F01
:102D50009A94812F74DD7C2EEC2EFD2EAA24A39450
:102D6000B12C8E2D8719891518F5811119C00023F2
:102D7000B9F0802F812C883048F49501082E01C0CD
:102D8000220F0A94EAF7822A8F5FF5CF812F57DD51
:102D9000982D9095288192238821982B988304C0A0
:102DA000812F4DDDF7018083FFEFEF1AFF0AD9CFA6
:102DB000C90DD11D80E043DD888361E0F601848583
:102DC0000E94316FDF91CF911F910F91FF90EF9093
:102DD000DF90CF90BF90AF909F908F907F900C949A
:102DE000FD0BFC01648745870895EF92FF921F93C6
:102DF000CF93DF931F92CDB7DEB77C01162F83E50B
:102E000090E049830E94E30B60E0F70184850E9413
:102E1000316F812F8E7713DD4981842F10DD61E0C2
:102E2000F70184850E94316F0F90DF91CF911F9140
:102E3000FF90EF900C94FD0BCF92DF92EF92FF92F8
:102E40000F931F93CF93DF931F921F92CDB7DEB7DF
:102E50008C01E62EF42E83E590E029833A830E94CC
:102E6000E30B60E0F80184850E94316F8E2D8E7730
:102E7000E6DC2981E22EC22E3A81D32E8C2D8E19CA
:102E80008F1528F4F60181916F01D9DCF7CF61E04D
:102E9000F80184850E94316F0F900F90DF91CF91E0
:102EA0001F910F91FF90EF90DF90CF900C94FD0B4E
:102EB0001F93CF93DF93EC01162F83E590E00E94E0
:102EC000E30B60E08C850E94316F812F8E778068E4
:102ED000B6DC80E0B4DC182F61E08C850E94316F95
:102EE0000E94FD0B812FDF91CF911F9108950F93C9
:102EF000411112DF0F910895EF92FF921F93CF932C
:102F0000DF931F92CDB7DEB77C01162F4983D0DF48
:102F10004981482B612FC7010F90DF91CF911F91FD
:102F2000FF90EF9062CFEF92FF921F93CF93DF93CA
:102F30001F92CDB7DEB77C01162F4983B9DF4981D7
:102F400040954823612FC7010F90DF91CF911F91CA
:102F5000FF90EF904ACFDF92EF92FF920F931F9373
:102F6000CF93DF93EC018B01D42E790140E062E036
:102F70003CDF44E06AE0CE0138DF40E864E1CE01A6
:102F8000BBDF98014D2D62E1CE0156DF43E062E0E8
:102F9000CE012BDF08E813E16AE0CE0189DF82FD74
:102FA00006C001501109C1F783E090E010C040E075
:102FB00062E0CE011ADF64E4CE017ADFF70180839C
:102FC00062E4CE0175DFF701818380E090E0DF915C
:102FD000CF911F910F91FF90EF90DF900895CF93C5
:102FE000DF93EC014FE062E000DF62E370E080E03D
:102FF00090E00E94EE6D62E0CE015ADF84FDFBCFCF
:10300000DF91CF910895CF93DF93EC0168E250DF19
:10301000982F9370933039F0482F436068E2CE01C7
:10302000DF91CF91E2CEDF91CF910895CF93DF93DF
:10303000EC0161E08C850E94F86E61E08C850E9455
:10304000316F61E08D850E94F86E8D850E94666FFC
:10305000892B59F461E08D850E94316F62E370E045
:1030600080E090E00E94EE6D02C0CE01B8DF40E843
:1030700064E5CE01BADE49EA66E5CE01B6DE43E09C
:1030800068E5CE01B2DE48EE6AE5CE01AEDE40E490
:103090006AE2CE01AADE4DE362E2CE01A6DECE01F7
:1030A000DF91CF91B0CF2F923F925F926F927F923C
:1030B0008F929F92AF92BF92CF92DF92EF92FF9248
:1030C0000F931F93CF93DF9300D01F92CDB7DEB73E
:1030D0003C01962E542E302E082DA114B10419F067
:1030E000F501408101C040E0242EF0E10F9F200C4B
:1030F000112440E062E0C3012B833C8376DE4FE77E
:1031000068E0C30172DE40E864E1C301F5DE2B81B3
:103110003C81432D62E1C3018FDE422D6AE1C30190
:1031200064DE492D62E0C30160DE8CE0981204C0C9
:1031300040E86AE1C301E0DE90ED292E97E0392EE8
:1031400068E0C301B5DE982F952139F480FD5DC09C
:10315000E1E02E1A3108A1F758C06CE0C301A8DEE7
:10316000982E837109F053C0E114F104D9F0C11411
:10317000D104C1F064E1C3019BDE482FF6018081D8
:10318000841708F446C04083970162E1C301AFDEB3
:1031900068E1C3018DDE182F1770A114B10411F07E
:1031A000F501108393FC37C0E114F104B1F1C114AF
:1031B000D10499F1898D882381F1F6014081413054
:1031C00019F4143019F41FC0423010F487E026C0FF
:1031D0001111FCCF42509E012F5F3F4FB701C30139
:1031E000BADE0097E1F4F6018081E80EF11CF701E8
:1031F0003297908189819813E9CF319690818A81A5
:103200009813E4CF0AC08FEF09C083E007C081E0C4
:1032100005C084E003C082E001C080E090E00F9030
:103220000F900F900F90DF91CF911F910F91FF9012
:10323000EF90DF90CF90BF90AF909F908F907F9056
:103240006F905F903F902F9008958F92AF92BF92B2
:10325000CF92DF92EF92FF920F931F93AF928C2C3D
:10326000570168017901042F9B0140E36CE01BDFEB
:103270000F901F910F91FF90EF90DF90CF90BF9034
:10328000AF908F9008954F925F926F927F928F923E
:103290009F92AF92CF92EF92FF920F931F93CF9393
:1032A000DF931F921F92CDB7DEB73C016A832A01DC
:1032B00049014115510521F1F9018081823000F168
:1032C00040E86CE1C3012FDE87E08983A12CC12C8B
:1032D000CE0101967C018401920141E0BE016E5F46
:1032E0007F4FC301B2DF009779F4F401808182300F
:1032F00049F481E090E02981211106C080E004C0FA
:1033000084E001C081E090E00F900F90DF91CF91B9
:103310001F910F91FF90EF90CF90AF909F908F9063
:103320007F906F905F904F9008959A01AB0166E295
:10333000AACF2F923F924F925F926F927F928F927D
:103340009F92AF92BF92CF92DF92EF92FF920F9334
:103350001F93CF93DF93CDB7DEB72D970FB6F894B9
:10336000DEBF0FBECDBF3C012B01B42E40E54B1597
:1033700008F4E1C040E86CE1D6DD2224239482E029
:10338000281691F093E02916E1F0A1E02A12D7C0A7
:1033900083E98983BB20D1F041E0F201808185304F
:1033A00008F440E0D12C17C085E98983BB2081F067
:1033B00041E0D2018C91883008F440E073E0D72ED0
:1033C0000AC087E9898366E0D62E04C0D12C02C0EA
:1033D00053E0D52E40E05B2DB8EFDB9E500D11245D
:1033E00057FD50E0442321F088E88B8373E001C04F
:1033F00072E091E0852F877009F490E0852F859524
:1034000085958595890F21F4442311F1585F20C0DB
:10341000442311F063E001C064E0861708F4682FCC
:1034200080E090E092012D0D311DE72FE80FA1E023
:10343000B0E0AC0FBD1FAE0FB11DFD01D901A80F4B
:10344000B91F1196AC91A0830196861770F3DCCF5B
:1034500043E0342E50320CF453C0B0E7BA838C8171
:103460009B8189279D8189279E8189278F839E0142
:10347000285F3F4F47E0BE016F5F7F4FC3015D870D
:103480006ADD5D85009709F0A8C01B863A86FE01BB
:1034900037964F0179E00BC0780F88248394912CE4
:1034A0008C0E9D1E880E911C87E0821B8A87CB8420
:1034B0004C2D4295407F4C0D6AE1C3015D877C87AE
:1034C00094DCA12CCE010B967C018E01065F1F4F70
:1034D00094017C85472FBE016F5F7F4FC301B5DE2E
:1034E0005D858230910501F56CE1C301E1DC5D850C
:1034F00085FD23C052301CF58B8182608B8352E0A6
:10350000952F97709B87252F25952595259582E0EA
:10351000820F392FF0E18F9F300D11243A8371E033
:103520009111BACF70E0B8CF009709F056C0503271
:1035300094F450E292CF86E00CC082E00AC085E0AD
:1035400008C0F2018387822D880F820D8F5F8083F0
:1035500080E090E042C08B81883819F052E044E06E
:1035600002C053E043E080E090E092012D0D311D58
:10357000F901E80FF91F652F680FA1E0B0E0AC0F6B
:10358000BD1FA60FB11D6C9161830196841780F356
:103590008A858330F1F48B8581111BC09E012D5FDC
:1035A0003F4F41E0B401C301D6DC0097B1F49B81E9
:1035B000D40111968C91119798130DC09C8112968D
:1035C0008C911297981307C08C9182FFBACF2394E5
:1035D000D6CE81E0BECF87E0BCCF2D960FB6F89453
:1035E000DEBF0FBECDBFDF91CF911F910F91FF9036
:1035F000EF90DF90CF90BF90AF909F908F907F9093
:103600006F905F904F903F902F9008958F929F9270
:10361000AF92CF92EF92FF920F931F93CF93DF93CE
:1036200000D01F92CDB7DEB74C0180E589831A82A6
:103630009E012D5F3F4F42E0BE016F5F7F4FC4018F
:103640008ADC0097B9F4A12CC12CE12CF12C00E00C
:1036500010E020E030E044E0BE016F5F7F4FC40126
:10366000F4DD8330910521F0009721F481E001C061
:1036700080E090E00F900F900F900F90DF91CF912E
:103680001F910F91FF90EF90CF90AF909F908F90F0
:103690000895CF93DF9300D0CDB7DEB722E02B8320
:1036A000AE014D5F5F4FBE016F5F7F4F3EDE009703
:1036B00031F021E0029709F020E0822F01C081E083
:1036C0000F900F900F90DF91CF91089540E0BC01D3
:1036D00030DE21E0892B09F020E0822F0895CF927F
:1036E000DF92EF92FF920F931F93CF93DF93EC0142
:1036F0008B010E94BF6D6B017C0188819981DC0187
:10370000ED91FC910480F581E02D1995892B69F4E8
:103710000E94BF6D6C197D098E099F0968397A4333
:103720008105910550F380E00CC088819981DC010E
:10373000ED91FC910680F781E02D1995F8018083C9
:1037400081E0DF91CF911F910F91FF90EF90DF907B
:10375000CF9008950F931F93CF93DF93EA010881D1
:103760001981600F711FBBDF882331F00F5F1F4F7E
:103770001983088381E001C080E0DF91CF911F9120
:103780000F9108953F924F925F926F927F928F9226
:103790009F92AF92BF92CF92DF92EF92FF920F93E0
:1037A0001F93CF93DF9300D0CDB7DEB78C016B01B1
:1037B0001A8219825C0122E0A20EB11CAE014F5F99
:1037C0005F4FB501C7DF811103C080E090E0BBC04F
:1037D000D80112969C901B82E12CF12C412C512C8B
:1037E00032014394BE016D5F7F4FC80178DF8823AB
:1037F00061F329813A81C90101969A8389836B819A
:10380000F801E20FF31F6283462F4F7750E0449D8B
:103810009001459D300D549D300D1124E20EF31E94
:1038200097E0440C551C661C771C9A95D1F767FDF0
:10383000D9CF292D207F33243394203309F0312C24
:103840008150F6018083332031F1AE014F5F5F4F2D
:10385000B501C8017FDF882309F4B7CFAE014F5F00
:103860005F4FB501C80176DF882309F4AECFD601DA
:103870008C91F801E80FF11D4380512C542C442405
:103880008481480E511CF801828181FF08C0F2E05A
:103890004F0E511C04C080E0412C512C01C082E02D
:1038A000A82EB12C612C712C48012BE0821A2AEF32
:1038B000920AC3018A0D9B1D8E159F05A0F5BE01BE
:1038C0006D5F7F4FC8010BDF882309F47ECFD401E1
:1038D0008D919C910097A9F0332099F029813A812C
:1038E00022503109F6014081241B3109421653064A
:1038F00040F4DC01ED91FC910190F081E02D6B81B1
:10390000199589819A818C3DB5E09B0728F42B811C
:10391000F801E80FF91F228301969A838983EFEF5C
:103920006E1A7E0AC6CFF801EB50FA4F8081918162
:10393000892B39F489819A818D3D954010F01A8246
:10394000198289819A810F900F900F90DF91CF910A
:103950001F910F91FF90EF90DF90CF90BF90AF90AD
:103960009F908F907F906F905F904F903F900895C1
:10397000AF92BF92CF92DF92EF92FF920F931F937D
:10398000CF93DF9300D01F92CDB7DEB77C01F90152
:1039900080E09E2F9F77EE0FEF2FEE1FFF0BF1952C
:1039A000309709F09068A1E0B0E0AC0FBD1FA80F00
:1039B000B11D9C938F5F309761F7A82EB12CDA016F
:1039C000AA19BB0914966C93BE016F5F7F4F80E00C
:1039D00090E04A195B098A159B0554F4FB01D190CC
:1039E000BF018A01080F191FF801D5820196F3CF94
:1039F000F7018081918189010F5F1F4F0A0D1B1D07
:103A0000FC0120813181F90122813381A801BD01AE
:103A1000F90119956C010E94BF6DF701E052FA4F50
:103A2000608371838283938381E0C016D10609F09D
:103A300080E00F900F900F900F90DF91CF911F912A
:103A40000F91FF90EF90DF90CF90BF90AF900895CF
:103A5000C9010296DB01FD01E61BF70B2D91222324
:103A600031F0FA01E80FF91F20830196F4CF9C0191
:103A70002E1B3F0B240F351FD9011297FC93119673
:103A8000EC930895CF93DF93EC018881998100979F
:103A900031F1DC01ED91FC910488F589E02D199557
:103AA00081111FC0FE01E950FA4F80819181892B5D
:103AB000B1F48DEF9FEF9183808388819981DC0140
:103AC000ED91FC910284F385E02D1995888199810F
:103AD000DC01ED91FC910288F389E02D199580E0DD
:103AE00001C081E0DF91CF9108952F923F924F92D4
:103AF0005F926F927F928F929F92AF92BF92CF927E
:103B0000EF92FF920F931F93CF93DF93CDB7DEB762
:103B10002C970FB6F894DEBF0FBECDBF4C011B0132
:103B20002A013901AFDF811114C1F401EF50FA4FBE
:103B300060817181D4018D919C911197AD50BA4FE4
:103B4000FC01208131816115710541F04D915C913D
:103B5000D9011E96ED91FC911F971FC0F9010484B5
:103B6000F585E02DFC87EB87ED91FC912EE139E0A6
:103B70003A832983D401A551BA4F12964D915D9194
:103B80006D917C9115974B835C836D837E83AF0130
:103B9000BE016F5F7F4FEB85FC851995F401813085
:103BA000910509F0CEC0E252FA4F9183808387E0FD
:103BB000E3E2F2E0DE01119601900D928A95E1F7C1
:103BC000FE01319680E090E02191D401A80FB91F49
:103BD00017962C93019687309105B1F701151105C1
:103BE00059F0F0E2CF9EC0011124866028E0E29EE9
:103BF000700111248E2901C082E04114510431F07A
:103C00006114710411F4806801C0806CD4011E96A7
:103C10008C931E971F961C921F978FE050968C9343
:103C20007401B2E0EB0EF11C2FE030E0A701B1010E
:103C3000C4010EDF0115110551F09C01A701B80167
:103C4000C40106DF9C01A701B501C40101DF4114D5
:103C5000510469F09C01A701B201C401F9DE6114AD
:103C6000710429F09C01A701B301C401F1DE9C019C
:103C700025503109A70160E1C4017ADE0E94BF6DC1
:103C8000F401E052FA4F608371838283938384014D
:103C90000C511A4FF8016083718382839383F4017E
:103CA00080819181DC01ED91FC910480F581E02D12
:103CB0001995892BC1F40E94BF6DD8014D905D907C
:103CC0006D907C90641975098609970968397A4363
:103CD0008105910520F3F401E950FA4F8CEF9FEF35
:103CE0009183808323C0BE01685F7F4FC4014ADD9A
:103CF0000497E1F4F4018581940129503A4F790148
:103D0000811110C00E94BF6DD8016D937D938D937A
:103D10009C931397F401E851FA4F1082F701118236
:103D2000108217C090E0D9018D939C93F40180819B
:103D30009181DC01ED91FC910288F389E02D1995C8
:103D400006C0E950FA4F8EEF9FEF9183808380E0A9
:103D500001C081E02C960FB6F894DEBF0FBECDBF38
:103D6000DF91CF911F910F91FF90EF90CF90BF9077
:103D7000AF909F908F907F906F905F904F903F900B
:103D80002F9008952F923F924F925F926F927F9261
:103D90008F929F92AF92BF92CF92DF92EF92FF925B
:103DA0000F931F93CF93DF9300D01F92CDB7DEB751
:103DB0008C014DB65EB666DE882309F444C10E94CC
:103DC000BF6D6B017C0158012CE1A21A2AEFB20AE7
:103DD000F50180819181A281B381A7019601281B01
:103DE000390B4A0B5B0BDA01C90189399A43A105EA
:103DF000B10590F4349780819181A281B381A701AC
:103E00009601281B390B4A0B5B0BDA01C901893972
:103E10009A43A105B105C8F1480148E1841A4AEF67
:103E2000940AD4012C91F80180819181222371F0B0
:103E3000E950FA4F2CEF3FEF31832083DC01ED9105
:103E4000FC910288F389E02D1995FDC020ECF80162
:103E500022831382DC01ED91FC910280F381E02D3D
:103E600042E050E0B8016E5F7F4F1995F801E052D3
:103E7000FA4FC082D182E282F382F501C082D18200
:103E8000E282F38281E0D4018C93F80180819181F8
:103E9000DC01ED91FC910480F581E02D1995892BD1
:103EA00009F4D3C0BE016F5F7F4FC8016BDCFC011A
:103EB000009709F4CAC0D501CD92DD92ED92FC9233
:103EC0001397D80112968C91807F803309F0A0C09F
:103ED0004801B7E18B1ABAEF9B0AD4018D919C91EE
:103EE000892B09F4B2C02DB63EB6698170E0D801C5
:103EF000A60FB71F13964C91139750E0542F4427E9
:103F000014968C911497480F511DCA0101962DB734
:103F10003EB7281B390B0FB6F8943EBF0FBE2DBF1E
:103F20008DB79EB701965C0120E030E0BC83AB8387
:103F30002417350769F06B807C80620E731ED301F5
:103F400015966C90D5016D925D012F5F3F4FF0CFBC
:103F5000DC01A20FB31F1C92D8011296BC91B6705F
:103F6000BA83B230E9F53901660E771ED801A60D85
:103F7000B71D1596AC901597B12CBA2CAA2416969D
:103F80004C91A40EB11C4BEF5FEF461B570B421B2D
:103F9000530B4E0F5F1FB301695F7F4F600F711F9F
:103FA000D401ED91FC91199580E4F80182837A8027
:103FB0007382B482A582D8018D919D91BD01DC01EF
:103FC000ED91FC910280F381E02D44E050E01995E1
:103FD000F801E052FA4FC082D182E282F38212C02D
:103FE0004DEF5FEF461B570B421B530B4E0F5F1FEE
:103FF000620F731F6B5F7F4F600F711FD401ED91D4
:10400000FC9119950FB6F8943EBE0FBE2DBE1DC093
:10401000803C91F480EDF80182831382D8018D9168
:104020009D91BD01DC01ED91FC910280F381E02DB9
:1040300042E050E0199509C0803D39F4F801E8519B
:10404000FA4F108202C080E001C081E00FB6F89400
:104050005EBE0FBE4DBE0F900F900F900F90DF9180
:10406000CF911F910F91FF90EF90DF90CF90BF9075
:10407000AF909F908F907F906F905F904F903F9008
:104080002F9008958F929F92BF92CF92DF92EF92DE
:10409000FF920F931F93CF93DF931F921F92CDB781
:1040A000DEB74C01B42E152F790169837A83EADCDF
:1040B00069817A81882309F444C0FB0101900020C2
:1040C000E9F73197E61BF70BC70107968E0F9F1F85
:1040D0008D3D9540B0F5640182E0C80ED11C25E00D
:1040E00030E0A601C401B4DCEB2DF12F60E070E0FC
:1040F0009401280F391F6E157F0549F04191D901B0
:10410000A60FB71F12964C936F5F7F4FF4CF01112C
:1041100002C060E301C061E3970125503109280F17
:10412000391FA601C4010F900F90DF91CF911F910D
:104130000F91FF90EF90DF90CF90BF909F908F9066
:1041400017CC80E00F900F90DF91CF911F910F91CE
:10415000FF90EF90DF90CF90BF909F908F90089549
:104160000F93FA0101900020E9F73197E41BF50B5A
:10417000022F9F0187DF0F910895CF92DF92FF9268
:104180000F931F93CF93DF931F921F92CDB7DEB78C
:104190006C01F42E81E0841708F43EC0FB0101900D
:1041A0000020E9F7E61BF70B3896ED3DF540A0F54A
:1041B000C60169837A8366DC69817A81882361F12B
:1041C000F601E252FA4F80819181019611F481E06B
:1041D00090E09183808380819181F601978380872D
:1041E00086010E5F1F4F27E030E0A801C60130DCDA
:1041F000F601E80FF91FF2829C0124503109A80151
:1042000062E8C6010F900F90DF91CF911F910F913F
:10421000FF90DF90CF90ACCB80E00F900F90DF91BC
:10422000CF911F910F91FF90DF90CF90089540E0C4
:10423000A4CFEF92FF920F931F93CF93DF931F9220
:104240001F92CDB7DEB77C01FB0101900020E9F79A
:10425000E61BF70B3896ED3DF54078F5C70169830D
:104260007A8310DC69817A81882339F1F701E2527F
:10427000FA4F80819181019611F481E090E0918361
:10428000808380819181F7019783808787010E5F0A
:104290001F4F27E030E0A801C701DADB9C01255061
:1042A0003109A80162EAC7010F900F90DF91CF9109
:1042B0001F910F91FF90EF905BCB80E00F900F90DC
:1042C000DF91CF911F910F91FF90EF900895CF92C2
:1042D000DF92EF92FF920F931F93CF93DF93CDB7AF
:1042E000DEB72C970FB6F894DEBF0FBECDBF7C01B2
:1042F000FB016A010381228141816081CE01079621
:104300000E94EB7109851A852B853C85F701E551E3
:10431000FA4F02831383248335833896D182C08277
:10432000329711821082C7012C960FB6F894DEBF27
:104330000FBECDBFDF91CF911F910F91FF90EF90F6
:10434000DF90CF900895CF92DF92EF92FF920F937C
:104350001F93CF93DF9300D01F92CDB7DEB76C01D0
:10436000790185519A4F4B835C8369837A830E94DC
:10437000E171F601E950FA4F8FEF9FEF918380834F
:104380004B815C8169817A81C601A1DFF601E75129
:10439000FA4FF182E082F60111830083EB50FA4F6D
:1043A000118210820F900F900F900F90DF91CF919C
:1043B0001F910F91FF90EF90DF90CF9008950F9392
:1043C00000E020E040E060E08EE699E00E94EB71C2
:1043D0000F9108952F923F924F925F926F927F922A
:1043E0008F929F92AF92BF92CF92DF92EF92FF9205
:1043F0000F931F93CF93DF9300D01F92CDB7DEB7FB
:104400004C017C836B836A015901C8018701AC01AF
:104410004C195D0957FF03C051954195510995010C
:104420006B817C81261B370B37FF03C031952195AB
:10443000310922242394312C2417350714F0212C20
:10444000312C2114310459F03A2D2B2D5C01832F8E
:10445000922F3B812C81DC82CB82C32ED22EAB816A
:10446000BC81AA16BB065CF43C2D2D2D6C01832F5C
:10447000922F3B812C81BC82AB82A32EB22E2501D0
:10448000EB81FC814E1A5F0A3C016C187D0877FEB7
:1044900003C0719461947108720157FE03C0FFEF6D
:1044A000EF1AFF0AF594E794C816D9062CF421E018
:1044B00030E03A83298324C06FEF7FEF7A836983EA
:1044C0001FC0D401ED91FC910480F581E02D98018D
:1044D00021143104D9F04B815C81B601C4011995D6
:1044E000E618F708F7FE06C0E981FA81CE0EDF1E56
:1044F000E40CF51C2B813C812F5F3F4F3C832B83C9
:104500006B817C81A616B706E4F604C0A6016B8118
:104510007C81E4CF0F900F900F900F90DF91CF919F
:104520001F910F91FF90EF90DF90CF90BF90AF90D1
:104530009F908F907F906F905F904F903F902F90C3
:1045400008956F927F928F929F92AF92BF92CF9277
:10455000DF92EF92FF920F931F93CF93DF93EC01C3
:104560005B016A0139014801E881F9810284F38520
:10457000E02D87011995E881F981A601480D591DA3
:10458000415051090284F385E02D9301B501CE011C
:104590001995E881F9810084F185E02D9401A60147
:1045A000B501CE011995E881F981B501660D771D38
:1045B000615071090084F185E02D9401A601CE01BE
:1045C0001995DF91CF911F910F91FF90EF90DF90A0
:1045D000CF90BF90AF909F908F907F906F900895F5
:1045E000EF92FF920F931F93DC01ED91FC91240F4A
:1045F000351F215031090680F781E02D78018901AE
:104600009B0119951F910F91FF90EF900895EF92E4
:10461000FF920F931F93DC01ED91FC91260F371F42
:10462000215031090680F781E02D78018A01199522
:104630001F910F91FF90EF9008956F927F928F924C
:104640009F92AF92BF92CF92DF92EF92FF920F9321
:104650001F93CF93DF935C014A0169013801EB019D
:10466000C60ED71ECC15DD0574F4D501ED91FC9175
:104670000084F185E02D87019301A401BE01C501ED
:1046800019952196EFCFDF91CF911F910F91FF9058
:10469000EF90DF90CF90BF90AF909F908F907F90E2
:1046A0006F900895EF92FF920F931F93DC01ED91AD
:1046B000FC9111971A960D911C911B9718962D91AC
:1046C0003C9119970684F785E02D7B0140E050E08E
:1046D00060E070E019951F910F91FF90EF900895A1
:1046E0000895FC01138212828FEC92E09183808303
:1046F00075836483578346837187608753874287B6
:10470000158A158614861786168621E0248B8FEF6E
:104710009FEF938B828B918B808B268B178A0895CA
:104720002F923F924F925F926F927F928F929F92C1
:10473000AF92BF92CF92DF92EF92FF920F931F93AF
:10474000CF93DF9300D000D0CDB7DEB79E838D83AB
:104750004B013A016901802F44244394512C421AA1
:10476000530A22243324221A330A220C331CAA248B
:10477000A394B12C01E010E0982F94709983A82F96
:10478000A270AA83B82FB870BB8381708C83C501D7
:1047900001978C159D050CF0A6C057FC08C0E1E000
:1047A000CE1AD108F2E02F0E311C420C531C0E5FC2
:1047B0001F4F400E511E8981882311F1AD81BE81AA
:1047C000ED91FC9111970480F581E02D9701A301F3
:1047D0004C0D5D1DB501680D791DCD011995AD819B
:1047E000BE81ED91FC9111970480F581E02D970138
:1047F000A501460D571DB4016C0D7D1DCD01199508
:10480000BA81BB2311F1AD81BE81ED91FC9111976D
:104810000480F581E02D9701A3014C195D09B501D4
:10482000680D791DCD011995AD81BE81ED91FC9189
:1048300011970480F581E02D9701A3014A195B09C6
:10484000B4016C0D7D1DCD011995BB81BB2311F108
:10485000AD81BE81ED91FC9111970480F581E02D31
:104860009701A501460D571DB4016C197D09CD01B5
:104870001995AD81BE81ED91FC9111970480F58170
:10488000E02D9701A3014C0D5D1DB4016A197B0950
:10489000CD011995BC81BB2311F1AD81BE81ED9194
:1048A000FC9111970480F581E02D9701A3014A192D
:1048B0005B09B4016C197D09CD011995AD81BE81EB
:1048C000ED91FC9111970480F581E02D9701A301F2
:1048D0004C195D09B4016A197B09CD011995BFEF27
:1048E000AB1ABB0A54CF26960FB6F894DEBF0FBEA4
:1048F000CDBFDF91CF911F910F91FF90EF90DF908F
:10490000CF90BF90AF909F908F907F906F905F906F
:104910004F903F902F9008952F923F924F925F9229
:104920006F927F928F929F92AF92BF92CF92DF92BF
:10493000EF92FF920F931F93CF93DF93CDB7DEB724
:1049400028970FB6F894DEBF0FBECDBF5C011B01E8
:104950005A83498338872F83FC82EB82882483948F
:10496000912C821A930A3901719461947108660C32
:10497000771C270123E0420E511CEE24E394F12C16
:10498000302F31703D8302700E83C7010197EF8194
:10499000F8858E179F070CF07BC097FC0AC08F81AB
:1049A0009885019798878F8392E0690E711C860C19
:1049B000971CC201AB81BC818A1B9B0B880E991E80
:1049C000BD81BB2369F1D501ED91FC912F81388523
:1049D000220F331F2F5F3F4F8B819C81280F391F80
:1049E0000084F185E02D860149815A81AF81B88527
:1049F0004A1B5B0BB701620D731DC5011995D501EB
:104A0000ED91FC910084F185E02D920149815A815C
:104A10004E195F096F817885620D731DC501199567
:104A2000BE81BB2371F1D501ED91FC912F813885B9
:104A3000220F331F2F5F3F4F8B819C81280F391F1F
:104A40000084F185E02D860149815A81AF81B885C6
:104A50004A1B5B0BB1016E197F09C5011995D50180
:104A6000ED91FC910084F185E02D920149815A81FC
:104A70004E195F09B1018F819885681B790BC501BB
:104A800019959FEFE91AF90AA2E04A0E511C7DCF51
:104A900028960FB6F894DEBF0FBECDBFDF91CF9141
:104AA0001F910F91FF90EF90DF90CF90BF90AF904C
:104AB0009F908F907F906F905F904F903F902F903E
:104AC00008952F923F924F925F926F927F928F92B2
:104AD0009F92AF92BF92CF92DF92EF92FF920F938D
:104AE0001F93CF93DF93CDB7DEB728970FB6F89417
:104AF000DEBF0FBECDBF98878F833B014A013C8349
:104B00002B831E830D835701EE24FF24EA18FB0834
:104B1000EE0CFF1CC9018E0D9F1D9A8389832B010A
:104B20004A0C5B1CAF81B885ED91FC911197028412
:104B3000F385E02D86019C01A401B201CD011995F8
:104B40002D803E80280C391CAF81B885ED91FC91F9
:104B50001197A101415051090284F385E02D29816B
:104B60003A81B201CD011995ED81FE81EE0EFF1E55
:104B70008A0C9B1CAF81B885ED91FC911197008444
:104B8000F185E02D9701A401B301CD011995EB81C9
:104B9000FC816E0E7F1EAF81B885ED91FC9111975F
:104BA000B301615071090084F185E02D9701A401E2
:104BB000CD011995760101E09501A401B2018F8123
:104BC0009885AEDD6A187B08B1E06B1A710802E0C7
:104BD0009501A401B3018F819885A2DD41018A1856
:104BE0009B08E1E08E1A910804E09501A401B3014D
:104BF0008F81988595DD08E09501A401B2018F8130
:104C000098858EDD28960FB6F894DEBF0FBECDBF17
:104C1000DF91CF911F910F91FF90EF90DF90CF9098
:104C2000BF90AF909F908F907F906F905F904F90CC
:104C30003F902F9008952F923F924F925F926F92E4
:104C40007F928F929F92AF92BF92CF92DF92EF921C
:104C5000FF920F931F93CF93DF9300D000D0CDB777
:104C6000DEB75C017A8369833A013C832B83480178
:104C7000FE82ED8226016701D194C194D108CC0C4B
:104C8000DD1C1B012E0C3F1CD501ED91FC912C0D60
:104C90003D1D0684F785E02D7201B101C50119950E
:104CA0008C0C9D1CB1E08B1A9108ED81FE816E0E7B
:104CB0007F1E69817A818B819C81680F791F6E1BB1
:104CC0007F0B615071096201740101E09F01A30132
:104CD000C50122DE02E02D813E81A301B101C501A3
:104CE0001BDE26960FB6F894DEBF0FBECDBFDF9158
:104CF000CF911F910F91FF90EF90DF90CF90BF90D9
:104D0000AF909F908F907F906F905F904F903F906B
:104D10002F9008952F923F924F925F926F927F92C1
:104D20008F929F92AF92BF92CF92DF92EF92FF92BB
:104D30000F931F93CF93DF93CDB7DEB72C970FB6AA
:104D4000F894DEBF0FBECDBF9C878B873A011887D2
:104D50000F83FA86E986CD82DC0118968D919C91AD
:104D60001997681779070CF09EC01A968D919C913F
:104D70001B97481759070CF096C08C2C912CCB012F
:104D8000B6E0CB9E800D911D1124181619060CF06B
:104D90008AC0C401E3E0880F991FEA95E1F7840F08
:104DA000951F181619060CF07EC0AB85BC8557966A
:104DB0008C91811103C0203B08F02F5F5B016B01D8
:104DC0001C825AE1452E51E0552E461A570AB5E08D
:104DD0002B9F400C511C1124EC81E53031F0F20185
:104DE000EA0DFB1D24912B8301C01B827A8269820C
:104DF00013011E823B8130FF13C0AB85BC85ED9152
:104E0000FC91BD81B13031F40480F581E02D2F811A
:104E1000388519C00684F785E02DEF80F8841EC020
:104E2000E985FA852F813885E217F307F9F0AB851C
:104E3000BC85ED91FC91BD81B13059F40480F581C0
:104E4000E02D29853A85A101B5018B859C851995B1
:104E50000DC00684F785E02DE984FA84840194016D
:104E600049815A81B6018B859C851995EB81E69520
:104E7000EB83FE81FF5FFE8329813A81280D391D76
:104E80003A8329833FEF231A330AF83009F0B2CF6F
:104E90004C814F5F4C83C80CD91C8FEFA81AB80AFD
:104EA000463009F099CF2C960FB6F894DEBF0FBEAE
:104EB000CDBFDF91CF911F910F91FF90EF90DF90C9
:104EC000CF90BF90AF909F908F907F906F905F90AA
:104ED0004F903F902F900895CF92EF92FF920F93B3
:104EE0001F93CF93DF93EC01262F6A3049F42C896E
:104EF0008E859F8538E0239F800D911D112431C040
:104F00006D3099F1EA88FB88088919894E855F859B
:104F10006C857D85CC88FEDE2C89422F50E08C8507
:104F20009D8536E0239F800D911D11249D878C87E0
:104F30002E892223D1F06AEF64039001659F300D22
:104F4000112468857985260F371F281739076CF4D7
:104F5000F3E0440F551FFA95E1F78E859F85840F86
:104F6000951F9F878E871D861C8681E090E0DF91CC
:104F7000CF911F910F91FF90EF90CF900895FC017A
:104F800075876487578746870895611101C061E07E
:104F9000FC01648B0895FC01738B628B718B608BB9
:104FA0000895FC01718B608B538B428B0895FC013B
:104FB0006370658B8481958126813781613039F0FA
:104FC000633029F09187808733872287089531875E
:104FD0002087938782870895FC01808591850895B5
:104FE000FC01828593850895FC018DB188638DB99C
:104FF0009D9AA1E0B1E08C9188678C93158A158603
:1050000014861786168681E0848B8FEF9FEF918B35
:10501000808B80EF90E09187808780E491E0938798
:10502000828708959F92AF92BF92CF92DF92EF92C4
:10503000FF920F931F93CF93DF93EC01A62EF42ED4
:10504000B22E902E40E451E060EF70E04ADB8CEF2E
:1050500092E099838883EBA66A2D70E0FB01E65706
:10506000F44FE491F0E0EE0FFF1FE651F44FA591ED
:10507000B491BC8FAB8F4F2D50E0FA01E657F44F3F
:10508000E491F0E0EE0FFF1FE651F44F859194910B
:105090009E8F8D8F2B2D30E0F901E657F44FE49170
:1050A000F0E0EE0FFF1FE651F44F8591949198A325
:1050B0008F8F10E0F801E657F44FE491F0E0EE0F27
:1050C000FF1FE651F44FC590D490DAA2C9A2FB01AC
:1050D000EC5BF44F64916BA3FA01EC5BF44F4491E9
:1050E0004CA3F901EC5BF44F24912DA3F801EC5B88
:1050F000F44F04910EA39BA1892F80958FA38CA1BF
:10510000809588A78DA1809589A700950AA78C9185
:10511000892B8C93ED8DFE8D80819CA1892B8083C2
:10512000EF8DF8A180819DA1892B8083E9A1FAA14F
:1051300080819EA1892B808361E08A2D0E94F86E78
:1051400061E08F2D0E94F86E61E08B2D0E94F86E59
:1051500061E0892D0E94F86EEE2041F061E08E2D15
:105160000E94316F61E08E2D0E94F86ECE01DF91BA
:10517000CF911F910F91FF90EF90DF90CF90BF9054
:10518000AF909F9031CFCF93DF93EC01EB8DFC8DEF
:1051900080819BA1892B8083EF8DF8A180819DA1C7
:1051A000892B8083E9A1FAA180819EA1892B80832C
:1051B0008BA5882369F060E00E94316F62E070E0A7
:1051C00080E090E00E94EE6D61E08BA50E94316F5F
:1051D000EB8DFC8D80819FA189238083ED8DFE8DD9
:1051E000808198A5892380838EB18F7C8EB9739836
:1051F000A59880910201877E80930201809102012F
:105200008F7980930201EF8DF8A1808199A5892380
:105210008083EF8DF8A180819DA1892B808383E01D
:10522000EF8DF8A1908129A592239083EF8DF8A1AD
:1052300090812DA1922B9083815091F7EB8DFC8D65
:1052400080819BA1892B8083DF91CF910895CF939B
:10525000DF93FC01A38DB48D8C9197A189238C934E
:1052600080859185A58DB68D2C9130A523232C9317
:105270002EB12F7C20612EB97398A598A2E0B1E0E1
:105280002C91277E2C932C912F792C93C78DD0A114
:10529000288131A523232883C78DD0A1288135A15A
:1052A000232B2883C58DD68D288134A1232B2883D9
:1052B0006EB19C0121503109232F3327A901440FDE
:1052C000551F440F551F40736F7C462B4EB99EB13E
:1052D000A90155954795559547954870977F492B56
:1052E0004EB994B3A901440F551F40729F7D492BBD
:1052F00044BB9C91A90163E0559547956A95E1F7F8
:105300004871977E492B4C939C9175E0220F331F77
:105310007A95E1F720769F79292B2C93C78DD0A120
:10532000988121A592239883C78DD0A1988125A12A
:10533000922B9883C58DD68D988120A59223988332
:105340009EB19F7C90619EB97398A5989C91977E21
:105350009C939C919F7990629C93C78DD0A19881DA
:1053600021A592239883C78DD0A1988125A1922B46
:105370009883C58DD68D988124A1922B98834EB1A8
:10538000815090E09C01220F331F220F331F2073A6
:105390004F7C242B2EB94EB19C0135952795359520
:1053A00027952870477F242B2EB944B39C01220FE8
:1053B000331F20724F7D242B24BB4C919C0163E052
:1053C000359527956A95E1F72871477E242B2C9314
:1053D0002C9175E0880F991F7A95E1F780762F79E7
:1053E000822B8C93C78DD0A1888191A58923888336
:1053F000C78DD0A1888195A1892B888382859385CB
:10540000C58DD68D288130A5232328832EB12F7CEE
:1054100020622EB97398A5982C91277E2C932C91FD
:105420002F792C93C78DD0A1288131A523232883E0
:10543000C78DD0A1288135A1232B2883C58DD68D7A
:10544000288134A1232B28836EB19C01215031097E
:10545000232F3327A901440F551F440F551F4073B5
:105460006F7C462B4EB99EB1A90155954795559530
:1054700047954870977F492B4EB994B3A901440FC3
:10548000551F40729F7D492B44BB9C91A901C3E0ED
:1054900055954795CA95E1F74871977E492B4C93EE
:1054A0009C91D5E0220F331FDA95E1F720769F79A2
:1054B000292B2C93C78DD0A1988121A59223988365
:1054C000C78DD0A1988125A1922B9883C58DD68DAB
:1054D000988120A5922398839EB19F7C90629EB96B
:1054E0007398A5989C91977E9C939C919F799062CC
:1054F0009C93C78DD0A1988121A592239883C78DB5
:10550000D0A1988125A1922B9883C58DD68D9881A5
:1055100024A1922B98834EB1815090E09C01220FE0
:10552000331F220F331F20734F7C242B2EB94EB113
:105530009C0135952795359527952870477F242B15
:105540002EB944B39C01220F331F20724F7D242BB0
:1055500024BB4C919C01C3E035952795CA95E1F792
:105560002871477E242B2C932C91D5E0880F991F0E
:10557000DA95E1F780762F79822B8C93A78DB0A1F5
:105580008C9191A589238C93A78DB0A18C9195A125
:10559000892B8C93A38DB48D8C9193A1892B8C93A3
:1055A000DF91CF9108956F927F928F929F92AF92E9
:1055B000BF92CF92DF92EF92FF920F931F93CF9300
:1055C000DF93FC01772EA62EA38DB48D8C9197A12D
:1055D00089238C93A58DB68D8C9190A589238C936E
:1055E000828D823001F181111CC08EB18F7C8EB909
:1055F0007398A59880910201877E80930201809123
:1056000002018F7980930201A78DB0A18C9191A5A1
:1056100089238C93A78DB0A18C9195A1892B8C9314
:1056200010C0833071F48EB180638EB9739AA598DF
:1056300080910201877E80930201809102018F791F
:105640000EC08EB18F7C8EB9739AA598809102019D
:10565000877E80930201809102018F79806480931C
:105660000201A78DB0A18C9191A589238C93A78D60
:10567000B0A18C9195A1892B8C93A58DB68D8C9121
:1056800094A1892B8C93AEB1C72F90E0D92FCE0176
:10569000880F991F880F991FB82FB073BB2EAF7C4E
:1056A000AB2BAEB9AEB1CE01959587959595879503
:1056B000B82FB870CB2EA77FAB2BAEB9A4B3CE0159
:1056C000880F991FB82FB072DB2EAF7DAB2BA4BB18
:1056D000A0910201CE0113E0959587951A95E1F707
:1056E000B82FB8716B2EA77EAB2BA09302018091CF
:1056F000020105E0CC0FDD1F0A95E1F7C0768F7936
:105700008C2B80930201A78DB0A18C9191A5892348
:105710008C93A78DB0A18C9195A1892B8C93AEB160
:105720007727CB01880F991F880F991FD82FD07327
:10573000AF7CAD2BAEB9AEB1CB0195958795959564
:105740008795182F1870A77FA12BAEB9A4B3CB01F2
:10575000880F991F082F0072AF7DA02BA4BBA091CA
:105760000201CB01B3E095958795BA95E1F7B82F83
:10577000B871FB2EA77EAB2BA09302018091020192
:1057800095E0660F771F9A95E1F7962F9076E92EB0
:105790008F79892B80930201A78DB0A18C9191A55F
:1057A00089238C93A78DB0A18C9195A1892B8C9383
:1057B000BA01A9014150510961097109DB01CA010E
:1057C00026E0B695A795979587952A95D1F74C0130
:1057D00080E090E07A10BFC18816990609F466C08F
:1057E00020E1A78DB0A13C91C1A53C233C93A78D9E
:1057F000B0A13C91C5A13C2B3C93A78DB0A13C919D
:10580000C1A53C233C93A78DB0A13C91C5A13C2BE5
:105810003C93A78DB0A13C91C1A53C233C93A78D9F
:10582000B0A13C91C5A13C2B3C93A78DB0A13C916C
:10583000C1A53C233C93A78DB0A13C91C5A13C2BB5
:105840003C93A78DB0A13C91C1A53C233C93A78D6F
:10585000B0A13C91C5A13C2B3C93A78DB0A13C913C
:10586000C1A53C233C93A78DB0A13C91C5A13C2B85
:105870003C93A78DB0A13C91C1A53C233C93A78D3F
:10588000B0A13C91C5A13C2B3C93A78DB0A13C910C
:10589000C1A53C233C93A78DB0A13C91C5A13C2B55
:1058A0003C93215009F09DCF019696CF4F73415004
:1058B000C8F0A78DB0A18C9191A589238C93A78D59
:1058C000B0A18C9195A1892B8C93A78DB0A18C91BF
:1058D00091A589238C93A78DB0A18C9195A1892B3B
:1058E0008C93E5CFA38DB48D8C9193A1892B8C9350
:1058F000DF91CF911F910F91FF90EF90DF90CF90AC
:10590000BF90AF909F908F907F906F900895AEB1B1
:10591000AF7CAB29AEB9AEB1A77FAC29AEB9A4B309
:10592000AF7DAD29A4BBA0910201A77EA629A093BB
:105930000201A0910201AF79AC2BA0930201A78DC7
:10594000B0A1AC9071A4A720AC92A78DB0A1AC90EF
:1059500075A0A728AC92AEB1AF7CAD2BAEB9AEB1FD
:10596000A77FA12BAEB9A4B3AF7DA02BA4BBA09100
:105970000201A77EAF29A0930201A0910201AF7995
:10598000AE29A0930201A78DB0A1AC9071A4A7206D
:10599000AC92A78DB0A1AC9075A0A728AC92AEB187
:1059A000AF7CAB29AEB9AEB1A77FAC29AEB9A4B379
:1059B000AF7DAD29A4BBA0910201A77EA629A0932B
:1059C0000201A0910201AF79AC2BA0930201A78D37
:1059D000B0A1AC9071A4A720AC92A78DB0A1AC905F
:1059E00075A0A728AC92AEB1AF7CAD2BAEB9AEB16D
:1059F000A77FA12BAEB9A4B3AF7DA02BA4BBA09170
:105A00000201A77EAF29A0930201A0910201AF7904
:105A1000AE29A0930201A78DB0A1AC9071A4A720DC
:105A2000AC92A78DB0A1AC9075A0A728AC92AEB1F6
:105A3000AF7CAB29AEB9AEB1A77FAC29AEB9A4B3E8
:105A4000AF7DAD29A4BBA0910201A77EA629A0939A
:105A50000201A0910201AF79AC2BA0930201A78DA6
:105A6000B0A1AC9071A4A720AC92A78DB0A1AC90CE
:105A700075A0A728AC92AEB1AF7CAD2BAEB9AEB1DC
:105A8000A77FA12BAEB9A4B3AF7DA02BA4BBA091DF
:105A90000201A77EAF29A0930201A0910201AF7974
:105AA000AE29A0930201A78DB0A1AC9071A4A7204C
:105AB000AC92A78DB0A1AC9075A0A728AC92AEB166
:105AC000AF7CAB29AEB9AEB1A77FAC29AEB9A4B358
:105AD000AF7DAD29A4BBA0910201A77EA629A0930A
