:1000000022C3000051C300004FC300004DC30000D5
:100010004BC3000049C3000047C3000045C30000B4
:1000200043C3000041C300003FC300003DC30000C4
:100030003BC3000039C3000037C3000035C30000D4
:1000400033C3000031C300002FC300002DC30000E4
:100050002BC3000029C3000027C300000C94290D06
:1000600023C300000C9475100C94AB101DC300004A
:100070001BC3000019C3000017C3000015C3000014
:1000800013C3000011C300000FC300000DC3000024
:100090000BC3000009C3000007C3000005C3000034
:1000A00003C3000001C30000FFC20000FDC2000046
:1000B000FBC20000F9C20000F7C20000F5C2000058
:1000C000F3C20000F1C20000EFC20000EDC2000068
:1000D000EBC20000E9C20000E7C20000E5C2000078
:1000E000E3C200008D0C8D0C7B0C7B0C7B0C8A0C0E
:1000F0008D0C8D0C350E380E270E2B0E310E6F0E1B
:100100003C0E400E460E4A0E4E0E540E580E5C0E1D
:100110006F0E620E660E6A0E200020300020200056
:1001200020002020004D49464152455F52656164E0
:100130002829206661696C65643A20005061676512
:100140002020302020312020322020330020416424
:10015000723D3078002056616C75653D3078002026
:10016000496E76657274656420616363657373209C
:100170006269747320646964206E6F74206D6174A9
:100180006368212000205D200020002000205B20EB
:1001900000200020002030004D49464152455F526A
:1001A0006561642829206661696C65643A200050A5
:1001B00043445F41757468656E7469636174652852
:1001C00029206661696C65643A20002020002000C7
:1001D000202000202020002020202020202000207F
:1001E00020200020200020202000536563746F72BF
:1001F00020426C6F636B2020203020203120203281
:100200002020332020203420203520203620203785
:100210002020203820203920313020313120203159
:100220003220313320313420313520204163636561
:100230007373426974730044756D70696E67206DE5
:10024000656D6F727920636F6E74656E7473206E66
:100250006F7420696D706C656D656E746564206681
:100260006F72207468617420504943432074797020
:10027000652E005049434320747970653A20002070
:100280000020300043617264205549443A005741D0
:10029000524E494E473A20436F6D6D756E696361EA
:1002A00074696F6E206661696C7572652C20697364
:1002B00020746865204D4652433532322070726F8B
:1002C0007065726C7920636F6E6E65637465643FF0
:1002D00000203D2028756E6B6E6F776E2900203DE3
:1002E0002076322E3000203D2076312E3000203D09
:1002F0002076302E3000203D2028636C6F6E6529FB
:10030000004669726D776172652056657273696F18
:100310006E3A20307800556E6B6E6F776E20747970
:1003200070650053414B20696E6469636174657345
:1003300020554944206973206E6F7420636F6D707F
:100340006C6574652E004D494641524520544E500F
:1003500033585858004D494641524520506C7573EA
:10036000004D494641524520556C7472616C696775
:100370006874206F7220556C7472616C6967687460
:100380002043004D494641524520344B42004D49DF
:100390004641524520314B42004D4946415245208D
:1003A0004D696E692C203332302062797465730098
:1003B0005049434320636F6D706C69616E742077A0
:1003C0006974682049534F2F4945432031383039EB
:1003D0003220284E464329005049434320636F6D25
:1003E000706C69616E7420776974682049534F2F6F
:1003F0004945432031343434332D3400556E6B6E0F
:100400006F776E206572726F720041204D494641D0
:100410005245205049434320726573706F6E646586
:10042000642077697468204E414B2E005468652023
:100430004352435F4120646F6573206E6F74206D7B
:10044000617463682E00496E76616C696420617224
:1004500067756D656E742E00496E7465726E616CA1
:10046000206572726F7220696E2074686520636FF8
:1004700064652E2053686F756C64206E6F742068FD
:10048000617070656E2E004120627566666572202F
:100490006973206E6F742062696720656E6F75677F
:1004A000682E0054696D656F757420696E20636FE6
:1004B0006D6D756E69636174696F6E2E00436F6C4C
:1004C0006C697373696F6E206465746563746564C9
:1004D0002E004572726F7220696E20636F6D6D75AC
:1004E0006E69636174696F6E2E0053756363657323
:1004F000732E005363616E205049434320746F2074
:10050000736565205549442C20747970652C2061F1
:100510006E64206461746120626C6F636B732E2E55
:100520002E0000000A0B02090C0D0E08070304013F
:1005300000000000000000000000000000000000BB
:100540000000000000000000000000000000121188
:10055000100000000000000000000000000000008B
:100560000000000000000000010210202008081018
:100570002040102040800201020108040201010213
:1005800004081020408080402010080402018004EC
:100590000201804020100804020108040201010247
:1005A0000408102040800102040810204080050546
:1005B0000505070508080808020202020A0A0808D9
:1005C0000404040401010101010101010303030307
:1005D00003030303040707070C0C0C0C0C0C0C0C96
:1005E0000202020206060606060606060B0B0B0BA7
:1005F0000B0B0B0B000020002300260029002C0011
:100600002F00320000010000030106010901000073
:100610002200250028002B002E00310034000201AA
:100620000000050108010B01000021002400270043
:100630002A002D00300033000101000004010701F1
:100640000A01230DDD1011241FBECFEFD1E2DEBF62
:10065000CDBF00E00CBF12E0A0E0B2E0EAEBF5E2B3
:1006600000E00BBF02C007900D92A435B107D9F787
:1006700023E0A4E5B2E001C01D92AC30B207E1F77F
:1006800016E0C6E4D6E000E006C022970109FE01AC
:100690000BBF0E94B712C234D10780E00807A9F748
:1006A0000E9421110C94DB12ABCC20915602222324
:1006B00099F03FB7F89420915602213059F42DB3A8
:1006C000209354024DB320915502209524232DBB35
:1006D0003FBF02C0309354028CBD9DBD08958EBDB6
:1006E00000000DB407FEFDCF8EB50895809156022F
:1006F000882361F09FB7F8942091560280915402AC
:10070000213019F48DBB9FBF08958FBF08957F924C
:100710008F929F92AF92BF92CF92DF92EF92FF9211
:100720000F931F93CF93DF936C01162F942EE90143
:100730001E77106883E590E0B8DF60E0F6018485FD
:100740000E94A90E9A94812FCADF7C2EEC2EFD2EDA
:10075000AA24A394B12C8E2D8719891518F581111F
:1007600019C00023B9F0802F812C883048F49501FE
:10077000082E01C0220F0A94EAF7822A8F5FF5CF74
:10078000812FADDF982D9095288192238821982B79
:10079000988304C0812FA3DFF7018083FFEFEF1A56
:1007A000FF0AD9CFC90DD11D80E099DF888361E0B0
:1007B000F60184850E94A90EDF91CF911F910F91C0
:1007C000FF90EF90DF90CF90BF90AF909F908F9071
:1007D0007F908CCFFC01648745870895EF92FF924C
:1007E0001F93CF93DF931F92CDB7DEB77C01162FF7
:1007F00083E590E0498359DF60E0F70184850E943A
:10080000A90E812F8E776BDF4981842F68DF61E02D
:10081000F70184850E94A90E0F90DF91CF911F915F
:10082000FF90EF9063CFCF92DF92EF92FF920F9302
:100830001F93CF93DF931F921F92CDB7DEB78C012A
:10084000E62EF42E83E590E029833A832EDF60E0E4
:10085000F80184850E94A90E8E2D8E7740DF2981B4
:10086000E22EC22E3A81D32E8C2D8E198F1528F4AC
:10087000F60181916F0133DFF7CF61E0F8018485E4
:100880000E94A90E0F900F90DF91CF911F910F91B1
:10089000FF90EF90DF90CF9029CF1F93CF93DF93FE
:1008A000EC01162F83E590E000DF60E08C850E946C
:1008B000A90E812F8E77806812DF80E010DF182F5D
:1008C00061E08C850E94A90E11DF812FDF91CF910D
:1008D0001F9108950F9341111ADF0F910895EF9220
:1008E000FF921F93CF93DF931F92CDB7DEB77C01AA
:1008F000162F4983D2DF4981482B612FC7010F9002
:10090000DF91CF911F91FF90EF9068CFEF92FF9210
:100910001F93CF93DF931F92CDB7DEB77C01162FC5
:100920004983BBDF498140954823612FC7010F9060
:10093000DF91CF911F91FF90EF9050CFDF92EF9218
:10094000FF920F931F93CF93DF93EC018B01D42E73
:10095000790140E062E042DF44E06AE0CE013EDF40
:1009600040E864E1CE01BBDF98014D2D62E1CE018C
:100970005ADF43E062E0CE0131DF08E813E16AE0CC
:10098000CE018BDF82FD06C001501109C1F783E063
:1009900090E010C040E062E0CE0120DF64E4CE01D0
:1009A0007CDFF701808362E4CE0177DFF70181838A
:1009B00080E090E0DF91CF911F910F91FF90EF9039
:1009C000DF900895CF93DF93EC014FE062E006DF04
:1009D00062E370E080E090E00E94960D62E0CE015C
:1009E0005CDF84FDFBCFDF91CF910895CF93DF9340
:1009F000EC0168E252DF982F9370933039F0482F62
:100A0000436068E2CE01DF91CF91E8CEDF91CF91D4
:100A10000895CF93DF93EC0161E08C850E94700E06
:100A200061E08C850E94A90E61E08D850E94700EA8
:100A30008D850E94DE0E892B59F461E08D850E9420
:100A4000A90E62E370E080E090E00E94960D02C083
:100A5000CE01B8DF40E864E5CE01C0DE49EA66E5D4
:100A6000CE01BCDE43E068E5CE01B8DE48EE6AE5C3
:100A7000CE01B4DE40E46AE2CE01B0DE4DE362E2D4
:100A8000CE01ACDECE01DF91CF91B0CF2F923F925D
:100A90005F926F927F928F929F92AF92BF92CF920E
:100AA000DF92EF92FF920F931F93CF93DF9300D0CB
:100AB0001F92CDB7DEB73C01962E542E302E082D56
:100AC000A114B10419F0F501408101C040E0242EC9
:100AD000F0E10F9F200C112440E062E0C3012B8362
:100AE0003C837CDE4FE768E0C30178DE40E864E1E8
:100AF000C301F5DE2B813C81432D62E1C30193DE0E
:100B0000422D6AE1C3016ADE492D62E0C30166DE5F
:100B10008CE0981204C040E86AE1C301E0DE90ED89
:100B2000292E97E0392E68E0C301B7DE982F952172
:100B300039F480FD5DC0E1E02E1A3108A1F758C0FC
:100B40006CE0C301AADE982E837109F053C0E11452
:100B5000F104D9F0C114D104C1F064E1C3019DDEF8
:100B6000482FF6018081841708F446C0408397011E
:100B700062E1C301AFDE68E1C3018FDE182F177099
:100B8000A114B10411F0F501108393FC37C0E114F6
:100B9000F104B1F1C114D10499F1898D882381F157
:100BA000F6014081413019F4143019F41FC042306D
:100BB00010F487E026C01111FCCF42509E012F5F38
:100BC0003F4FB701C301BADE0097E1F4F60180811F
:100BD000E80EF11CF7013297908189819813E9CFD3
:100BE000319690818A819813E4CF0AC08FEF09C0B3
:100BF00083E007C081E005C084E003C082E001C05B
:100C000080E090E00F900F900F900F90DF91CF91C8
:100C10001F910F91FF90EF90DF90CF90BF90AF901A
:100C20009F908F907F906F905F903F902F9008954E
:100C30008F92AF92BF92CF92DF92EF92FF920F937B
:100C40001F93AF928C2C570168017901042F9B01EF
:100C500040E36CE01BDF0F901F910F91FF90EF902E
:100C6000DF90CF90BF90AF908F9008954F925F929A
:100C70006F927F928F929F92AF92CF92EF92FF925C
:100C80000F931F93CF93DF931F921F92CDB7DEB7C1
:100C90003C016A832A0149014115510521F1F901FD
:100CA0008081823000F140E86CE1C3012FDE87E0F3
:100CB0008983A12CC12CCE0101967C018401920173
:100CC00041E0BE016E5F7F4FC301B2DF009779F450
:100CD000F4018081823049F481E090E02981211182
:100CE00006C080E004C084E001C081E090E00F9085
:100CF0000F90DF91CF911F910F91FF90EF90CF90C8
:100D0000AF909F908F907F906F905F904F900895DD
:100D10009A01AB0166E2AACF2F923F924F925F9267
:100D20006F927F928F929F92AF92BF92CF92DF92FB
:100D3000EF92FF920F931F93CF93DF93CDB7DEB760
:100D40002D970FB6F894DEBF0FBECDBF3C012B012F
:100D5000B42E40E54B1508F4E1C040E86CE1D6DD67
:100D60002224239482E0281691F093E02916E1F0E2
:100D7000A1E02A12D7C083E98983BB20D1F041E0EA
:100D8000F2018081853008F440E0D12C17C085E95C
:100D90008983BB2081F041E0D2018C91883008F436
:100DA00040E073E0D72E0AC087E9898366E0D62E3B
:100DB00004C0D12C02C053E0D52E40E05B2DB8EF2B
:100DC000DB9E500D112457FD50E0442321F088E8AC
:100DD0008B8373E001C072E091E0852F877009F486
:100DE00090E0852F859585958595890F21F444237D
:100DF00011F1585F20C0442311F063E001C064E0AA
:100E0000861708F4682F80E090E092012D0D311DC7
:100E1000E72FE80FA1E0B0E0AC0FBD1FAE0FB11D92
:100E2000FD01D901A80FB91F1196AC91A0830196BD
:100E3000861770F3DCCF43E0342E50320CF453C0ED
:100E4000B0E7BA838C819B8189279D8189279E8108
:100E500089278F839E01285F3F4F47E0BE016F5F68
:100E60007F4FC3015D876ADD5D85009709F0A8C0EB
:100E70001B863A86FE0137964F0179E00BC0780F4A
:100E800088248394912C8C0E9D1E880E911C87E0E3
:100E9000821B8A87CB844C2D4295407F4C0D6AE1A2
:100EA000C3015D877C879ADCA12CCE010B967C0167
:100EB0008E01065F1F4F94017C85472FBE016F5F37
:100EC0007F4FC301B5DE5D858230910501F56CE190
:100ED000C301E3DC5D8585FD23C052301CF58B81A9
:100EE00082608B8352E0952F97709B87252F2595E5
:100EF0002595259582E0820F392FF0E18F9F300DE7
:100F000011243A8371E09111BACF70E0B8CF009705
:100F100009F056C0503294F450E292CF86E00CC0F3
:100F200082E00AC085E008C0F2018387822D880F25
:100F3000820D8F5F808380E090E042C08B81883893
:100F400019F052E044E002C053E043E080E090E05A
:100F500092012D0D311DF901E80FF91F652F680F62
:100F6000A1E0B0E0AC0FBD1FA60FB11D6C91618375
:100F70000196841780F38A858330F1F48B85811183
:100F80001BC09E012D5F3F4F41E0B401C301D6DC81
:100F90000097B1F49B81D40111968C91119798130D
:100FA0000DC09C8112968C911297981307C08C915A
:100FB00082FFBACF2394D6CE81E0BECF87E0BCCFEC
:100FC0002D960FB6F894DEBF0FBECDBFDF91CF9147
:100FD0001F910F91FF90EF90DF90CF90BF90AF9057
:100FE0009F908F907F906F905F904F903F902F9049
:100FF00008958F929F92AF92CF92EF92FF920F93AC
:101000001F93CF93DF9300D01F92CDB7DEB74C0173
:1010100080E589831A829E012D5F3F4F42E0BE0129
:101020006F5F7F4FC4018ADC0097B9F4A12CC12CFB
:10103000E12CF12C00E010E020E030E044E0BE01C3
:101040006F5F7F4FC401F4DD8330910521F000977D
:1010500021F481E001C080E090E00F900F900F90AC
:101060000F90DF91CF911F910F91FF90EF90CF9054
:10107000AF909F908F9008958F92AF92BF92CF9232
:10108000DF92EF92FF920F931F93CF93DF93CDB731
:10109000DEB72C970FB6F894DEBF0FBECDBFF801B8
:1010A00069834A8389019E012D5F3F4FAE01475FEF
:1010B0005F4FD8016D918D01D9016D939D01A417EA
:1010C000B507B9F72181298722812A8723812B87B8
:1010D00024812C871F92812CA12CB12CC12CD12CC6
:1010E000E12CF12C0CE09E012F5F3F4F40E16EE0C0
:1010F000CDDC0F902C960FB6F894DEBF0FBECDBF9F
:10110000DF91CF911F910F91FF90EF90DF90CF90E3
:10111000BF90AF908F90089548E060E1F7CB8F9239
:101120009F92AF92CF92EF92FF920F931F93CF9324
:10113000DF934C01EA0189012097D9F0F901808100
:101140008231B8F080E3888369839A012E5F3F4F34
:1011500042E0BE01C401F2DB009769F4AA24A39423
:10116000C12CE12CF12C9E0144E0BE01C40160DDE4
:1011700002C084E090E0DF91CF911F910F91FF902A
:10118000EF90CF90AF909F908F900895643071054D
:1011900019F194F46130710571F12CF4672B41F56C
:1011A0008AEE94E008956230710599F0633071051C
:1011B000F9F483EA94E008956630710599F07CF0C3
:1011C0006730710591F06F3F710591F48AE094E00A
:1011D00008958DEB94E0089587E894E0089588E5FC
:1011E00094E0089586E494E008958CE294E00895F4
:1011F0008CEF93E0089582ED94E0089565307105D9
:1012000021F19CF46230710579F134F4613071059B
:1012100041F588ED93E008956330710599F06430ED
:101220007105F9F48EE893E008956730710599F03F
:101230007CF06830710591F06F3F710591F483E2A5
:1012400093E0089589E993E0089583E893E0089591
:1012500081E693E0089585E593E0089586E493E0C0
:10126000089586E193E0089580EB93E00895CF938D
:101270006EE613DBC82F61E073E08FE692E00E9418
:10128000691140E150E06C2F8FE692E00E946812F5
:10129000C03969F028F4C83881F466EF72E00FC0F5
:1012A000C13941F0C23949F46EED72E008C06EEE0A
:1012B00072E005C066EE72E002C061ED72E08FE69A
:1012C00092E00E94A711C150CE3F38F06EE872E064
:1012D0008FE692E0CF910C94A711CF9108952F92B1
:1012E0003F924F925F926F927F928F929F92AF92B6
:1012F000BF92CF92DF92EF92FF920F931F93CF9303
:10130000DF93CDB7DEB76B970FB6F894DEBF0FBE95
:10131000CDBF7C013B015B8F4A8F422E4FE14217CC
:1013200030F0222E220C220C54E0598F0CC067E2C0
:10133000621708F4AEC1222E2294E0EF2E2280E83C
:10134000280EE0E1E98F598C5A9433243394952C7C
:10135000920C3320A9F0F9E0F41518F066EE71E074
:1013600002C063EE71E08FE692E0B3D74AE050E04E
:10137000642D8FE692E00E9468126FED71E002C06A
:1013800067ED71E08FE692E0A4D749E0491518F0C7
:1013900063ED71E008C053E6591518F060ED71E097
:1013A00002C06EEC71E08FE692E093D74AE050E025
:1013B000692D8FE692E00E9468126BEC71E08FE677
:1013C00092E087D73320B9F083012A8D3B8D422DDF
:1013D00060E6C70151DE8C01009769F06FEA71E0A9
:1013E0008FE692E076D7B801C701D0DEBC018FE668
:1013F00092E0ADD74EC162E16F8B9E01295E3F4FF7
:10140000AE014F5F5F4F692DC70189DE8C010097E8
:1014100069F068E971E08FE692E05BD7B801C70137
:10142000B5DEBC018FE692E092D730C18E010F5F2E
:101430001F4FB12C4801F8018081803118F465E913
:1014400071E002C063E971E08FE692E042D70F5F7E
:101450001F4F40E150E0F40160818FE692E00E946E
:1014600068128B2D8370833029F461E971E08FE677
:1014700092E02FD7B394F0E1BF12DCCF332009F410
:1014800079C04885242F30E064E0359527956A952A
:10149000E1F7A985BA2FBF708A2F90E074E0959587
:1014A00087957A95E1F76F81E62FEF70F0E0E09590
:1014B000F095EF70FF272E173F07D1F4EB2FF0E0E8
:1014C00070E050EF652754E0769567955A95E1F7FF
:1014D000E617F70781F44F7050E0409550954F7034
:1014E000552761E0688F8417950739F4188E05C079
:1014F000E1E0E88F02C0F1E0F88F682F6170A0FB97
:10150000CC24C0F8D12CCC0CDD1C6C29A901417075
:101510005527440F551F440F551F642B6B8BA90192
:1015200042705527440F551F81FB552750F9452B15
:10153000B2704B2B4C8B4A2F447050E05595479519
:10154000522F5470542B82FB442740F9542B5D8B4F
:10155000287033273595279513E0969587951A952A
:10156000E1F7282BA870B0E0B595A795B595A7959C
:101570002A2B2E8B498D4430A9F0852D65E0AFD7FD
:10158000982E53E0851779F0282F30E0852D992784
:1015900087FD9095019665E070E0AED72617370776
:1015A00011F441C0952C6DE871E08FE692E091D680
:1015B000E3E1F0E0EC0FFD1FE90DF11D808082FA00
:1015C000662760F94AE050E070E08FE692E06DD760
:1015D0006BE871E08FE692E07CD681FA662760F9CD
:1015E0004AE050E070E08FE692E05FD769E871E092
:1015F0008FE692E06ED6682D61704AE050E070E0B0
:101600008FE692E052D765E871E08FE692E061D60E
:10161000888D882329F06FE571E08FE692E059D636
:1016200063E0961679F1E3E1F0E0EC0FFD1FE90DC0
:10163000F11D8081813011F0863021F52C818B8164
:1016400090E0A0E0B0E05C0199248824B22A89816E
:10165000882A8A81982A65E571E08FE692E039D67A
:1016600020E130E0B501A4018FE692E0D7D66DE429
:1016700071E08FE692E02DD640E150E06D858FE677
:1016800092E026D78FE692E050D6312C5A9457FE3E
:101690005ECE6B960FB6F894DEBF0FBECDBFDF9166
:1016A000CF911F910F91FF90EF90DF90CF90BF905F
:1016B000AF909F908F907F906F905F904F903F90F2
:1016C0002F900895DF92EF92FF920F931F93CF9385
:1016D000DF93EC018B0179014350510943305105EF
:1016E00058F0CE0186DCCE01DF91CF911F910F9192
:1016F000FF90EF90DF9010CDFA01E050FE4FD080C8
:10170000DD2079F36AEE71E08FE692E020D6DA947C
:10171000D7FCE7CF2D2DA701B801CE01E0DDF7CF33
:101720009F92AF92BF92CF92DF92EF92FF920F9370
:101730001F93CF93DF93CDB7DEB763970FB6F894BF
:10174000DEBF0FBECDBF8C016CE371E08FE692E08F
:10175000FED5D12CF2E1AF2EAB8A9E012D5E3F4F1C
:10176000AE014F5F5F4F6D2DC801D9DC7C01009742
:1017700069F065E271E08FE692E0ABD5B701C80190
:1017800005DDBC018FE692E0E2D54CC0C12CFC2CFB
:10179000FD0C89E08F1518F062E271E002C060E292
:1017A00071E08FE692E095D54AE050E06F2D8FE62C
:1017B00092E08ED66DE171E08FE692E08AD59C2CA6
:1017C000990C990CB12CEB2CE90CF12CE1E0F0E038
:1017D000EC0FFD1FEE0DFF1D8081803118F46AE1D2
:1017E00071E002C068E171E08FE692E072D5E1E05D
:1017F000F0E0EC0FFD1FEE0DFF1D40E150E06081B9
:101800008FE692E065D6B39484E0B812DCCF8FE621
:1018100092E08BD5C39484E0C812B9CFD80E80E192
:10182000D8129ACF63960FB6F894DEBF0FBECDBF25
:10183000DF91CF911F910F91FF90EF90DF90CF90AC
:10184000BF90AF909F900895BF92CF92DF92EF929A
:10185000FF920F931F93CF93DF9300D000D0CDB7AB
:10186000DEB78C017B0164E872E08FE692E031D54F
:10187000B12CD7018C91B816C8F46701CB0CD11CE0
:10188000D60111968C91803118F461E872E002C0A3
:101890006FE772E08FE692E01CD540E150E0F60180
:1018A00061818FE692E014D6B394E3CF8FE692E0A5
:1018B0003CD5D7011B96EC91EF77E13430F4F0E0A2
:1018C000ED5FFD4FC080D12C02C0C12CD12C63E74D
:1018D00072E08FE692E0FDD4B601C8018FDCBC0156
:1018E0008FE692E034D5F6013197E830F105D0F477
:1018F000EE58FF4F36C68FEF89838A838B838C83A4
:101900008D838E839E012F5F3F4FA601B701C801D3
:10191000D9DE08C0C80104DF05C067E372E08FE6C6
:1019200092E015D58FE692E000D5C80162DB2696DD
:101930000FB6F894DEBF0FBECDBFDF91CF911F91E0
:101940000F91FF90EF90DF90CF90BF900895CF93CD
:10195000DF9300D0CDB7DEB722E02B83AE014D5F21
:101960005F4FBE016F5F7F4FD3D9009731F021E009
:10197000029709F020E0822F01C081E00F900F90C4
:101980000F90DF91CF91089540E0BC01C5D921E0CF
:10199000892B09F020E0822F0895CF93CFB7F894D8
:1019A00080915702811123C0E3EEF5E08491EDE9C7
:1019B000F5E09491E82FF0E0EE0FFF1FE85DF94F9E
:1019C000A591B4918C91892319F461E085E3C1D18B
:1019D00061E085E385D18CB580618CBD8CB5806478
:1019E0008CBD61E084E37CD161E083E379D18091B7
:1019F00057028F5F80935702CFBFCF91089526E0A3
:101A000040E855E260E070E08FE692E00ED3C5DF7B
:101A100088E592E00E94090588E592E028DC63EF02
:101A200074E08FE692E093C488E592E090DF88232B
:101A300049F088E592E0A8DF882321F068E572E0AC
:101A4000CB0102CF089546E167E188E592E00C946E
:101A5000EA031F920F920FB60F9211242F933F9318
:101A60008F939F93AF93BF93809167029091680289
:101A7000A0916902B0916A023091660223E0230FBF
:101A80002D3720F40196A11DB11D05C026E8230FB6
:101A90000296A11DB11D2093660280936702909368
:101AA0006802A0936902B0936A0280916B029091E0
:101AB0006C02A0916D02B0916E020196A11DB11D44
:101AC00080936B0290936C02A0936D02B0936E02B0
:101AD000BF91AF919F918F913F912F910F900FBE2A
:101AE0000F901F9018953FB7F89480916B029091DA
:101AF0006C02A0916D02B0916E0226B5A89B05C044
:101B00002F3F19F00196A11DB11D3FBF6627782F09
:101B1000892F9A2F620F711D811D911D42E0660F62
:101B2000771F881F991F4A95D1F70895CF92DF92AA
:101B3000EF92FF92CF93DF936B017C01D4DFEB0137
:101B4000C114D104E104F10479F0C8D4CCDF6C1BDA
:101B50007D0B683E7340A0F381E0C81AD108E1080C
:101B6000F108C851DC4FECCFDF91CF91FF90EF909F
:101B7000DF90CF900895789484B5826084BD84B559
:101B8000816084BD85B5826085BD85B5816085BD78
:101B9000EEE6F0E0808181608083E1E8F0E0108291
:101BA000808182608083808181608083E0E8F0E0D2
:101BB000808181608083E1EBF0E0808184608083BC
:101BC000E0EBF0E0808181608083E1E9F0E08081FA
:101BD00082608083808181608083E0E9F0E08081A1
:101BE00081608083E1EAF0E080818260808380818F
:101BF00081608083E0EAF0E0808181608083E1E2BF
:101C0000F1E0808182608083808181608083E0E276
:101C1000F1E0808181608083EAE7F0E08081846088
:101C200080838081826080838081816080838081E5
:101C3000806880831092C100089590E0FC01319784
:101C4000E231F10508F04BC0E658FF4F8AC480919D
:101C500080008F7703C0809180008F7D809380000B
:101C6000089580918000877FF9CF84B58F7702C077
:101C700084B58F7D84BD08958091B0008F7703C0B7
:101C80008091B0008F7D8093B00008958091900086
:101C90008F7707C0809190008F7D03C08091900066
:101CA000877F8093900008958091A0008F7707C070
:101CB0008091A0008F7D03C08091A000877F8093DA
:101CC000A0000895809120018F7707C080912001A6
:101CD0008F7D03C080912001877F8093200108952C
:101CE000CF93DF9390E0FC01E859FA4F2491FC0177
:101CF000E255FA4F8491882349F190E0880F991FAB
:101D0000FC01E85DF94FA591B491825F994FFC0108
:101D1000C591D4919FB7611108C0F8948C9120951A
:101D200082238C93888182230AC0623051F4F89414
:101D30008C91322F309583238C938881822B8883DA
:101D400004C0F8948C91822B8C939FBFDF91CF912C
:101D500008950F931F93CF93DF931F92CDB7DEB7F4
:101D6000282F30E0F901EE5DFA4F8491F901E8592E
:101D7000FA4F1491F901E255FA4F04910023C1F092
:101D8000882319F0698359DF6981E02FF0E0EE0FB5
:101D9000FF1FE25FF94FA591B4919FB7F8948C9122
:101DA000611103C01095812301C0812B8C939FBFCB
:101DB0000F90DF91CF911F910F910895CF93DF93F3
:101DC000282F30E0F901EE5DFA4F8491F901E859CE
:101DD000FA4FD491F901E255FA4FC491CC2389F01E
:101DE00081112BDFEC2FF0E0EE0FFF1FEC50FA4FCC
:101DF000A591B4912C912D2381E090E021F480E015
:101E000002C080E090E0DF91CF910895FC01818DC8
:101E1000228D90E0805C9F4F821B91098F739927E0
:101E20000895FC01918D828D981731F0828DE80F15
:101E3000F11D858D90E008958FEF9FEF0895FC01CF
:101E4000918D828D981761F0828DDF01A80FB11DF1
:101E50005D968C91928D9F5F9F73928F90E0089515
:101E60008FEF9FEF089584ED90E1892B39F080E0AA
:101E700090E0892B19F098D1811125C080E090E085
:101E8000892B41F080E090E0892B21F00E94000036
:101E900081111CC080E090E0892B41F080E090E04F
:101EA000892B21F00E940000811113C080E090E096
:101EB000892BA1F080E090E0892B81F00E94000046
:101EC00081110AC008950E940000D8CF0E9400002E
:101ED000E1CF0E940000EACF0C9400000895FC01BD
:101EE000848DDF01A80FB11DA35ABF4F2C91848DA3
:101EF00090E001968F739927848FA689B7892C93D8
:101F0000A089B1898C9180648C93938D848D981372
:101F100006C00288F389E02D80818F7D808308953B
:101F2000CF93DF93EC01888D8823C1F0EA89FB8988
:101F3000808185FD05C0A889B9898C9186FD0EC078
:101F40000FB607FCF5CF808185FFF2CFA889B9894C
:101F50008C9185FFEDCFCE01C2DFE8CFDF91CF912D
:101F60000895CF92DF92FF920F931F93CF93DF9349
:101F70001F92CDB7DEB76C01DC015B969C915B973D
:101F80005C968C915C97981307C05096ED91FC91EC
:101F90005197808185FD31C0F601038D10E00F5F00
:101FA0001F4F0F731127F02EF601848DF81210C009
:101FB0000FB607FCF9CFD6015096ED91FC915197E1
:101FC000808185FFF1CFC601698389DF6981ECCF0C
:101FD000838DE80FF11DE35AFF4F6083D6015B96B6
:101FE0000C935B975296ED91FC91539780818062A0
:101FF000808381E058968C930DC0D6015696ED9162
:10200000FC91579760835096ED91FC915197808198
:102010008064808381E090E00F90DF91CF911F91E9
:102020000F91FF90DF90CF900895BF92CF92DF92F3
:10203000EF92FF92CF93DF93EC016A017B01B22E06
:10204000E889F98982E08083411581EE58076105AE
:10205000710599F060E079E08DE390E0A7019601C9
:102060005ED221503109410951095695479537955E
:102070002795211580E1380790F0E889F9891082C9
:1020800060E874E88EE190E0A701960148D2215003
:102090003109410951095695479537952795EC85A2
:1020A000FD853083EE85FF852083188EEC89FD89C0
:1020B000B082EA89FB89808180618083EA89FB891B
:1020C000808188608083EA89FB8980818068808341
:1020D000EA89FB8980818F7D8083DF91CF91FF909A
:1020E000EF90DF90CF90BF9008951F920F920FB6A0
:1020F0000F9211240BB60F922F938F939F93EF9310
:10210000FF93E0917F02F09180028081E09185024F
:10211000F091860282FD12C09081809188028F5FCB
:102120008F7320918902821751F0E0918802F0E0CC
:10213000E159FD4F958F8093880201C08081FF9106
:10214000EF919F918F912F910F900BBE0F900FBE2B
:102150000F901F9018951F920F920FB60F92112497
:102160000BB60F922F933F934F935F936F937F9391
:102170008F939F93AF93BF93EF93FF938FE692E07C
:10218000AEDEFF91EF91BF91AF919F918F917F91C3
:102190006F915F914F913F912F910F900BBE0F90D8
:1021A0000FBE0F901F9018958FE692E02FDE21E072
:1021B000892B09F420E0822F089510927202109268
:1021C000710288EE93E0A0E0B0E0809373029093F8
:1021D0007402A0937502B093760288E492E0909323
:1021E000700280936F0285EC90E090937C02809364
:1021F0007B0284EC90E090937E0280937D0280ECE1
:1022000090E09093800280937F0281EC90E0909325
:1022100082028093810282EC90E09093840280930A
:10222000830286EC90E09093860280938502109260
:1022300088021092890210928A0210928B020895ED
:10224000089599DCFDDFDBDBC3E3DFE0EDDB209706
:10225000E9F309DEFBCFCF92DF92EF92FF920F936B
:102260001F93CF93DF936C017A01EB01E60EF71E0B
:1022700000E010E0CE15DF0561F06991D601ED9127
:10228000FC910190F081E02DC6011995080F191FEE
:10229000F1CFC801DF91CF911F910F91FF90EF9087
:1022A000DF90CF9008956115710581F0DB010D90ED
:1022B0000020E9F7AD0141505109461B570BDC01E5
:1022C000ED91FC910280F381E02D199480E090E083
:1022D0000895EF92FF920F931F93CF93DF938C019A
:1022E000FB01C0E0D0E064917F018FEFE81AF80AAB
:1022F000662361F0D801ED91FC910190F081E02D11
:10230000C8011995C80FD91FF701EDCFCE01DF9194
:10231000CF911F910F91FF90EF900895DC01ED9107
:10232000FC910190F081E02D19940F931F93CF93AE
:10233000DF93EC016DE0F2DF8C016AE0CE01EEDFAD
:10234000800F911FDF91CF911F910F9108950F93EF
:102350001F93CF93DF93EC01BCDF8C01CE01E5DF4F
:10236000800F911FDF91CF911F910F9108958F9250
:102370009F92AF92BF92CF92DF92EF92FF920F9314
:102380001F93CF93DF93CDB7DEB7A1970FB6F89425
:10239000DEBF0FBECDBF7C01C42EE52FCB01D22EF8
:1023A00019A221E02D1510F02AE0D22E8E010F5D2A
:1023B0001F4F8D2C912CA12CB12C6C2D7E2FA501A3
:1023C0009401ADD08C2DD29E801911240150110999
:1023D0008A3014F4805D01C0895CF8018083211586
:1023E00031054105510521F0C22EE32FCA01E5CF89
:1023F000B801C70158DFA1960FB6F894DEBF0FBE33
:10240000CDBFDF91CF911F910F91FF90EF90DF90A3
:10241000CF90BF90AF909F908F900895CF92DF9212
:10242000EF92FF920F931F93CF93DF93EC016A011A
:102430007B012115310579F4E881F9810190F08162
:10244000E02D642FDF91CF911F910F91FF90EF90BE
:10245000DF90CF9019942A303105D9F477FF18C056
:102460006DE25CDF8C0144275527BA014C195D09E8
:102470006E097F092AE0CE017ADF800F911FDF917C
:10248000CF911F910F91FF90EF90DF90CF90089523
:102490002AE0B701A601CE01DF91CF911F910F91E4
:1024A000FF90EF90DF90CF9062CF9A01AB0166274B
:1024B00057FD6095762FB2CF2115310541F4DC012F
:1024C000ED91FC910190F081E02D642F19944FCF94
:1024D0009A01462F50E060E070E0EECF089587FB50
:1024E000082E062687FD819567FD619544D00EF480
:1024F000919507FC8195089597FB072E16F400949B
:1025000006D077FD08D043D007FC05D03EF4909567
:1025100081959F4F0895709561957F4F0895A1E231
:102520001A2EAA1BBB1BFD010DC0AA1FBB1FEE1F4D
:10253000FF1FA217B307E407F50720F0A21BB30B98
:10254000E40BF50B661F771F881F991F1A9469F714
:1025500060957095809590959B01AC01BD01CF0170
:102560000895EE0FFF1F0590F491E02D1994079048
:10257000F691E02D1994991B79E004C0991F9617E4
:1025800008F0961B881F7A95C9F780950895AA1BB5
:10259000BB1B51E107C0AA1FBB1FA617B70710F04E
:1025A000A61BB70B881F991F5A95A9F78095909580
:0A25B000BC01CD010895F894FFCF9F
:1025BA0005102806080000FF0000000403000000C0
:1025CA0000000007070000000000000500000000EE
:1025DA0000000001000000000000000000000000F0
:1025EA0000000000000000000000000000000000E1
:1025FA000000000200000000B10F2B11060F1F0F90
:04260A00110F900F0D
:00000001FF
